:1000000000000320CDC40000D5C40000D5C400000A
:10001000D5C40000D5C40000D5C400000000000015
:100020000000000000000000000000005976000001
:10003000D5C40000000000000176000053620000FB
:10004000D5C40000D5C40000D5C40000D5C400004C
:10005000D5C40000D5C40000D5C40000D5C400003C
:10006000D5C40000D5C40000D5C40000D5C400002C
:10007000D5C40000D5C40000D5C40000D5C400001C
:10008000D5C40000D5C40000D5C40000D5C400000C
:10009000D5C40000D5C40000D5C40000D5C40000FC
:1000A000D5C40000D5C40000D5C40000D5C40000EC
:1000B000D5C40000D5C40000D5C40000D5C40000DC
:1000C000D5C40000D5C40000D5C40000D5C40000CC
:1000D000D5C40000D5C40000D5C40000D5C40000BC
:1000E000D5C40000D5C400000000000000000000DE
:1000F0000000000085C20000CDA40000D7A40000CD
:10010000E1A40000EBA40000D5C40000D5C40000A9
:10011000D5C40000D5C40000A5A40000AFA4000011
:10012000B9A40000C3A40000D5C40000D5C40000D9
:10013000D5C40000D5C400007DA4000087A4000041
:1001400091A400009BA40000F5A40000FFA40000FF
:1001500009A5000013A50000D5C40000D5C4000007
:10016000D5C40000D5C400001DA5000027A50000CF
:1001700031A500003BA500000000000000000000C9
:10018000991B0000A11B0000A91B0000B11B00006F
:1001900000000000D5C40000D5C40000D5C4000094
:1001A000D5C40000D5C40000D5C40000D5C40000EB
:1001B000D5C40000D5C40000D5C40000D5C40000DB
:1001C000D5C40000D5C40000D5C40000D5C40000CB
:1001D000D5C40000D5C40000D5C40000D5C40000BB
:1001E000D5C40000D5C40000D5C40000D5C40000AB
:1001F000D5C40000D5C40000D5C40000D5C400009B
:10020000D5C40000D5C40000D5C40000D5C400008A
:10021000D5C40000D5C40000D5C40000D5C400007A
:10022000D5C40000D5C40000D5C40000D5C400006A
:10023000D5C40000D5C40000D5C40000D5C400005A
:10024000D5C40000D5C40000D5C40000D5C400004A
:10025000D5C40000D5C40000D5C40000D5C400003A
:10026000D5C4000000B200280AD4012210F01F01FA
:100270008A40DFF8BC1C00B203005B0941F8232070
:10028000704710B40300C9B2142404FB01F41C44E9
:10029000246C2000104010BC704702001369180045
:1002A0000840704790F82020110011F00101C9B2F8
:1002B000002901D0012000E00020C0B27047827800
:1002C0000A42FCD170478078084201D0012000E04A
:1002D0000020C0B2704710B40300C9B24C011C44E6
:1002E00094F8074120001040C0B210BC7047C9B25A
:1002F0004901084490F807017047C9B24B01034413
:1003000083F807217047C9B24B01034483F80521E4
:100310007047C9B24901084490F806017047C9B254
:100320004B01034483F8042170471022C9B24B01EA
:10033000034483F808217047C9B24B01034483F892
:1003400009217047C9B24B01034483F80821704763
:100350000200C9B24B01134493F80031180010F0A9
:100360000700C0B270470200C9B24B01134493F8B2
:1003700000311800C0F30210C0B27047C9B24B017F
:10038000034483F800217047C9B24901084490F83A
:1003900000017047808B70478183704701837047ED
:1003A000008B7047818270470200937818000840E4
:1003B000C0B2704710B50400207810F0FD00207026
:1003C00003212000FFF77BFF10BD70B504000D0076
:1003D00003212000FFF773FF207806002E40300035
:1003E000C0B270BD38B504000D0025700321200097
:1003F000FFF765FF31BD10B5040003212000FFF7B2
:100400005EFF207810BD02894FF6FE710A4002811E
:1004100070470181704781727047416270470200E6
:100420000020704730B45FF08244DFF86C0C007835
:1004300010F01F00DFF8601C0968C1F34412DFF8F8
:10044000581C0968C1F38221002801D01F2801D15E
:1004500009231800002A01D01F2A01D119231A00EC
:10046000002901D0072901D106231900850115F4BF
:10047000F86512F01F031D430B0313F4E0431D4303
:100480002585E37853F00303E370E37853F00C031E
:10049000E37030BC704780B503220021DFF8FC0B0D
:1004A000FFF7EFFE0328F7D101BD80B5DFF8EC0BB5
:1004B000FFF7F8FE002809D04FF41061DFF8DC0BDD
:1004C000FFF7EBFEB0F5106FF6D108E04FF4807146
:1004D000DFF8C80BFFF7E1FEB0F5807FF6D101BD74
:1004E00010B50400E4B2002C02D1FFF7DEFF04E0F7
:1004F000E4B2012C01D1FFF7CEFF10BD38B50400E6
:100500000D002A00D2B22100C9B25FF08240FFF78D
:10051000F4FE31BD38B504000D002A00D2B221002E
:10052000C9B25FF08240FFF707FF31BD38B5040064
:100530000D002A00D2B22100C9B25FF08240FFF75D
:1005400001FF31BD80B50100C9B25FF08240FFF705
:100550001BFF112801D1012000E00020C0B202BD24
:1005600070B505000E001400E4B2002C09D0102272
:10057000B240D2B22900C9B25FF08240FFF7C3FE99
:1005800008E01022B240D2B22900C9B25FF0824026
:10059000FFF7C5FE70BD10B50C005FF08242010090
:1005A000C9B21000FFF7B5FE102111FA04F4204281
:1005B00001D0012000E00020C0B210BD10B50C0039
:1005C0005FF082420100C9B21000FFF790FE2021C7
:1005D00011FA04F4204201D0012000E00020C0B252
:1005E00010BD38B504000D002021A9402000C0B284
:1005F000FFF784FF31BD70B505000E001400E4B2B2
:10060000002C06D02021B1402800C0B2FFF782FFA5
:1006100005E02021B1402800C0B2FFF787FF70BD80
:1006200010B504002100C9B25FF08240FFF77DFEE3
:1006300010BD80B501001022C9B25FF08240FFF703
:100640004AFE002801D0012000E00020C0B202BD17
:1006500010B5040010212000C0B2FFF74FFF10BDFD
:1006600070B505000E001400E4B2002C09D0012280
:10067000B240D2B22900C9B25FF08240FFF743FE18
:1006800008E00122B240D2B22900C9B25FF0824034
:10069000FFF745FE70BD38B504000D000121A940EB
:1006A0002000C0B2FFF72AFF31BD10B4DFF8883C4C
:1006B000C0B244012344C9B20C0123441A6010BCE7
:1006C000704710B4DFF8703CC0B244012344C9B293
:1006D0000C01234492B25C6862F39B345C6010BCF2
:1006E000704710B4DFF8503CC0B244012344C9B293
:1006F0000C01234492B25C6862F30D045C6010BC90
:10070000704710B4DFF8303CC0B244012344C9B292
:100710000C01234492B25C6862F30D045C6010BC6F
:10072000704710B4DFF8103CC0B244012344C9B292
:100730000C01234492B25C6862F39B345C6010BC91
:100740007047F8B504000D0016001F00320092B289
:100750002900C9B22000C0B2FFF7C3FF3A0092B22D
:100760002900C9B22000C0B2FFF7ABFFF1BDF8B558
:1007700004000D0016001F00320092B22900C9B219
:100780002000C0B2FFF7CDFF3A0092B22900C9B2F3
:100790002000C0B2FFF7B5FFF1BDDFF89C2BC0B25F
:1007A00043011A44C9B20B011A44002393727047E3
:1007B00070B505000E001400E4B2002C09D04022F0
:1007C000B240D2B22900C9B25FF08240FFF79BFD70
:1007D00008E04022B240D2B22900C9B25FF08240A4
:1007E000FFF79DFD70BD70B505000E001400E4B26A
:1007F000002C09D04022B240D2B22900C9B25FF029
:100800008240FFF78CFD08E04022B240D2B22900BE
:10081000C9B25FF08240FFF776FD70BD80B240F252
:100820000121884201DB072020E080B240F2011163
:10083000884201DB062019E080B2812801DB052017
:1008400014E080B2412801DB04200FE080B22128AF
:1008500001DB03200AE080B2112801DB022005E061
:1008600080B2092801DB012000E00020C0B27047FF
:1008700010B40200D2B2002A01D1002305E0C9B2AF
:10088000002901D0131D00E01300DFF8144BDBB288
:100890001420434304EB0300143010BC704780B5B0
:1008A00004215FF08240FFF777FDDFF8F40A00686B
:1008B000804701BD38B5002540F201215FF082403C
:1008C000FFF76AFD40F201215FF08240FFF76AFD09
:1008D00070215FF08240FFF761FD00200400E4B268
:1008E000042C13DADFF8500AE4B2610108440189EC
:1008F00011F00F01032907D10189C1F30A1189B24F
:100900000D000021018101E0641CE8E729000320BB
:10091000DFF88C2A5268904731BD80B580215FF0A6
:100920008240FFF739FD00210520DFF8742A526864
:10093000904701BD80B570215FF08240FFF72CFD2C
:1009400070215FF08240FFF72DFD40F201215FF042
:100950008240FFF723FD0020FFF7C2FD00210220A7
:10096000DFF83C2A5268904701BD80B50022002183
:100970005FF08240FFF702FD08215FF08240FFF741
:100980000BFD70215FF08240FFF70CFD40F201216A
:100990005FF08240FFF702FD00F051FC00210120D2
:1009A000DFF8FC295268904701BD80B540F2012173
:1009B0005FF08240FFF7F0FC40F201215FF08240DF
:1009C000FFF7F0FC70215FF08240FFF7E7FC0021A9
:1009D0000420DFF8CC295268904701BD38B50124C6
:1009E0005FF08240FFF7D6FC05005FF08240FFF722
:1009F000D7FC28400500680703D5FFF750FF01200A
:100A00001EE0A80502D5FFF755FF17E0280602D51E
:100A1000FFF783FF12E0280010F0700F02D0FFF7FD
:100A200089FF0BE0280702D5FFF79FFF06E0E807E4
:100A300002D5FFF7BAFF01E0002004002000C0B299
:100A400032BD2DE9F04F85B006000C005FF0824703
:100A500096F8128018F00F08DFF8DC085FFA88F8C3
:100A60005FEA481108440190E4B2002C07D00198D5
:100A7000D0F814905FEA89495FEA994901E05FF094
:100A80000009308A40F2FF31884201D1308A01E00A
:100A9000308A401E10EA0900ADF802005FF0000A3B
:100AA000F07C10F00700012801D1012500E00025AD
:100AB000E4B2002C04D001214046C0B2FFF7EBFDA8
:100AC000B06810FA89F0B060B0687168884243D2AB
:100AD0007168B068091AADF80010F07CC0F34010DE
:100AE000C0B200281CD0308ABDF80010884202D263
:100AF000308AADF80000BDF8000003903068B1689E
:100B000008440290D6F80CB0039A0299584601F0B6
:100B100053F8F26801214046C0B2FFF7C6FD12E06B
:100B2000BDF8000042F20101884203DB4FF400509F
:100B3000ADF800003068B16800EB010201214046C9
:100B4000C0B2FFF7B2FD0023BDF8002001214046EE
:100B5000C0B2FFF7F6FD3BE0F07CC0F30010C0B27E
:100B600000280BD0F07C10F0EF00F074002300227E
:100B700001214046C0B2FFF7E4FD29E0EDB2002DAF
:100B800006D04B224146C9B23800FFF7DBFB05E037
:100B90004A224146C9B23800FFF7D4FBBDF8020033
:100BA000318A88420FD1F07C10F0BF00F074B16838
:100BB000B07CDFF8EC27D2689047002820D1F07C89
:100BC00050F04000F0740021300000F05FFE17E0AC
:100BD000E4B2002C0ED1EDB2002D02D04E208246A0
:100BE00001E04A2082465246D2B24146C9B238009C
:100BF000FFF7A2FB012201214046C0B2FFF7D8FD5A
:100C000005B0BDE8F08F2DE9F04F87B007000C006C
:100C10005FF082400290BE7C16F00F06DFF8C80835
:100C2000F6B2710108440390E4B2002C09D0039895
:100C3000D0F804805FEA98385FEA88485FEA98480D
:100C400001E05FF00008E4B2002C07D00398D0F870
:100C500004905FEA89495FEA994901E05FF0000981
:100C6000388A40F2FF31884202D140F2FF3A02E076
:100C7000388AB0F1010A1AEA0900ADF80200F87CDE
:100C800010F00700012801D1012500E00025E4B2A1
:100C9000002C04D000213000C0B2FFF7FCFCF87C2F
:100CA000C0F34010C0B2002820D0786800281DD0C2
:100CB0007968B868091AADF80410BDF80200BDF8EB
:100CC0000410884203D2BDF80200059002E0BDF88E
:100CD00004000590F86806903868B96808440490E4
:100CE000059A0699049800F067FF04987868002830
:100CF0001BD1F87CC0F30010C0B2002815D0F87CDE
:100D000010F0EF00F874F87C50F02000F874FA68E6
:100D100000213000C0B2FFF7C8FC00233A8A00214E
:100D20003000C0B2FFF723FD7EE0E4B2002C0DD00E
:100D3000BDF80200398A884208D2F87C10F0EF0032
:100D4000F874B86810FA89F0B8604FE0B86810FA23
:100D500088F0B860B8687968884247D27968B8681E
:100D6000091A8B46F87CC0F34010C0B200280DD0A1
:100D7000388A594689B2884201D2388A8346FA684D
:100D800000213000C0B2FFF790FC25E0388A5946B8
:100D900089B288420ED21FFA8BFB42F201008345D2
:100DA00003DB4FF4005083460DE01AEA0B00BBEB67
:100DB000000B08E05846398A80B2884203D2F87C9A
:100DC00050F02000F8743868B96800EB0102002187
:100DD0003000C0B2FFF769FC00231FFA8BFB5A46B4
:100DE00000213000C0B2FFF7C2FC1DE0EDB2002DC3
:100DF00006D02D223100C9B20298FFF7A3FA05E010
:100E000025223100C9B20298FFF79CFAF6B2002EF3
:100E100005D1FA6800213000C0B2FFF746FC00217E
:100E2000380000F033FD1EE0E4B2002C15D1EDB225
:100E3000002D08D001213000C0B2FFF7AEFC2D20FC
:100E40008DF8000002E025208DF800009DF80020BC
:100E50003100C9B20298FFF76FFA01220021300079
:100E6000C0B2FFF7C0FC07B0BDE8F08F70B5050059
:100E7000AE7C16F00F06E87C10F00700012801D1C7
:100E8000012400E00024E4B2002C08D13000C0B2FC
:100E9000FFF7DEFB3000C0B2FFF7C2FB32E0E87CB8
:100EA000C0F38010C0B200280FD0E87C10F0BF0063
:100EB000E874002201213000C0B2FFF779FC002263
:100EC00000213000C0B2FFF78EFCE87C10F0F70084
:100ED000E87400213000C0B2FFF75FFC0121300050
:100EE000C0B2FFF75AFC6F213000C0B2FFF706FB1B
:100EF0006F213000C0B2FFF719FBA87CDFF8A01407
:100F00008968884770BD70B504000D00A67C16F096
:100F10000F0600222900C9B23000C0B2FFF76BFBF8
:100F2000A2680121A07CDFF878341B69984770BD66
:100F300000E100E02DE9F84F06000C005FF0824769
:100F400096F8128018F00F08DFF85C0A0088ADF8F8
:100F50000000DFF894055FFA88F85FEA481100EBBB
:100F60000109E4B2002C06D04146C9B23800FFF7AF
:100F7000FAF9824605E04146C9B23800FFF7E8F9C0
:100F80008246F07C10F00700012801D1012500E025
:100F90000025E4B220014844807A83465FFA8AFA49
:100FA000BAF1020F29D11BF00100002825D0E4B2CC
:100FB00020014844807A10F0FE00E4B22101494447
:100FC00088726846E4B2025D4146C9B23800FFF754
:100FD00094F96846E4B2025D4146C9B23800FFF7B1
:100FE000B1F9E4B2002C01D0012100E0002104227B
:100FF000C9B2300000F063FC4CE0CBF34000C0B25B
:10100000002831D0E4B220014844807A10F0FD007D
:10101000E4B22101494488726846E4B2025D414667
:10102000C9B23800FFF769F96846E4B2025D41468B
:10103000C9B23800FFF786F9EDB2002D2AD0F07C56
:10104000C0F38010C0B2002824D02000F17CC9B2C7
:10105000C909C0B288421DD00022F17CC9B2C909B9
:10106000300000F02CFC15E02100C9B24046C0B2AF
:10107000FFF793FB6846E4B2025D4146C9B238000F
:10108000FFF73BF96846E4B2025D4146C9B2380059
:10109000FFF758F9BDE8F18F840080000010004090
:1010A00038B504000D00E80603D52000FFF7DEFE8A
:1010B0000CE0680604D501212000FFF724FF05E0BD
:1010C000A80603D500212000FFF71DFF31BD38B56C
:1010D00004000D00680604D501212000FFF713FF6E
:1010E0001EE0280704D501212000FFF723FF17E0A9
:1010F000A80704D501212000FFF7A3FC10E0E07C45
:1011000010F0070001280BD1680704D5002120004A
:10111000FFF710FF04E0E80602D52000FFF7A6FE67
:1011200031BD38B504000D00A80604D5002120000B
:10113000FFF7E9FE1EE0680704D500212000FFF755
:10114000F9FE17E0E80704D501212000FFF75BFD59
:1011500010E0E07C10F0070001280BD1280704D52F
:1011600001212000FFF7E6FE04E0E80602D520009A
:10117000FFF77CFE31BD2DE9F84305000E005FF05E
:10118000824796F8129019F00F09280030FA09F0FA
:10119000C00730D55FFA89F95FEA4910384490F802
:1011A000070104005FFA89F95FEA4910384490F8B2
:1011B0000901804618EA0404E4B2002C1BD0F07C3C
:1011C00010F04700012805D12100C9B23000FFF717
:1011D00067FF10E0F07CC0B2C009C0B2002805D0A3
:1011E0002100C9B23000FFF772FF04E02100C9B24C
:1011F0003000FFF796FFBDE8F18370B55FF08245E0
:101200002C8CA4B2002C03D1FFF7E8FB002815D1E9
:1012100000200600F6B21B2E10DA6148F6B2142147
:1012200001FB06F1084410F11401887CFF2803D06B
:10123000A4B22000FFF79FFF761CEBE770BDF8B566
:1012400000200400E4B21B2C1DDA03215448E4B250
:10125000142202FB04F21044143000F017FBFF20AC
:101260004F49E4B2142202FB04F2114481F8260033
:1012700000204B49E4B2142202FB04F2114481F82D
:101280002700641CDEE7A02500262B4F3200290032
:10129000380000F0E5FCF1BD38B55FF0824401256F
:1012A0006846DFF8D4180A68026001212000FFF7C1
:1012B0000AF8002810D102212000FFF786F8002844
:1012C00006D02000FFF776F802212000FEF7F7FF96
:1012D00001212000FFF786F801212000FEF7EFFF33
:1012E000DFF898082E490860DFF890082C4948601C
:1012F000DFF888082A498860DFF880082849C86034
:10130000DFF8780826490861FFF799FFFFF78AF8A8
:1013100004212000FFF766F8DFF864182000FFF7CB
:101320007CF86846EDB2415D51F0010189B22000C0
:10133000FFF76FF8002032BD846F002038B55FF0F2
:10134000824403212000FFF72FF8002802D07FF00D
:1013500010001DE02000FFF74EF80500A80705D497
:1013600055F00201C9B22000FFF73CF85020FEF70B
:1013700079FF5120FEF776FF5220FEF773FF5320CE
:10138000FEF770FF40F28D212000FFF707F80020E4
:1013900032BD80B55FF08240FFF735F801BD000037
:1013A0002866002010B5040054F08001C9B25FF037
:1013B0008240FFF730F810BD70B504005FF0824541
:1013C000A67C16F00F06E26800213000C0B2FFF7DD
:1013D0006CF90023228A00213000C0B2FFF7C7F960
:1013E000B0223100C9B22800FEF799FF0022002187
:1013F0003000C0B2FFF7F7F910223100C9B228005F
:10140000FEF79AFF70BD2DE9F84F06000F009046D9
:1014100016F00F0916F08004E4B2E4092100C9B205
:101420004846C0B2FFF724FA824617F00305DFF8FA
:1014300054075FFA89F90C2101FB09F100EB010B5C
:101440005FFA89F9B9F1050F02DB7FF0110049E07D
:101450009AF81200FF2802D07FF0130042E0EDB2AC
:10146000002D14D194F00101C9B24846C0B2FFF773
:10147000FFF90100887CFF2802D07FF0130031E0E3
:10148000DBF80000002802D17FF012002AE0E4B26D
:10149000002C02D0DBF8040001E0DBF8000000289B
:1014A0000ED0E4B2002C02D0BBF80A0001E0BBF879
:1014B00008001FFA88F8404502DA7FF0120011E0B8
:1014C000E4B2002C02D0DBF8040001E0DBF80000FD
:1014D000CAF80C00AAF81080681C8AF813008AF871
:1014E00012600020BDE8F28F846F00202DE9F041EA
:1014F00004005FF0824514F00F0614F08007FFB27D
:10150000FF093900C9B23000C0B2FFF7B1F9804617
:10151000F6B2052E03DA98F81200FF2800D137E062
:1015200003223900C9B2404600F0C9F998F8130007
:1015300010F00700012806D10020E4B2610129441F
:1015400081F800011EE0200610D5E4B214F00F006F
:1015500040012844E4B214F00F014901294491F8F4
:10156000001111F08F0180F800110BE0E4B260016E
:10157000284490F8000110F0F800E4B26101294419
:1015800081F80001002088F81300FF2088F812007D
:10159000BDE8F0812DE9F04705005FF0824615F0C7
:1015A0000F0715F08004E4B2E4092100C9B2380045
:1015B000C0B2FFF75DF980463900C9B23000FEF7CE
:1015C000E3FE8246FFB2052F03DA98F81200FF28E7
:1015D00002D17FF01100B3E0DFF8A405FFB279017A
:1015E0000844814698F8130010F00700012845D1FF
:1015F0001AF0770F02D07FF01300A1E0112239001A
:10160000C9B23000FEF7BAFEB8F81000FFF706F9CD
:10161000B8F81010DFF8702512EA8132C0B2000766
:1016200010F0E0401043C9F80400B8F81000FFF7CC
:10163000F5F8B8F810108904890CC0B2000710F052
:10164000E0400843C9F81400002200213800C0B26D
:10165000FFF7C9F8002201213800C0B2FFF7A8F84F
:1016600000213800C0B2FFF798F801213800C0B25D
:10167000FFF793F84046FFF79FFE60E0E4B2002CCE
:101680002ED01AF0700F02D07FF0130058E098F8B7
:101690001300000110F0700050EA0A0A5246D2B25C
:1016A0003900C9B23000FEF769FEB8F81000FFF744
:1016B000B5F8B8F810108904890CC0B2000710F012
:1016C000E0400843C9F81400002201213800C0B2EC
:1016D000FFF76EF801213800C0B2FFF75EF82EE088
:1016E0001AF0070F02D07FF0130029E098F81300DA
:1016F00010F0070050EA0A0A5246D2B23900C9B2C5
:101700003000FEF73BFEB8F81000FFF787F8B8F896
:101710001010DFF8742412EA8132C0B2000710F012
:10172000E0401043C9F80400002200213800C0B294
:10173000FFF759F800213800C0B2FFF72EF800205B
:10174000BDE8F08710B50400A07C10F00F00C9B20E
:10175000C0B2FEF720FF10BD70B504000D00A67CDE
:1017600016F00F0601222900C9B23000C0B2FEF700
:10177000F7FE2021A9403000C0B2FEF7CBFEE07C8E
:1017800050F00800E074002070BDF8B505000E00B0
:10179000AF7C17F00F073100C9B23800C0B2FEF7B6
:1017A000FAFE0400E4B2002C01D1002039E000224E
:1017B0003100C9B23800C0B2FEF7D2FE2021B140DC
:1017C0003800C0B2FEF7B2FE3100C9B23800C0B274
:1017D000FEF7F4FE00280CD03100C9B23800C0B2C8
:1017E000FEF7FFFE00223100C9B23800C0B2FEF79A
:1017F00037FFE87C10F0070001280DD13900C9B28D
:101800005FF08240FEF785FD10F0300F08D1E87CD4
:1018100010F0F700E87403E0E87C10F0F700E874DB
:101820000020F2BD2DE9F84305000C0015F00F066D
:1018300015F08007FFB2FF093900C9B23000C0B20D
:10184000FFF716F88046F6B2052E02DB7FF0110096
:101850001AE0E4B2012C06D13900C9B24046FFF7C4
:101860007BFF81460FE0E4B2002C06D13900C9B2FB
:101870004046FFF78AFF814605E03900C9B240467D
:10188000FFF760FF81464846BDE8F28338B50400A3
:101890000D00A07CFF2805D0E07CC0F38010C0B212
:1018A000002800D10AE0E07C10F0BF00E074A268DC
:1018B0002900A07CDFF8D4321B69984731BDF8B508
:1018C00005000C001600AF7C17F00F07DFF8C00210
:1018D0000088ADF80000A87CFF2805D0E87CC0F3A4
:1018E0008010C0B2002800D121E0E4B2002C06D064
:1018F000002201213800C0B2FEF75AFF05E00022A5
:1019000000213800C0B2FEF76EFF6846E4B2015D08
:101910003800C0B2FEF7F2FD6846E4B2015D38005F
:10192000C0B2FEF703FE31002800FFF7AFFFF1BDA4
:101930002DE9F04705000C0015F00F069048F6B2AF
:10194000710100EB0107D7F80080D7F804905FEA37
:1019500089495FEA9949F6B2052E01DA002C02D1D5
:101960007FF011001EE03000C0B2FEF7EBFD002852
:1019700002D17FF0120015E03000C0B2FEF759FE30
:10198000002801D100200DE05FF0080A52464146D0
:10199000200000F011F93000C0B2FEF759FE1FFA26
:1019A00089F94846BDE8F0875E1C00002DE9F04744
:1019B00082B005002E7A16F00F062C7A14F08004FF
:1019C000E4B2E4092100C9B23000C0B2FEF750FF12
:1019D0000700388A40F2FF31884202D140F2FF38D6
:1019E00002E0388AB0F1010868681FFA88F810EA46
:1019F000080F02D05FF0010901E05FF000095FF01D
:101A0000000AF6B2052E02DB7FF011006DE02868B7
:101A1000B0F1005F10D32968686841185D488142C1
:101A20000AD2287810F0030F06D1E4B2002C0BD1B3
:101A30006868398A884207D2F868002802D17FF0A6
:101A4000120052E00120824699F001002043C0B20A
:101A5000002805D1F868002802D17FF0110044E089
:101A6000F87CC0F3C000C0B2002801D002203CE0E6
:101A7000684600F028F9F87CC0F38010C0B2002856
:101A800004D0684600F026F901202EE0F87C50F0E2
:101A90004000F874684600F01DF9286838606868EE
:101AA00078600020B860F87C10F07F0050EAC41025
:101AB000F874F87C6AF34510F874687A002802D04C
:101AC00099F0010000E00020F97C60F30411F97442
:101AD000E4B2002C04D000213800FEF7B2FF03E08E
:101AE00000213800FFF78FF80020BDE8F687F8B531
:101AF000040014F00F0514F08006F6B2F609310068
:101B0000C9B22800C0B2FEF7B3FE0700EDB2052D42
:101B100005DA02223100C9B23800FFF7D0FEF1BD6C
:101B20000A00002A01D1154A00E00A00C0B20128CB
:101B300002D1164B5A6004E0C0B2002801D1134B09
:101B40001A6070470A00002A01D10C4A00E00A001E
:101B5000C0B2002802D10D4B9A600AE0C0B2012841
:101B600002D10A4BDA6004E0C0B2022801D1074B6F
:101B70001A6170470000000054CF00001F040000ED
:101B8000846F0020CCC3000000C0FF0F2866002037
:101B9000323B00000020032080B5FFF72EFB01BD83
:101BA00080B5FFF72AFB01BD80B5FFF726FB01BD1D
:101BB00080B5FFF722FB01BD62B38B0708D0521E30
:101BC00011F8013B00F8013B00F024808B07F6D1AF
:101BD000830740F0208000BF103A07D330B4B1E84B
:101BE0003810103AA0E83810F9D230BC530724BF9F
:101BF000B1E80810A0E8081044BF51F8043B40F8D1
:101C0000043BD20724BF31F8022B20F8022B44BF3B
:101C10000B7803707047121F17D35B0009D151F87E
:101C2000043B20F8023B1B0C121F20F8023BF6D2AB
:101C30000BE051F8043B00F8013B1B0A20F8023B83
:101C40001B0C121F00F8013BF3D238BF121D521EAD
:101C500024BF11F8013B00F8013BF8D87047040895
:101C600062F30F2262F31F42401810F0030308D002
:101C7000C91A1FD3DB0748BF00F8012D28BF20F881
:101C8000022D130030B414461546103928BF20E940
:101C90003C00FAD8490728BF20E90C0048BF40F8AB
:101CA000042D890028BF20F8022D48BF00F8012D1F
:101CB00030BC7047C91818BF00F8012DCB0728BFEA
:101CC00000F8012D7047EFF31081016072B6BFF389
:101CD0005F8F7047BFF35F8F016881F31088704793
:101CE000C9B2802303FB01F303449A607047C9B271
:101CF0008022514340587047C9B2802303FB01F34F
:101D000003445A607047C9B2802303FB01F30344C4
:101D10009A617047C9B280225143084400697047F4
:101D2000C9B2802303FB01F303445A617047C9B26F
:101D3000802303FB01F30344DA617047C9B28022B8
:101D400051430844006A704730B4C9B2802404FB90
:101D500001F40444D2B2144494F83040250015F044
:101D6000F00513F00F042543C9B2802404FB01F4ED
:101D70000444D2B2144484F8305030BC704730B4BC
:101D8000C9B2802404FB01F40444D2B2144494F890
:101D90003040250015F00F05DBB21C012543C9B208
:101DA000802404FB01F40444D2B2144484F830507B
:101DB00030BC704730B4C9B2802505FB01F505443D
:101DC000D2B2154495F840502C0014F0FE041C4388
:101DD000C9B2802505FB01F50544D2B2154485F84A
:101DE000404030BC704710B4C9B2802303FB01F3FC
:101DF0000344D2B21344C9B2802404FB01F4044466
:101E0000D2B2144494F8404054F0040483F84040A3
:101E100010BC704710B4C9B2802303FB01F3034424
:101E2000D2B21344C9B2802404FB01F40444D2B2F8
:101E3000144494F8404014F0FB0483F8404010BC74
:101E40007047C9B2802303FB01F303449A627047D1
:101E500070B504000D001600F6B2002E03D0022E5D
:101E600037D01BD350E02A002100C9B2DFF80C0D97
:101E7000FFF742FFAAB252F080422100C9B2DFF858
:101E8000FC0CFFF7DEFF2A00120C52F0404221004A
:101E9000C9B2DFF8E80CFFF7D4FF35E02A002100D3
:101EA000C9B2DFF8D80CFFF727FF2A00C4F20202FC
:101EB0002100C9B2DFF8C40CFFF7C3FFDFF8502BD5
:101EC00052EA15422100C9B2DFF8B00CFFF7B9FFA2
:101ED0001AE02A002100C9B2DFF8A00CFFF700FFCA
:101EE000AAB252F080422100C9B2DFF8900CFFF78D
:101EF000A8FF2A00120C52F040422100C9B2DFF8BC
:101F00007C0CFFF79EFFFFE770BD70B505000E006B
:101F10001400E4B2002C07D032002900C9B2DFF867
:101F20005C0CFFF7F0FE06E032002900C9B2DFF8D2
:101F30004C0CFFF7F5FE70BD38B504000D002A000B
:101F40002100C9B2DFF8340CFFF7F1FE31BD70B5E6
:101F500082B004006846FFF7B6FE2100C9B2DFF880
:101F60001C0CFFF7C4FE06002100C9B2DFF80C0C00
:101F7000FFF7E4FEB04305002100C9B2DFF8FC0B17
:101F8000FFF7C8FE3040284305006846FFF7A2FE71
:101F9000280076BD70B504000D001600F6B2002EC4
:101FA00003D0022E23D009D33AE02A00D2B2210076
:101FB000C9B2DFF8C80BFFF72DFF31E00122AA40BC
:101FC0002100C9B2DFF8B40BFFF796FE2A00D2B2A7
:101FD0002100C9B2DFF8A40BFFF705FF0122AA40D8
:101FE0002100C9B2DFF8940BFFF78DFE18E0012243
:101FF000AA402100C9B2DFF8840BFFF77DFE2A005A
:10200000D2B22100C9B2DFF8740BFFF7ECFE012257
:10201000AA402100C9B2DFF8640BFFF781FEFFE799
:1020200070BDF8B504000D002600760914F01F07F6
:1020300015F1010F09D100233A00D2B23100C9B223
:10204000DFF8380BFFF7B6FE21E001233A00D2B2E9
:102050003100C9B2DFF8240BFFF7ACFEF8070BD54F
:102060002B00DBB23A00D2B252083100C9B2DFF81D
:102070000C0BFFF784FE0AE02B00DBB23A00D2B271
:1020800052083100C9B2DFF8F40AFFF75DFEF1BD76
:1020900038B504000D002A00D2B214F01F01200050
:1020A000C0B24009FFF776FF31BD38B504000D001E
:1020B00029002000FFF7B5FF31BD38B504000D0041
:1020C0002A00D2B2012114F01F0081402000C0B2CA
:1020D0004009FFF7BDFE31BD38B504000D002A00F0
:1020E000D2B2012114F01F0081402000C0B240098B
:1020F000FFF70BFF31BD10B50400012114F01F00E4
:1021000081402000C0B24009FFF716FF10BD10B596
:1021100004002000C0B24009FFF719FF14F01F04AB
:10212000E04010F0010010BD12B583B004000020A3
:102130008DF808005FF4803001900120009002AB20
:10214000012203A92000C0B201F014FA9DF8080092
:1021500004B010BD12B583B004000020ADF8080033
:102160005FF4803001900220009002AB012203A9AD
:102170002000C0B201F0FEF9BDF8080004B010BDA7
:1021800070B584B004000D0016008DF808508DF86D
:1021900009605FF48030019000200090002302224B
:1021A00002A92000C0B201F0E5F97FBDF8B5040036
:1021B0000D0016002900C9B22000C0B2FFF7B4FF1D
:1021C000070056EA0702D2B22900C9B22000C0B205
:1021D000FFF7D6FFF1BDF8B504000D001600290089
:1021E000C9B22000C0B2FFF79FFF070037EA06021E
:1021F000D2B22900C9B22000C0B2FFF7C1FFF1BDC1
:102200002DE9F04104000D0016001F002900C9B29D
:102210002000C0B2FFF788FF804638EA060216EABF
:1022200007000243D2B22900C9B22000C0B2FFF7B2
:10223000A7FFBDE8F08110B5DFF84419002001F0D8
:1022400067FC7B217520FFF76FFFC0B20200DFF84B
:102250003419002001F05CFCE9217520FFF764FFD0
:10226000C0B2C00810F001000200DFF81C19002005
:1022700001F04EFCFC217520FFF756FFC0B210F0B4
:1022800005000200DFF80419002001F041FC6E2176
:102290007520FFF75FFF040050217520FFF75AFFFC
:1022A000A4B240F28E614C434FF47A7194FBF1F387
:1022B00080B24FF4867148434FF47A7190FBF1F28B
:1022C000DFF8CC18002001F023FC54217520FFF723
:1022D00041FF040062217520FFF73CFFA4B240F2E9
:1022E0009F214C434FF47A7194FBF1F380B240F29A
:1022F0004B6148434FF47A7190FBF1F2DFF8941888
:10230000002001F005FC56217520FFF723FF040093
:102310005E217520FFF71EFFA4B240F29F214C43BF
:102320004FF47A7194FBF1F380B240F24B61484371
:102330004FF47A7190FBF1F2DFF85C18002001F0A5
:10234000E7FB58217520FFF705FF04006021752089
:10235000FFF700FFA4B240F29F214C434FF47A7183
:1023600094FBF1F380B240F24B6148434FF47A7131
:1023700090FBF1F2DFF8881A002001F0C9FB10BDD4
:1023800080B500217420FFF7CFFEC0B20200DFF855
:10239000B818002001F0BCFB03217420FFF7C4FE35
:1023A000C0B20200DFF8A418002001F0B1FB0F2139
:1023B0007420FFF7B9FEC0B20200DFF894180020C5
:1023C00001F0A6FB25217420FFF7AEFEC0B202008B
:1023D000DFF88018002001F09BFB31217420FFF70B
:1023E000A3FEC0B20200DFF87018002001F090FBDD
:1023F00033217420FFF798FEC0B20200DFF85C18AA
:10240000002001F085FB84217420FFF78DFEC0B20F
:102410000200DFF84C18002001F07AFB1F21752024
:10242000FFF782FEC0B20200DFF83818002001F08A
:102430006FFB10217420FFF777FEC0B20200DFF8B7
:102440002818002001F064FB13217420FFF76CFEB4
:10245000C0B20200DFF81418002001F059FB1C2163
:102460007420FFF761FEC0B20200DFF804180020FC
:1024700001F04EFB14217420FFF756FEC0B202009B
:10248000DFF8F017002001F043FB17217420FFF75D
:102490004BFEC0B20200DFF83C19002001F038FB0F
:1024A0001D217420FFF740FEC0B20200DFF828199A
:1024B000002001F02DFB18217420FFF735FEC0B27B
:1024C0000200DFF81819002001F022FB1B21742004
:1024D000FFF72AFEC0B20200DFF80419002001F065
:1024E00017FB1E217420FFF71FFEC0B20200DFF8A9
:1024F000F418002001F00CFB24217420FFF714FED7
:10250000C0B20200DFF8E018002001F001FBF52165
:102510007420FFF709FEC0B20200DFF8E8180020BF
:1025200001F0F6FA0B217420FFF7FEFDC0B20200A5
:10253000DFF8D418002001F0EBFA0C217420FFF72B
:10254000F3FDC0B20200DFF8C418002001F0E0FA89
:102550000D217420FFF7E8FDC0B20200DFF8B018CB
:10256000002001F0D5FA26217420FFF7DDFDC0B26E
:102570000200DFF8A018002001F0CAFA2721742019
:10258000FFF7D2FDC0B20200DFF88C18002001F086
:10259000BFFA28217420FFF7C7FDC0B20200DFF8A0
:1025A0007C18002001F0B4FA29217420FFF7BCFD4B
:1025B000C0B20200DFF86818002001F0A9FA2B2150
:1025C0007420FFF7B1FDC0B20200DFF858180020F8
:1025D00001F09EFA6E217420FFF7A6FDC0B2020042
:1025E000DFF84418002001F093FA6F217420FFF700
:1025F0009BFDC0B20200DFF83418002001F088FA19
:102600003A217520FFF790FDC0B20200DFF82018D4
:10261000002001F07DFA3B217520FFF785FDC0B257
:102620000200DFF81018002001F072FA4221752034
:10263000FFF77AFDC0B20200DFF8FC17002001F0BE
:1026400067FA41217420FFF76FFDC0B20200DFF886
:10265000EC17002001F05CFA44217420FFF764FDC0
:10266000C0B20200DFF8D817002001F051FA45216E
:102670007420FFF759FDC0B20200DFF8C817002030
:1026800001F046FA49217420FFF74EFDC0B2020066
:10269000DFF8B417002001F03BFA4A217420FFF75D
:1026A00043FDC0B20200DFF8A417002001F030FAA9
:1026B0004B217420FFF738FDC0B20200DFF89017FD
:1026C000002001F025FA4C217420FFF72DFDC0B247
:1026D0000200DFF88017002001F01AFA812174202F
:1026E000FFF722FDC0B20200DFF86C17002001F0F6
:1026F0000FFA85217420FFF717FDC0B20200DFF842
:102700005C17002001F004FA86217420FFF70CFD0D
:10271000C0B20200DFF86C19002001F0F9F9AA211B
:102720007420FFF701FDC0B20200DFF85C19002041
:1027300001F0EEF9AB217420FFF7F6FCC0B2020005
:10274000DFF84819002001F0E3F97B217520FFF73D
:10275000EBFCC0B20200DFF83819002001F0D8F914
:1027600087217520FFF7E0FCC0B20200DFF82419D2
:10277000002001F0CDF986217520FFF7D5FCC0B20D
:102780000200DFF81419002001F0C2F99021752031
:10279000FFF7CAFCC0B20200DFF80019002001F008
:1027A000B7F991217520FFF7BFFCC0B20200DFF836
:1027B0008419002001F0ACF992217520FFF7B4FCD8
:1027C000C0B20200DFF87019002001F0A1F99721D2
:1027D0007520FFF7A9FCC0B20200DFF860190020E5
:1027E00001F096F9C4217520FFF79EFCC0B20200EB
:1027F000DFF84C19002001F08BF9C5217520FFF797
:1028000093FCC0B20200DFF83C19002001F080F90F
:10281000CD217520FFF788FCC0B20200DFF828192F
:10282000002001F075F9D0217520FFF77DFCC0B2C2
:102830000200DFF81819002001F06AF9D421752090
:10284000FFF772FCC0B20200DFF80419002001F0AB
:102850005FF9E8217520FFF767FCC0B20200DFF8DE
:10286000F418002001F054F9E9217520FFF75CFC11
:10287000C0B20200DFF8E018002001F049F9B121F0
:102880007520FFF751FCC0B20200DFF8D01800201D
:1028900001F03EF9C2217520FFF746FCC0B20200EC
:1028A000DFF8BC18002001F033F9C3217520FFF7D1
:1028B0003BFCC0B20200DFF8AC18002001F028F9A0
:1028C000E1217520FFF730FCC0B20200DFF8981854
:1028D000002001F01DF9EB217520FFF725FCC0B2A7
:1028E0000200DFF88818002001F012F9F2217520AB
:1028F000FFF71AFCC0B20200DFF87418002001F0E4
:1029000007F9F3217520FFF70FFCC0B20200DFF8D2
:102910006418002001F0FCF8F4217520FFF704FC96
:10292000C0B20200DFF85018002001F0F1F8FB21DE
:102930007520FFF7F9FBC0B20200DFF84018002055
:1029400001F0E6F8FC217520FFF7EEFBC0B20200B3
:10295000DFF82C18002001F0DBF86CA1002001F05A
:10296000D7F801BD38B5002401211620FFF7A5FBDB
:102970005FF0FF311620FFF798FB01211620FFF7CB
:1029800087FB01211720FFF798FB5FF0FF3117202D
:10299000FFF78BFB01211720FFF77AFB642001F082
:1029A00031FA2920FFF7B3FB00280BD10121402089
:1029B000FFF792FB4FF4FA7001F024FA0021402057
:1029C000FFF78AFB0025142D0CDA642001F01AFAB7
:1029D0002920FFF79CFB002802D00120040001E021
:1029E0006D1CF0E700211620FFF752FBDFF894176B
:1029F0001620FFF75AFB00211720FFF749FBDFF8ED
:102A000088171720FFF751FB2000C0B232BD00002D
:102A1000000002C080B5802286217520FFF7C6FB2A
:102A200001BD10B50400E4B2002C05D0042203213E
:102A30007420FFF7BBFB0AE003230F220021742060
:102A4000FFF7DEFB042203217420FFF7C4FB10BD57
:102A500010B50400E4B2002C14D00322102174201D
:102A6000FFF7A4FB032214217420FFF79FFB03222E
:102A700013217420FFF7AFFB032217217420FFF707
:102A8000AAFB09E0032210217420FFF7A4FB032214
:102A900014217420FFF79FFB10BD80B55E217520C7
:102AA000FFF758FB40F24B6148434FF47A7190FBBB
:102AB000F1F002BD80B560217520FFF74BFB40F2BD
:102AC0004B6148434FF47A7190FBF1F002BD38B589
:102AD000FFF7E3FF0400FFF7EDFF05002B002200E6
:102AE000DFF8A816002001F013F840F6C510844264
:102AF00001D3012000E0002040F6C5118D4201D332
:102B0000022100E000210843C0B232BD0A000000EB
:102B100038B500240025052D0EDAFFF7D8FF040094
:102B2000E4B2032C02D12000C0B207E04FF47A7067
:102B300001F068F96D1CEEE72000C0B232BD80B52F
:102B40007B217520FFF7F0FAC0B2642800DB642017
:102B5000C0B202BD80B5E9217520FFF7E5FAC0B229
:102B6000C00810F0010002BD80B500230122102131
:102B7000DFF81C06006801F0BBFD01BD00800041CC
:102B8000CCCE0000B8CD0000D0CD0000E8CD0000D4
:102B9000A8C50000C4C50000E0C5000038B50400A9
:102BA0000D00E4B2002C32D0EDB2642D14DA012114
:102BB0002620FFF791FA01214620FFF78DFA01F058
:102BC00009FA02006420009000230221DFF8C40506
:102BD000006801F060FF34E06420009000230022D0
:102BE0000321DFF8B005006801F055FF0121252021
:102BF000FFF772FA01214520FFF76EFA0021262027
:102C0000FFF76AFA00214620FFF766FA19E0642010
:102C10000090002300220321DFF87805006801F00E
:102C20003AFF01212520FFF757FA01214520FFF740
:102C300053FA01212620FFF74FFA01214620FFF722
:102C40004BFA31BD0000000018C6000034C6000079
:102C500050C600006CC6000088C60000A4C6000074
:102C6000C0C60000DCC60000F8C6000014C70000A3
:102C700030C700004CC7000038B505000C00E4B2B6
:102C80006400E8070BD501212520FFF725FA012173
:102C90002620FFF721FA01212420FFF71DFAA807BB
:102CA0000BD501214520FFF717FA01214620FFF738
:102CB00013FA01212720FFF70FFA4FF4FA7001F001
:102CC000A1F8E4B2002C12D0E80704D514F00101F9
:102CD0002520FFF701FAA80704D514F001014520CB
:102CE000FFF7FAF9C82001F08DF8641EE9E731BD5D
:102CF00038B5040000212420FFF7EEF90021272039
:102D0000FFF7EAF9E4B2002C0CD10025C82D09DA4E
:102D1000642001F077F84F20FFF7F9F9002801D07F
:102D20006D1CF3E740F6B83001F06CF80021472045
:102D3000FFF7D2F9642001F065F80020FFF788FE64
:102D4000FFF768FE00251E2D09DA642001F05AF80D
:102D50002920FFF7DCF9002801D06D1CF3E700F013
:102D60007FF831BD00B583B0FFF7E9FE0190FFF7B2
:102D7000F1FE00900198DFF82014096888420BD01A
:102D8000012002F097F8042201A9C0B202F08BF9E9
:102D90000198DFF8041408600098DFF8001409684F
:102DA000884216D0022002F085F804226946C0B29B
:102DB00002F079F90098DFF8E41308600098002821
:102DC00001D0012000E000200199C9B2C0B2FFF794
:102DD000E5FE07BD68C7000084C70000A0C700006B
:102DE000BCC70000D8C70000F4C7000080B54F2062
:102DF000FFF78DF9002802D10120FFF779FF01BD0F
:102E0000FCC5000010C800002CC8000048C8000025
:102E100064C8000080C800009CC80000B8C800005A
:102E2000D4C80000F0C800000CC9000028C9000088
:102E300044C9000060C900007CC9000098C90000B6
:102E4000B4C90000D0C90000ECC9000008CA0000E5
:102E500024CA000040CA00005CCA000078CA000012
:102E600080B5802080F31188BFF34F8FBFF36F8F41
:102E700002F0B2FE02F04EFFF3E780B501212420FC
:102E8000FFF72AF901212720FFF726F9FFF778FA43
:102E9000FFF7D1F90020FFF7DBFDFFF75BFE00280D
:102EA00009D1802080F31188BFF34F8FBFF36F8F5C
:102EB00002F030FF22E0FFF742FE64280EDA012123
:102EC0002620FFF709F901214620FFF705F9252003
:102ED000FFF711F94520FFF70EF90FE0012125203A
:102EE000FFF7FAF801214520FFF7F6F80021262028
:102EF000FFF7F2F800214620FFF7EEF84FF47A7062
:102F000000F080FFC4E710B586B00020A449087027
:102F10005FF0FF30A04908605FF0FF309F49086014
:102F20004F20FFF7F4F89F4908704FF4FA61012031
:102F300001F098FB0400002C03D1FFF713FFFFF70B
:102F400055FF14F0300F05D02000000910F00100EB
:102F5000FFF7CEFE600707D501212420FFF7BCF85C
:102F600001212720FFF7B8F8E0030DD5FFF7E7FDB3
:102F70000490012001F09EFF042204A9C0B202F0D7
:102F800092F8049884490860A0030DD5FFF7E2FD8C
:102F90000390022001F08EFF042203A9C0B202F0C8
:102FA00082F803987D490860600321D5502175207F
:102FB000FFF7D0F84FF4867148434FF47A71B0FBB5
:102FC000F1F0ADF808006E217520FFF7C3F840F26C
:102FD0008E6148434FF47A71B0FBF1F0ADF80A000E
:102FE000042001F067FF042202A9C0B202F05BF8DE
:102FF000200321D55E217520FFF7ACF840F24B612C
:1030000048434FF47A71B0FBF1F0ADF8040056215B
:103010007520FFF79FF840F29F2148434FF47A71E3
:10302000B0FBF1F0ADF80600052001F043FF0422EB
:1030300001A9C0B202F037F8E0027FF576AF602157
:103040007520FFF787F840F24B6148434FF47A71DF
:10305000B0FBF1F0ADF8000058217520FFF77AF8C9
:1030600040F29F2148434FF47A71B0FBF1F0ADF884
:103070000200062001F01EFF04226946C0B202F0E1
:1030800012F852E794CA0000B0CA0000CCCA00008F
:10309000E8CA000004CB000020CB00003CCB0000BD
:1030A00010B50120FFF7D4FCFFF732FD0400FFF755
:1030B000C2F8FFF765F9E4B2032C09D00421E4B2A9
:1030C000E043C0B2FFF7D8FDE00701D4FFF7C8FE28
:1030D00000212420FFF700F800212720FEF7FCFF45
:1030E00001214720FEF7F8FF10BD10B50400252090
:1030F000FFF701F84520FEF7FEFF10BD80B52A4816
:103100000090002301224FF47A71002001F085FC29
:1031100020490860FFF726FC002805D10321032081
:10312000FFF7AAFDFFF79CFE00F0DEF90020FFF795
:1031300078FC01BD58CB000074CB000090CB0000A0
:10314000ACCB0000C8CB0000E4CB000000CC0000FA
:103150001CCC000038CC000054CC000070CC000027
:103160008CCC0000A8CC0000C4CC0000E0CC000057
:10317000FCCC000018CD000034CD000050CD000084
:103180006CCD000002001600020017006CC50000A4
:10319000E0730020F0730020E8730020EC7300203F
:1031A0004574002046740020EB300000C9B200EBEB
:1031B0008103C3F880207047816951F48061816187
:1031C0007047C9B2802303FB01F303445A60704780
:1031D000C9B2802303FB01F303449A617047C9B26B
:1031E000802303FB01F303445A61704730B4C9B232
:1031F000802404FB01F40444D2B2144494F8304017
:10320000250015F0F00513F00F042543C9B2802402
:1032100004FB01F40444D2B2144484F8305030BCAE
:10322000704730B4C9B2802404FB01F40444D2B224
:10323000144494F83040250015F00F05DBB21C0152
:103240002543C9B2802404FB01F40444D2B21444DF
:1032500084F8305030BC704730B4C9B2802505FBCB
:1032600001F50544D2B2154495F840502C0014F0F5
:10327000FE041C43C9B2802505FB01F50544D2B20A
:10328000154485F8404030BC704710B4C9B2802363
:1032900003FB01F30344D2B21344C9B2802404FBFC
:1032A00001F40444D2B2144494F8404054F00404AD
:1032B00083F8404010BC704710B4C9B2802303FBB0
:1032C00001F30344D2B21344C9B2802404FB01F4D5
:1032D0000444D2B2144494F8404014F0FB0483F840
:1032E000404010BC7047C2690A42FCD17047007E62
:1032F00070470176704710B50400206850F0020056
:10330000206003212000FFF7EEFF10BD38B5040058
:103310000D00256003212000FFF7E5FF31BD10B54A
:103320000400606850F48020606004212000FFF7F2
:10333000DAFF10BD10B50400606830F480206060D2
:1033400004212000FFF7CFFF10BD38B504000D00A9
:103350006068290411F440310843606004212000B2
:10336000FFF7C1FF31BD38B504000D0065600421D1
:103370002000FFF7B8FF31BDC160704738B50400C9
:103380000D00656204212000FFF7ADFF31BD38B5A7
:1033900004000D00A56204212000FFF7A4FF31BD49
:1033A00010B5040004212000FFF79DFFA06A10BDA6
:1033B00010B5040004212000FFF795FF608BC0F3D7
:1033C000011080B210BD38B504000D0065830421E2
:1033D0002000FFF788FF31BD70B504000D00160016
:1033E000F6B2002E03D0022E1FD008D333E02A00FD
:1033F000D2B22100C9B2A548FFF75EFF2BE001223F
:10340000AA402100C9B2A148FFF7DBFE2A00D2B2D0
:103410002100C9B29D48FFF738FF0122AA402100D0
:10342000C9B29A48FFF7D4FE15E00122AA40210054
:10343000C9B29648FFF7C5FE2A00D2B22100C9B230
:103440009248FFF722FF0122AA402100C9B28F480B
:10345000FFF7C5FEFFE770BDF8B504000D002600BC
:10346000760914F01F0715F1010F08D100233A0067
:10347000D2B23100C9B28548FFF7EEFE1EE001234B
:103480003A00D2B23100C9B28048FFF7E5FEF80732
:103490000AD52B00DBB23A00D2B252083100C9B2D1
:1034A0007A48FFF7BEFE09E02B00DBB23A00D2B249
:1034B00052083100C9B27548FFF798FEF1BD38B522
:1034C00004000D002A00D2B214F01F012000C0B287
:1034D0004009FFF781FF31BD38B504000D00290018
:1034E0002000FFF7B9FF31BD10B5694C412218210A
:1034F0006848FFF75BFE432203216648FFF756FE4C
:103500006548FFF759FE00211620FFF7D8FF6349F1
:103510001620FFF7E1FF00211720FFF7D0FF6049D9
:103520001720FFF7D9FF15212000FFF7EFFE01213B
:103530002000FFF7D8FE5B492000FFF7E7FE4FF4BD
:1035400080712000FFF70FFFE5212000FFF714FF37
:103550002000FFF7D0FE2000FFF72AFF012804D04B
:1035600010212000FFF72FFFF5E703212000FFF7D0
:10357000ECFE10BD2DE9F14F894690461E000A9DD4
:10358000DDF82CB00027DFF808A15046FFF710FF48
:10359000012803D010215046FFF715FF5046FFF7D2
:1035A000C9FE4FF480715046FFF7DDFE832150467F
:1035B000FFF79FFEB9F1000F28D05FFA88F8B8F145
:1035C000000F23D09DF80010490011F0FE01504675
:1035D000FFF7D4FE4046B0F10108C0B2002813D076
:1035E0005C465046FFF783FEC00705D4641E002CDE
:1035F000F7D10020070037E099F800105046FFF798
:10360000C6FE19F10109E5E701200700002E2BD0C5
:10361000EDB2002D28D09DF80010490011F0FE01F8
:1036200051F001015046FFF7A9FE2800451EC0B227
:10363000002817D05C465046FFF759FE800705D496
:10364000641E002CF7D1002007000DE0EDB2002D24
:1036500002D15046FFF763FE5046FFF7A1FE3070DF
:10366000761CE2E70120070003215046FFF76DFEBC
:10367000022000F0C7FBFFB2002F03D10A4900204F
:1036800000F046FA3800C0B2BDE8F28F0080004179
:1036900000400141001C00400008004002001600EC
:1036A000020017001400200064CE000070B5040072
:1036B0000D00A06806006068711C884206D320686F
:1036C0008555701CA060E068401CE060A0686168DF
:1036D00088420DD1A2682168206902F024FCA1680B
:1036E000884203D05FF0FF30E06001E00020A0607E
:1036F00070BD2DE9F04F83B00700884691461E004B
:103700000C9CC2460120050001208346CA4504D313
:10371000BAFBF9FA1BF1010BF8E7B34500D2B34647
:103720000D98C0071AD4002C18D00D98800705D525
:10373000002E03D130208DF8000002E020208DF80B
:103740000000002C0AD0A34508D2641E9DF800108A
:103750003800FFF7ABFFF8680028F2D5F8680028BA
:1037600030D4022E01D3761E05E0B8FBF5F00190AF
:103770000198484502D309FB05F5F2E7B8FBF5F0DF
:103780000190019805FB10880F480199415C3800B1
:10379000FFF78CFFF868002803D4B5FBF9F5002D7E
:1037A000ECD10D98C0070DD5002C0BD0002C09D002
:1037B000A34507D2641E20213800FFF777FFF86881
:1037C0000028F3D5BDE8F78F84CE00002DE9F04F37
:1037D00083B006000F0090461D000C9CDDF834906D
:1037E000002F02D5D7F1000B00E0BB460120824636
:1037F000C34504DB9BFBF8FB1AF1010AF8E7AA4575
:1038000000D2AA46002C05D0002F02D45FEA4970EE
:1038100000D5641E5FEA897001D5002D10D05FEAE3
:10382000C9700DD4002C0BD0002C09D0A24507D2B2
:10383000641E20213000FFF739FFF0680028F3D51F
:10384000F068002831D4002F05D57F422D213000AB
:10385000FFF72CFF06E05FEA497003D52B2130000B
:10386000FFF724FFF06800281FD419F00300022896
:103870000FD1002D0DD1002C0BD0002C09D0A2456A
:1038800007D2641E30213000FFF710FFF0680028D7
:10389000F3D5F068002808D4CDF8049000942B00EC
:1038A000424639003000FFF724FFBDE8F78F2DE9CD
:1038B000F14F98B08A46160007A802904020039066
:1038C0000020049018980690002005909AF80000B7
:1038D00004001AF1010AE4B2002C00F00681E4B2FF
:1038E000252C40F0F98000200700012005009AF8FF
:1038F00000000400E4B22000232815D02B280ED0AD
:103900002D2802D0302805D013E057F001071AF116
:10391000010A10E057F002071AF1010A0BE057F014
:1039200004071AF1010A06E057F008071AF1010A24
:1039300001E000200500002DD9D1002080469AF832
:1039400000000400E4B2302C02DBE4B23A2C08DBC5
:10395000002081469AF800000400E4B22E2C1ED10B
:1039600008E01AF1010A0A20E4B200FB0848B8F1A5
:103970003008E4E71AF1010A9AF800000400E4B202
:10398000302C02DBE4B23A2C00DB08E01AF1010A29
:103990000A20E4B200FB0949B9F13009ECE79AF8D2
:1039A00000000400E4B26C2C02D0E4B2682C05D113
:1039B0001AF1010A9AF800000400F3E7E4B22000CB
:1039C000252800F08180582840D063280AD0642838
:1039D00018D0702865D073284AD0752824D078284C
:1039E00034D076E030683060306800683168091D96
:1039F00031600500280083465946C9B202A8FFF786
:103A000055FE66E030683060306800683168091D36
:103A1000316005000197CDF800804B460A2229004D
:103A200002A8FFF7D3FE54E03068306030680068C9
:103A30003168091D316005000197CDF800804B46C3
:103A40000A22290002A8FFF754FE42E030683060E5
:103A5000306800683168091D316005000197CDF8B4
:103A600000804B461022290002A8FFF742FE30E0FA
:103A7000306830603068D0F800B03068001D3060C9
:103A80009BF8000004001BF1010BE4B2002C07D0EE
:103A90002100C9B202A8FFF709FE05980028EFD55A
:103AA00017E030683060306800683168091D3160A7
:103AB0000500002001900820009008231022290012
:103AC00002A8FFF716FE04E0252102A8FFF7EEFD8D
:103AD000FFE71AF1010A04E02100C9B202A8FFF7CA
:103AE000E5FD059800287FF5F1AE059801280BDB70
:103AF0000498002804D0049A07A9189802F013FA31
:103B00000599049841180591059819B0BDE8F08F02
:103B10000CB470B582B004000D0006A800906A468F
:103B200029002000FFF7C3FE0600300076BC5DF8D8
:103B30000CFB254A2DE9F04F85B006000F0090469A
:103B40009946DDF838A0DDF83CB01FFA88F85FEA46
:103B5000880002F013FA0500002D0BD0542002F06B
:103B60000DFA0400002C01D0256305E0280002F0C6
:103B70003CFA01E000200400002C14D00020039047
:103B80000294CDF804B0CDF800A04B461FFA88F897
:103B900042463900300000F00DF8200000F078F8BF
:103BA0000120049002E05FF0FF300490049805B01B
:103BB000BDE8F08F2DE9F94F83B00D0016000E9F80
:103BC0000F9CDDF84080B0000190A5200090D8F84F
:103BD00030B0009A01995846FEF742F8D8F8300004
:103BE00000EB8600001F82465FEADA0A5FEACA0A33
:103BF0001AF00700002807D0802080F31188BFF357
:103C00004F8FBFF36F8FFEE700208146B9F1080F99
:103C10000CD215F8090008EB090181F8340015F8F9
:103C20000900002802D019F10109EFE7002088F807
:103C30003B00052F01D304200700C8F82C70C8F8FA
:103C400044700020C8F8480018F1040002F0EDF9B3
:103C500018F1180002F0E9F9C8F81080D7F1050052
:103C6000C8F81800C8F824800020C8F84C000020CC
:103C700088F85000049A0399504602F017FAC8F8E1
:103C80000000002C01D0C4F8008005B0BDE8F08F22
:103C900010B5040002F0A7FADFF810060068401C17
:103CA000DFF808160860DFF80806006800280AD167
:103CB000DFF8FC050460DFF8F4050068012811D185
:103CC00000F064FB0EE0DFF8EC050068002809D185
:103CD000E06ADFF8DC150968C96A884202D3DFF8B8
:103CE000D0050460DFF8D0050068401CDFF8C81577
:103CF0000860DFF8C4050068E063DFF8C00500680D
:103D0000E16A884203D2E06ADFF8B0150860211D3D
:103D1000DFF8AC25E36A1420434302EB030002F012
:103D200087F902F07DFADFF88C05006800280FD0D3
:103D3000DFF87C050068C06AE16A884208D25FF05B
:103D40008050DFF898160860BFF34F8FBFF36F8F76
:103D500010BD2DE9F04104000D000027002C07D113
:103D6000802080F31188BFF34F8FBFF36F8FFEE782
:103D7000002D07D1802080F31188BFF34F8FBFF350
:103D80006F8FFEE7DFF858060068002807D0802014
:103D900080F31188BFF34F8FBFF36F8FFEE700F002
:103DA00091F8DFF8E4050068216869188846216801
:103DB000884207D2216888450BD2404509D20121AB
:103DC0000F0006E02168884501D3404501D201215A
:103DD0000F00C4F80080002F04D00021B8EB0000D1
:103DE00000F0A6FD00F076F80600002E08D15FF086
:103DF0008050DFF828160860BFF34F8FBFF36F8F36
:103E0000BDE8F08138B505000024002D15D0DFF89D
:103E1000D0050068002807D0802080F31188BFF308
:103E20004F8FBFF36F8FFEE700F04CF800212800A2
:103E300000F07EFD00F04EF80400002C08D15FF089
:103E40008050DFF8D8150860BFF34F8FBFF36F8F36
:103E500031BD1CB5DFF82807019000200090002339
:103E60004022DFF820170FF2F940FFF763FE04004D
:103E7000012C02D100F0AEFD0400012C16D18020EF
:103E800080F31188BFF34F8FBFF36F8F5FF0FF3068
:103E9000DFF8A81708600120DFF818140860002078
:103EA000DFF8E414086002F02AF90AE014F1010FC7
:103EB00007D1802080F31188BFF34F8FBFF36F8F3E
:103EC000FEE713BDDFF818050068401CDFF8101589
:103ED0000860704770B500250026DFF8040500680B
:103EE000002807D1802080F31188BFF34F8FBFF3E4
:103EF0006F8FFEE702F077F9DFF8E4040068401EF8
:103F0000DFF8DC140860DFF8D804006800285DD111
:103F1000DFF898030068002858D0DFF860060068D2
:103F200000282BD0DFF85406C068C068050015F1E2
:103F3000180002F0A6F8281D02F0A3F8DFF87C03B1
:103F40000068E96A884203D2E86ADFF87013086003
:103F5000291DDFF86C23EB6A1420434302EB0300B6
:103F600002F066F8E86ADFF848130968C96A88420F
:103F7000D3D30120DFF870170860CEE7002D01D001
:103F800000F036FADFF8D8060468002C0ED000F0F6
:103F900026F8002803D00120DFF84C170860641EC3
:103FA000002CF4D10020DFF8B8160860DFF83807DD
:103FB000006800280AD0012006005FF08050DFF87A
:103FC0005C140860BFF34F8FBFF36F8F02F028F9C6
:103FD000300070BDDFF8B0130968080070472DE9A4
:103FE000F0410027DFF8F803006800287CD1DFF8F3
:103FF00098030468641CDFF890030460002C24D14B
:10400000DFF8E00300680068002807D0802080F314
:104010001188BFF34F8FBFF36F8FFEE7DFF8C40344
:1040200000688046DFF8C0030068DFF8B813086056
:10403000DFF8B403C0F80080DFF8B0060068401C69
:10404000DFF8A816086000F0D3F9DFF8F005006883
:1040500084423DD3DFF88C0300680068002805D156
:104060005FF0FF30DFF8D415086031E0DFF874034B
:104070000068C068C068050068680600B44203D2E2
:10408000DFF8B805066023E0281D01F0FAFFA86AF2
:10409000002803D015F1180001F0F3FF87480068ED
:1040A000E96A884202D2E86A84490860291D844A84
:1040B000EB6A1420434302EB030001F0B9FFE86A06
:1040C0007B490968C96A8842C4D301200700C1E757
:1040D000774800687A49C26A142042438858022807
:1040E00009D30120070006E0DFF874050068401CD2
:1040F000DFF86C150860DFF8F0050068002801D0D3
:10410000012007003800BDE8F08180B5DFF8D0025B
:104110000068002804D00120DFF8CC15086040E0DA
:104120000020DFF8C415086061480068006B604932
:1041300009680968884207D35D48006810F13401B6
:104140005B48006802F0E9FA5C49096808005C49CC
:10415000142202FB00F2895800290BD1002807D154
:10416000802181F31188BFF34F8FBFF36F8FFEE77C
:10417000401EECE7524A142303FB00F31A441100DB
:104180004A6852684A604A6811F108039A4202D1AB
:104190004A6852684A604968C968454A1160474997
:1041A000086001BD38B504000D00002C07D1802047
:1041B00080F31188BFF34F8FBFF36F8FFEE73C484A
:1041C000006810F11801200001F03EFF01212800D5
:1041D00000F0AEFB31BD70B505000E001400002DDF
:1041E00007D1802080F31188BFF34F8FBFF36F8F0B
:1041F000FEE72F48006810F11801280001F018FFB1
:10420000002C02D05FF0FF3006002100300000F0EB
:104210008FFB70BD70B50500E868C0680400002C15
:1042200007D1802080F31188BFF34F8FBFF36F8FCA
:10423000FEE714F1180001F024FF69480068002827
:1042400014D1201D01F01DFF1C480068E16A88425E
:1042500002D2E06A19490860211D194AE36A142054
:10426000434302EB030001F0E3FE05E014F1180103
:10427000DFF8080301F0DCFE0D480068C06AE16A5F
:10428000884206D2012006000120DFF86C15086084
:1042900001E000200600300070BDDFF8501409680E
:1042A0000160DFF8F416096841607047007400206F
:1042B000F47300200C7400201C740020087400208B
:1042C000A47000202DE9F04104000D00002C07D15E
:1042D000802080F31188BFF34F8FBFF36F8FFEE70D
:1042E000002D07D1802080F31188BFF34F8FBFF3DB
:1042F0006F8FFEE701F077FF23480768D4F804804A
:10430000B7EB0808286810F1010F02D10020060061
:104310001CE0DFF8D80300682168884205D0606897
:10432000874202D30120060010E02868804509D2A8
:104330002868B0EB080028602000FFF7AEFF0020DF
:10434000060003E0002028600120060001F068FF5D
:104350003000BDE8F0810120DFF89C140860704750
:1043600010B5040000F039F8DFF8300600680228C4
:10437000F8D35FF08050DFF828160860BFF34F8F46
:10438000BFF36F8FEEE700000474002010B500202B
:104390000400052C09D2DFF80406142101FB04F106
:1043A000084401F033FE641CF3E7DFF8F80501F080
:1043B0002DFEDFF8F40501F029FE704801F026FE1D
:1043C0000A4801F023FEDFF8DC0506490860DFF843
:1043D000D805DFF8D815086010BD704704ED00E07F
:1043E00028740020F8730020FC7300204C73002018
:1043F000DFF8C00500680068002804D15FF0FF30D6
:104400008E4A106008E0DFF8AC050068C068C0683C
:1044100001004868894A10607047000004ED00E020
:10442000DFF894150968002902D10121080009E08C
:10443000DFF888150968002902D10221080001E08F
:1044400000210800704770B5040025000026002CEC
:1044500048D0E86ADFF858150968C96A884238D236
:10446000A869002806D4DFF848050068C06AD0F1C2
:104470000500A8616969DFF82425EB6A142043432D
:1044800002EB030081421CD1281D01F0FAFDDFF888
:1044900020050068C06AE862DFF824050068E96A60
:1044A000884203D2E86ADFF818150860291DDFF892
:1044B000EC24EB6A1420434302EB030001F0B8FD47
:1044C00004E0DFF8EC040068C06AE862012006003E
:1044D00008E0686CDFF8D8140968C96A884201D21C
:1044E00001200600300070BD70B5040025000026D4
:1044F000002C40D0DFF8B8040068854207D0802047
:1045000080F31188BFF34F8FBFF36F8FFEE7A86C66
:10451000002807D1802080F31188BFF34F8FBFF3AD
:104520006F8FFEE7A86C401EA864E86A696C884239
:1045300021D0A86C00281ED1281D01F0A2FD686CB6
:10454000E862E86AD0F10500A861DFF87404006849
:10455000E96A884203D2E86ADFF864140860291D1A
:10456000DFF83824EB6A1420434302EB030001F028
:104570005FFD01200600300070BD00003873002090
:104580002474002044CF00002DE9F84304000D00FE
:1045900026005FF00109002C4ED0B06C002807D136
:1045A000802080F31188BFF34F8FBFF36F8FFEE73A
:1045B000706CA84201D2A84601E0706C8046F06A97
:1045C000404539D0B06C484536D1DFF8E403006887
:1045D000864207D1802080F31188BFF34F8FBFF34D
:1045E0006F8FFEE7F06A0700C6F82C80B0690028DC
:1045F00002D4D8F10500B0617069DFF8A01314226D
:1046000002FB07F21144884216D1301D01F039FD3A
:10461000DFF8AC030068F16A884203D2F06ADFF881
:10462000A0130860311DDFF87423F36A142043439C
:1046300002EB030001F0FCFCBDE8F18320740020D4
:10464000DFF86C030068002805D0DFF86403006819
:10465000816C491C8164DFF85803006870470000D2
:104660001074002070B504000D0001F0BCFDDFF8EF
:1046700040030068C06C002814D10120DFF830131B
:10468000096881F85000002D0CD00121280000F0AD
:104690004FF95FF08050DFF808130860BFF34F8FC9
:1046A000BFF36F8F01F0BCFD01F09DFDDFF800034B
:1046B0000068C06C0600002E0CD0002C05D0002035
:1046C000DFF8EC120968C86404E0701EDFF8E0123D
:1046D0000968C8640020DFF8D812096881F8500022
:1046E00001F09EFD300070BD14740020187400208D
:1046F0002DE9F04704000E0017001D005FF00109CE
:10470000002C07D1802080F31188BFF34F8FBFF3B7
:104710006F8FFEE7A04601F066FD002D02D0D8F8AD
:104720004C00286098F850008246022088F850001B
:10473000FFB2002F20D0022F0AD003D3042F10D0B5
:104740000CD319E0D8F84C003043C8F84C0013E003
:10475000D8F84C00401CC8F84C000DE0C8F84C607C
:104760000AE05FFA8AFABAF1020F02D0C8F84C6088
:1047700001E000208146FFE75FFA8AFABAF1010FF3
:1047800035D118F1040001F07CFCDFF83402006838
:10479000D8F82C10884204D2D8F82C00DFF8201268
:1047A000086018F104017D4AD8F82C3014204343E6
:1047B00002EB030001F03CFCD8F82800002807D0E9
:1047C000802080F31188BFF34F8FBFF36F8FFEE718
:1047D00077480068C06AD8F82C10884207D25FF08A
:1047E00080506F490860BFF34F8FBFF36F8F01F0A8
:1047F00017FD4846BDE8F087147400202DE9F84FF6
:1048000004000F0090461D000A9E5FF0010A002C74
:1048100007D1802080F31188BFF34F8FBFF36F8FD4
:10482000FEE701F02BFDA146EFF3118083468020C7
:1048300080F31188BFF34F8FBFF36F8F002D02D02D
:10484000D9F84C00286099F850008DF8000002203B
:1048500089F850005FFA88F8B8F1000F21D0B8F15C
:10486000020F0BD004D3B8F1040F10D00CD318E012
:10487000D9F84C003843C9F84C0012E0D9F84C0084
:10488000401CC9F84C000CE0C9F84C7009E09DF8D8
:104890000000022802D0C9F84C7001E000208246D6
:1048A000FFE79DF8000001283DD1D9F82800002835
:1048B00007D0802080F31188BFF34F8FBFF36F8F35
:1048C000FEE73E480068002819D119F1040001F004
:1048D000D8FB3B480068D9F82C10884203D2D9F89D
:1048E0002C003749086019F104012C4AD9F82C3002
:1048F0001420434302EB030001F09AFB04E019F19A
:104900001801304801F094FB29480068C06AD9F8C2
:104910002C10884207D2002E02D00120306002E025
:104920000120294908608BF311885046BDE8F28FB9
:10493000F8B505000C00184807681D480068001D00
:1049400001F09FFB15F1010F08D1002C06D018488B
:104950000068011D1D4801F06BFB1BE0E819060013
:10496000134800684660BE4207D211480068011D26
:104970000E48006801F068FB0CE00D480068011D5E
:104980000C48006801F060FB11480068864201D2C3
:104990000F480660F1BD000004740020A4700020E0
:1049A00004ED00E01073002024730020FC7300204D
:1049B000F4730020F87300200C7400202874002089
:1049C0000874002038730020147400204C730020F9
:1049D000207400201CB5002400F022FADFF87C04CB
:1049E000006800280DD0DFF87804019004200090C2
:1049F00000234022DFF86C140FF27D10FFF79AF8C5
:104A00000400002C07D1802080F31188BFF34F8F62
:104A1000BFF36F8FFEE7200016BD2DE9F04383B092
:104A200005000E0017009846DDF828902C2001F0B4
:104A3000A5FA0400002C08D00194CDF8009043465C
:104A40003A003100280000F003F82000BDE8FE83A2
:104A50002DE9F84306000D0017009846DDF8209078
:104A6000099C002D07D1802080F31188BFF34F8F60
:104A7000BFF36F8FFEE7002C0BD000F0D1F926605A
:104A8000A561E761C4F82080C4F82490201D01F0DE
:104A9000CCFABDE8F1832DE9FE4304000D001600B9
:104AA0001F00DDF828805FF00009002C07D180206E
:104AB00080F31188BFF34F8FBFF36F8FFEE7DFF8EE
:104AC0009C030068002825D0009501960294062DCD
:104AD00017DAFFF7A5FC022809D1002342466946F0
:104AE000DFF87803006802F08DF8814612E00023B9
:104AF00000226946DFF86403006802F083F881460B
:104B000008E000233A006946DFF85003006802F02D
:104B100060F981464846BDE8FE83F8B505000E0001
:104B2000DFF844030068C068C768381D01F0A9FABF
:104B3000F86901281BD12B003200B96949193800E6
:104B400000F08AF8002812D00020009000232A00EC
:104B500000213800FFF79FFF0400002C07D18020C0
:104B600080F31188BFF34F8FBFF36F8FFEE73800DC
:104B7000796A8847F1BD000038B50400684600F046
:104B800040F805000099280000F003F800F08CF8C8
:104B9000F4E770B582B005000C00FFF793F96846A2
:104BA00000F046F806000098002827D1002C08D114
:104BB000AE4206D3FFF78EF931002800FFF7ADFFB4
:104BC0001EE0002C07D0A94800680068002801D129
:104BD000012400E000242200A91BA048006802F084
:104BE00061FCFFF777F900280AD15FF08050A049F7
:104BF0000860BFF34F8FBFF36F8F01E0FFF76AF9D3
:104C000073BD0200984909680968002901D1012192
:104C100000E00021C9B211601168002905D1924954
:104C20000968C9680968080001E0002108007047A8
:104C300038B50400FFF7CEF905008E4800688542BC
:104C400004D200F09FF80120206001E000202060E5
:104C500088480560280032BD2DE9F04104000D00B0
:104C600016001F005FF0000865602461AE420CD39F
:104C7000F01BA169884202D30120804611E0211D6A
:104C80007A48006801F0E0F90BE0BE4204D2BD4270
:104C900002D30120804604E0211D7348006801F022
:104CA000D3F94046BDE8F08170B586B0002201A975
:104CB0006A48006802F081F9002861D00198002854
:104CC000F4D4039805006869002802D0281D01F07B
:104CD000D8F904A8FFF7ACFF0600019800280ED011
:104CE00002280CD00BD3042830D02ED3062806D0AF
:104CF00041D3082829D002D3092827D03FE0029BBE
:104D000032000299A86941182800FFF7A5FF002882
:104D10001AD02800696A8847E869012814D1002060
:104D200000900023029AA869821800212800FFF74A
:104D3000B2FE0400002C07D1802080F31188BFF35D
:104D40004F8FBFF36F8FFEE7B0E7AFE70298A86120
:104D5000A869002807D1802080F31188BFF34F8F06
:104D6000BFF36F8FFEE733003200A969891928006D
:104D7000FFF772FF9AE7280001F037F996E795E709
:104D800006B070BD2DE9F04182B037480068006878
:104D900000283AD034480068C068006805003248EE
:104DA0000068C068C068804618F1040001F069F925
:104DB0004046D8F824108847D8F81C000128E4D1D0
:104DC000D8F8180040190600B5420AD2C8F80460A5
:104DD000C8F8108018F104012348006801F034F984
:104DE000D3E70020009000232A0000214046FFF76F
:104DF00052FE0400002C07D1802080F31188BFF3FD
:104E00004F8FBFF36F8FFEE7BFE7174800680700BB
:104E1000164800681449086014480760BDE8F3812B
:104E200080B501F0E0F90D480068002812D1124861
:104E300001F0ECF8114801F0E9F80F480A49086060
:104E40000E480A49086000220C21022001F090FE61
:104E50000249086001F0E4F901BD0000347400204B
:104E6000387400204CCF00002C74002030740020D7
:104E700004ED00E03C740020607300207473002097
:104E800070B54FF48074FF25DFF8C4642A00210058
:104E90003000FCF7E5FE0020C0B23E2809DADFF85A
:104EA000B414C0B2095CDFF8A824C9B25054401C45
:104EB000F2E770BDC0B2FF2804D0DFF89414C0B28E
:104EC000085C00E0FF20C0B27047C0B23E2804DAA0
:104ED000DFF88014C0B2085C00E0FF20C0B2704769
:104EE00010B4030000201C000A00511E002A03D049
:104EF00022781018641CF7E7C0B210BC7047DFF8C6
:104F00005804DFF85414DFF85424116001217C297F
:104F10000FD2DFF84424402303FB01F31A4402605C
:104F2000DFF83424402303FB01F31A441000491C2A
:104F3000EDE700210160704710B501F054F9DFF88A
:104F40001C040468002C03D02068DFF810140860EB
:104F500001F066F9200010BD10B50400002C0AD045
:104F600001F041F9DFF8F40300682060DFF8EC039A
:104F7000046001F055F910BD80B5FFF7C0FFFFF7E1
:104F80007FFF01BD38B501F02EF900243E2C15DA63
:104F9000DFF8CC0300EBC4052868002802D028689D
:104FA000FFF7DAFF6868002802D06868FFF7D4FFCF
:104FB0000020286000206860641CE7E701F030F9F9
:104FC00031BD70B505000C000026EDB23E2D21DA92
:104FD00001F009F9E4B2002C0CD0DFF88403EDB243
:104FE00050F8350006000020DFF87413EDB241F8E8
:104FF00035000DE0DFF86803EDB200EBC500406856
:1050000006000020DFF85813EDB201EBC50148603F
:1050100001F006F9300070BDF8B505000C0016006F
:10502000EDB23E2D3DDA01F0DEF8DFF83403EDB2EB
:1050300000EBC507E4B2002C07D03868002802D086
:105040003868FFF789FF3E6027E07868002802D0C3
:105050007868FFF781FF7E60786800281DD04AF6E7
:10506000552030802800C0B2FFF72FFFB070F078D5
:105070003B2801D2F07800E03B20F070F178891CE9
:10508000B01CFFF72DFFF178314408710023012295
:105090000121B4480068FFF72BFB01F0C1F80120A3
:1050A00000E00020F2BD2DE9F04705000E001700DA
:1050B0000024FFF741FF804600281DD0FFB23B2FA0
:1050C00001D2380000E03B2088F8030098F80390F4
:1050D00018F1040A4A4631005046FCF76DFD42467D
:1050E00000212800C0B2FFF797FF0400E4B2002CB3
:1050F00002D14046FFF730FF2000C0B2BDE8F08784
:105100002DE9F04104000D0016005FF0000828783A
:105110003E2190FBF1F201FB12002870F6B23E2016
:1051200096FBF0F100FB116628783100C9B2884285
:1051300003D2F6B22F78F71B04E02878D0F13E00B6
:1051400050FA86F701F04FF83800471E002833D098
:10515000E4B2002C10D08248297850F831000028A1
:105160000AD07F48297850F83100804600207C49D9
:105170002A7841F832001FE0E4B2002C13D17848BD
:10518000297800EBC100406800280CD074482978C9
:1051900000EBC10040688046002071492A7801EB8D
:1051A000C201486008E02878401C3E2190FBF1F2E3
:1051B00001FB12002870C7E701F032F84046BDE855
:1051C000F0812DE9F04182B004000025A678F6B206
:1051D0003609A77817F00F07A078FFF76BFE804617
:1051E000F6B23000002808D0401E042840F28D801E
:1051F000401F042840F29180A6E0FFB2002F09D0A2
:10520000022F29D016D3042F49D037D3062F6AD0C6
:1052100057D379E02000FFF79FFE684652490A689D
:105220000260042269464046C0B2FFF73CFF0120FD
:10523000050069E02000FFF78FFE4C480068002859
:1052400007D0002301225FF4803148480068FFF74F
:105250004FFA0120050057E02000FFF77DFE43488C
:105260000068002807D0002301225FF400313F4886
:105270000068FFF73DFA0120050045E02000FFF738
:105280006BFE3A480068002806D000230122202146
:1052900036480068FFF72CFA0120050034E02000B2
:1052A000FFF75AFE31480068002807D0002301228A
:1052B0005FF480212D480068FFF71AFA01200500ED
:1052C00022E02000FFF748FE28480068002807D0A9
:1052D000002301225FF4002124480068FFF708FA48
:1052E0000120050010E02000FFF736FE1F4800688F
:1052F000002807D0002301225FF480111B480068BA
:10530000FFF7F6F9012005001EE0220001214046CA
:10531000C0B2FFF781FE050016E0220001214046E1
:10532000C0B2FFF779FE0500C0B200280CD01048CB
:10533000F6B200EB860050F8180C002804D00023C9
:1053400001224021FFF7D4F92800C0B2BDE8F68160
:10535000006D002010C3000028430020407400208E
:1053600058680020DC73002060CF0000E07300204C
:10537000FC72002000B200280AD4012210F01F01A4
:105380008A40DFF8201900B203005B0941F82320AE
:10539000704700B200280ED4012210F01F018A408D
:1053A000DFF8041900B203005B0941F82320BFF3C2
:1053B0004F8FBFF36F8F704700B200280AD40122CD
:1053C00010F01F018A40DFF8E41800B203005B0907
:1053D00041F82320704710B400B2002805D44A01D8
:1053E000DFF8CC3800B21A5408E04A01DFF8C438BC
:1053F00000B210F00F04234403F8042C10BC7047D3
:10540000DFF8B428126800B202EB80031964704719
:1054100042680A42FCD170474161704701617047A0
:10542000C160704710B50400207850F00200207071
:1054300003212000FFF7ECFF10BD70B504000D0044
:105440002078060016F0EF0656EA051626700321AE
:105450002000FFF7DDFF70BD38B504000D0025709A
:1054600003212000FFF7D4FF31BD10B4C9B200EB17
:105470008103DB691343C9B200EB8104E36110BC13
:105480007047C9B200EB8103DA617047016370476E
:105490004163704742680A42FCD1704770B504000E
:1054A0000D001600EDB204EB8500066243F6FD71B7
:1054B0002000FFF7EFFF70BDC9B200EB8103C3F816
:1054C00080207047416951F48061416170470288D2
:1054D00013004FF63F72134089B28A0112F0C002E6
:1054E000134303807047028889B20B0213F4706380
:1054F0001A4302807047017470478182704701002F
:10550000CA691000C0F305207047C1617047C9B275
:10551000142303FB01F30344DB6B1342F7D1704701
:1055200070B504000D001600EDB2142000FB05F06C
:10553000204480F8306002222900C9B22000FFF721
:10554000E6FF70BDC9B200EB81035A617047017775
:1055500070478079704701727047C9B2802303FB9E
:1055600001F303449A607047C9B280225143405806
:105570007047C9B2802303FB01F303445A607047AC
:10558000C9B2802303FB01F303449A617047C9B297
:1055900080225143084400697047C9B2802303FB4D
:1055A00001F303445A617047C9B280225143084451
:1055B000006A704730B4C9B2802404FB01F404448B
:1055C000D2B2144494F83040250015F0F00513F0E1
:1055D0000F042543C9B2802404FB01F40444D2B271
:1055E000144484F8305030BC704730B4C9B28024C1
:1055F00004FB01F40444D2B2144494F83040250072
:1056000015F00F05DBB21C012543C9B2802404FB51
:1056100001F40444D2B2144484F8305030BC7047D2
:1056200030B4C9B2802505FB01F50544D2B215445A
:1056300095F840502C0014F0FE041C43C9B280259C
:1056400005FB01F50544D2B2154485F8404030BC55
:10565000704710B4C9B2802303FB01F30344D2B2F4
:105660001344C9B2802404FB01F40444D2B21444AC
:1056700094F8404054F0040483F8404010BC704754
:1056800010B4C9B2802303FB01F30344D2B2134424
:10569000C9B2802404FB01F40444D2B2144494F847
:1056A000404014F0FB0483F8404010BC7047C9B27E
:1056B000802303FB01F303449A627047C9B200EBF5
:1056C0008103C3F880207047C9B200EB8100D0F895
:1056D00080007047016931F002010161704770B5C7
:1056E00004000D001600F6B2002E03D0022E37D0B3
:1056F0001BD350E02A002100C9B2DFF8C005FFF734
:1057000038FFAAB252F080422100C9B2DFF8AC05DE
:10571000FFF7CDFF2A00120C52F040422100C9B21F
:10572000DFF89805FFF7C3FF35E02A002100C9B272
:10573000DFF88805FFF71DFF2A00C4F202022100EE
:10574000C9B2DFF87805FFF7B2FFDFF8742552EA37
:1057500015422100C9B2DFF86405FFF7A8FF1AE07F
:105760002A002100C9B2DFF85405FFF7F6FEAAB2FD
:1057700052F080422100C9B2DFF84005FFF797FFE1
:105780002A00120C52F040422100C9B2DFF82C0569
:10579000FFF78DFFFFE770BD70B505000E00140028
:1057A000E4B2002C07D032002900C9B2DFF80C05A2
:1057B000FFF7E6FE06E032002900C9B2DFF8FC047C
:1057C000FFF7EBFE70BD70B582B004006846FCF7D1
:1057D0007AFA2100C9B2DFF8E404FFF7C5FE06003B
:1057E0002100C9B2DFF8D404FFF7DEFEB0430500A4
:1057F0002100C9B2DFF8C404FFF7C9FE30402843D6
:1058000005006846FCF766FA280076BD70B504000E
:105810000D001600F6B2002E03D0022E23D009D3BD
:105820003AE02A00D2B22100C9B2DFF89004FFF7B3
:1058300027FF31E00122AA402100C9B2DFF87C0431
:10584000FFF797FE2A00D2B22100C9B2DFF86C043C
:10585000FFF7FFFE0122AA402100C9B2DFF85C0475
:10586000FFF78EFE18E00122AA402100C9B2DFF83E
:105870004C04FFF77EFE2A00D2B22100C9B2DFF845
:105880003C04FFF7E6FE0122AA402100C9B2DFF87E
:105890002C04FFF782FEFFE770BDF8B504000D0091
:1058A0002600760914F01F0715F1010F09D1002316
:1058B0003A00D2B23100C9B2DFF80004FFF7B0FEFF
:1058C00021E001233A00D2B23100C9B2DFF8EC0383
:1058D000FFF7A6FEF8070BD52B00DBB23A00D2B2D9
:1058E00052083100C9B2DFF8D403FFF77EFE0AE0A8
:1058F0002B00DBB23A00D2B252083100C9B2DFF855
:10590000BC03FFF757FEF1BD38B504000D002A00B7
:10591000D2B214F01F012000C0B24009FFF776FF99
:1059200031BD38B504000D0029002000FFF7B5FF98
:1059300031BD38B504000D002A00D2B2012114F0A7
:105940001F0081402000C0B24009FFF7C8FE31BDF2
:1059500038B504000D002A00D2B2012114F01F0056
:1059600081402000C0B24009FFF716FF31BD10B5DD
:1059700004002000C0B24009FFF725FF14F01F0407
:10598000E04010F0010010BD38B5CE4C2000FFF70C
:10599000B6FD0500ADB2290211F47C512000FFF7DD
:1059A000B4FD00212000FFF7A6FD00212000FFF735
:1059B000A4FD31BD80B54FF482720021C248FFF7CB
:1059C0006DFD00220121C048FFF768FD0022022181
:1059D000BD48FFF763FD00220321BB48FFF75EFDD2
:1059E00000220421B848FFF759FD00220521B648DE
:1059F000FFF754FD00220621B348FFF74FFD0022B8
:105A00000721B148FFF74AFD00220821AE48FFF701
:105A100045FD00220921AC48FFF740FD00220A2184
:105A2000A948FFF73BFD00220B21A748FFF736FDF1
:105A300001BD10B5A54C00212000FFF788FD002214
:105A400000212000FFF76CFD002201212000FFF75C
:105A500067FD002200212000FFF774FD00220121D4
:105A60002000FFF76FFD10BD80B501212420FFF756
:105A70006FFF02212420FFF75CFF5FF0FF3124203D
:105A8000FFF74FFF01212720FFF762FF02212720A8
:105A9000FFF74FFF5FF0FF312720FFF742FF0021A4
:105AA0004220FFF755FF02214220FFF742FF5FF03F
:105AB000FF314220FFF735FF01BD80B50221844848
:105AC000FFF7AEFC02218248FFF7A6FC01BD80B5BE
:105AD0004FF400717E48FFF7A3FC4FF400717C483F
