:1000000000000320A59C0000AD9C0000AD9C0000FA
:10001000AD9C0000AD9C0000AD9C00000000000005
:10002000000000000000000000000000E55D00008E
:10003000AD9C0000000000008D5D00004B540000EE
:10004000AD9C0000AD9C0000AD9C0000AD9C00008C
:10005000AD9C0000AD9C0000AD9C0000AD9C00007C
:10006000AD9C0000AD9C0000AD9C0000AD9C00006C
:10007000AD9C0000AD9C0000AD9C0000AD9C00005C
:10008000AD9C0000AD9C0000AD9C0000AD9C00004C
:10009000AD9C0000AD9C0000AD9C0000AD9C00003C
:1000A000AD9C0000AD9C0000AD9C0000AD9C00002C
:1000B000AD9C0000AD9C0000AD9C0000AD9C00001C
:1000C000AD9C0000AD9C0000AD9C0000AD9C00000C
:1000D000AD9C0000AD9C0000AD9C0000AD9C0000FC
:1000E000AD9C0000AD9C000000000000000000007E
:1000F00000000000619A00007923000083230000C3
:100100008D23000097230000AD9C0000AD9C0000F3
:10011000AD9C0000AD9C0000512300005B2300005B
:10012000652300006F230000AD9C0000AD9C000023
:10013000AD9C0000AD9C000029230000332300008B
:100140003D23000047230000A1230000AB23000053
:10015000B5230000BF230000AD9C0000AD9C000053
:10016000AD9C0000AD9C0000C9230000D32300001B
:10017000DD230000E7230000000000000000000075
:10018000991B0000A11B0000A91B0000B11B00006F
:1001900000000000AD9C0000AD9C0000AD9C000084
:1001A000AD9C0000AD9C0000AD9C0000AD9C00002B
:1001B000AD9C0000AD9C0000AD9C0000AD9C00001B
:1001C000AD9C0000AD9C0000AD9C0000AD9C00000B
:1001D000AD9C0000AD9C0000AD9C0000AD9C0000FB
:1001E000AD9C0000AD9C0000AD9C0000AD9C0000EB
:1001F000AD9C0000AD9C0000AD9C0000AD9C0000DB
:10020000AD9C0000AD9C0000AD9C0000AD9C0000CA
:10021000AD9C0000AD9C0000AD9C0000AD9C0000BA
:10022000AD9C0000AD9C0000AD9C0000AD9C0000AA
:10023000AD9C0000AD9C0000AD9C0000AD9C00009A
:10024000AD9C0000AD9C0000AD9C0000AD9C00008A
:10025000AD9C0000AD9C0000AD9C0000AD9C00007A
:10026000AD9C000000B200280AD4012210F01F014A
:100270008A40DFF8BC1C00B203005B0941F8232070
:10028000704710B40300C9B2142404FB01F41C44E9
:10029000246C2000104010BC704702001369180045
:1002A0000840704790F82020110011F00101C9B2F8
:1002B000002901D0012000E00020C0B27047827800
:1002C0000A42FCD170478078084201D0012000E04A
:1002D0000020C0B2704710B40300C9B24C011C44E6
:1002E00094F8074120001040C0B210BC7047C9B25A
:1002F0004901084490F807017047C9B24B01034413
:1003000083F807217047C9B24B01034483F80521E4
:100310007047C9B24901084490F806017047C9B254
:100320004B01034483F8042170471022C9B24B01EA
:10033000034483F808217047C9B24B01034483F892
:1003400009217047C9B24B01034483F80821704763
:100350000200C9B24B01134493F80031180010F0A9
:100360000700C0B270470200C9B24B01134493F8B2
:1003700000311800C0F30210C0B27047C9B24B017F
:10038000034483F800217047C9B24901084490F83A
:1003900000017047808B70478183704701837047ED
:1003A000008B7047818270470200937818000840E4
:1003B000C0B2704710B50400207810F0FD00207026
:1003C00003212000FFF77BFF10BD70B504000D0076
:1003D00003212000FFF773FF207806002E40300035
:1003E000C0B270BD38B504000D0025700321200097
:1003F000FFF765FF31BD10B5040003212000FFF7B2
:100400005EFF207810BD02894FF6FE710A4002811E
:1004100070470181704781727047416270470200E6
:100420000020704730B45FF08244DFF86C0C007835
:1004300010F01F00DFF8601C0968C1F34412DFF8F8
:10044000581C0968C1F38221002801D01F2801D15E
:1004500009231800002A01D01F2A01D119231A00EC
:10046000002901D0072901D106231900850115F4BF
:10047000F86512F01F031D430B0313F4E0431D4303
:100480002585E37853F00303E370E37853F00C031E
:10049000E37030BC704780B503220021DFF8FC0B0D
:1004A000FFF7EFFE0328F7D101BD80B5DFF8EC0BB5
:1004B000FFF7F8FE002809D04FF41061DFF8DC0BDD
:1004C000FFF7EBFEB0F5106FF6D108E04FF4807146
:1004D000DFF8C80BFFF7E1FEB0F5807FF6D101BD74
:1004E00010B50400E4B2002C02D1FFF7DEFF04E0F7
:1004F000E4B2012C01D1FFF7CEFF10BD38B50400E6
:100500000D002A00D2B22100C9B25FF08240FFF78D
:10051000F4FE31BD38B504000D002A00D2B221002E
:10052000C9B25FF08240FFF707FF31BD38B5040064
:100530000D002A00D2B22100C9B25FF08240FFF75D
:1005400001FF31BD80B50100C9B25FF08240FFF705
:100550001BFF112801D1012000E00020C0B202BD24
:1005600070B505000E001400E4B2002C09D0102272
:10057000B240D2B22900C9B25FF08240FFF7C3FE99
:1005800008E01022B240D2B22900C9B25FF0824026
:10059000FFF7C5FE70BD10B50C005FF08242010090
:1005A000C9B21000FFF7B5FE102111FA04F4204281
:1005B00001D0012000E00020C0B210BD10B50C0039
:1005C0005FF082420100C9B21000FFF790FE2021C7
:1005D00011FA04F4204201D0012000E00020C0B252
:1005E00010BD38B504000D002021A9402000C0B284
:1005F000FFF784FF31BD70B505000E001400E4B2B2
:10060000002C06D02021B1402800C0B2FFF782FFA5
:1006100005E02021B1402800C0B2FFF787FF70BD80
:1006200010B504002100C9B25FF08240FFF77DFEE3
:1006300010BD80B501001022C9B25FF08240FFF703
:100640004AFE002801D0012000E00020C0B202BD17
:1006500010B5040010212000C0B2FFF74FFF10BDFD
:1006600070B505000E001400E4B2002C09D0012280
:10067000B240D2B22900C9B25FF08240FFF743FE18
:1006800008E00122B240D2B22900C9B25FF0824034
:10069000FFF745FE70BD38B504000D000121A940EB
:1006A0002000C0B2FFF72AFF31BD10B4DFF8883C4C
:1006B000C0B244012344C9B20C0123441A6010BCE7
:1006C000704710B4DFF8703CC0B244012344C9B293
:1006D0000C01234492B25C6862F39B345C6010BCF2
:1006E000704710B4DFF8503CC0B244012344C9B293
:1006F0000C01234492B25C6862F30D045C6010BC90
:10070000704710B4DFF8303CC0B244012344C9B292
:100710000C01234492B25C6862F30D045C6010BC6F
:10072000704710B4DFF8103CC0B244012344C9B292
:100730000C01234492B25C6862F39B345C6010BC91
:100740007047F8B504000D0016001F00320092B289
:100750002900C9B22000C0B2FFF7C3FF3A0092B22D
:100760002900C9B22000C0B2FFF7ABFFF1BDF8B558
:1007700004000D0016001F00320092B22900C9B219
:100780002000C0B2FFF7CDFF3A0092B22900C9B2F3
:100790002000C0B2FFF7B5FFF1BDDFF89C2BC0B25F
:1007A00043011A44C9B20B011A44002393727047E3
:1007B00070B505000E001400E4B2002C09D04022F0
:1007C000B240D2B22900C9B25FF08240FFF79BFD70
:1007D00008E04022B240D2B22900C9B25FF08240A4
:1007E000FFF79DFD70BD70B505000E001400E4B26A
:1007F000002C09D04022B240D2B22900C9B25FF029
:100800008240FFF78CFD08E04022B240D2B22900BE
:10081000C9B25FF08240FFF776FD70BD80B240F252
:100820000121884201DB072020E080B240F2011163
:10083000884201DB062019E080B2812801DB052017
:1008400014E080B2412801DB04200FE080B22128AF
:1008500001DB03200AE080B2112801DB022005E061
:1008600080B2092801DB012000E00020C0B27047FF
:1008700010B40200D2B2002A01D1002305E0C9B2AF
:10088000002901D0131D00E01300DFF8144BDBB288
:100890001420434304EB0300143010BC704780B5B0
:1008A00004215FF08240FFF777FDDFF8F40A00686B
:1008B000804701BD38B5002540F201215FF082403C
:1008C000FFF76AFD40F201215FF08240FFF76AFD09
:1008D00070215FF08240FFF761FD00200400E4B268
:1008E000042C13DADFF8500AE4B2610108440189EC
:1008F00011F00F01032907D10189C1F30A1189B24F
:100900000D000021018101E0641CE8E729000320BB
:10091000DFF88C2A5268904731BD80B580215FF0A6
:100920008240FFF739FD00210520DFF8742A526864
:10093000904701BD80B570215FF08240FFF72CFD2C
:1009400070215FF08240FFF72DFD40F201215FF042
:100950008240FFF723FD0020FFF7C2FD00210220A7
:10096000DFF83C2A5268904701BD80B50022002183
:100970005FF08240FFF702FD08215FF08240FFF741
:100980000BFD70215FF08240FFF70CFD40F201216A
:100990005FF08240FFF702FD00F051FC00210120D2
:1009A000DFF8FC295268904701BD80B540F2012173
:1009B0005FF08240FFF7F0FC40F201215FF08240DF
:1009C000FFF7F0FC70215FF08240FFF7E7FC0021A9
:1009D0000420DFF8CC295268904701BD38B50124C6
:1009E0005FF08240FFF7D6FC05005FF08240FFF722
:1009F000D7FC28400500680703D5FFF750FF01200A
:100A00001EE0A80502D5FFF755FF17E0280602D51E
:100A1000FFF783FF12E0280010F0700F02D0FFF7FD
:100A200089FF0BE0280702D5FFF79FFF06E0E807E4
:100A300002D5FFF7BAFF01E0002004002000C0B299
:100A400032BD2DE9F04F85B006000C005FF0824703
:100A500096F8128018F00F08DFF8DC085FFA88F8C3
:100A60005FEA481108440190E4B2002C07D00198D5
:100A7000D0F814905FEA89495FEA994901E05FF094
:100A80000009308A40F2FF31884201D1308A01E00A
:100A9000308A401E10EA0900ADF802005FF0000A3B
:100AA000F07C10F00700012801D1012500E00025AD
:100AB000E4B2002C04D001214046C0B2FFF7EBFDA8
:100AC000B06810FA89F0B060B0687168884243D2AB
:100AD0007168B068091AADF80010F07CC0F34010DE
:100AE000C0B200281CD0308ABDF80010884202D263
:100AF000308AADF80000BDF8000003903068B1689E
:100B000008440290D6F80CB0039A0299584601F0B6
:100B100053F8F26801214046C0B2FFF7C6FD12E06B
:100B2000BDF8000042F20101884203DB4FF400509F
:100B3000ADF800003068B16800EB010201214046C9
:100B4000C0B2FFF7B2FD0023BDF8002001214046EE
:100B5000C0B2FFF7F6FD3BE0F07CC0F30010C0B27E
:100B600000280BD0F07C10F0EF00F074002300227E
:100B700001214046C0B2FFF7E4FD29E0EDB2002DAF
:100B800006D04B224146C9B23800FFF7DBFB05E037
:100B90004A224146C9B23800FFF7D4FBBDF8020033
:100BA000318A88420FD1F07C10F0BF00F074B16838
:100BB000B07CDFF8EC27D2689047002820D1F07C89
:100BC00050F04000F0740021300000F05FFE17E0AC
:100BD000E4B2002C0ED1EDB2002D02D04E208246A0
:100BE00001E04A2082465246D2B24146C9B238009C
:100BF000FFF7A2FB012201214046C0B2FFF7D8FD5A
:100C000005B0BDE8F08F2DE9F04F87B007000C006C
:100C10005FF082400290BE7C16F00F06DFF8C80835
:100C2000F6B2710108440390E4B2002C09D0039895
:100C3000D0F804805FEA98385FEA88485FEA98480D
:100C400001E05FF00008E4B2002C07D00398D0F870
:100C500004905FEA89495FEA994901E05FF0000981
:100C6000388A40F2FF31884202D140F2FF3A02E076
:100C7000388AB0F1010A1AEA0900ADF80200F87CDE
:100C800010F00700012801D1012500E00025E4B2A1
:100C9000002C04D000213000C0B2FFF7FCFCF87C2F
:100CA000C0F34010C0B2002820D0786800281DD0C2
:100CB0007968B868091AADF80410BDF80200BDF8EB
:100CC0000410884203D2BDF80200059002E0BDF88E
:100CD00004000590F86806903868B96808440490E4
:100CE000059A0699049800F067FF04987868002830
:100CF0001BD1F87CC0F30010C0B2002815D0F87CDE
:100D000010F0EF00F874F87C50F02000F874FA68E6
:100D100000213000C0B2FFF7C8FC00233A8A00214E
:100D20003000C0B2FFF723FD7EE0E4B2002C0DD00E
:100D3000BDF80200398A884208D2F87C10F0EF0032
:100D4000F874B86810FA89F0B8604FE0B86810FA23
:100D500088F0B860B8687968884247D27968B8681E
:100D6000091A8B46F87CC0F34010C0B200280DD0A1
:100D7000388A594689B2884201D2388A8346FA684D
:100D800000213000C0B2FFF790FC25E0388A5946B8
:100D900089B288420ED21FFA8BFB42F201008345D2
:100DA00003DB4FF4005083460DE01AEA0B00BBEB67
:100DB000000B08E05846398A80B2884203D2F87C9A
:100DC00050F02000F8743868B96800EB0102002187
:100DD0003000C0B2FFF769FC00231FFA8BFB5A46B4
:100DE00000213000C0B2FFF7C2FC1DE0EDB2002DC3
:100DF00006D02D223100C9B20298FFF7A3FA05E010
:100E000025223100C9B20298FFF79CFAF6B2002EF3
:100E100005D1FA6800213000C0B2FFF746FC00217E
:100E2000380000F033FD1EE0E4B2002C15D1EDB225
:100E3000002D08D001213000C0B2FFF7AEFC2D20FC
:100E40008DF8000002E025208DF800009DF80020BC
:100E50003100C9B20298FFF76FFA01220021300079
:100E6000C0B2FFF7C0FC07B0BDE8F08F70B5050059
:100E7000AE7C16F00F06E87C10F00700012801D1C7
:100E8000012400E00024E4B2002C08D13000C0B2FC
:100E9000FFF7DEFB3000C0B2FFF7C2FB32E0E87CB8
:100EA000C0F38010C0B200280FD0E87C10F0BF0063
:100EB000E874002201213000C0B2FFF779FC002263
:100EC00000213000C0B2FFF78EFCE87C10F0F70084
:100ED000E87400213000C0B2FFF75FFC0121300050
:100EE000C0B2FFF75AFC6F213000C0B2FFF706FB1B
:100EF0006F213000C0B2FFF719FBA87CDFF8A01407
:100F00008968884770BD70B504000D00A67C16F096
:100F10000F0600222900C9B23000C0B2FFF76BFBF8
:100F2000A2680121A07CDFF878341B69984770BD66
:100F300000E100E02DE9F84F06000C005FF0824769
:100F400096F8128018F00F08DFF85C0A0088ADF8F8
:100F50000000DFF894055FFA88F85FEA481100EBBB
:100F60000109E4B2002C06D04146C9B23800FFF7AF
:100F7000FAF9824605E04146C9B23800FFF7E8F9C0
:100F80008246F07C10F00700012801D1012500E025
:100F90000025E4B220014844807A83465FFA8AFA49
:100FA000BAF1020F29D11BF00100002825D0E4B2CC
:100FB00020014844807A10F0FE00E4B22101494447
:100FC00088726846E4B2025D4146C9B23800FFF754
:100FD00094F96846E4B2025D4146C9B23800FFF7B1
:100FE000B1F9E4B2002C01D0012100E0002104227B
:100FF000C9B2300000F063FC4CE0CBF34000C0B25B
:10100000002831D0E4B220014844807A10F0FD007D
:10101000E4B22101494488726846E4B2025D414667
:10102000C9B23800FFF769F96846E4B2025D41468B
:10103000C9B23800FFF786F9EDB2002D2AD0F07C56
:10104000C0F38010C0B2002824D02000F17CC9B2C7
:10105000C909C0B288421DD00022F17CC9B2C909B9
:10106000300000F02CFC15E02100C9B24046C0B2AF
:10107000FFF793FB6846E4B2025D4146C9B238000F
:10108000FFF73BF96846E4B2025D4146C9B2380059
:10109000FFF758F9BDE8F18F840080000010004090
:1010A00038B504000D00E80603D52000FFF7DEFE8A
:1010B0000CE0680604D501212000FFF724FF05E0BD
:1010C000A80603D500212000FFF71DFF31BD38B56C
:1010D00004000D00680604D501212000FFF713FF6E
:1010E0001EE0280704D501212000FFF723FF17E0A9
:1010F000A80704D501212000FFF7A3FC10E0E07C45
:1011000010F0070001280BD1680704D5002120004A
:10111000FFF710FF04E0E80602D52000FFF7A6FE67
:1011200031BD38B504000D00A80604D5002120000B
:10113000FFF7E9FE1EE0680704D500212000FFF755
:10114000F9FE17E0E80704D501212000FFF75BFD59
:1011500010E0E07C10F0070001280BD1280704D52F
:1011600001212000FFF7E6FE04E0E80602D520009A
:10117000FFF77CFE31BD2DE9F84305000E005FF05E
:10118000824796F8129019F00F09280030FA09F0FA
:10119000C00730D55FFA89F95FEA4910384490F802
:1011A000070104005FFA89F95FEA4910384490F8B2
:1011B0000901804618EA0404E4B2002C1BD0F07C3C
:1011C00010F04700012805D12100C9B23000FFF717
:1011D00067FF10E0F07CC0B2C009C0B2002805D0A3
:1011E0002100C9B23000FFF772FF04E02100C9B24C
:1011F0003000FFF796FFBDE8F18370B55FF08245E0
:101200002C8CA4B2002C03D1FFF7E8FB002815D1E9
:1012100000200600F6B21B2E10DA6148F6B2142147
:1012200001FB06F1084410F11401887CFF2803D06B
:10123000A4B22000FFF79FFF761CEBE770BDF8B566
:1012400000200400E4B21B2C1DDA03215448E4B250
:10125000142202FB04F21044143000F017FBFF20AC
:101260004F49E4B2142202FB04F2114481F8260033
:1012700000204B49E4B2142202FB04F2114481F82D
:101280002700641CDEE7A02500262B4F3200290032
:10129000380000F0E5FCF1BD38B55FF0824401256F
:1012A0006846DFF8D4180A68026001212000FFF7C1
:1012B0000AF8002810D102212000FFF786F8002844
:1012C00006D02000FFF776F802212000FEF7F7FF96
:1012D00001212000FFF786F801212000FEF7EFFF33
:1012E000DFF898082E490860DFF890082C4948601C
:1012F000DFF888082A498860DFF880082849C86034
:10130000DFF8780826490861FFF799FFFFF78AF8A8
:1013100004212000FFF766F8DFF864182000FFF7CB
:101320007CF86846EDB2415D51F0010189B22000C0
:10133000FFF76FF8002032BDE46D002038B55FF094
:10134000824403212000FFF72FF8002802D07FF00D
:1013500010001DE02000FFF74EF80500A80705D497
:1013600055F00201C9B22000FFF73CF85020FEF70B
:1013700079FF5120FEF776FF5220FEF773FF5320CE
:10138000FEF770FF40F28D212000FFF707F80020E4
:1013900032BD80B55FF08240FFF735F801BD000037
:1013A000A064002010B5040054F08001C9B25FF0C1
:1013B0008240FFF730F810BD70B504005FF0824541
:1013C000A67C16F00F06E26800213000C0B2FFF7DD
:1013D0006CF90023228A00213000C0B2FFF7C7F960
:1013E000B0223100C9B22800FEF799FF0022002187
:1013F0003000C0B2FFF7F7F910223100C9B228005F
:10140000FEF79AFF70BD2DE9F84F06000F009046D9
:1014100016F00F0916F08004E4B2E4092100C9B205
:101420004846C0B2FFF724FA824617F00305DFF8FA
:1014300054075FFA89F90C2101FB09F100EB010B5C
:101440005FFA89F9B9F1050F02DB7FF0110049E07D
:101450009AF81200FF2802D07FF0130042E0EDB2AC
:10146000002D14D194F00101C9B24846C0B2FFF773
:10147000FFF90100887CFF2802D07FF0130031E0E3
:10148000DBF80000002802D17FF012002AE0E4B26D
:10149000002C02D0DBF8040001E0DBF8000000289B
:1014A0000ED0E4B2002C02D0BBF80A0001E0BBF879
:1014B00008001FFA88F8404502DA7FF0120011E0B8
:1014C000E4B2002C02D0DBF8040001E0DBF80000FD
:1014D000CAF80C00AAF81080681C8AF813008AF871
:1014E00012600020BDE8F28FE46D00202DE9F0418C
:1014F00004005FF0824514F00F0614F08007FFB27D
:10150000FF093900C9B23000C0B2FFF7B1F9804617
:10151000F6B2052E03DA98F81200FF2800D137E062
:1015200003223900C9B2404600F0C9F998F8130007
:1015300010F00700012806D10020E4B2610129441F
:1015400081F800011EE0200610D5E4B214F00F006F
:1015500040012844E4B214F00F014901294491F8F4
:10156000001111F08F0180F800110BE0E4B260016E
:10157000284490F8000110F0F800E4B26101294419
:1015800081F80001002088F81300FF2088F812007D
:10159000BDE8F0812DE9F04705005FF0824615F0C7
:1015A0000F0715F08004E4B2E4092100C9B2380045
:1015B000C0B2FFF75DF980463900C9B23000FEF7CE
:1015C000E3FE8246FFB2052F03DA98F81200FF28E7
:1015D00002D17FF01100B3E0DFF8A405FFB279017A
:1015E0000844814698F8130010F00700012845D1FF
:1015F0001AF0770F02D07FF01300A1E0112239001A
:10160000C9B23000FEF7BAFEB8F81000FFF706F9CD
:10161000B8F81010DFF8702512EA8132C0B2000766
:1016200010F0E0401043C9F80400B8F81000FFF7CC
:10163000F5F8B8F810108904890CC0B2000710F052
:10164000E0400843C9F81400002200213800C0B26D
:10165000FFF7C9F8002201213800C0B2FFF7A8F84F
:1016600000213800C0B2FFF798F801213800C0B25D
:10167000FFF793F84046FFF79FFE60E0E4B2002CCE
:101680002ED01AF0700F02D07FF0130058E098F8B7
:101690001300000110F0700050EA0A0A5246D2B25C
:1016A0003900C9B23000FEF769FEB8F81000FFF744
:1016B000B5F8B8F810108904890CC0B2000710F012
:1016C000E0400843C9F81400002201213800C0B2EC
:1016D000FFF76EF801213800C0B2FFF75EF82EE088
:1016E0001AF0070F02D07FF0130029E098F81300DA
:1016F00010F0070050EA0A0A5246D2B23900C9B2C5
:101700003000FEF73BFEB8F81000FFF787F8B8F896
:101710001010DFF8742412EA8132C0B2000710F012
:10172000E0401043C9F80400002200213800C0B294
:10173000FFF759F800213800C0B2FFF72EF800205B
:10174000BDE8F08710B50400A07C10F00F00C9B20E
:10175000C0B2FEF720FF10BD70B504000D00A67CDE
:1017600016F00F0601222900C9B23000C0B2FEF700
:10177000F7FE2021A9403000C0B2FEF7CBFEE07C8E
:1017800050F00800E074002070BDF8B505000E00B0
:10179000AF7C17F00F073100C9B23800C0B2FEF7B6
:1017A000FAFE0400E4B2002C01D1002039E000224E
:1017B0003100C9B23800C0B2FEF7D2FE2021B140DC
:1017C0003800C0B2FEF7B2FE3100C9B23800C0B274
:1017D000FEF7F4FE00280CD03100C9B23800C0B2C8
:1017E000FEF7FFFE00223100C9B23800C0B2FEF79A
:1017F00037FFE87C10F0070001280DD13900C9B28D
:101800005FF08240FEF785FD10F0300F08D1E87CD4
:1018100010F0F700E87403E0E87C10F0F700E874DB
:101820000020F2BD2DE9F84305000C0015F00F066D
:1018300015F08007FFB2FF093900C9B23000C0B20D
:10184000FFF716F88046F6B2052E02DB7FF0110096
:101850001AE0E4B2012C06D13900C9B24046FFF7C4
:101860007BFF81460FE0E4B2002C06D13900C9B2FB
:101870004046FFF78AFF814605E03900C9B240467D
:10188000FFF760FF81464846BDE8F28338B50400A3
:101890000D00A07CFF2805D0E07CC0F38010C0B212
:1018A000002800D10AE0E07C10F0BF00E074A268DC
:1018B0002900A07CDFF8D4321B69984731BDF8B508
:1018C00005000C001600AF7C17F00F07DFF8C00210
:1018D0000088ADF80000A87CFF2805D0E87CC0F3A4
:1018E0008010C0B2002800D121E0E4B2002C06D064
:1018F000002201213800C0B2FEF75AFF05E00022A5
:1019000000213800C0B2FEF76EFF6846E4B2015D08
:101910003800C0B2FEF7F2FD6846E4B2015D38005F
:10192000C0B2FEF703FE31002800FFF7AFFFF1BDA4
:101930002DE9F04705000C0015F00F069048F6B2AF
:10194000710100EB0107D7F80080D7F804905FEA37
:1019500089495FEA9949F6B2052E01DA002C02D1D5
:101960007FF011001EE03000C0B2FEF7EBFD002852
:1019700002D17FF0120015E03000C0B2FEF759FE30
:10198000002801D100200DE05FF0080A52464146D0
:10199000200000F011F93000C0B2FEF759FE1FFA26
:1019A00089F94846BDE8F0875E1C00002DE9F04744
:1019B00082B005002E7A16F00F062C7A14F08004FF
:1019C000E4B2E4092100C9B23000C0B2FEF750FF12
:1019D0000700388A40F2FF31884202D140F2FF38D6
:1019E00002E0388AB0F1010868681FFA88F810EA46
:1019F000080F02D05FF0010901E05FF000095FF01D
:101A0000000AF6B2052E02DB7FF011006DE02868B7
:101A1000B0F1005F10D32968686841185D488142C1
:101A20000AD2287810F0030F06D1E4B2002C0BD1B3
:101A30006868398A884207D2F868002802D17FF0A6
:101A4000120052E00120824699F001002043C0B20A
:101A5000002805D1F868002802D17FF0110044E089
:101A6000F87CC0F3C000C0B2002801D002203CE0E6
:101A7000684600F028F9F87CC0F38010C0B2002856
:101A800004D0684600F026F901202EE0F87C50F0E2
:101A90004000F874684600F01DF9286838606868EE
:101AA00078600020B860F87C10F07F0050EAC41025
:101AB000F874F87C6AF34510F874687A002802D04C
:101AC00099F0010000E00020F97C60F30411F97442
:101AD000E4B2002C04D000213800FEF7B2FF03E08E
:101AE00000213800FFF78FF80020BDE8F687F8B531
:101AF000040014F00F0514F08006F6B2F609310068
:101B0000C9B22800C0B2FEF7B3FE0700EDB2052D42
:101B100005DA02223100C9B23800FFF7D0FEF1BD6C
:101B20000A00002A01D1154A00E00A00C0B20128CB
:101B300002D1164B5A6004E0C0B2002801D1134B09
:101B40001A6070470A00002A01D10C4A00E00A001E
:101B5000C0B2002802D10D4B9A600AE0C0B2012841
:101B600002D10A4BDA6004E0C0B2022801D1074B6F
:101B70001A61704700000000809E00001F040000F2
:101B8000E46D0020689B000000C0FF0FA0640020EF
:101B9000A25200000020032080B5FFF72EFB01BDFC
:101BA00080B5FFF72AFB01BD80B5FFF726FB01BD1D
:101BB00080B5FFF722FB01BD62B38B0708D0521E30
:101BC00011F8013B00F8013B00F024808B07F6D1AF
:101BD000830740F0208000BF103A07D330B4B1E84B
:101BE0003810103AA0E83810F9D230BC530724BF9F
:101BF000B1E80810A0E8081044BF51F8043B40F8D1
:101C0000043BD20724BF31F8022B20F8022B44BF3B
:101C10000B7803707047121F17D35B0009D151F87E
:101C2000043B20F8023B1B0C121F20F8023BF6D2AB
:101C30000BE051F8043B00F8013B1B0A20F8023B83
:101C40001B0C121F00F8013BF3D238BF121D521EAD
:101C500024BF11F8013B00F8013BF8D87047040895
:101C600062F30F2262F31F42401810F0030308D002
:101C7000C91A1FD3DB0748BF00F8012D28BF20F881
:101C8000022D130030B414461546103928BF20E940
:101C90003C00FAD8490728BF20E90C0048BF40F8AB
:101CA000042D890028BF20F8022D48BF00F8012D1F
:101CB00030BC7047C91818BF00F8012DCB0728BFEA
:101CC00000F8012D7047EFF31081016072B6BFF389
:101CD0005F8F7047BFF35F8F016881F31088704793
:101CE00000B200280AD4012210F01F018A40DFF858
:101CF000081C00B203005B0941F82320704700B2C2
:101D000000280ED4012210F01F018A40DFF8EC1BDE
:101D100000B203005B0941F82320BFF34F8FBFF3EC
:101D20006F8F704700B200280AD4012210F01F0103
:101D30008A40DFF8CC1B00B203005B0941F8232086
:101D4000704710B400B2002805D44A01DFF8B43B54
:101D500000B21A5408E04A01DFF8AC3B00B210F0C0
:101D60000F04234403F8042C10BC7047C9B200EBE5
:101D70008103C3F88020704742690A43426170477B
:101D800082690A4382617047026A0A4302627047AD
:101D9000C9B2802303FB01F303449A607047C9B2C0
:101DA000802303FB01F303445A607047C9B28023C8
:101DB00003FB01F303449A617047C9B2802303FB1C
:101DC00001F303445A61704730B4C9B2802404FB64
:101DD00001F40444D2B2144494F83040250015F0C4
:101DE000F00513F00F042543C9B2802404FB01F46D
:101DF0000444D2B2144484F8305030BC704730B43C
:101E0000C9B2802404FB01F40444D2B2144494F80F
:101E10003040250015F00F05DBB21C012543C9B287
:101E2000802404FB01F40444D2B2144484F83050FA
:101E300030BC704730B4C9B2802505FB01F50544BC
:101E4000D2B2154495F840502C0014F0FE041C4307
:101E5000C9B2802505FB01F50544D2B2154485F8C9
:101E6000404030BC704710B4C9B2802303FB01F37B
:101E70000344D2B21344C9B2802404FB01F40444E5
:101E8000D2B2144494F8404054F0040483F8404023
:101E900010BC704710B4C9B2802303FB01F30344A4
:101EA000D2B21344C9B2802404FB01F40444D2B278
:101EB000144494F8404014F0FB0483F8404010BCF4
:101EC0007047C9B2802303FB01F303449A62704751
:101ED000C2690A42FCD17047007E10F001007047D1
:101EE000007E400810F001007047007E70470176C8
:101EF0007047807D70478175C9B2CA4302757047CB
:101F000010B50400206850F002002060032120007A
:101F1000FFF7DEFF10BD38B5050003212800FFF7ED
:101F2000D7FF28680400C4F34004002C01D001202E
:101F300000E00020C0B232BD70B504000D00206882
:101F4000060036F00206EDB256EA45062660032189
:101F50002000FFF7BDFF70BD10B50400206830F011
:101F60000200206003212000FFF7B2FF10BD38B54A
:101F700004000D00256003212000FFF7A9FF31BDFB
:101F800038B504000D0065601F212000FFF7A0FF99
:101F900031BD8181704781627047806A704741839B
:101FA0007047408B704770B504000D001600F6B204
:101FB000002E03D0022E37D01BD350E02A00210080
:101FC000C9B2DFF8380CFFF7EAFEAAB252F080423D
:101FD0002100C9B2DFF8240CFFF773FF2A00120CAE
:101FE00052F040422100C9B2DFF8100CFFF769FF40
:101FF00035E02A002100C9B2DFF8000CFFF7CFFE60
:102000002A00C4F202022100C9B2DFF8F00BFFF788
:1020100058FFDFF8EC2B52EA15422100C9B2DFF875
:10202000DC0BFFF74EFF1AE02A002100C9B2DFF8EF
:10203000CC0BFFF7ADFEAAB252F080422100C9B22C
:10204000DFF8B80BFFF73DFF2A00120C52F04042B8
:102050002100C9B2DFF8A40BFFF733FFFFE770BD23
:1020600070B504000D001600F6B2002E03D0022E4B
:1020700023D009D33AE02A00D2B22100C9B2DFF856
:102080007C0BFFF707FF31E00122AA402100C9B213
:10209000DFF8680BFFF783FE2A00D2B22100C9B235
:1020A000DFF8580BFFF7DFFE0122AA402100C9B27A
:1020B000DFF8480BFFF77AFE18E00122AA40210062
:1020C000C9B2DFF8380BFFF76AFE2A00D2B221004E
:1020D000C9B2DFF8280BFFF7C6FE0122AA40210093
:1020E000C9B2DFF8180BFFF768FEFFE770BDF8B55F
:1020F00004000D002600760914F01F0715F1010FEA
:1021000009D100233A00D2B23100C9B2DFF8EC0A9B
:10211000FFF790FE21E001233A00D2B23100C9B2AC
:10212000DFF8D80AFFF786FEF8070BD52B00DBB2E5
:102130003A00D2B252083100C9B2DFF8C00AFFF744
:102140005EFE0AE02B00DBB23A00D2B25208310048
:10215000C9B2DFF8A80AFFF737FEF1BD38B50400B1
:102160000D002A00D2B214F01F012000C0B24009B5
:10217000FFF776FF31BD38B504000D0029002000BF
:10218000FFF7B5FF31BD38B504000D002A00D2B20B
:10219000012114F01F0081402000C0B24009FFF768
:1021A00002FF31BD38B504000025082D44DADFF800
:1021B000540A50F82500A0423CD14122DFF8480AD9
:1021C00010F81510DFF8440AFFF7D0FD4322DFF8BE
:1021D000380A00EB45004178DFF8300AFFF7C6FD0A
:1021E000DFF82C0A405D102809DA0121DFF8200A07
:1021F00040578140DFF81C0AFFF7BEFD19E0DFF809
:10220000100A405D20280ADA0121DFF8040A405D47
:1022100010388140DFF8FC09FFF7B2FD09E0012129
:10222000DFF8EC09405D20388140DFF8E809FFF76E
:10223000ABFD01E06D1CB8E731BD10B50400052110
:102240002068FFF794FE01212068FFF741FEDFF8C8
:10225000C8192068FFF78BFE5FF440312068FFF754
:102260008FFE4FF6CB712068FFF793FE10BD2DE96E
:10227000FE43040000200290DFF8A009E4B22C2104
:1022800001FB04F100EB0105DFF89409E4B250F81A
:10229000246028680068FFF728FE070028680068A7
:1022A000FFF77FFE804628680068FFF722FE814620
:1022B00019EA0707780716D528680068FFF76DFE4A
:1022C0008DF804005FEA88700DD4002302AA01A9EA
:1022D000686800F030FE02A800900023012201216E
:1022E000300002F057F8B80604D5202128680068AD
:1022F000FFF7FDFD380609D5802128680068FFF743
:10230000F6FDFF2128680068FFF749FE02980028C3
:1023100008D05FF08050DFF80C190860BFF34F8FD2
:10232000BFF36F8FBDE8F78380B50020FFF79FFFF5
:1023300001BD80B50020FFF79AFF01BD80B50020E8
:10234000FFF795FF01BD80B50020FFF790FF01BDAD
:1023500080B50120FFF78BFF01BD80B50120FFF79D
:1023600086FF01BD80B50120FFF781FF01BD80B56B
:102370000120FFF77CFF01BD80B50220FFF777FF4A
:1023800001BD80B50220FFF772FF01BD80B50220BC
:10239000FFF76DFF01BD80B50220FFF768FF01BDAB
:1023A00080B50320FFF763FF01BD80B50320FFF771
:1023B0005EFF01BD80B50320FFF759FF01BD80B569
:1023C0000320FFF754FF01BD80B50420FFF74FFF46
:1023D00001BD80B50420FFF74AFF01BD80B5042090
:1023E000FFF745FF01BD80B50420FFF740FF01BDA9
:1023F00070B504000D002C6000220121202000F0A7
:1024000069FC68600121207BFFF7BDFE0121207B74
:10241000FFF7A4FEA168A079FFF7ADFE2169207B3C
:10242000FFF7A9FE2068FFF7BDFE2000FFF705FFBC
:10243000B4F9046036B2B4F90400001D864212DA21
:10244000300000B2FFF75BFC300000B2FFF76AFC1F
:10245000300000B2FFF744FC0521300000B2FFF766
:1024600070FC761CE6E770BD10B5040000216068C2
:1024700000F0E4FBBF2120680068FFF738FDA421CD
:1024800020680068FFF737FD20680068FFF738FD17
:1024900010BD000038B52DED028B82B0040008EEAF
:1024A000101A20680068FFF736FD050020680068F4
:1024B000FFF752FD6846FFF706FC0221206800681E
:1024C000FFF706FDB8EE480ADFED650A20EE200AA8
:1024D000DFED640A80EE200ADFED630A30EEC00A09
:1024E000BDEEC00A10EE100A010089B22068006833
:1024F000FFF74FFD6846FFF7EDFB2900C9B22068E2
:102500000068FFF719FD02B0BDEC028B31BD2DE96B
:10251000F04106000D001400002D21D0E4B2002C83
:102520001ED00027A846E4B2002C10D03068006806
:10253000FFF7D2FC0028F9D098F800103068006846
:10254000FFF729FD18F101087F1C641EEBE73068D6
:102550000068FFF7C5FC0028F9D0FFB2380000E0A2
:102560000020BDE8F08130B4030018780124220077
:102570000D00D2B2EDB2AA4204D2E4B21A5D5040CC
:10258000641CF4E7C0B230BC70472DE9F84F04007A
:102590000F001500002C04D0002F02D0EDB2002D4A
:1025A00002D15FF0FF3059E064223900606800F02A
:1025B000B6FD012801D0002050E03E787F1CB346D4
:1025C000B0465FFA88F85FEA98180121C6F3C200A6
:1025D0008140DFF854065FFA88F810F8080011EB24
:1025E0000009F6B2002E01D119F10109280049466F
:1025F000C0B2C9B2884202D27FF001002EE05FF083
:10260000010A50464946C0B2C9B2884210D264227B
:102610003900606800F083FD012802D07FF00200DD
:102620001CE0387890EA0B0B7F1C1AF1010AE8E7EE
:102630005FFA89F9B9F1020F0DDB5FFA8BFBBBF191
:10264000FF0F08D060691D2802D1F6B2DC2E02D03F
:102650007FF0030002E05FFA89F94846BDE8F28F97
:1026600000008049001B374C000080472DE9F843EB
:1026700007000D0016003C6997F82800801D000136
:1026800050F00200C0B201F08BFF8046002D02D056
:10269000F6B2002E0FD1002C49D0E078002846D0A9
:1026A000220000214046C0B202F024F80020386128
:1026B000386904003BE0002C0ED0E078F6B2301808
:1026C0003B2809D3220000214046C0B202F012F894
:1026D0000020386138690400002C07D101F0A2FF06
:1026E00038610400002C01D00020E070002C1ED0C6
:1026F000E078F6B230183C280CD2F6B2E0782044EC
:1027000010F10409320029004846FFF755FAE07835
:102710003018E070E0783B2809D3220000214046C1
:10272000C0B201F0E7FF0020386138690400BDE85D
:10273000F18310B582B004005FF0FF3000900023F9
:1027400000220321E06802F074F994F829000228BD
:1027500011D1606900280ED068460021016094F80C
:102760002800801D0001C0B201F01AFF0422694652
:10277000C0B202F005F8002084F82900002084F897
:102780002A004FF416606062002060610020A061A2
:102790000020E0612069002804D0206901F051FF89
:1027A00000202061616A2000FFF774FE002160684C
:1027B00000F044FA13BDF0B58BB00400232202A947
:1027C0002000FFF7E2FE0500012DC0F292809DF887
:1027D0000860F6B2B60901209DF80810C1F3C207DF
:1027E00010FA07F794F82900002803D002285AD0DD
:1027F0001DD37EE09DF80800402817D19DF8090000
:1028000060610020A0610020E061012084F82900BF
:10281000002084F82A0001F0A9F902005FF0FF30DF
:10282000009000230221E06802F003F961E000203B
:1028300084F82A009DF8080004282CD1DFF8EC0366
:1028400000788DF80400012201A92000FFF75FFE47
:10285000012001F0A3F8616A2000FFF71BFE01F0E0
:1028600085F95FF0FF310091002302000221E0684A
:1028700002F0DFF8022084F8290094F82800801D77
:102880000001C0B201F08CFE042214F11401C0B2A8
:1028900001F076FF06E09DF80800522802D1DDF82D
:1028A0000900606225E0F6B2032E22D1002084F8F0
:1028B0002A009DF8080010F00700A061FFB2012F68
:1028C00003D19DF80900E0610CE0FFB2022F03D1B3
:1028D000BDF80900E06105E0FFB2042F02D1DDF888
:1028E0000900E06128000200D2B202A92000FFF72F
:1028F000BDFE0BB0F0BD000000E100E080E100E0B3
:1029000080E200E000E400E018ED00E010B582B0E5
:10291000040094F82A00401C84F82A0094F82A0045
:102920000A2803DB2000FFF704FF10E094F82900D9
:1029300002280CD102208DF8000000220021200086
:10294000FFF794FE012269462000FFF7E0FD13BD6A
:1029500001000020C0B2082808DA01228240C9B272
:102960008A4201DBC0B202E0401CF3E7002070475E
:102970002DE9F04184B0040094F82800801D000186
:10298000C0B201F00DFE0121C0B201F08CFE0500C5
:1029900000281AD0E878002814D194F829000228D9
:1029A00002D16069029001E00020029094F82800B2
:1029B000801D0001C0B201F0F3FD042202A9C0B2E3
:1029C00001F0DEFE280001F03CFE94F82800801D96
:1029D000000150F00100C0B201F0E2FD0121C0B2DF
:1029E00001F061FE0500002838D0E878002817D1F2
:1029F00094F82900022802D1A069019001E000208A
:102A0000019094F82800801D000150F00100C0B230
:102A100001F0C6FD042201A9C0B201F0B1FE1AE026
:102A200094F82900022816D1E878042813D343200B
:102A30008DF8000028798DF801009DF800109DF8B0
:102A40000100414091F0FF018DF802100322694618
:102A50002000FFF75CFD280001F0F3FD94F828004A
:102A6000801D000150F00200C0B201F099FD01216B
:102A7000C0B201F018FE050000282CD094F82900FF
:102A8000022825D1E878002822D0E878202801DA29
:102A9000E87800E02020C0B2FFF75AFF06000127C7
:102AA000B7407F1C15F1030856F0440088F8000079
:102AB0003900C9B24046FFF756FD90F0FF00FFB263
:102AC00008F807003A00D2B241462000FFF71FFD88
:102AD000280001F0B6FDBDE8FF8110B50400002319
:102AE000012202214E48006801F0CEFB10BD10B556
:102AF00004000023012202214948406801F0C4FB80
:102B000010BD10B504000023012202214448806852
:102B100001F0BAFB10BD10B5040000230122022110
:102B20003F48C06801F0B0FB10BD10B504000023A1
:102B3000012202213A48006901F0A6FB10BDF8B558
:102B4000040025003548EDB22C2101FB05F100EB16
:102B50000106EDB22A003649002002F091FB002068
:102B600086F8200086F828502D48EDB250F8250050
:102B7000B0603048EDB250F82500009000230122EB
:102B80006421002001F017FFF06031002A48EDB207
:102B9000142202FB05F21044FFF72AFC3000FFF775
:102BA00063FC3000FFF7C5FD5FF0FF31012001F04D
:102BB00025FB0700F80711D596F8200000280DD155
:102BC0003000FFF7F8FD706800F032FC002805D0F7
:102BD000002301220121B06801F056FBB80706D599
:102BE00096F82000002802D13000FFF78FFE78070A
:102BF000DAD53000FFF7BCFED6E7000000800041C8
:102C0000000002C078020020E49D0000001C00408B
:102C1000689E00000008004004001040606C002026
:102C20005C71002004ED00E0889E0000BE550000AD
:102C3000D49D00008C9D0000F499000070B5060042
:102C40000C003500002D07D1802080F31188BFF3E0
:102C50004F8FBFF36F8FFEE702F0C1FB2968EA6B6D
:102C6000286C424301EB020068600020A8632868DA
:102C7000A8602968EA6B521E286C424301EB0200EF
:102C8000E8605FF0FF3085F844005FF0FF3085F8C2
:102C90004500002C12D12869002817D015F110002A
:102CA00001F084F8002811D05FF08050DFF87C1725
:102CB0000860BFF34F8FBFF36F8F07E015F110006F
:102CC00002F02EFC15F1240002F02AFC02F0A4FB15
:102CD000012070BD2DE9F84304000D001700002C01
:102CE00007D1802080F31188BFF34F8FBFF36F8F20
:102CF000FEE7002D02D10020804602E005FB04F033
:102D0000804618F1540002F05BFC0600002E0AD049
:102D100016F15400814600963B00DBB24A4629007A
:102D2000200000F003F83000BDE8F2832DE9F04107
:102D300005000C0016001F00DDF81880002C02D1E1
:102D4000C8F8008001E0C8F80060C8F83C50C8F836
:102D5000404001214046FFF771FF88F85070002085
:102D6000C8F84800BDE8F0812DE9F74380460D0022
:102D7000994600244746002F07D1802080F3118810
:102D8000BFF34F8FBFF36F8FFEE7002D02D1386C7A
:102D9000002801D1012000E00020C0B2002807D1A6
:102DA000802080F31188BFF34F8FBFF36F8FFEE752
:102DB000B9F1020F02D1F86B012801D1012000E026
:102DC0000020C0B2002807D1802080F31188BFF313
:102DD0004F8FBFF36F8FFEE701F0EEF8002802D1AE
:102DE0000298002801D1012000E00020C0B2002894
:102DF00007D1802080F31188BFF34F8FBFF36F8F0F
:102E0000FEE702F0ECFAB86BF96B884202D3B9F135
:102E1000020F3AD14A462900380000F02AFB06008A
:102E2000B86C00280FD04946380000F013FC002889
:102E300027D05FF08050DFF8F4150860BFF34F8FA4
:102E4000BFF36F8F1DE0786A00280FD017F12400C0
:102E500000F0ACFF002814D05FF08050DFF8CC15F4
:102E60000860BFF34F8FBFF36F8F0AE0002E08D0CA
:102E70005FF08050DFF8B4150860BFF34F8FBFF3E9
:102E80006F8F02F0C9FA012053E00298002803D1A5
:102E900002F0C2FA00204CE0002C04D1684600F099
:102EA000C8FF0120040002F0B7FA00F0D7FD02F0DD
:102EB00096FA97F9440010F1010F02D1002087F82B
:102EC000440097F9450010F1010F02D1002087F866
:102ED000450002F0A1FA02A9684600F0BFFF0028F1
:102EE00021D1380000F07FFB002816D0029917F19D
:102EF000100000F023FF380000F020FB00F0B6FDCA
:102F000000287FF47EAF5FF08050DFF82015086066
:102F1000BFF34F8FBFF36F8F73E7380000F00EFBE6
:102F200000F0A4FD6DE7380000F008FB00F09EFD06
:102F30000020BDE8FE832DE9F84F07000D001400C6
:102F400098463E00002E07D1802080F31188BFF301
:102F50004F8FBFF36F8FFEE7002D02D1306C00283A
:102F600001D1012000E00020C0B2002807D180205C
:102F700080F31188BFF34F8FBFF36F8FFEE7B8F177
:102F8000020F02D1F06B012801D1012000E00020E6
:102F9000C0B2002807D1802080F31188BFF34F8F83
:102FA000BFF36F8FFEE702F065FAEFF31180824600
:102FB000802080F31188BFF34F8FBFF36F8FB06B0A
:102FC000F16B884202D3B8F1020F2ED196F945B0C9
:102FD00042462900300000F04CFA4FFA8BFB1BF1FF
:102FE000010F1BD1B06C00280AD04146300000F020
:102FF00031FB002816D0002C14D00120206011E0F5
:10300000706A00280ED016F1240000F0CFFE0028D0
:1030100008D0002C06D00120206003E01BF1010045
:1030200086F845000120814601E0002081468AF3B0
:1030300011884846BDE8F28F2DE9F04706000C00E4
:103040003500002D07D1802080F31188BFF34F8F0A
:10305000BFF36F8FFEE7286C002807D0802080F335
:103060001188BFF34F8FBFF36F8FFEE728680028EA
:1030700002D16868002801D1012000E00020C0B220
:10308000002807D1802080F31188BFF34F8FBFF352
:103090006F8FFEE702F0EEF9EFF31180804680209B
:1030A00080F31188BFF34F8FBFF36F8FD5F838903F
:1030B000E86B81452CD295F945A019F10100A86370
:1030C0004FFA8AFA1AF1010F1BD1A86C00280AD016
:1030D0000021280000F0BEFA002816D0002C14D0E1
:1030E0000120206011E0686A00280ED015F124004C
:1030F00000F05CFE002808D0002C06D001202060E3
:1031000003E01AF1010085F845000120070001E005
:103110000020070088F311883800BDE8F0872DE90A
:10312000F44183B080460E0000244746002F07D1AB
:10313000802080F31188BFF34F8FBFF36F8FFEE7BE
:10314000002E02D1386C002801D1012000E00020BF
:10315000C0B2002807D1802080F31188BFF34F8FC1
:10316000BFF36F8FFEE700F027FF002802D103981E
:10317000002801D1012000E00020C0B2002807D1C2
:10318000802080F31188BFF34F8FBFF36F8FFEE76E
:1031900002F025F9BD6B002D1BD03100380000F086
:1031A000B5F9681EB863386900280ED017F1100011
:1031B00000F0FCFD002808D05FF08050DFF86C12B2
:1031C0000860BFF34F8FBFF36F8F02F025F9012026
:1031D00057E00398002803D102F01EF9002050E0C8
:1031E000002C04D1684600F024FE0120040002F007
:1031F00013F900F033FC02F0F2F897F9440010F1F3
:10320000010F02D1002087F8440097F9450010F122
:10321000010F02D1002087F8450002F0FDF803A954
:10322000684600F01BFE002820D1380000F0CBF9E2
:10323000002815D0039917F1240000F07FFD380015
:1032400000F07CF900F012FC0028A1D15FF0805062
:10325000DFF8D8110860BFF34F8FBFF36F8F97E788
:10326000380000F06BF900F001FC91E7380000F045
:1032700065F900F0FBFB380000F0A5F9002887D0C5
:10328000002004B0BDE8F0812DE9F24183B0804612
:10329000002447460025002F07D1802080F31188A5
:1032A000BFF34F8FBFF36F8FFEE7386C002807D056
:1032B000802080F31188BFF34F8FBFF36F8FFEE73D
:1032C00000F07AFE002802D10398002801D10120E5
:1032D00000E00020C0B2002807D1802080F31188D0
:1032E000BFF34F8FBFF36F8FFEE702F078F8BE6B2E
:1032F000002E1CD0701EB8633868002802D100F080
:103300006BFF7860386900280DD017F1100000F0CD
:103310004DFD002807D05FF0805044490860BFF39E
:103320004F8FBFF36F8F02F077F801207AE0039898
:1033300000280DD1002D07D0802080F31188BFF325
:103340004F8FBFF36F8FFEE702F066F8002069E051
:10335000002C04D1684600F06CFD0120040002F04E
:103360005BF800F07BFB02F03AF897F9440010F1AB
:10337000010F02D1002087F8440097F9450010F1B1
:10338000010F02D1002087F8450002F045F803A99B
:10339000684600F063FD00282AD1380000F013F9D8
:1033A00000281FD03868002807D102F018F8786884
:1033B00000F015FE050002F02FF8039917F1240024
:1033C00000F0BCFC380000F0B9F800F04FFB00281A
:1033D0008BD15FF0805015490860BFF34F8FBFF36A
:1033E0006F8F82E7380000F0A9F800F03FFB7CE720
:1033F000380000F0A3F800F039FB380000F0E3F8E3
:1034000000283FF472AF002D0BD001F0E8FF380028
:1034100000F022F806003100786800F081FE01F02B
:10342000FBFF002004B0BDE8F081000004ED00E0E7
:1034300038B50400002C07D1802080F31188BFF339
:103440004F8FBFF36F8FFEE701F0C9FFA06B050040
:1034500001F0E2FF280032BD0200516A002905D0C8
:10346000116B0968D1F10501080001E00021080095
:1034700070472DE9F04707000E0014005FF00008C8
:10348000B86B0500386C002809D13868002838D19D
:10349000786800F0F5FD80460020786031E0002C6F
:1034A00013D1D7F84090D7F808A04A4631005046CB
:1034B000FEF782FBB868396C0844B860B868796870
:1034C00088421ED33868B8601BE0D7F84090D7F820
:1034D0000CA04A4631005046FEF76EFBF868396C86
:1034E00049420844F860F8683968884204D278682C
:1034F000396C49420844F860022C02D1002D00D0FA
:103500006D1E681CB8634046BDE8F087F8B504003E
:103510000D00206C002810D0E068216C0844E060A9
:10352000E0686168884201D32068E060266CE76843
:10353000320039002800FEF73FFBF1BD70B50400F2
:1035400001F04DFF94F945506DB2012D1ADBA06CCE
:10355000002808D00021200000F07CF800280FD0BF
:1035600000F0C5FC0CE0606A002808D014F12400CB
:1035700000F01CFC002803D000F0B9FC00E001E0E2
:103580006D1EE1E75FF0FF3084F8450001F044FF75
:1035900001F025FF94F9446076B2012E0CDB20691E
:1035A000002809D014F1100000F000FC002801D020
:1035B00000F09DFC761EEFE75FF0FF3084F84400DA
:1035C00001F02AFF70BD38B5040001F008FFA06BC0
:1035D000002802D10120050001E00020050001F0D3
:1035E0001BFF280032BD38B5040001F0F8FEA06BC7
:1035F000E16B884202D10120050001E000200500B6
:1036000001F00AFF280032BDF8B504000D001600D5
:10361000270001F0E4FE97F9440010F1010F02D1F8
:10362000002087F8440097F9450010F1010F02D1FE
:10363000002087F8450001F0EFFEB86B002805D1A7
:103640003200290017F1240000F091FB3800FFF749
:1036500075FFF1BDF1B50D000098846C0026002CBB
:1036600007D1802080F31188BFF34F8FBFF36F8F96
:10367000FEE7A06BE16B884207D3802080F31188BE
:10368000BFF34F8FBFF36F8FFEE7A06BE16B8842F4
:103690001AD294F945702A0069462000FFF7E9FE26
:1036A00006007FB217F1010F0BD1606A00280BD022
:1036B00014F1240000F07AFB002805D00120060058
:1036C00002E07F1C84F845703000F2BD2DE9F04F18
:1036D00085B006000F0090469946DDF838A0DDF869
:1036E0003CB01FFA88F85FEA880001F069FF050026
:1036F000002D0BD0542001F063FF0400002C01D0FA
:10370000256305E0280001F092FF01E0002004009D
:10371000002C14D0002003900294CDF804B0CDF812
:1037200000A04B461FFA88F842463900300000F0EE
:103730000DF8200000F078F80120049002E05FF01E
:10374000FF300490049805B0BDE8F08F2DE9F94FE3
:1037500083B00D0016000E9F0F9CDDF84080B00076
:103760000190A5200090D8F830B0009A01995846F1
:10377000FEF776FAD8F8300000EB8600001F82468C
:103780005FEADA0A5FEACA0A1AF00700002807D0DF
:10379000802080F31188BFF34F8FBFF36F8FFEE758
:1037A00000208146B9F1080F0CD215F8090008EB8A
:1037B000090181F8340015F80900002802D019F138
:1037C0000109EFE7002088F83B00052F01D3042012
:1037D0000700C8F82C70C8F844700020C8F84800EA
:1037E00018F1040001F0ABFE18F1180001F0A7FE7B
:1037F000C8F81080D7F10500C8F81800C8F8248070
:103800000020C8F84C00002088F85000049A039962
:10381000504601F047FDC8F80000002C01D0C4F864
:10382000008005B0BDE8F08F10B5040001F0D7FDB1
:10383000DFF810060068401CDFF808160860DFF8A3
:103840000806006800280AD1DFF8FC050460DFF8EC
:10385000F4050068012811D100F064FB0EE0DFF8E8
:10386000EC050068002809D1E06ADFF8DC1509687A
:10387000C96A884202D3DFF8D0050460DFF8D005BA
:103880000068401CDFF8C8150860DFF8C405006850
:10389000E063DFF8C0050068E16A884203D2E06AAD
:1038A000DFF8B0150860211DDFF8AC25E36A1420AD
:1038B000434302EB030001F045FE01F0ADFDDFF8EC
:1038C0008C05006800280FD0DFF87C050068C06A0E
:1038D000E16A884208D25FF08050DFF898160860ED
:1038E000BFF34F8FBFF36F8F10BD2DE9F041040080
:1038F0000D000027002C07D1802080F31188BFF332
:103900004F8FBFF36F8FFEE7002D07D1802080F32C
:103910001188BFF34F8FBFF36F8FFEE7DFF85806B4
:103920000068002807D0802080F31188BFF34F8FF4
:10393000BFF36F8FFEE700F091F8DFF8E405006851
:103940002168691888462168884207D2216888451D
:103950000BD2404509D201210F0006E021688845BD
:1039600001D3404501D201210F00C4F80080002F8F
:1039700004D00021B8EB000000F0A6FD00F076F8BE
:103980000600002E08D15FF08050DFF8281608608E
:10399000BFF34F8FBFF36F8FBDE8F08138B50500DF
:1039A0000024002D15D0DFF8D0050068002807D0CE
:1039B000802080F31188BFF34F8FBFF36F8FFEE736
:1039C00000F04CF80021280000F07EFD00F04EF8D9
:1039D0000400002C08D15FF08050DFF8D815086093
:1039E000BFF34F8FBFF36F8F31BD1CB5DFF82807D2
:1039F00001900020009000234022DFF820170FF2F2
:103A0000F940FFF763FE0400012C02D100F0B0FF83
:103A10000400012C16D1802080F31188BFF34F8F52
:103A2000BFF36F8F5FF0FF30DFF8A8170860012049
:103A3000DFF8181408600020DFF8E414086001F0D3
:103A40005AFC0AE014F1010F07D1802080F311889D
:103A5000BFF34F8FBFF36F8FFEE713BDDFF818057D
:103A60000068401CDFF810150860704770B500252D
:103A70000026DFF804050068002807D1802080F3C5
:103A80001188BFF34F8FBFF36F8FFEE701F0A7FCE4
:103A9000DFF8E4040068401EDFF8DC140860DFF89B
:103AA000D804006800285DD1DFF89803006800287A
:103AB00058D0DFF86006006800282BD0DFF85406E5
:103AC000C068C068050015F1180001F064FD281DEC
:103AD00001F061FDDFF87C030068E96A884203D2E7
:103AE000E86ADFF870130860291DDFF86C23EB6AC1
:103AF0001420434302EB030001F024FDE86ADFF8E1
:103B000048130968C96A8842D3D30120DFF87017C7
:103B10000860CEE7002D01D000F036FADFF8D806B5
:103B20000468002C0ED000F026F8002803D00120F5
:103B3000DFF84C170860641E002CF4D10020DFF879
:103B4000B8160860DFF83807006800280AD001209E
:103B500006005FF08050DFF85C140860BFF34F8F01
:103B6000BFF36F8F01F058FC300070BDDFF8B01369
:103B70000968080070472DE9F0410027DFF8F803D5
:103B8000006800287CD1DFF898030468641CDFF823
:103B900090030460002C24D1DFF8E0030068006883
:103BA000002807D0802080F31188BFF34F8FBFF328
:103BB0006F8FFEE7DFF8C40300688046DFF8C003BC
:103BC0000068DFF8B8130860DFF8B403C0F80080BD
:103BD000DFF8B0060068401CDFF8A816086000F0A7
:103BE000D3F9DFF8F005006884423DD3DFF88C0399
:103BF00000680068002805D15FF0FF30DFF8D415B9
:103C0000086031E0DFF874030068C068C068050030
:103C100068680600B44203D2DFF8B805066023E006
:103C2000281D01F0B8FCA86A002803D015F118007F
:103C300001F0B1FC87480068E96A884202D2E86A6C
:103C400084490860291D844AEB6A1420434302EB2F
:103C5000030001F077FCE86A7B490968C96A884279
:103C6000C4D301200700C1E7774800687A49C26AD7
:103C7000142042438858022809D30120070006E097
:103C8000DFF874050068401CDFF86C150860DFF889
:103C9000F0050068002801D0012007003800BDE8C9
:103CA000F08180B5DFF8D0020068002804D0012040
:103CB000DFF8CC15086040E00020DFF8C41508608C
:103CC00061480068006B604909680968884207D349
:103CD0005D48006810F134015B48006801F01EFE89
:103CE0005C49096808005C49142202FB00F289580B
:103CF00000290BD1002807D1802181F31188BFF35F
:103D00004F8FBFF36F8FFEE7401EECE7524A14233C
:103D100003FB00F31A4411004A6852684A604A687B
:103D200011F108039A4202D14A6852684A60496810
:103D3000C968454A11604749086001BD38B50400AB
:103D40000D00002C07D1802080F31188BFF34F8F26
:103D5000BFF36F8FFEE73C48006810F118012000A8
:103D600001F0FCFB0121280000F0AEFB31BD70B575
:103D700005000E001400002D07D1802080F311886B
:103D8000BFF34F8FBFF36F8FFEE72F48006810F12E
:103D90001801280001F0D6FB002C02D05FF0FF30A4
:103DA00006002100300000F08FFB70BD70B50500EB
:103DB000E868C0680400002C07D1802080F31188D7
:103DC000BFF34F8FBFF36F8FFEE714F1180001F0C0
:103DD000E2FB69480068002814D1201D01F0DBFBDC
:103DE0001C480068E16A884202D2E06A194908600A
:103DF000211D194AE36A1420434302EB030001F03A
:103E0000A1FB05E014F11801DFF8080301F09AFBAB
:103E10000D480068C06AE16A884206D201200600A7
:103E20000120DFF86C15086001E00020060030007A
:103E300070BDDFF8501409680160DFF8F4160968F6
:103E40004160704750720020447200205C72002074
:103E50006C72002058720020046F00202DE9F041A0
:103E600004000D00002C07D1802080F31188BFF3DF
:103E70004F8FBFF36F8FFEE7002D07D1802080F3B7
:103E80001188BFF34F8FBFF36F8FFEE701F0A7FAE2
:103E900023480768D4F80480B7EB0808286810F1B5
:103EA000010F02D1002006001CE0DFF8D8030068F3
:103EB0002168884205D06068874202D3012006004D
:103EC00010E02868804509D22868B0EB0800286017
:103ED0002000FFF7AEFF0020060003E0002028606E
:103EE0000120060001F098FA3000BDE8F0810120C1
:103EF000DFF89C140860704710B5040000F039F832
:103F0000DFF8300600680228F8D35FF08050DFF851
:103F100028160860BFF34F8FBFF36F8FEEE70000E6
:103F20005472002010B500200400052C09D2DFF8DF
:103F30000406142101FB04F1084401F0F1FA641CA9
:103F4000F3E7DFF8F80501F0EBFADFF8F40501F02C
:103F5000E7FA704801F0E4FA0A4801F0E1FADFF804
:103F6000DC0506490860DFF8D805DFF8D8150860D9
:103F700010BD704704ED00E0787200204872002008
:103F80004C720020AC710020DFF8C00500680068AA
:103F9000002804D15FF0FF308E4A106008E0DFF89F
:103FA000AC050068C068C06801004868894A1060B4
:103FB0007047000004ED00E0DFF89415096800295F
:103FC00002D10121080009E0DFF8881509680029FD
:103FD00002D10221080001E000210800704770B5FD
:103FE000040025000026002C48D0E86ADFF85815A8
:103FF0000968C96A884238D2A869002806D4DFF85F
:1040000048050068C06AD0F10500A8616969DFF859
:104010002425EB6A1420434302EB030081421CD1A8
:10402000281D01F0B8FADFF820050068C06AE862D0
:10403000DFF824050068E96A884203D2E86ADFF8FD
:1040400018150860291DDFF8EC24EB6A142043439F
:1040500002EB030001F076FA04E0DFF8EC040068FC
:10406000C06AE8620120060008E0686CDFF8D81436
:104070000968C96A884201D201200600300070BD7B
:1040800070B5040025000026002C40D0DFF8B804ED
:104090000068854207D0802080F31188BFF34F8FDE
:1040A000BFF36F8FFEE7A86C002807D1802080F354
:1040B0001188BFF34F8FBFF36F8FFEE7A86C401ED0
:1040C000A864E86A696C884221D0A86C00281ED1D7
:1040D000281D01F060FA686CE862E86AD0F105001A
:1040E000A861DFF874040068E96A884203D2E86ACC
:1040F000DFF864140860291DDFF83824EB6A142007
:10410000434302EB030001F01DFA012006003000DA
:1041100070BD00009871002074720020709E000035
:104120002DE9F84304000D0026005FF00109002C82
:104130004ED0B06C002807D1802080F31188BFF3E7
:104140004F8FBFF36F8FFEE7706CA84201D2A84675
:1041500001E0706C8046F06A404539D0B06C48454B
:1041600036D1DFF8E4030068864207D1802080F36F
:104170001188BFF34F8FBFF36F8FFEE7F06A070020
:10418000C6F82C80B069002802D4D8F10500B061CF
:104190007069DFF8A013142202FB07F21144884271
:1041A00016D1301D01F0F7F9DFF8AC030068F16AB1
:1041B000884203D2F06ADFF8A0130860311DDFF8EF
:1041C0007423F36A1420434302EB030001F0BAF9AD
:1041D000BDE8F18370720020DFF86C0300680028EE
:1041E00005D0DFF864030068816C491C8164DFF846
:1041F00058030068704700006072002070B504002A
:104200000D0001F0ECF8DFF840030068C06C0028F6
:1042100014D10120DFF83013096881F85000002D17
:104220000CD00121280000F04FF95FF08050DFF83A
:1042300008130860BFF34F8FBFF36F8F01F0ECF8E6
:1042400001F0CDF8DFF800030068C06C0600002E16
:104250000CD0002C05D00020DFF8EC120968C864EF
:1042600004E0701EDFF8E0120968C8640020DFF87F
:10427000D812096881F8500001F0CEF8300070BD06
:1042800064720020687200202DE9F04704000E00DF
:1042900017001D005FF00109002C07D1802080F37A
:1042A0001188BFF34F8FBFF36F8FFEE7A04601F079
:1042B00096F8002D02D0D8F84C00286098F85000ED
:1042C0008246022088F85000FFB2002F20D0022F33
:1042D0000AD003D3042F10D00CD319E0D8F84C0027
:1042E0003043C8F84C0013E0D8F84C00401CC8F824
:1042F0004C000DE0C8F84C600AE05FFA8AFABAF1A7
:10430000020F02D0C8F84C6001E000208146FFE7B0
:104310005FFA8AFABAF1010F35D118F1040001F001
:104320003AF9DFF834020068D8F82C10884204D239
:10433000D8F82C00DFF82012086018F104017D4A3B
:10434000D8F82C301420434302EB030001F0FAF8B4
:10435000D8F82800002807D0802080F31188BFF308
:104360004F8FBFF36F8FFEE777480068C06AD8F8B9
:104370002C10884207D25FF080506F490860BFF36D
:104380004F8FBFF36F8F01F047F84846BDE8F087C5
:10439000647200202DE9F84F04000F0090461D00C4
:1043A0000A9E5FF0010A002C07D1802080F311885B
:1043B000BFF34F8FBFF36F8FFEE701F05BF8A146AD
:1043C000EFF311808346802080F31188BFF34F8F75
:1043D000BFF36F8F002D02D0D9F84C00286099F8F8
:1043E00050008DF80000022089F850005FFA88F82C
:1043F000B8F1000F21D0B8F1020F0BD004D3B8F1FF
:10440000040F10D00CD318E0D9F84C003843C9F889
:104410004C0012E0D9F84C00401CC9F84C000CE0EC
:10442000C9F84C7009E09DF80000022802D0C9F8D4
:104430004C7001E000208246FFE79DF80000012853
:104440003DD1D9F82800002807D0802080F31188BA
:10445000BFF34F8FBFF36F8FFEE73E480068002821
:1044600019D119F1040001F096F83B480068D9F819
:104470002C10884203D2D9F82C003749086019F172
:1044800004012C4AD9F82C301420434302EB0300DA
:1044900001F058F804E019F11801304801F052F821
:1044A00029480068C06AD9F82C10884207D2002E2B
:1044B00002D00120306002E00120294908608BF31E
:1044C00011885046BDE8F28FF8B505000C00184879
:1044D00007681D480068001D01F05DF815F1010F27
:1044E00008D1002C06D018480068011D1D4801F0B5
:1044F00029F81BE0E8190600134800684660BE4230
:1045000007D211480068011D0E48006801F026F826
:104510000CE00D480068011D0C48006801F01EF811
:1045200011480068864201D20F480660F1BD0000C4
:1045300054720020046F002004ED00E07071002030
:10454000847100204C7200204472002048720020C8
:104550005C72002078720020587200209871002050
:1045600064720020AC7100207072002070B54FF4AE
:104570008074FF25DFF8D8632A0021003000FDF7A2
:104580006FFB0020C0B23B2809DADFF8C813C0B2C5
:10459000095CDFF8BC23C9B25054401CF2E770BD7F
:1045A000C0B2FF2804D0DFF8A813C0B2085C00E056
:1045B000FF20C0B27047C0B23B2804DADFF8941382
:1045C000C0B2085C00E0FF20C0B2704710B4030026
:1045D00000201C000A00511E002A03D02278101867
:1045E000641CF7E7C0B210BC7047DFF86C03DFF85B
:1045F0006813DFF868231160012176290FD2DFF8F4
:104600005823402303FB01F31A440260DFF84823D8
:10461000402303FB01F31A441000491CEDE700217D
:104620000160704710B500F0DAFEDFF8300304686F
:10463000002C02D02068C949086000F0EDFE20007F
:1046400010BD10B50400002C08D000F0C8FEC3480F
:1046500000682060C148046000F0DEFE10BD80B537
:10466000FFF7C3FFFFF782FF01BD38B500F0B7FECB
:1046700000243B2C14DABA4800EBC4052868002853
:1046800002D02868FFF7DDFF6868002802D068685C
:10469000FFF7D7FF0020286000206860641CE8E76F
:1046A00000F0BAFE31BD70B505000C000026EDB279
:1046B0003B2D1DDA00F093FEE4B2002C0AD0A8488E
:1046C000EDB250F8350006000020A549EDB241F8E2
:1046D00035000BE0A248EDB200EBC50040680600D3
:1046E00000209F49EDB201EBC501486000F094FE47
:1046F000300070BDF8B505000C001600EDB23B2D82
:104700003CDA00F06CFE9648EDB200EBC507E4B26F
:10471000002C07D03868002802D03868FFF791FFD6
:104720003E6027E07868002802D07868FFF789FFAC
:104730007E60786800281DD04AF655203080280019
:10474000C0B2FFF738FFB070F0783B2801D2F078A4
:1047500000E03B20F070F178891CB01CFFF736FFB9
:10476000F178314408710023012201217D4800685D
:10477000FFF78AFD00F050FE012000E00020F2BDAE
:104780002DE9F04705000E0017000024FFF74AFF4F
:10479000804600281DD0FFB23B2F01D2380000E038
:1047A0003B2088F8030098F8039018F1040A4A4661
:1047B00031005046FDF700FA424600212800C0B201
:1047C000FFF798FF0400E4B2002C02D14046FFF747
:1047D00038FF2000C0B2BDE8F0872DE9F0410400A9
:1047E0000D0016005FF0000828783B2190FBF1F2E5
:1047F00001FB12002870F6B23B2096FBF0F100FBA3
:10480000116628783100C9B2884203D2F6B22F78F7
:10481000F71B04E02878D0F13B0050FA86F700F04F
:10482000DEFD3800471E002833D0E4B2002C10D043
:104830004B48297850F8310000280AD04848297898
:1048400050F831008046002045492A7841F832006E
:104850001FE0E4B2002C13D14148297800EBC100DD
:10486000406800280CD03E48297800EBC100406821
:10487000804600203A492A7801EBC201486008E0EE
:104880002878401C3B2190FBF1F201FB12002870BC
:10489000C7E700F0C1FD4046BDE8F0812DE9F041D9
:1048A00082B006000027B478E4B22409B57815F088
:1048B0000F05B078FFF774FE8046E4B2002C19D1E2
:1048C000EDB2002D0FD13000FFF7BBFE6846264940
:1048D0000A680260042269464046C0B2FFF750FFF2
:1048E000012007002FE0EDB2012D2CD0EDB2022DFA
:1048F00029D028E0E4B2002C0AD0E4B2062C07DA72
:10490000320001214046C0B2FFF7F4FE07001AE072
:10491000E4B2062C17DBE4B20B2C14DAEDB2032D53
:1049200011DA320001214046C0B2FFF7E3FE070072
:104930000E48E4B200EB840050F8180C002301226A
:104940000421FFF7A1FC3800C0B2BDE8F6810000E9
:10495000606B0020A49B0000204300209072002088
:10496000D06600203C7200208C9E00005C7100200C
:104970001CB5002400F022FADFF87C04006800284F
:104980000DD0DFF87804019004200090002340222D
:10499000DFF86C140FF27D10FEF798FE0400002C77
:1049A00007D1802080F31188BFF34F8FBFF36F8F43
:1049B000FEE7200016BD2DE9F04383B005000E0090
:1049C00017009846DDF828902C2000F0F9FD04002F
:1049D000002C08D00194CDF8009043463A003100F5
:1049E000280000F003F82000BDE8FE832DE9F8431D
:1049F00006000D0017009846DDF82090099C002D58
:104A000007D1802080F31188BFF34F8FBFF36F8FE2
:104A1000FEE7002C0BD000F0D1F92660A561E7611C
:104A2000C4F82080C4F82490201D00F088FDBDE863
:104A3000F1832DE9FE4304000D0016001F00DDF890
:104A400028805FF00009002C07D1802080F31188B6
:104A5000BFF34F8FBFF36F8FFEE7DFF89C03006853
:104A6000002825D0009501960294062D17DAFFF74D
:104A7000A3FA022809D1002342466946DFF87803E9
:104A80000068FEF771F9814612E0002300226946B2
:104A9000DFF864030068FEF767F9814608E0002349
:104AA0003A006946DFF850030068FEF744FA814691
:104AB0004846BDE8FE83F8B505000E00DFF8440364
:104AC0000068C068C768381D00F065FDF8690128F6
:104AD0001BD12B003200B9694919380000F08AF85F
:104AE000002812D00020009000232A000021380066
:104AF000FFF79FFF0400002C07D1802080F311886E
:104B0000BFF34F8FBFF36F8FFEE73800796A884796
:104B1000F1BD000038B50400684600F040F805001B
:104B20000099280000F003F800F08CF8F4E770B565
:104B300082B005000C00FEF791FF684600F046F8D1
:104B400006000098002827D1002C08D1AE4206D3D9
:104B5000FEF78CFF31002800FFF7ADFF1EE0002CB0
:104B600007D0A94800680068002801D1012400E0AE
:104B700000242200A91BA0480068FEF745FDFEF7AF
:104B800075FF00280AD15FF08050A0490860BFF38C
:104B90004F8FBFF36F8F01E0FEF768FF73BD020018
:104BA000984909680968002901D1012100E0002124
:104BB000C9B211601168002905D192490968C96814
:104BC0000968080001E000210800704738B50400BA
:104BD000FEF7CCFF05008E480068854204D200F045
:104BE0009FF80120206001E00020206088480560D7
:104BF000280032BD2DE9F04104000D0016001F0011
:104C00005FF0000865602461AE420CD3F01BA1691F
:104C1000884202D30120804611E0211D7A480068B5
:104C200000F09CFC0BE0BE4204D2BD4202D3012046
:104C3000804604E0211D7348006800F08FFC404668
:104C4000BDE8F08170B586B0002201A96A4800680D
:104C5000FEF765FA002861D001980028F4D4039883
:104C600005006869002802D0281D00F094FC04A803
:104C7000FFF7ACFF0600019800280ED002280CD0E8
:104C80000BD3042830D02ED3062806D041D30828D1
:104C900029D002D3092827D03FE0029B3200029995
:104CA000A86941182800FFF7A5FF00281AD028009E
:104CB000696A8847E869012814D100200090002320
:104CC000029AA869821800212800FFF7B2FE0400AA
:104CD000002C07D1802080F31188BFF34F8FBFF3E2
:104CE0006F8FFEE7B0E7AFE70298A861A8690028D8
:104CF00007D1802080F31188BFF34F8FBFF36F8FF0
:104D0000FEE733003200A96989192800FFF772FF16
:104D10009AE7280000F08BFC96E795E706B070BD97
:104D20002DE9F04182B037480068006800283AD089
:104D300034480068C0680068050032480068C068F0
:104D4000C068804618F1040000F025FC4046D8F801
:104D500024108847D8F81C000128E4D1D8F818009E
:104D600040190600B5420AD2C8F80460C8F810809D
:104D700018F104012348006800F0F0FBD3E700209D
:104D8000009000232A0000214046FFF752FE040055
:104D9000002C07D1802080F31188BFF34F8FBFF321
:104DA0006F8FFEE7BFE717480068070016480068E6
:104DB0001449086014480760BDE8F38180B500F02D
:104DC0000EFB0D480068002812D1124800F0A8FB25
:104DD000114800F0A5FB0F480A4908600E480A492F
:104DE000086000220C210220FDF774FF02490860D0
:104DF00000F012FB01BD00008472002088720020C8
:104E0000789E00007C7200208072002004ED00E09B
:104E10008C720020C0710020D471002070B5040095
:104E20000D00A06806006068711C884206D32068E7
:104E30008555701CA060E068401CE060A068616857
:104E400088420DD1A2682168206900F074FFA16832
:104E5000884203D05FF0FF30E06001E00020A060F6
:104E600070BD2DE9F04F83B00700884691461E00C3
:104E70000C9CC2460120050001208346CA4504D38C
:104E8000BAFBF9FA1BF1010BF8E7B34500D2B346C0
:104E90000D98C0071AD4002C18D00D98800705D59E
:104EA000002E03D130208DF8000002E020208DF884
:104EB0000000002C0AD0A34508D2641E9DF8001003
:104EC0003800FFF7ABFFF8680028F2D5F868002833
:104ED00030D4022E01D3761E05E0B8FBF5F0019028
:104EE0000198484502D309FB05F5F2E7B8FBF5F058
:104EF0000190019805FB10880F480199415C38002A
:104F0000FFF78CFFF868002803D4B5FBF9F5002DF6
:104F1000ECD10D98C0070DD5002C0BD0002C09D07A
:104F2000A34507D2641E20213800FFF777FFF868F9
:104F30000028F3D5BDE8F78FC49D00002DE9F04FA0
:104F400083B006000F0090461D000C9CDDF83490E5
:104F5000002F02D5D7F1000B00E0BB4601208246AE
:104F6000C34504DB9BFBF8FB1AF1010AF8E7AA45ED
:104F700000D2AA46002C05D0002F02D45FEA497067
:104F800000D5641E5FEA897001D5002D10D05FEA5C
:104F9000C9700DD4002C0BD0002C09D0A24507D22B
:104FA000641E20213000FFF739FFF0680028F3D598
:104FB000F068002831D4002F05D57F422D21300024
:104FC000FFF72CFF06E05FEA497003D52B21300084
:104FD000FFF724FFF06800281FD419F0030002280F
:104FE0000FD1002D0DD1002C0BD0002C09D0A245E3
:104FF00007D2641E30213000FFF710FFF068002850
:10500000F3D5F068002808D4CDF8049000942B0064
:10501000424639003000FFF724FFBDE8F78F2DE945
:10502000F14F98B08A46160007A8029040200390DE
:105030000020049018980690002005909AF800002F
:1050400004001AF1010AE4B2002C00F00681E4B277
:10505000252C40F0F98000200700012005009AF877
:1050600000000400E4B22000232815D02B280ED025
:105070002D2802D0302805D013E057F001071AF18F
:10508000010A10E057F002071AF1010A0BE057F08D
:1050900004071AF1010A06E057F008071AF1010A9D
:1050A00001E000200500002DD9D1002080469AF8AB
:1050B00000000400E4B2302C02DBE4B23A2C08DB3E
:1050C000002081469AF800000400E4B22E2C1ED184
:1050D00008E01AF1010A0A20E4B200FB0848B8F11E
:1050E0003008E4E71AF1010A9AF800000400E4B27B
:1050F000302C02DBE4B23A2C00DB08E01AF1010AA2
:105100000A20E4B200FB0949B9F13009ECE79AF84A
:1051100000000400E4B26C2C02D0E4B2682C05D18B
:105120001AF1010A9AF800000400F3E7E4B2200043
:10513000252800F08180582840D063280AD06428B0
:1051400018D0702865D073284AD0752824D07828C4
:1051500034D076E030683060306800683168091D0E
:1051600031600500280083465946C9B202A8FFF7FE
:1051700055FE66E030683060306800683168091DAF
:10518000316005000197CDF800804B460A222900C6
:1051900002A8FFF7D3FE54E0306830603068006842
:1051A0003168091D316005000197CDF800804B463C
:1051B0000A22290002A8FFF754FE42E0306830605E
:1051C000306800683168091D316005000197CDF82D
:1051D00000804B461022290002A8FFF742FE30E073
:1051E000306830603068D0F800B03068001D306042
:1051F0009BF8000004001BF1010BE4B2002C07D067
:105200002100C9B202A8FFF709FE05980028EFD5D2
:1052100017E030683060306800683168091D31601F
:10522000050000200190082000900823102229008A
:1052300002A8FFF716FE04E0252102A8FFF7EEFD05
:10524000FFE71AF1010A04E02100C9B202A8FFF742
:10525000E5FD059800287FF5F1AE059801280BDBE8
:105260000498002804D0049A07A9189800F063FD58
:105270000599049841180591059819B0BDE8F08F7B
:105280000CB470B582B004000D0006A800906A4608
:1052900029002000FFF7C3FE0600300076BC5DF851
:1052A0000CFB254A001F5FF080730360001F4B0852
:1052B0005B000360001F0FF21503036014380260E7
:1052C000001F7FF002030360203870477D480068AC
:1052D00010F1010F07D0802080F31188BFF34F8FAA
:1052E000BFF36F8FFEE7802080F31188BFF34F8FED
:1052F000BFF36F8FFEE700B583B073480068734952
:10530000884207D1802080F31188BFF34F8FBFF30D
:105310006F8FFEE76C4800686D49884207D1802096
:1053200080F31188BFF34F8FBFF36F8FFEE769489B
:1053300001780191FF21017001788DF800109DF82E
:10534000001011F08001644A11700721634A116056
:105350009DF8001009060AD560490968491E5F4A90
:1053600011609DF8001049008DF80010F0E75B49CE
:105370000968D1F10701032907D0802181F3118841
:10538000BFF34F8FBFF36F8FFEE7544909680902DF
:10539000524A11605149096811F4E0614F4A1160A5
:1053A000019901704E48006850F460004C49086053
:1053B0004B48006850F060404949086000F09AF896
:1053C00000204049086000F02BFD4648006850F07E
:1053D00040404449086000F013FD00200EBD8020CD
:1053E00080F31188BFF34F8FBFF36F8F354800688C
:1053F000401C344908603348006801280BD13A4802
:105400000068000607D0802080F31188BFF34F8F1B
:10541000BFF36F8FFEE770472A480068002807D166
:10542000802080F31188BFF34F8FBFF36F8FFEE7AB
:1054300024480068401E234908602248006800286C
:1054400002D1002080F31188704780B5802080F35E
:105450001188BFF34F8FBFF36F8FFEF78CFB0028CF
:1054600003D05FF0805020490860002080F311884D
:1054700001BD0000EFF305821000102811D31B4A74
:105480001268125C11000A00134B1B78D2B29A42C8
:1054900007D2802282F31188BFF34F8FBFF36F8F43
:1054A000FEE70E4A1268124B1B6813F4E0639A423F
:1054B00007D2802282F31188BFF34F8FBFF36F8F23
:1054C000FEE770477402002000ED00E071C20F415A
:1054D00070C20F4100E400E094720020407200208E
:1054E00020ED00E034EF00E004ED00E0849E0000D9
:1054F0000CED00E000200649086000200549086026
:10550000054806490860072001490860704700BF48
:1055100010E000E018E000E0BCD4010014E000E07E
:1055200010F1080141605FF0FF31816010F1080166
:10553000C16010F108010161002101607047002184
:105540000161704742684A6093688B609368596054
:105550009160086103685B1C0360704710B40B68BE
:1055600013F1010F02D10469220008E010F10804D0
:10557000220054682468A34201D35268F9E75468B2
:105580004C604C68A1608A60516008610468641CCA
:10559000046010BC7047010008698A684B689A6013
:1055A0004A688B685A6042688A4201D18A684260C0
:1055B00000220A610268521E0260006870470400FF
:1055C00038B50500002415F0070F04D015F10800C8
:1055D00015F00705451BFEF741FA1A480068002838
:1055E00004D11948C008C00016490860174800686F
:1055F000281843F6F871884211D2144800681349FC
:105600000968691888420AD20E4800680F4909687B
:10561000084404000D48006828180C490860FEF78B
:1056200025FA002C01D100F086F9200032BD0028B7
:1056300007D0802181F31188BFF34F8FBFF36F8FA5
:10564000FEE77047347200202803002030720020EB
:1056500080797047C9B2802303FB01F303449A6049
:105660007047C9B2802303FB01F303445A607047BB
:10567000C9B2802303FB01F303449A617047C9B2A6
:10568000802303FB01F303445A617047C9B28023AE
:1056900003FB01F30344DA61704730B4C9B28024DC
:1056A00004FB01F40444D2B2144494F830402500C1
:1056B00015F0F00513F00F042543C9B2802404FB54
:1056C00001F40444D2B2144484F8305030BC704722
:1056D00030B4C9B2802404FB01F40444D2B21444AF
:1056E00094F83040250015F00F05DBB21C0125436E
:1056F000C9B2802404FB01F40444D2B2144484F8F7
:10570000305030BC704730B4C9B2802505FB01F57C
:105710000544D2B2154495F840502C0014F0FE0414
:105720001C43C9B2802505FB01F50544D2B21544DE
:1057300085F8404030BC7047C9B2802303FB01F3B9
:1057400003449A62704702690A42FCD170470069BB
:10575000704738B504000D00258048F20301200091
:10576000FFF7F1FF31BD80B500F070FB01BD70B5F2
:1057700004000D001600F6B2002E03D0022E30D029
:1057800018D346E02A002100C9B2D148FFF769FFCB
:10579000AAB252F080422100C9B2CD48FFF7CCFF37
:1057A0002A00120C52F040422100C9B2C848FFF74B
:1057B000C3FF2EE02A002100C9B2C548FFF751FF00
:1057C0002A00C4F202022100C9B2C148FFF7B4FFA7
:1057D000C04A52EA15422100C9B2BD48FFF7ACFFEA
:1057E00017E02A002100C9B2B948FFF733FFAAB277
:1057F00052F080422100C9B2B548FFF79DFF2A0050
:10580000120C52F040422100C9B2B148FFF794FF98
:10581000FFE770BD70B505000E001400E4B2002C67
:1058200006D032002900C9B2A948FFF721FF05E0E0
:1058300032002900C9B2A648FFF721FF70BD38B574
:1058400004000D002A002100C9B2A148FFF71EFF85
:1058500031BDF8B504000D002600760914F01F07CD
:1058600015F1010F08D100233A00D2B23100C9B2BC
:105870009748FFF748FF1EE001233A00D2B23100FB
:10588000C9B29348FFF73FFFF8070AD52B00DBB2F8
:105890003A00D2B252083100C9B28D48FFF718FF62
:1058A00009E02B00DBB23A00D2B252083100C9B293
:1058B0008748FFF7F2FEF1BD38B504000D0029005E
:1058C0002000FFF7C6FF31BD38B504000D002A00E7
:1058D000D2B2012114F01F0081402000C0B2400963
:1058E000FFF745FF31BD38B504000D002A00D2B2E4
:1058F000012114F01F0081402000C0B24009FFF7D1
:1059000089FF31BD10B50400012114F01F00814052
:105910002000C0B24009FFF792FF10BD38B5050066
:105920000C00002C01D0220000E068A26A4900208F
:10593000FFF7A6FCFEE780B568490020FFF7A0FC52
:10594000FEE710B5040000212B20FFF7CCFF022159
:105950002B20FFF7B9FF5FF0FF312B20FFF7ACFFE3
:105960004FF4FA70FEF71AF82B20FFF7CBFFF7E79A
:1059700070B55B4C4FF419755FF000562A0021009A
:105980003000FCF719F95FF00050C009C00155491B
:10599000086070BD00B583B000F0E9F952490020FD
:1059A000FFF76EFCFFF7E4FF5048FFF7D0FE00283A
:1059B00003D001214D48FFF7CCFE00212B20FFF73B
:1059C00092FF02212B20FFF77FFF5FF0FF312B209A
:1059D000FFF772FF01212920FFF776FF5FF0FF310B
:1059E0002920FFF769FF01214020FFF76DFF5FF0DD
:1059F000FF314020FFF760FFFFF7B5FE00F0BAFA75
:105A00003B48FFF725FE0028FAD000F0E8FD002013
:105A10000190032000900023402236493648FDF7CC
:105A200055FE364801900220009000238022344920
:105A30003448FDF74BFE0020019002200090002327
:105A4000802231493148FDF741FE002001900120BC
:105A500000900023C0222E492E48FDF737FE2E4825
:105A60000190012000900023C0222C492C48FDF712
:105A70002DFE2C480190012000900123C0222A49CC
:105A80002748FDF723FE29480190012000900223BA
:105A9000C02227492248FDF719FE2648019001201F
:105AA00000900323C02224491D48FDF70FFE234820
:105AB0000190012000900423C02221491848FDF7DD
:105AC00005FEFDF792FFFEE7000000000000000069
:105AD00000800041000002C0609D0000789D000031
