:1000000000000320B1670000B9670000B967000075
:10001000B9670000B9670000B96700000000000080
:100020000000000000000000000000006D3600002D
:10003000B96700000000000015360000031B000037
:10004000B9670000B9670000B9670000B967000030
:10005000B9670000B9670000B9670000B967000020
:10006000B9670000B9670000B9670000B967000010
:10007000F1530000B9670000B9670000F9530000B0
:1000800001540000095400001154000019540000EC
:10009000B9670000B967000021540000295400002E
:1000A000B96700003154000039540000B9670000FE
:1000B000B9670000B9670000B96700007D4600001D
:1000C000854600008D460000954600009D460000D4
:1000D000B9670000B9670000B9670000B9670000A0
:1000E000B9670000B96700000000000000000000D0
:1000F00000000000E9650000730800007F080000B0
:100100008B080000970800000B4B0000154B000007
:100110001F4B0000294B0000430800004F0800005F
:100120005B08000067080000B9670000B9670000BD
:10013000B9670000B9670000130800001F0800003D
:100140002B08000037080000A3080000AF080000DB
:10015000BB080000C7080000072300000F230000B1
:10016000172300001F230000D3080000DF08000051
:10017000EB080000F708000000000000000000008D
:10018000B9670000B9670000B9670000B9670000EF
:1001900000000000B9670000B9670000B9670000FF
:1001A000B9670000B9670000B9670000B9670000CF
:1001B000B9670000B9670000B9670000B9670000BF
:1001C000B9670000B9670000B9670000B9670000AF
:1001D000B9670000B9670000B9670000B96700009F
:1001E000B9670000B9670000B9670000B96700008F
:1001F000B9670000B9670000B9670000B96700007F
:10020000B9670000B9670000B9670000B96700006E
:10021000B9670000B9670000B9670000B96700005E
:10022000B9670000B9670000B9670000B96700004E
:10023000B9670000B9670000B9670000B96700003E
:10024000B9670000B9670000B9670000B96700002E
:10025000B9670000B9670000B9670000B96700001E
:10026000B967000000B2002809D4012210F01F0174
:100270008A40DFF8181C00B2400941F8202070477E
:1002800000B200280DD4012210F01F018A40DFF8CF
:10029000001C00B2400941F82020BFF34F8FBFF38C
:1002A0006F8F704700B2002809D4012210F01F019F
:1002B0008A40DFF8E01B00B2400941F82020704777
:1002C00000B2002805D44901DFF8CC2B00B211544C
:1002D00008E04901DFF8502C00B210F00F00104484
:1002E00000F8041C7047C9B200EB8100C0F8802000
:1002F00070474269114341617047826911438161CE
:100300007047026A114301627047C9B280235943A2
:10031000084482607047C9B2802359430844426050
:100320007047C9B280235943084482617047C9B2FB
:100330008023594308444261704710B4C9B28024F5
:1003400004FB01F40444D2B2144494F8304014F095
:10035000F00413F00F0323431C00C9B28023594358
:100360000844D2B2104480F8304010BC704710B43A
:10037000C9B2802404FB01F40444D2B2144494F8BA
:10038000304014F00F04DBB21B0123431C00C9B240
:10039000802359430844D2B2104480F8304010BC46
:1003A000704710B4C9B2802404FB01F40444D2B2F3
:1003B000144494F8404014F0FE0423431C00C9B2D6
:1003C000802359430844D2B2104480F8404010BC06
:1003D000704710B4C9B2802303FB01F30344D2B2C7
:1003E00003EB0204C9B2802359430844D2B210443B
:1003F00090F8400050F0040084F8400010BC7047B2
:1004000010B4C9B2802303FB01F30344D2B203EB5F
:100410000204C9B2802359430844D2B2104490F870
:10042000400010F0FB0084F8400010BC7047C9B2D7
:1004300080235943084482627047C2690A42FCD152
:100440007047007E10F001007047007E400810F0F9
:1004500001007047007E704701767047807D7047CD
:100460008175C9B2C9430175704780B5016851F003
:10047000020101600321FFF7E0FF01BD10B5040098
:1004800003212000FFF7D9FF2068C0F340000028B7
:1004900001D0012000E00020C0B210BD80B502688C
:1004A00032F00202C9B252EA410202600321FFF7B0
:1004B000C4FF01BD80B5016831F002010160032174
:1004C000FFF7BBFF01BD80B501600321FFF7B5FF5A
:1004D00001BD80B541601F21FFF7AFFF01BD8181E4
:1004E000704781627047806A704741837047408BD4
:1004F000704738B504000D00D2B2002A03D0022A9A
:1005000037D01BD350E02A002100C9B2DFF81C0A03
:10051000FFF701FFAAB252F080422100C9B2DFF812
:100520000C0AFFF784FF2D0C55F040452A002100EE
:10053000C9B2DFF8F809FFF77AFF35E02A00210099
:10054000C9B2DFF8E809FFF7E6FE2A00C4F20202AA
:100550002100C9B2DFF8D409FFF769FFDFF8D0291D
:1005600052EA15422100C9B2DFF8C009FFF75FFF68
:100570001AE02A002100C9B2DFF8B009FFF7C5FE72
:10058000AAB252F080422100C9B2DFF8A009FFF7F9
:100590004EFF2D0C55F040452A002100C9B2DFF86E
:1005A0008C09FFF744FFFFE731BD38B504000D00AB
:1005B000D2B2002A03D0022A25D009D33EE02A0075
:1005C000D2B22100C9B2DFF86409FFF719FF35E0A4
:1005D0000122AA402100C9B2DFF85009FFF79BFEB3
:1005E0002A00D2B22100C9B2DFF84009FFF7F1FEBC
:1005F000012010FA05F52A002100C9B2DFF82C0904
:10060000FFF78FFE1AE00122AA402100C9B2DFF8ED
:100610001C09FFF780FE2A00D2B22100C9B2DFF820
:100620000C09FFF7D6FE012010FA05F52A0021007B
:10063000C9B2DFF8F808FFF77AFEFFE731BD70B501
:1006400004000D002600760914F01F0415F1010FB7
:1006500009D100232200D2B23100C9B2DFF8CC08A0
:10066000FFF79FFE21E001232200D2B23100C9B280
:10067000DFF8B808FFF795FEE0070BD52B00DBB2DB
:10068000E4B2640822003100C9B2DFF8A008FFF725
:100690006EFE0AE02B00DBB2E4B2640822003100F7
:1006A000C9B2DFF88808FFF748FE70BD80B50A00C0
:1006B000D2B210F01F01C0B24009FFF776FF01BDB2
:1006C00080B5FFF7BCFF01BD80B50A00D2B20121A1
:1006D00010F01F039940C0B24009FFF70AFF01BDA7
:1006E00010B5002400E0641C082C41DADFF844183F
:1006F00051F824108142F6D14022DFF83C0810F86E
:100700001410DFF83808FFF7EEFD4322DFF8280861
:1007100000EB44004178DFF82408FFF7E4FDDFF840
:100720002008005D102809DA0121DFF814080057BD
:100730008140DFF81008FFF7DCFD19E0DFF8000862
:10074000005D20280ADA0121DFF8F407005D103887
:100750008140DFF8F007FFF7D0FD09E00121DFF865
:10076000E007005D20388140DFF8D807FFF7C9FDBA
:1007700010BD10B5040005212068FFF7A4FE01217B
:100780002068FFF75AFEDFF8C0172068FFF79BFECE
:100790005FF440312068FFF79CFE4FF6CB71206874
:1007A000FFF79DFE10BD70B582B0040020680068A0
:1007B000FFF750FE050020680068FFF798FE06006E
:1007C00020680068FFF74AFE054068070DD52068DD
:1007D0000068FFF788FE8DF80000B00705D40023FD
:1007E00000226946606800F02CFDA80604D520218F
:1007F00020680068FFF730FE280609D580212068B0
:100800000068FFF729FEFF2120680068FFF76DFEF2
:1008100073BD80B5DFF83407FFF7C5FF01BD80B5B4
:10082000DFF82807FFF7BFFF01BD80B5DFF81C0721
:10083000FFF7B9FF01BD80B5DFF81007FFF7B3FF81
:1008400001BD80B5DFF80807FFF7ADFF01BD80B53A
:10085000DFF8FC06FFF7A7FF01BD80B5DFF8F00663
:10086000FFF7A1FF01BD80B5DFF8E406FFF79BFFAE
:1008700001BD80B5DFF8DC06FFF795FF01BD80B54F
:10088000DFF8D006FFF78FFF01BD80B5DFF8C406A3
:10089000FFF789FF01BD80B5DFF8B806FFF783FFDA
:1008A00001BD80B5DFF8B006FFF77DFF01BD80B563
:1008B000DFF8A406FFF777FF01BD80B5DFF89806E3
:1008C000FFF771FF01BD80B5DFF88C06FFF76BFF06
:1008D00001BD80B5DFF88406FFF765FF01BD80B577
:1008E000DFF87806FFF75FFF01BD80B5DFF86C0623
:1008F000FFF759FF01BD80B5DFF86006FFF753FF32
:1009000001BD38B504000D002C600022012120201B
:1009100000F081FB68600121207BFFF7D5FE0121FB
:10092000207BFFF7C3FEA168A079FFF7C9FE21690C
:10093000207BFFF7C5FE2068FFF7D2FE2000FFF7FF
:1009400018FFB4F9045011E0280000B2FFF798FC3A
:10095000280000B2FFF7A6FC280000B2FFF782FCD7
:100960000521280000B2FFF7ABFC6D1C2DB2B4F9D5
:100970000400001D8542E7DB31BD10B504000021F5
:10098000606800F0FDFABF2120680068FFF764FD91
:10099000A42120680068FFF763FD20680068FFF766
:1009A00064FD10BD38B52DED028B82B0040008EE59
:1009B000101A20680068FFF761FD050020680068D4
:1009C000FFF778FD684600F0BBFF02212068006851
:1009D000FFF733FDB8EE480ADFED700A20EE200A7B
:1009E000DFED6F0A80EE200ADFED6E0A30EEC00AFE
:1009F000BDEEC00A10EE100A010089B2206800683E
:100A0000FFF76DFD684600F0A2FF2900C9B220681B
:100A10000068FFF743FD02B0BDEC028B31BDF8B5B5
:100A200006000D001400002D1ED0E4B2002C1BD0D7
:100A300000270DE030680068FFF703FD0028F9D0BB
:100A4000297830680068FFF74CFD6D1C7F1C641E20
:100A5000E4B2002CEED130680068FFF7F6FC002805
:100A6000F9D0FFB2380000E00020F2BD2DE9F041DE
:100A700004000D001600002C04D0002D02D0F6B2A8
:100A8000002E02D15FF0FF304AE04FF47A72290065
:100A9000606800F0B8FC012801D0002040E0287810
:100AA0006D1C07000200D2B292090123C0F3C201FB
:100AB0008B40DFF8AC14D2B2895C13EB0108C0B2F2
:100AC000002801D118F101084046F6B2C0B28642B2
:100AD00002D27FF0010023E0012603E0287847409E
:100AE0006D1C761C30004146C0B2C9B2884209D2A2
:100AF00064222900606800F086FC0128EED07FF0B7
:100B000002000DE05FFA88F8B8F1020F05DBFFB2D2
:100B1000FF2F02D07FF0030002E05FFA88F8404622
:100B2000BDE8F08138B5050000F0B5FFDFF834040A
:100B300004685FF48030A8400440DFF828040068AF
:100B40005FF4803111FA05F50543DFF818040560FC
:100B500000F0BEFF002C01D101F08FFC31BD38B593
:100B6000050000F098FFDFF8FC0304685FF48030B4
:100B7000A8400440DFF8EC0300685FF4803111FA0C
:100B800005F530EA0505DFF8DC03056000F0A0FF9D
:100B9000002C01D001F071FC31BD00000000804943
:100BA0000020374C000080472DE9F04F8BB0804685
:100BB0004046C0B2052802D35FF00408FFE7DFF823
:100BC0008C035FFA88F81C2101FB08F100EB01049B
:100BD0002000FFF7D2FE07E0B9F1000F04D528008E
:100BE000451CC0B20A281ADB00250020A0600020A6
:100BF000E06000202061002020754046C0B2FFF771
:100C0000AEFF642001F090FD4FF416663100200025
:100C1000FFF7C8FE0021606800F0B2F9FFE7232269
:100C200001A92000FFF722FF8146B9F1010FD3DBB4
:100C300000259DF804A05FFA8AFA5FEA9A1A01205B
:100C40009DF80410C1F3C20B10FA0BFB5FFA88F891
:100C50004246C549002002F0ABFB1022494601A8DC
:100C600002F0B0FBAFA1002002F0A2FB9DF804004F
:100C700000280CD002280BD004280AD040281ED00F
:100C800043282CD0492826D0522825D028E0C6E772
:100C9000C5E7B64800788DF8010001220DF1010189
:100CA0002000FFF7BCFE012001F03EFD31002000D6
:100CB000FFF778FE01F01BFE07006437AFE79DF8F1
:100CC0000500A0600020E060002020614046C0B226
:100CD000FFF728FFA3E7A2E7DDF805609FE79EE79F
:100CE0005FFA8AFABAF1030F99D19DF8040010F067
:100CF0000700E0605FFA8BFBBBF1010F03D19DF8A9
:100D00000500206120E05FFA8BFBBBF1020F07D1E9
:100D10009DF805009DF8061050EA0120206113E0BF
:100D20005FFA8BFBBBF1040F0ED19DF805009DF817
:100D3000061050EA01209DF8071050EA01409DF886
:100D4000081050EA0160206101F0D1FDB8420DD3D6
:100D5000874800788DF80000012269462000FFF7DF
:100D60005EFE01F0C4FD0700643747E0207DC00748
:100D70001CD543208DF80400607D8DF805009DF89A
:100D800004109DF80500414091F0FF018DF8061018
:100D9000032201A92000FFF742FE00F07CFE207D27
:100DA00010F0FE00207500F093FE27E0207D800704
:100DB00024D554208DF80400A069CDF805009DF8D5
:100DC00004109DF8050041409DF8060041409DF843
:100DD000070041409DF80800414091F0FF018DF867
:100DE0000910062201A92000FFF719FE00F053FEAA
:100DF000207D10F0FD00207500F06AFE0FE71CB5A5
:100E0000002418E051481C2101FB04F10144594819
:100E1000142202FB04F21044FFF773FD002001903E
:100E20000220009023006022534850F824105348B9
:100E300001F030FB641C052CE4D313BD10B4C0F3E7
:100E4000C302921F10F00700404BD2B21C2404FBD7
:100E500002F42344D2B2052A12D2C0B2002803D031
:100E6000022807D003D308E0986808600AE0D86831
:100E7000086007E01869086004E00020086001E0ED
:100E800000200860042010BC7047000000E100E072
:100E900080E100E080E200E000E400E038B4C0F36C
:100EA000C3039C1F10F00700284BE4B21C2505FB70
:100EB00004F52B44E4B2052C32D2D2B2002A2FD052
:100EC0000C788DF80040D2B2022A01DB4C7800E0A9
:100ED00000248DF80140D2B2032A01DB8C7800E0B7
:100EE00000248DF80240D2B2042A01DBC97800E068
:100EF00000218DF80310C0B2002803D0022809D0C9
:100F000001D30DE00CE000985875187D50F00100F9
:100F1000187505E000989861187D50F0020018756A
:100F200031BC70470A00000018ED00E0008000416D
:100F3000000002C0000000204C690000001C0040BE
:100F4000146A00000008004004001040D82C002063
:100F5000F42C0020102D00202C2D0020482D0020E6
:100F60005C6A00007C3100203C6900005A190000D6
:100F70005B1900002C650000C8680000A90B000088
:100F800038B504000D00002C07D1802080F31188B3
:100F9000BFF34F8FBFF36F8FFEE700F07CFD21683A
:100FA000E26B206C424301EB020060600020A06312
:100FB0002068A0602168E26B521E206C424301EB66
:100FC0000200E0605FF0FF3084F844005FF0FF3023
:100FD00084F84500002D12D12069002817D014F1A3
:100FE000100001F09AFD002811D05FF08050DFF86A
:100FF00008170860BFF34F8FBFF36F8F07E014F13E
:10100000100002F01FFA14F1240002F01BFA00F0A5
:101010005FFD012032BDF8B506000D001700002E5F
:1010200007D1802080F31188BFF34F8FBFF36F8FFC
:10103000FEE7002D01D1002001E005FB06F0543051
:1010400002F04CFA0400002C08D014F15402009471
:101050003B00DBB22900300000F002F82000F2BDB6
:1010600038B51C00049D002901D12D6000E02A60E4
:10107000E863296401212800FFF782FF85F85040CA
:101080000020A86431BDF7B505000E001F00002444
:10109000002D07D1802080F31188BFF34F8FBFF35D
:1010A0006F8FFEE7002E02D1286C002801D10120AD
:1010B00000E00020C0B2002807D1802080F3118812
:1010C000BFF34F8FBFF36F8FFEE7022F02D1E86BA4
:1010D000012801D1012000E00020C0B2002807D182
:1010E000802080F31188BFF34F8FBFF36F8FFEE72F
:1010F00001F002FE002802D10298002801D101204F
:1011000000E00020C0B2002838D1802080F3118890
:10111000BFF34F8FBFF36F8FFEE7029800286FD0A9
:10112000002C03D1684601F037FD012400F0D0FC0B
:1011300001F057FB00F0AFFC95F9440010F1010FEE
:1011400002D1002085F8440095F9450010F1010F07
:1011500002D1002085F8450000F0BAFC02A96846DB
:1011600001F026FD002865D1280000F07AFB002858
:101170004AD1280000F024FB01F03BFB00F08BFC7F
:10118000A86BE96B884201D3022FC6D13A00310027
:10119000280000F0BDFAA96C00290FD03900280002
:1011A00000F093FB002827D05FF08050DFF848154F
:1011B0000860BFF34F8FBFF36F8F1DE0696A00298E
:1011C0000FD015F1240001F0A8FC002814D05FF026
:1011D0008050DFF824150860BFF34F8FBFF36F8F87
:1011E0000AE0002808D05FF08050DFF80C15086096
:1011F000BFF34F8FBFF36F8F00F06AFC01201FE039
:1012000000F066FC00201BE0029915F1100001F0CF
:1012100051FC280000F0D4FA01F0EBFA0028ADD11F
:101220005FF08050DFF8D0140860BFF34F8FBFF33A
:101230006F8FA3E7280000F0C3FA01F0DAFA00206C
:10124000FEBD2DE9F84305000E0014001F00002D1F
:1012500007D1802080F31188BFF34F8FBFF36F8FCA
:10126000FEE7002E02D1286C002801D1012000E009
:101270000020C0B2002807D1802080F31188BFF37E
:101280004F8FBFF36F8FFEE7022F02D1E86B01286B
:1012900001D1012000E00020C0B2002807D1802049
:1012A00080F31188BFF34F8FBFF36F8FFEE700F01D
:1012B0003DFCEFF31188802080F31188BFF34F8F3E
:1012C000BFF36F8FA86BE96B884201D3022F2DD13A
:1012D00095F945903A003100280000F019FA4FFACC
:1012E00089F919F1010F1BD1A86C00280AD0390027
:1012F000280000F0EAFA002816D0002C14D00120B3
:10130000206011E0686A00280ED015F1240001F079
:1013100004FC002808D0002C06D00120206003E047
:1013200019F1010985F84590012000E0002088F3BB
:101330001188BDE8F28370B505000C00002D07D1BF
:10134000802080F31188BFF34F8FBFF36F8FFEE7CC
:10135000286C002807D0802080F31188BFF34F8FBE
:10136000BFF36F8FFEE72868002802D16868002865
:1013700001D1012000E00020C0B2002807D1802068
:1013800080F31188BFF34F8FBFF36F8FFEE700F03C
:10139000CDFBEFF31186802080F31188BFF34F8FD0
:1013A000BFF36F8FA86BE96B884228D295F945107F
:1013B000401CA86349B211F1010F1BD1A86C002891
:1013C0000AD00021280000F080FA002815D0002C57
:1013D00013D00120206010E0686A00280DD015F1BC
:1013E000240001F09AFB002807D0002C05D0012032
:1013F000206002E0491C85F84510012000E0002033
:1014000086F3118870BDF7B507000E000024002F89
:1014100007D1802080F31188BFF34F8FBFF36F8F08
:10142000FEE7002E02D1386C002801D1012000E037
:101430000020C0B2002807D1802080F31188BFF3BC
:101440004F8FBFF36F8FFEE701F056FC002802D1EB
:101450000298002801D1012000E00020C0B200283D
:101460000CD1802080F31188BFF34F8FBFF36F8FB3
:10147000FEE7380000F0A4F901F0BBF900F00BFB27
:10148000BD6B002D06D1029800281FD100F020FB73
:10149000002064E03100380000F07DF96D1EBD636E
:1014A000386900280ED017F1100001F036FB002833
:1014B00008D05FF08050DFF840120860BFF34F8F14
:1014C000BFF36F8F00F004FB012048E0002C03D134
:1014D000684601F061FB012400F0FAFA01F081F99D
:1014E00000F0D9FA97F9440010F1010F02D1002061
:1014F00087F8440097F9450010F1010F02D1002050
:1015000087F8450000F0E4FA02A9684601F050FBB4
:10151000002819D1380000F096F90028A9D00299C6
:1015200017F1240001F0C6FA380000F049F901F083
:1015300060F90028A2D15FF080506F490860BFF3C6
:101540004F8FBFF36F8F99E7380000F039F901F042
:1015500050F9380000F077F900288FD00020FEBD48
:1015600072B583B0060000240025002E07D180202C
:1015700080F31188BFF34F8FBFF36F8FFEE7306C9E
:10158000002807D0802080F31188BFF34F8FBFF36E
:101590006F8FFEE701F0B0FB002802D1039800280E
:1015A00001D1012000E00020C0B200280CD1802031
:1015B00080F31188BFF34F8FBFF36F8FFEE73000CA
:1015C00000F0FEF801F015F900F065FAB06B0028A4
:1015D0000CD1039800282AD1002D24D0802080F33C
:1015E0001188BFF34F8FBFF36F8FFEE7401EB063CC
:1015F0003068002802D101F083FC70603069002857
:101600000DD016F1100001F088FA002807D05FF025
:10161000805039490860BFF34F8FBFF36F8F00F0E0
:1016200057FA012065E000F053FA002061E0002C39
:1016300003D1684601F0B0FA012400F049FA01F044
:10164000D0F800F028FA96F9440010F1010F02D109
:10165000002086F8440096F9450010F1010F02D1F0
:10166000002086F8450000F033FA03A9684601F02F
:101670009FFA002824D1300000F0E5F800289ED021
:101680003068002807D100F006FA706801F04CFBC2
:10169000050000F01DFA039916F1240001F00AFA82
:1016A000300000F08DF801F0A4F800288CD15FF034
:1016B000805011490860BFF34F8FBFF36F8F83E7EE
:1016C000300000F07DF801F094F8300000F0BBF835
:1016D00000283FF479AF002D0AD000F0DCF930008B
:1016E00000F00CF80100706801F0B2FB00F0F0F9B6
:1016F000002004B070BD000004ED00E0416A002944
:1017000004D0006B0068D0F1050000E000207047B5
:101710002DE9F041060015000027B46B306C00285D
:1017200009D13068002831D1706801F048FB07000A
:10173000002070602AE0002D0FD1326CB5682800BF
:1017400001F014FFB068316C0844B060B068716893
:1017500088421BD33068B06018E0326CD6F80C8039
:10176000404601F003FFF068316C49420844F060E4
:10177000F0683168884204D27068316C494208448C
:10178000F060022D02D1002C00D0641E641CB463F2
:101790003800BDE8F08110B50C00016C00290ED0B6
:1017A000C168026C1144C160C1684268914201D3B2
:1017B0000168C160026CC168200001F0D7FE10BD55
:1017C00038B5040000F067F994F9455011E00021A4
:1017D000200000F07AF800280AD001F029FA07E08A
:1017E00014F1240001F099F9002801D001F020FA49
:1017F0006D1E6DB2012D05DBA06C0028E7D1606A7B
:101800000028EDD15FF0FF3084F8450000F060F96A
:1018100000F041F994F9445008E014F1100001F08F
:101820007CF9002801D001F003FA6D1E6DB2012D84
:1018300002DB20690028F0D15FF0FF3084F844001B
:1018400000F046F931BD10B5040000F024F9A06B9A
:10185000002801D1012400E0002400F039F9200023
:1018600010BD10B5040000F016F9A06BE16B8842C2
:1018700001D1012400E0002400F02AF9200010BD6D
:1018800070B504000D00160000F005F994F944004D
:1018900010F1010F02D1002084F8440094F94500B2
:1018A00010F1010F02D1002084F8450000F010F97A
:1018B000A06B002805D13200290014F1240001F0AA
:1018C00010F92000FFF77CFF70BD71B581B00A00F0
:1018D0000198846C0025002C07D1802080F31188AA
:1018E000BFF34F8FBFF36F8FFEE7A06BE16B8842B2
:1018F00007D3802080F31188BFF34F8FBFF36F8F22
:10190000FEE7A06BE16B884218D294F9456001A90B
:101910002000FFF7FDFE050076B216F1010F0AD197
:10192000606A00280AD014F1240001F0F6F80028BB
:1019300004D0012502E0761C84F84560280076BDBD
:10194000EFF31081016072B6BFF35F8F7047BFF392
:101950005F8F006880F3108870470402001F5FF0FB
:1019600080730360001F490849000160001F0FF2E7
:101970001501016014380260001F7FF00201016050
:10198000203870477C48006810F1010F07D0802094
:1019900080F31188BFF34F8FBFF36F8FFEE7802076
:1019A00080F31188BFF34F8FBFF36F8FFEE700B551
:1019B00083B0724800687249884207D1802080F362
:1019C0001188BFF34F8FBFF36F8FFEE76B4800683E
:1019D0006C49884207D1802080F31188BFF34F8F74
:1019E000BFF36F8FFEE7684801780191FF21017016
:1019F00001788DF800109DF8001011F08001634A05
:101A000011700721624A116009E061490968491EA5
:101A10005F4A11609DF8001049008DF800109DF894
:101A200000100906F1D45A490968D1F107010329C8
:101A300007D0802080F31188BFF34F8FBFF36F8FE3
:101A4000FEE7534909680902514A11605049096883
:101A500011F4E0614E4A1160019901704D4800682F
:101A600050F460004B4908604A48006850F06040FC
:101A70004849086000F098F800203F49086001F0EC
:101A800013FE4548006850F040404349086001F0AB
:101A9000FBFD00200EBD802080F31188BFF34F8F27
:101AA000BFF36F8F34480068401C334908603248E8
:101AB000006801280BD139480068000607D0802053
:101AC00080F31188BFF34F8FBFF36F8FFEE770472E
:101AD00029480068002807D1802080F31188BFF3CF
:101AE0004F8FBFF36F8FFEE723480068401E2249E7
:101AF000086021480068002802D1002080F3118886
:101B0000704780B5802080F31188BFF34F8FBFF3FB
:101B10006F8F00F0F0FE002803D05FF080501F4967
:101B20000860002080F3118801BD0000EFF30580FC
:101B300010280FD31A490968085C14490978C0B203
:101B4000884207D2802080F31188BFF34F8FBFF304
:101B50006F8FFEE70E4800681249096811F4E061D2
:101B6000884207D2802080F31188BFF34F8FBFF3E4
:101B70006F8FFEE7704700004000002000ED00E09E
:101B800071C20F4170C20F4100E400E0D631002065
:101B90008031002020ED00E034EF00E004ED00E0B3
:101BA000606A00000CED00E000200649086000209B
:101BB000054908604BF64230044908600720014996
:101BC0000860704710E000E018E000E014E000E07A
:101BD00000B2002809D4012210F01F018A40DFF86A
:101BE000241800B2400941F82020704700B20028B4
:101BF0000DD4012210F01F018A40DFF80C1800B24A
:101C0000400941F82020BFF34F8FBFF36F8F70471B
:101C100000B2002809D4012210F01F018A40DFF829
:101C2000EC1700B2400941F82020704700B20028AC
:101C300005D44901DFF8D82700B2115408E0490162
:101C4000DFF8D02700B210F00F00104400F8041C99
:101C50007047C9B200EB8100C0F880207047016A6C
:101C600051F0040101627047C9B28023594308440E
:101C700082607047C9B2802359430844426070476C
:101C8000C9B280235943084482617047C9B2802396
:101C9000594308444261704710B4C9B2802404FB20
:101CA00001F40444D2B2144494F8304014F0F00427
:101CB00013F00F0323431C00C9B280235943084487
:101CC000D2B2104480F8304010BC704710B4C9B292
:101CD000802404FB01F40444D2B2144494F830404C
:101CE00014F00F04DBB21B0123431C00C9B2802394
:101CF00059430844D2B2104480F8304010BC7047B9
:101D000010B4C9B2802404FB01F40444D2B21444D8
:101D100094F8404014F0FE0423431C00C9B2802311
:101D200059430844D2B2104480F8404010BC704778
:101D300010B4C9B2802303FB01F30344D2B203EB16
:101D40000204C9B2802359430844D2B2104490F827
:101D5000400050F0040084F8400010BC704710B4FC
:101D6000C9B2802303FB01F30344D2B203EB0204A4
:101D7000C9B2802359430844D2B2104490F84000BD
:101D800010F0FB0084F8400010BC7047C9B28023FB
:101D90005943084482627047C2690A42FCD17047C5
:101DA000C069084201D0012000E00020C0B27047A5
:101DB000007E7047017670470221817570470221CD
:101DC000017570470421817570470821817570473E
:101DD000082101757047807D704701757047C069A3
:101DE000704780B5016851F0020101600321FFF7DF
:101DF000D3FF01BD80B501600321FFF7CDFF01BD19
:101E000010B5040003212000FFF7C6FF206810BDB5
:101E100080B541601721FFF7BFFF01BD10B5040079
:101E200017212000FFF7B8FF606810BD406A7047B7
:101E3000806A70478162704780F830107047418334
:101E4000704738B504000D00D2B2002A03D0022A30
:101E500037D01BD350E02A002100C9B2DFF8B80503
:101E6000FFF708FFAAB252F080422100C9B2DFF8A2
:101E7000A805FFF78BFF2D0C55F040452A002100E7
:101E8000C9B2DFF89405FFF781FF35E02A00210091
:101E9000C9B2DFF88405FFF7EDFE2A00C4F20202A2
:101EA0002100C9B2DFF87005FFF770FFDFF86C257D
:101EB00052EA15422100C9B2DFF85C05FFF766FF60
:101EC0001AE02A002100C9B2DFF84C05FFF7CCFE6A
:101ED000AAB252F080422100C9B2DFF83C05FFF7F8
:101EE00055FF2D0C55F040452A002100C9B2DFF8FE
:101EF0002805FFF74BFFFFE731BD80B5D2B2002ABE
:101F000007D00A000100C9B2DFF80C05FFF7B8FEE0
:101F100006E00A000100C9B2DFF8FC04FFF7B6FED4
:101F200001BD38B504000D00D2B2002A03D0022A48
:101F300025D009D33EE02A00D2B22100C9B2DFF891
:101F4000D804FFF70CFF35E00122AA402100C9B2F6
:101F5000DFF8C404FFF78EFE2A00D2B22100C9B216
:101F6000DFF8B404FFF7E4FE012010FA05F52A00BB
:101F70002100C9B2DFF8A004FFF782FE1AE00122B7
:101F8000AA402100C9B2DFF89004FFF773FE2A00CF
:101F9000D2B22100C9B2DFF88004FFF7C9FE0120E8
:101FA00010FA05F52A002100C9B2DFF86C04FFF72A
:101FB0006DFEFFE731BD70B504000D002600760907
:101FC00014F01F0415F1010F09D100232200D2B231
:101FD0003100C9B2DFF84004FFF792FE21E001238F
:101FE0002200D2B23100C9B2DFF82C04FFF788FE1C
:101FF000E0070BD52B00DBB2E4B26408220031000D
:10200000C9B2DFF81404FFF761FE0AE02B00DBB26F
:10201000E4B2640822003100C9B2DFF8FC03FFF724
:102020003BFE70BD80B50A00D2B210F01F01C0B2F5
:102030004009FFF776FF01BD80B5FFF7BCFF01BD8A
:1020400080B50A00D2B2012110F01F039940C0B23E
:102050004009FFF7F6FE01BD80B50A00D2B20121AA
:1020600010F01F039940C0B24009FFF746FF01BDC1
:1020700010B5002421E0DFF8A80300EBC40041788C
:10208000DFF89C0310F83400FFF7DAFFDFF8900365
:1020900000EBC4008178DFF8880310F83400FFF704
:1020A000C1FFDFF87C0300EBC4004168DFF8700378
:1020B00010F83400FFF7C0FF641C052CDBD30021AF
:1020C0005320FFF7C9FF10BD80B540222421DFF85F
:1020D0005403FFF7BEFD43220321DFF84803FFF757
:1020E000B8FDDFF84403FFF7BAFD01BD10B50121CB
:1020F000DFF83803FFF754FE002804D10921DFF888
:102100002C03FFF777FE0121DFF82003FFF744FEE1
:10211000DFF81C13DFF81403FFF76CFEDFF814136D
:10212000DFF80803FFF774FE0021DFF80003FFF774
:1021300083FE5FF0FF31DFF8F402FFF731FE002885
:10214000F7D146240DE0200000B2FFF74FFD20003C
:1021500000B2FFF75DFD0421200000B2FFF766FD2D
:10216000641C4A2CEFD310BD10B5DFF8C002FFF796
:1021700038FE462404E0200000B2FFF729FD641C6D
:102180004A2CF8D3A948FFF71DFEA848FFF71DFE0B
:1021900010BD10B5A548FFF70BFE0400A348FFF7DC
:1021A0001AFE0440600753D5A048FFF741FEA2493C
:1021B000097880292CD2A1499F4A127888549E48D8
:1021C0000078401C9C4908709B48007801281FD16A
:1021D0009A48027810061BD5012099490870C2F36D
:1021E000C3039848DBB250F8330000280AD0964960
:1021F0001000C0B2934ADBB252F8332090479349A3
:10220000087002E000209149087000209049087091
:102210008B480078012816D18C480078002812D00D
:1022200089488B490978405C89490978491C884A62
:10223000117001007D48FFF7FDFD84480078401EC5
:10224000824908705EE0FF217848FFF7F3FD59E00E
:10225000A0072FD502217548FFF7ACFD7348FFF7A3
:10226000AEFD7248FFF7B1FD7548007802281BD11A
:1022700071480078002817D070480378C3F3C3046E
:102280007048E4B200EBC400406800280CD06A48F3
:102290000078421ED2B26F491800C0B2694BE4B256
:1022A00003EBC4035B68984700216B480068FFF7A5
:1022B00042F827E0200714D508215C48FFF77AFD93
:1022C0005A48FFF785FD5948FFF776FD02205C4923
:1022D000087000205D4908705C4800785649087015
:1022E00010E020060ED504215048FFF7A8FD8021FC
:1022F0004E48FFF75FFD06214C48FFF76EFD4B4847
:10230000FFF763FD10BD80B5FFF743FF01BD80B54A
:10231000FFF73FFF01BD80B5FFF73BFF01BD80B573
:10232000FFF737FF01BD10B5002403220021012073
:10233000FEF771FE48490860FFF7C6FEFFF7D6FEBC
:10234000FFF796FEFFF710FF3848FFF759FD020030
:102350004249002001F02CF83448FFF75FFD0200ED
:102360003F49002001F024F83048FFF738FD020013
:102370003C49002001F01CF82C48FFF757FD0200F3
:102380003949002001F014F809E02B4801781022A7
:102390002A4801F017F81AA1002001F009F85FF0AF
:1023A000FF312D480068FFF7DBF80128F7D1220044
:1023B0002E49002000F0FCFF641C1F4802782C49C5
:1023C000002000F0F5FF1C4800788128DDD3802133
:1023D000DDE700207047704710F00700C0B200280A
:1023E00003D124480068086007E0C0B2012802D188
:1023F0001D20086001E000200860042070470000F4
:102400000A00000000E100E080E100E080E200E07E
:1024100000E400E018ED00E000800041000002C090
:1024200048670000001C004000080040000800430E
:102430000800020040020200D3310020E42E0020F8
:10244000D2310020AC640000642F0020D431002081
:10245000D5310020E52E0020783100205C69000095
:102460006C690000F06800007C6900008C69000065
:10247000046900007C310020704780B501215320A1
:10248000FFF7EAFD012001F01DF900215320FFF7BD
:10249000E3FD01BD2DE9F04385B006000F00904635
:1024A00099461FFA88F85FEA880001F017F80500DE
:1024B000002D0BD0542001F011F80400002C01D0A5
:1024C000256304E0280001F040F800E00024002C1F
:1024D00013D00020039002940D9801900C98009066
:1024E0004B461FFA88F842463900300000F00AF8DF
:1024F000200000F066F8012001E05FF0FF3005B039
:10250000BDE8F0832DE9F84305000C0090461E005D
:102510000A9F5FEA8801A522D7F83090484601F06B
:10252000DDF8386B00EB8800B0F104085FEAD808EA
:102530005FEAC80818F00700002807D0802080F361
:102540001188BFF34F8FBFF36F8FFEE7002100E0CC
:10255000491C082907D2605C07EB010282F83400AD
:10256000605C0028F4D1DDF82090002087F83B0063
:10257000B9F1050F01D35FF00409099CC7F82C904D
:10258000C7F844900020B864381D00F06AFF17F1C6
:10259000180000F066FF3F61D9F10509C7F81890EF
:1025A0007F620020F864002087F850003200290084
:1025B0004046FFF7D3F93860002C00D02760BDE813
:1025C000F18310B50400FFF766FADFF8E005006854
:1025D000401CDFF8D8150860DFF8600600680028A6
:1025E0000AD1DFF858060460DFF8C005006801284A
:1025F00011D100F03DFB0EE0DFF844060068002832
:1026000009D1E06ADFF834160968C96A884202D342
:10261000DFF828060460DFF82C060068401CDFF8AD
:1026200024160860DFF81C060068E063DFF83C064B
:102630000068E16A884203D2E06ADFF83016086079
:10264000211DDFF88026E36A1420434302EB0300D8
:1026500000F00AFFFFF73CFADFF8E4050068002805
:102660000FD0DFF8D8050068C06AE16A884208D256
:102670005FF08050DFF8A4160860BFF34F8FBFF300
:102680006F8F10BD70B504000E000025002C07D11F
:10269000802080F31188BFF34F8FBFF36F8FFEE769
:1026A000002E07D1802080F31188BFF34F8FBFF336
:1026B0006F8FFEE7DFF868060068002807D08020EB
:1026C00080F31188BFF34F8FBFF36F8FFEE700F0E9
:1026D00088F8DFF8E80500682168761821688842E4
:1026E00006D221688E4209D2B04207D2012505E008
:1026F00021688E4201D3B04200D201252660002D10
:1027000004D00021361A300000F012FC00F071F8FD
:10271000002808D15FF08050DFF800160860BFF392
:102720004F8FBFF36F8F70BD10B504000020002CD9
:1027300014D0DFF8EC050068002807D0802080F373
:102740001188BFF34F8FBFF36F8FFEE700F049F89A
:102750000021200000F0ECFB00F04BF8002808D12D
:102760005FF08050DFF8B4150860BFF34F8FBFF300
:102770006F8F10BD00B583B0DFF87807019000209F
:10278000009000234022DFF870170FF2BD40FFF7E2
:1027900081FE012801D100F0D5FF012816D180204B
:1027A00080F31188BFF34F8FBFF36F8F5FF0FF305F
:1027B000DFF8481708600120DFF884140860002063
:1027C000DFF8F8140860FFF7F2F807BD10F1010F09
:1027D000FBD1802080F31188BFF34F8FBFF36F8F41
:1027E000FEE7DFF83C050068401CDFF834150860A0
:1027F000704738B500240025DFF82405006800285C
:1028000007D1802080F31188BFF34F8FBFF36F8F04
:10281000FEE7FFF740F9DFF808050068401EDFF823
:1028200000150860DFF8F804006800285BD1DFF8C5
:102830007C03006800282AD155E0DFF8B406C068A0
:10284000C46814F1180000F036FE201D00F033FEBD
:10285000DFF818040068E16A884203D2E06ADFF812
:102860000C140860211DDFF85C24E36A1420434344
:1028700002EB030000F0F8FDE06ADFF8C01309681E
:10288000C96A884203D30120DFF898160860DFF890
:10289000600600680028D0D1002C01D000F018FAA2
:1028A000DFF87C060468002C0ED000F024F8002825
:1028B00003D00120DFF86C160860641E002CF4D1F0
:1028C0000020DFF85C160860DFF858060068002872
:1028D00009D001255FF08050DFF840140860BFF395
:1028E0004F8FBFF36F8FFFF7F3F8280032BDDFF88B
:1028F000CC030068704770B50025DFF82404006839
:1029000000287BD1DFF8B4030468641CDFF8AC0353
:102910000460002C22D1DFF8B003006800680028B2
:1029200007D0802080F31188BFF34F8FBFF36F8FE4
:10293000FEE7DFF894030068DFF890130968DFF81A
:1029400088231160DFF884130860DFF8DC05006875
:10295000401CDFF8D415086000F0BAF9DFF89C05D8
:102960000068844237D325E0301D00F0A4FDB06A32
:10297000002803D016F1180000F09DFDDFF8EC02EE
:102980000068F16A884203D2F06ADFF8E01208605A
:10299000311DDFF83023F36A1420434302EB0300B8
:1029A00000F062FDF06ADFF894120968C96A884293
:1029B00000D30125DFF8100300680068002817D055
:1029C000DFF804030068C068C66870688442CBD230
:1029D000DFF828150860DFF864020068DFF8E41209
:1029E000C26A14204243885802280ED301250CE005
:1029F0005FF0FF30DFF804150860ECE7DFF8200532
:102A00000068401CDFF818150860DFF8180500683A
:102A1000002800D00125280070BD80B5DFF8000334
:102A20000068002804D00120DFF8F814086040E0B6
:102A30000020DFF8F014086080480068006B7F49D0
:102A400009680968884207D37C48006810F134019E
:102A50007A48006801F01AFA8448006800E0401ED5
:102A6000DFF86012142202FB00F28958002909D114
:102A70000028F4D1802080F31188BFF34F8FBFF37B
:102A80006F8FFEE7DFF83C12142202FB00F21144C4
:102A90004A6852684A604A6811F108039A4202D1B2
:102AA0004A6852684A604968C968644A11606F4957
:102AB000086001BD10B50C00002807D1802080F30C
:102AC0001188BFF34F8FBFF36F8FFEE7DFF8C81495
:102AD0000968183100F0D4FC0121200000F028FA28
:102AE00010BD38B50D001400002807D1802080F3F8
:102AF0001188BFF34F8FBFF36F8FFEE7DFF8981495
:102B00000968183100F0B0FC002C01D05FF0FF35EF
:102B10002100280000F00CFA31BD10B5C068C4686F
:102B2000002C07D1802080F31188BFF34F8FBFF3B3
:102B30006F8FFEE714F1180000F0BDFCDFF8E00134
:102B40000068002814D1201D00F0B5FC474800683B
:102B5000E16A884202D2E06A44490860211D594A6C
:102B6000E36A1420434302EB030000F07DFC05E020
:102B700014F11801DFF8780300F076FC2F480068A4
:102B8000C06AE16A884205D201200121DFF89C2356
:102B9000116000E0002010BDDFF88C1309680160AF
:102BA000DFF8F81309684160704700009031002099
:102BB00038B504000D00002C07D1802080F3118867
:102BC000BFF34F8FBFF36F8FFEE7002D07D180203B
:102BD00080F31188BFF34F8FBFF36F8FFEE7FEF7CF
:102BE0005AFF364800686168411A2A6812F1010FDD
:102BF00001D1002418E0DFF83023126823689A42DC
:102C000004D06268904201D301240DE0286881421B
:102C100007D22868411A29602000FFF7BDFF002471
:102C200002E0002028600124FEF752FF200032BDA0
:102C30000120DFF8F812086070470000843100209E
:102C40009C310020AC31002080B500F039F81D48DF
:102C500000680228F9D35FF08050DFF84413086061
:102C6000BFF34F8FBFF36F8FEFE700009831002065
:102C700010B5002407E01348142101FB04F10844B7
:102C800000F0E0FB641C052CF5D3DFF8180300F01E
:102C9000D9FBDFF8140300F0D5FBDFF8540200F095
:102CA000D1FB204800F0CEFBDFF8F80206490860AF
:102CB000DFF8F402DFF8F412086010BD9431002050
:102CC00070470000E42F0020883100208C31002064
:102CD000DFF8DC0200680068002804D15FF0FF30F4
:102CE0008649086007E0DFF8C8020068C068C0686D
:102CF0004068824908607047DFF8B8020068002821
:102D000001D1012007E0DFF8B0020068002801D1FE
:102D1000022000E0002070470000000004ED00E009
:102D2000B83100200C31002010B504000020002C28
:102D300044D0E16ADFF860221268D26A914235D24B
:102D4000A069002806D4DFF850020068C06AD0F1FC
:102D50000500A06161693D4AE36A1420434302EB28
:102D6000030081421BD1201D00F0A5FBDFF82802E3
:102D70000068C06AE062DFF844020068E16A8842E5
:102D800003D2E06ADFF834120860211D2F4AE36A9B
:102D90001420434302EB030000F066FB04E0DFF87D
:102DA000F8010068C06AE062012007E0616CDFF8AA
:102DB000E8211268D26A914200D2012010BD10B5FC
:102DC00004000021002C3FD0DFF8CC0100688442D1
:102DD00007D0802080F31188BFF34F8FBFF36F8F30
:102DE000FEE7A06C002807D1802080F31188BFF394
:102DF0004F8FBFF36F8FFEE7A06C401EA064E06AA8
:102E0000626C904220D0A06C00281DD1201D00F0E3
:102E100052FB606CE062E06AD0F10500A061DFF86F
:102E20009C010068E16A884203D2E06ADFF88C11F5
:102E30000860211DDFF88821E36A1420434302EB78
:102E4000030000F011FB0121080010BDE42F002059
:102E500010B504000122002C49D0A06C002807D135
:102E6000802080F31188BFF34F8FBFF36F8FFEE791
:102E7000606C884200D3616CE06A884237D0A06CF5
:102E8000904234D1DFF810010068844207D18020DD
:102E900080F31188BFF34F8FBFF36F8FFEE7E26AB5
:102EA000E162A069002802D4D1F10501A161616944
:102EB000DFF80C311420424303EB0200814216D1AB
:102EC000201D00F0F8FADFF8F4000068E16A88429B
:102ED00003D2E06ADFF8E4100860211DDFF8E0208B
:102EE000E36A1420434302EB030000F0BDFA10BD77
:102EF000F8300020B43100204C6A0000B0310020CE
:102F0000DFF894000068002805D0DFF88C00006826
:102F1000816C491C8164DFF8800000687047000004
:102F2000A0310020A4310020A8310020A4310020CD
:102F300070B505000C001948066817480068001DA8
:102F400000F0B9FA15F1010F08D1002C06D0124893
:102F50000068011D1B4800F087FA1AE0AD190E4801
:102F600000684560B54207D20B480068011D0F4854
:102F7000006800F085FA0CE007480068011D0C4865
:102F8000006800F07DFA10480068854201D20E48C2
:102F9000056070BD000000008431002094310020E5
:102FA00004ED00E0D0300020E43000208C3100201F
:102FB000883100209C310020B83100209831002059
:102FC000E42F00200C310020B031002010B50400A7
:102FD000A0686268431C9A4206D322681154401CC0
:102FE000A060E068401CE060A068616888420DD184
:102FF000A2682168206901F060F8A168884203D0C6
:103000005FF0FF30E06001E00020A06010BD2DE91E
:10301000F84F0700884691461E00404601255FF0A4
:10302000010A03E0B0FBF9F01AF1010A4845F9D2B0
:10303000B24500D2B246DDF82CB00A9C5FEACB70F4
:103040001AD4002C18D05FEA8B7005D5002E03D15E
:1030500030208DF8000002E020208DF80000002CC8
:103060000AD0A24508D2641E9DF800103800FFF770
:10307000ADFFF8680028F2D5F86800282BD402E0EC
:10308000761E09FB05F5022EFAD2B8FBF5F048458D
:10309000F7D2B8FBF5F005FB10881049095C380041
:1030A000FFF794FFF868002804D4B5FBF9F5002D6C
:1030B000EFD1FFE75FEACB700DD5002C0BD0002CD1
:1030C00009D0A24507D2641E20213800FFF77EFFF9
:1030D000F8680028F3D5BDE8F18F0000AC69000066
:1030E0002DE9FC4706000F0090461D00002F01D57A
:1030F000784200E038005FF0010903E090FBF8F04F
:1031000019F101094045F9DAA94500D2A946DDF8CF
:103110002CA00A9C002C05D0002F02D45FEA4A7034
:1031200000D5641E5FEA8A7001D5002D10D05FEAD9
:10313000CA700DD4002C0BD0002C09D0A14507D2A9
:10314000641E20213000FFF741FFF0680028F3D50E
:10315000F068002831D4002F05D57F422D213000A2
:10316000FFF734FF06E05FEA4A7003D52B213000F9
:10317000FFF72CFFF06800281FD41AF00300022884
:103180000FD1002D0DD1002C0BD0002C09D0A14562
:1031900007D2641E30213000FFF718FFF0680028C6
:1031A000F3D5F068002808D4CDF804A000942B00D3
:1031B000424639003000FFF72AFFBDE8F387F0B53B
:1031C00097B004000D00160007A80290402003905D
:1031D0000020049006940020059029786D1CC9B247
:1031E000002914D0C9B2252940F0C880002201204E
:1031F0002978C9B2232913D02B290DD02D2902D02B
:10320000302905D010E052F001026D1C0DE0BDE048
:1032100052F002026D1C08E052F004026D1C04E042
:1032200052F008026D1C00E000200028E0D10027C9
:1032300006E06D1C0A20C9B200FB071130390F00EF
:103240002978C9B2B1F130000A28F2D300232978D5
:10325000C9B22E290ED16D1C06E06D1C0A20C9B220
:1032600000FB031130390B002978C9B2B1F13000ED
:103270000A28F2D3297801E06D1C2978C9B26C299B
:10328000FAD0C9B26829F7D0C9B225296FD0582918
:1032900037D063290AD0642915D0702955D07329F5
:1032A0003ED075291ED078292BD065E0306830607B
:1032B000306800683168091D31600100C9B202A898
:1032C000FFF784FE58E0306830603068006831688D
:1032D000091D3160019200970A22010002A8FFF740
:1032E000FFFE49E030683060306800683168091DD1
:1032F0003160019200970A22010002A8FFF787FEC1
:103300003AE030683060306800683168091D31602B
:10331000019200971022010002A8FFF778FE2BE02F
:1033200030683060306807683068001D3060397878
:103330007F1CC9B2002907D0C9B202A8FFF746FE18
:1033400005980028F3D5FFE716E030683060306854
:1033500000683168091D3160002101910821009148
:1033600008231022010002A8FFF751FE04E02521E6
:1033700002A8FFF72BFEFFE76D1C03E0C9B202A80D
:10338000FFF724FE059800287FF527AF0598012850
:103390000BDB0498002804D0049A07A9200000F051
:1033A0008CFE0599049841180591059817B0F0BD59
:1033B0000CB480B502AA00926A46FFF700FF02BC77
:1033C0005DF80CFBF0B58DB007000C001500012670
:1033D00004E0D2B26946002000F06FFE002C2CD031
:1033E0000022D2B22D2AF4D2002CF2D0144839781F
:1033F0000911405C6946D2B28854521C1048397891
:1034000011F00F01405C6946D2B288547F1C521CF7
:1034100011004A1CEDB2002D01D1202007E0EDB2D1
:10342000B6FBF5F005FB10600028F6D10A206B46CC
:10343000C9B25854761C641ED3E70DB0F0BD00BF6E
:103440002C69000010F1080141605FF0FF318160DC
:1034500010F10801C16010F1080101610021016053
:10346000704700210161704742684A6093688B6031
:1034700093685960916008610168491C0160704758
:1034800010B40B6813F1010F01D1026907E010F1CC
:10349000080200E0526854682468A342FAD25368D4
:1034A0004B604B6899608A60516008610168491CF3
:1034B000016010BC70470169826843689A60426885
:1034C00083685A604A68824201D182684A60002259
:1034D00002610868401E08600868704738B505003A
:1034E000002415F0070F04D015F1080015F00705AA
:1034F000451BFFF776F91A480068002804D11948DF
:10350000C008C0001649086017480068281841F62E
:10351000F871884211D21448006813490968691883
:1035200088420AD20E4800680F49096800EB01047E
:103530000D4800682D180C480560FFF75AF9002C5B
:1035400001D100F0B2FC200032BD002807D080205D
:1035500080F31188BFF34F8FBFF36F8FFEE7704783
:10356000703100204C0000206C31002062B38B07CA
:1035700008D0521E11F8013B00F8013B00F02480F6
:103580008B07F6D1830740F0208000BF103A07D3A5
:1035900030B4B1E83810103AA0E83810F9D230BC95
:1035A000530724BFB1E80810A0E8081044BF51F841
:1035B000043B40F8043BD20724BF31F8022B20F82B
:1035C000022B44BF0B7803707047121F17D35B00A8
:1035D00009D151F8043B20F8023B1B0C121F20F8C4
:1035E000023BF6D20BE051F8043B00F8013B1B0A0A
:1035F00020F8023B1B0C121F00F8013BF3D238BF2E
:10360000121D521E24BF11F8013B00F8013BF8D8EF
:1036100070470000EFF30980BFF36F8F264B1A68E5
:103620001EF0100F08BF20ED108A20E9F04F106047
:1036300009B44FF0800080F31188BFF34F8FBFF3C0
:103640006F8FFFF7EAF94FF0000080F3118809BC93
:1036500019680868B0E8F04F1EF0100F08BFB0EC12
:10366000108A80F30988BFF36F8F7047124B196877
:103670000868B0E8F04F80F30988BFF36F8F4FF010
:10368000000080F3118870470C480068006880F3E0
:1036900008884FF0000080F3148862B661B6BFF36B
:1036A0004F8FBFF36F8F00DFDFF81400016841F424
:1036B00070010160704700008431002008ED00E0D7
:1036C00088ED00E080B580B200F078FD010002488E
:1036D000006800F089FD01BD6831002062F30F220F
:1036E00062F31F42401810F0030308D0C91A1FD319
:1036F000DB0748BF00F8012D28BF20F8022D13007A
:1037000030B414461546103928BF20E93C00FAD8D9
:10371000490728BF20E90C0048BF40F8042D890064
:1037200028BF20F8022D48BF00F8012D30BC70479B
:10373000C91818BF00F8012DCB0728BF00F8012DCC
:10374000704700001CB5002400F0BEF9DFF8B40398
:10375000006800280DD0DFF8B0030190022000902F
:1037600000234022DFF8A4130FF2F100FEF792FECF
:103770000400002C07D1802080F31188BFF34F8F05
:10378000BFF36F8FFEE7200016BD3EB51D0000237E
:10379000002807D1802080F31188BFF34F8FBFF33B
:1037A0006F8FFEE7DFF85C432468002C25D0009182
:1037B00001920290062917DAFFF79EFA022809D132
:1037C0000023069A6946DFF83C030068FDF75BFCBE
:1037D000030012E0002300226946DFF82803006896
:1037E000FDF751FC030008E000232A006946DFF8DA
:1037F00014030068FDF725FD030018003EBD70B5F9
:1038000082B004000D00DFF808030068C068C668D5
:10381000301DFFF750FEF06901281AD123002A005D
:10382000B1690919300000F084F8002811D0002097
:1038300000900023220000213000FFF7A6FF00289F
:1038400007D1802080F31188BFF34F8FBFF36F8FB4
:10385000FEE73000716A884773BD000080B5684696
:1038600000F03FF8009900F003F800F081F8F6E767
:1038700070B582B005000C00FEF7B3FF684600F09B
:1038800044F806000098002828D1002C08D1AE4248
:1038900006D3FEF7AEFF31002800FFF7B0FF1FE0B0
:1038A000002C07D09B4800680068002801D1012443
:1038B00000E000242200AD1B290092480068FDF7BB
:1038C000DFFFFEF796FF00280AD15FF08050924993
:1038D0000860BFF34F8FBFF36F8F01E0FEF789FFE2
:1038E00073BD8B4909680968002901D1012100E0F5
:1038F0000021C9B201600068002804D18448006832
:10390000C068006800E00020704738B50400FEF78A
:10391000EEFF050081480068854204D200F095F86A
:103920000120206001E0002020607C480560280024
:1039300032BD10B50024416000618A420BD3D21A17
:1039400081698A4201D3012410E0011D7148006899
:10395000FFF796FD0AE09A4203D2994201D301246F
:1039600004E0011D6A480068FFF78AFD200010BDD1
:1039700010B586B0FFE7002201A962480068FDF794
:1039800042FD00285FD001980028F4D4039C6069B0
:10399000002802D0201DFFF78EFD04A8FFF7B5FF19
:1039A0000200019800280ED002280CD00BD3042866
:1039B0002DD02BD3062806D040D3082826D002D3FA
:1039C000092824D03EE0029B0299A06941182000FA
:1039D000FFF7AFFF0028CED02000616A8847E0697A
:1039E0000128C8D1002000900023029AA069821803
:1039F00000212000FFF7C9FE0028BCD1802080F301
:103A00001188BFF34F8FBFF36F8FFEE7B3E70298C4
:103A1000A061A069002809D013001000A1698A18CC
:103A2000110002002000FFF784FFA4E7802080F34C
:103A30001188BFF34F8FBFF36F8FFEE72000FFF7B2
:103A400084FD98E797E706B010BD38B506E06860DA
:103A50002D61291D2E480068FFF712FD2C480068D3
:103A60000068002827D02A480068C06804682848F1
:103A70000068C068C568281DFFF71DFD2800696A39
:103A80008847E8690128E9D1A86900198442DED392
:103A9000002000900023220000212800FFF775FE7F
:103AA000002800D0DAE7802080F31188BFF34F8F21
:103AB000BFF36F8FFEE71648006816490968144A7D
:103AC00011601449086031BD80B5FDF7E4FF0D4871
:103AD0000068002812D11248FFF7B4FC1148FFF724
:103AE000B1FC0F480A4908600E480A4908600022E4
:103AF0000C210220FDF78FFA02490860FDF7E8FF6C
:103B000001BD0000C4310020C8310020546A00000B
:103B1000BC310020C031002004ED00E0CC31002099
:103B20002031002034310020C9B200EB8100C0F800
:103B300080207047C9B2802359430844826070478F
:103B4000C9B280235943084442607047C9B28023F8
:103B50005943084482617047C9B2802359430844DD
:103B600042617047C9B2802359430844C26170471B
:103B700010B4C9B2802404FB01F40444D2B214444A
:103B800094F8304014F0F00413F00F0323431C00AA
:103B9000C9B2802359430844D2B2104480F830405F
:103BA00010BC704710B4C9B2802404FB01F4044473
:103BB000D2B2144494F8304014F00F04DBB21B016D
:103BC00023431C00C9B2802359430844D2B2104495
:103BD00080F8304010BC704710B4C9B2802404FB98
:103BE00001F40444D2B2144494F8404014F0FE04AA
:103BF00023431C00C9B2802359430844D2B2104465
:103C000080F8404010BC7047C9B280235943084433
:103C1000826270470078704780B500F0F6FA01BD07
:103C200038B504000D00D2B2002A03D0022A30D0E9
:103C300018D346E02A002100C9B29F48FFF780FF51
:103C4000AAB252F080422100C9B29B48FFF7DCFFC4
:103C50002D0C55F040452A002100C9B29648FFF7C7
:103C6000D3FF2EE02A002100C9B29348FFF768FF76
:103C70002A00C4F202022100C9B28F48FFF7C4FF34
:103C80008E4A52EA15422100C9B28B48FFF7BCFFA9
:103C900017E02A002100C9B28748FFF74BFFAAB2FC
:103CA00052F080422100C9B28348FFF7ADFF2D0CCE
:103CB00055F040452A002100C9B27F48FFF7A4FF14
:103CC000FFE731BD80B5D2B2002A06D00A0001005C
:103CD000C9B27948FFF73AFF05E00A000100C9B20E
:103CE0007548FFF739FF01BD80B50A000100C9B270
:103CF0007148FFF737FF01BD70B504000D002600C5
:103D0000760914F01F0415F1010F08D100232200D9
:103D1000D2B23100C9B26848FFF75EFF1EE001234E
:103D20002200D2B23100C9B26348FFF755FFE00765
:103D30000AD52B00DBB2E4B2640822003100C9B21C
:103D40005D48FFF72FFF09E02B00DBB2E4B2640807
:103D500022003100C9B25848FFF70AFF70BD80B594
:103D6000FFF7CAFF01BD80B50A00D2B2012110F0F1
:103D70001F039940C0B24009FFF752FF01BD80B553
:103D80000A00D2B2012110F01F039940C0B24009CD
:103D9000FFF798FF01BD80B5012110F01F0291408F
:103DA000C0B24009FFF7A0FF01BD80B50A00D2B242
:103DB00052F040020100C9B24148FFF7B5FE01BD13
:103DC00080B54048FFF726FF02BD00B583B000F084
:103DD0008CF93D490020FFF7EBFAFFF7F1FFC0B285
:103DE00002003A490020FFF7E3FAFFF715FF002130
:103DF0000420FFF7DAFF00F029FA00F089FB00F059
:103E0000D7FE00200190012000900023202230499D
:103E10000FF24D00FEF73EFB0020019002200090C3
:103E2000002360222B492C48FEF734FB0020019030
:103E3000032000900023602228492948FEF72AFB2E
:103E4000002001900320009000236022254926488D
:103E5000FEF720FBFCF7D3FFFEF78CFCFEE700002B
:103E600080B500212B20FFF78AFF02212B20FFF7CE
:103E70007AFF5FF0FF312B20FFF771FF4FF47A706C
:103E8000FEF752FC2B20FFF786FFF7E710B50C007A
:103E900016221649002000F010F9002C04D0082248
:103EA0002100002000F009F9FEE780B51422104936
:103EB000002000F002F9FEE700800041000002C08F
:103EC000001C0040000C0040BC6900006C68000051
:103ED000346A00003C6A000027230000C869000023
:103EE000355E0000D4690000F960000084680000BD
:103EF0009C68000010B5DFF8FC410320206103201E
:103F00006061DFF8F401A061DFF8F001E0614FF4D7
:103F1000806020620020A062002060620020E062D9
:103F2000DFF8D4012066DFF8D80160661020A066B3
:103F3000002020670020E0660020606743A1E01DAC
:103F400000F026FFDFF8BC11200000F021FF202048
:103F5000A07110BD2DE9F04705000E0014000027E8
:103F6000D5F80C802869804505D28146B9EB08094F
:103F7000B9F1010907E0D5F80890B9EB080910EB91
:103F80000909B9F10109A868B0EB0800814503D31C
:103F9000D5F80890B9EB0809A14500D3A146686897
:103FA00000EB080A4A4631005046FFF7DFFA19EBEA
:103FB00007074E44B4EB090419EB0809C846A86882
:103FC000804501D15FF00008C5F80C80002CC9D1F4
:103FD0003800BDE8F0872DE9F84304000F00160013
:103FE000D4F80C80D4F80890B9EB08094E450BD2F0
:103FF000606800EB0805320039002800FFF7B6FAC8
:1040000016EB0806E66012E04D46606880442A0020
:1040100039004046FFF7AAFAB6EB0906350007EB70
:10402000090166682A003000FFF7A0FAE560BDE8E4
:10403000F18301000869CA68824204D38968491E75
:104040008A1A801801E0801A401E704752545400AA
:1040500070B50D001400DFF89C201821484310446F
:1040600010F118067069002803D002281BD00DD368
:1040700020E03000FFF7DDFFA04201D2002404E081
:10408000220029003000FFF7A6FF14E03000FFF700
:10409000D0FFA04201D20400FFE722002900300037
:1040A000FFF799FF07E0220029003000FFF752FFD9
:1040B000040000E00024200070BDF8B504000D00ED
:1040C0001600DFF830000078002801D1FFF712FF5A
:1040D000EFF31187202080F311883200290020009F
:1040E000FFF7B6FF87F31188F2BD80B5FFF702FF37
:1040F00001BD0000302C0020E069000044200020B9
:1041000058310020446A0000D2B2042A43D04DD373
:10411000062A26D032D3082A0CD015D3092A45D135
:1041200080B22A4AB1FBF2F14843801C0321B0FB64
:10413000F1F042E080B2264AB1FBF2F148431D3073
:104140001E21B0FBF1F038E080B242F21072B1FBF8
:10415000F2F1484300F22B104FF49671B0FBF1F0EE
:104160002BE080B24FF47A72B1FBF2F1484300F6D3
:10417000B73040F6B831B0FBF1F01EE080B26422F7
:10418000B1FBF2F247F22F5102FB001047F230511F
:10419000B0FBF1F011E080B20A22B1FBF2F20D495E
:1041A00002FB00100C49B0FBF1F006E080B20B4AB4
:1041B00001FB00200A49B0FBF1F0704780B50822EE
:1041C000084980B2FFF7A0FF02BD000040420F0087
:1041D000A0860100DF930400E0930400BFC62D0019
:1041E000C0C62D000080DB02491EFDD870470000CC
:1041F000016951F4007101617047028889B20902B6
:1042000011F4706111430180704780B501210D48A0
:10421000FFF7F3FF00F0EAFD00F073FE00F0E6FEAA
:10422000082000F0F9FE00F06EFE40F6F77000F096
:10423000F3FE0548FFF7DCFF00F06AF900F004FF29
:1042400001BD0000004000410008004080B5002092
:104250000CE05FF0FF31624A80B202EBC0025160B5
:1042600000215F4A80B242F83010401C80B20A2818
:10427000EFDB0FF2091000F079FF02BD2DE9F843E2
:1042800002000B0000250024002000E06D1CEDB2B0
:104290000A2D0BDA5249EDB201EBC5014968914292
:1042A000F4D14F48EDB240F8353001201900002913
:1042B0000AD1C0B2002802D17FF00C005BE00021DF
:1042C000100000F0F3FF56E0C0B2002849D10025ED
:1042D00000E06D1CEDB20A2D3DDA4149EDB251F816
:1042E00035100029F5D13E48EDB240F835303C4854
:1042F000EDB200EBC500426001202CE03849EDB280
:1043000001EBC5014968364BE4B203EBC4035B68BB
:1043100099421FD23249E4B201EBC401496811F15C
:10432000010F17D02E49E4B201EBC401D1E90067B7
:104330002B49EDB201EBC501D1E900892849E4B26E
:1043400001EBC401C1E900892549EDB201EBC501CA
:10435000C1E90067641CE4B20A2C02DAEDB20A2D4E
:10436000CCDBC0B2002802D17FF00C0003E00121B9
:10437000100000F09BFFBDE8F283000010B50021A3
:104380000A2301E01100491C1A000C00D2B2E4B269
:10439000A24223D3C9B251FA83F292B25208D2B2E6
:1043A0000A2A1BDA0E4CD2B204EBC20464688442BF
:1043B0000BD10B48D2B250F83200002804D0084884
:1043C000D2B250F83200804708E0054CD2B204EB7C
:1043D000C20464688442D5D3531ED5E710BD0000E3
:1043E0004830002000B2002809D4012210F01F013B
:1043F0008A40DFF8681200B2400941F82020704777
:1044000000B200280DD4012210F01F018A40DFF80D
:10441000501200B2400941F82020BFF34F8FBFF384
:104420006F8F704700B2002809D4012210F01F01DD
:104430008A40DFF8301200B2400941F8202070476E
:10444000018851F0010101807047008810F00100DF
:1044500080B2002801D0012000E00020C0B27047E7
:10446000018851F002010180704702884FF6FD710A
:104470000A400280704701807047428832EA010199
:1044800041807047427B12F0FE0211430A004273E2
:10449000704741617047008C0140080080B270474E
:1044A000416370478163704701807047C160704706
:1044B000C9B20901084490F84E0010F0010070479D
:1044C0000122C9B20901084480F84E207047C9B2E0
:1044D0000901084490F84E00400810F001007047B0
:1044E0000222C9B20901084480F84E207047C9B2BF
:1044F0000901084402647047C9B20901084480F800
:1045000045207047C9B20901084480F84620704729
:1045100010B55548FFF7A9FF4FF47C515248FFF7FB
:10452000ACFF5148FFF78CFF4F48FFF78EFF002884
:10453000FAD14FF470614C48FFF79DFF01214A48C2
:10454000FFF7A0FF00214848FFF7A3FF474946486F
:10455000FFF7A6FF46494448FFF7A4FF00242FE0D9
:104560004448E4B250F834202100C9B23E48FFF775
:10457000BEFF4048E4B200EBC40002792100C9B29A
:104580003948FFF7B9FF3B48E4B200EBC400427979
:104590002100C9B23448FFF7B5FF3648E4B200EB5A
:1045A000C400C1883148E4B222011044FFF77CFF07
:1045B00000212E48E4B222011044FFF777FF641C6B
:1045C000E4B2202CCCDB002412E0E4B214F11F0092
:1045D00000B2FFF715FFE4B214F11F0000B2FFF7BD
:1045E00021FFE4B214F11F0000B2FFF7FBFE641CD0
:1045F000E4B2052CE9DB1C48FFF732FF002010BDB8
:1046000038B51F211848FFF746FF04001A48E4B2E6
:104610000C2101FB04F100EB01052100C9B2124895
:10462000FFF746FF002808D02100C9B20E48FFF767
:1046300047FF2800696888470EE02100C9B20A4890
:10464000FFF745FF002807D02100C9B20648FFF751
:1046500047FF28002968884731BD000000E100E0DD
:1046600080E100E080E200E000A000415024002052
:1046700050260020AC6300005028002080B5FFF7D2
:10468000BFFF01BD80B5FFF7BBFF01BD80B5FFF7E0
:10469000B7FF01BD80B5FFF7B3FF01BD80B5FFF7E0
:1046A000AFFF01BD00B2002809D4012210F01F01A4
:1046B0008A40DFF8501600B2400941F820207047C8
:1046C00000B200280DD4012210F01F018A40DFF84B
:1046D000381600B2400941F82020BFF34F8FBFF3D6
:1046E0006F8F704700B2002809D4012210F01F011B
:1046F0008A40DFF8181600B2400941F820207047C0
:1047000000B2002805D44901DFF8042600B2115494
:1047100008E04901DFF8FC2500B210F00F0010445A
:1047200000F8041C7047C9B200EB8100C0F880207B
:104730007047426911434161704782691143816149
:104740007047026A11430162704710B4C9B28024F5
:1047500004FB01F40444D2B2144494F8304014F041
:10476000F00413F00F0323431C00C9B28023594304
:104770000844D2B2104480F8304010BC704710B4E6
:10478000C9B2802404FB01F40444D2B2144494F866
:10479000304014F00F04DBB21B0123431C00C9B2EC
:1047A000802359430844D2B2104480F8304010BCF2
:1047B000704710B4C9B2802404FB01F40444D2B29F
:1047C000144494F8404014F0FE0423431C00C9B282
:1047D000802359430844D2B2104480F8404010BCB2
:1047E0007047C2690A42FCD17047007E704701766B
:1047F00070470121817570470121017570470221C1
:1048000081757047022101757047807D7047817501
:10481000C9B2C9430175704780B5016851F0020102
:1048200001600321FFF7DDFF01BD10B50400032186
:104830002000FFF7D6FF2068C0F34000002801D019
:10484000012000E00020C0B210BD80B5026832F047
:104850000202C9B252EA410202600321FFF7C1FF1E
:1048600001BD80B5016831F0020101600321FFF74D
:10487000B8FF01BD80B501600321FFF7B2FF01BDA4
:1048800080B541601F21FFF7ACFF01BD81817047FA
:1048900081627047806A704741837047408B7047E0
:1048A00070B504000D002600760914F01F0415F100
:1048B000010F09D100232200D2B23100C9B2DFF8C2
:1048C0005804FFF776FF21E001232200D2B2310025
:1048D000C9B2DFF84404FFF76CFFE0070BD52B00EB
:1048E000DBB2E4B2640822003100C9B2DFF8280468
:1048F000FFF745FF0AE02B00DBB2E4B264082200B8
:104900003100C9B2DFF81004FFF71FFF70BD80B59A
:10491000FFF7C6FF01BD10B50A00C168002925D008
:10492000016883685C1C84601A70826803699A421B
:1049300001D3C26882600268521C02600369C268C7
:104940009B1A026893420BD24268521C4260426832
:1049500003699A4201D3C26842600268521E026033
:10496000002903D100214069FCF7E5FC10BD10B51A
:10497000002400E0641C082C41DADFF8A01351F891
:1049800024108142F6D14022DFF8940310F814106D
:10499000DFF89003FFF7C7FE4322DFF8840300EB44
:1049A00044004178DFF87C03FFF7BDFEDFF87803B1
:1049B000005D102809DA0121DFF86C0300578140FF
:1049C000DFF86803FFF7B5FE19E0DFF85C03005D70
:1049D00020280ADA0121DFF85003005D10388140F9
:1049E000DFF84803FFF7A9FE09E00121DFF83803EB
:1049F000005D20388140DFF83403FFF7A2FE10BDD0
:104A000010B5040005212068FFF734FF012120685C
:104A1000FFF7E7FEDFF818132068FFF72BFF5FF4BE
:104A200040312068FFF72CFF4FF6CB712068FFF76D
:104A30002DFF10BD70B5040020680068FFF7D5FE9B
:104A4000050020680068FFF729FF0600206800685D
:104A5000FFF7DBFE0540E8071BD5606A00280CD095
:104A6000206A411C21620578EDB2290020680068A7
:104A7000FFF70EFF606A401E6062606A002843D143
:104A800020680068FFF7B8FE20680068FFF7B7FEEF
:104A90003AE0A8070DD5022120680068FFF7A7FEBD
:104AA00020680068FFF7AEFE0021A06AFCF743FC17
:104AB0002AE0680714D520680068FFF7EBFE0500C0
:104AC000B00721D42900C9B2201DFFF724FFE069F7
:104AD000002819D02900C9B22000E269904713E0EC
:104AE000A80605D5202120680068FFF780FE0BE0AE
:104AF000280609D5802120680068FFF778FEFF218D
:104B000020680068FFF7C8FE70BD80B58948FFF7D0
:104B100091FF01BD80B58748FFF78CFF01BD80B5CF
:104B20008448FFF787FF01BD80B58248FFF782FF09
:104B300001BD38B504000D00382100222800FEF721
:104B4000CDFD2C60032200210120FCF764FAA8614E
:104B5000032200210120FCF75EFAA862A168A07977
:104B6000FFF7D5FE2169207BFFF7D1FE2068FFF714
:104B7000FEFE2000FFF744FFB4F9045011E02800C6
:104B800000B2FFF79DFD280000B2FFF7ABFD280043
:104B900000B2FFF787FD0521280000B2FFF7B0FD46
:104BA0006D1C2DB2B4F90400001D8542E7DB31BD58
:104BB00010B500240CE05F48382101FB04F10144EA
:104BC0005D48142202FB04F21044FFF7B2FF641C9C
:104BD000002CF0D010BD10B50024C0B2002842D186
:104BE0005449C0B2382202FB00F2114491F8371048
:104BF000002938D14F4AC0B23821484302EB0004A3
:104C0000012084F83700002060602069A0602069DE
:104C1000E0600020E06100202062002060624FF42C
:104C20007A70E062642020630D2084F835000A2049
:104C300084F83600002084F834000021A069FCF7D5
:104C40008FFC0021A06AFCF78BFCBF212068006864
:104C5000FFF7CDFDA42120680068FFF7D8FD20688C
:104C60000068FFF7D9FD200010BD38B504000D0025
:104C7000FCF711FFE561FCF72BFF31BD38B52DEDD9
:104C8000028B82B0040008EE101A20680068FFF75B
:104C9000CCFD050020680068FFF7E3FD6846FCF7DF
:104CA0004FFE022120680068FFF79BFDB8EE480A1E
:104CB000DFED110A20EE200ADFED100A80EE200A57
:104CC000DFED0F0A30EEC00ABDEEC00A10EE100A8A
:104CD000010089B220680068FFF7D8FD6846FCF73C
:104CE00036FE2900C9B220680068FFF7AEFD02B0A9
:104CF000BDEC028B31BD00000000804900E0364C65
:104D00000000804700E100E080E100E080E200E098
:104D100000E400E018ED00E00080004120000020E9
:104D20009C690000001C00402C6A00000008004044
:104D3000040010409830002018690000F8B5060003
:104D40000F0014000025FCF7A6FE706A002813D19E
:104D5000002C11D00021B06AFCF702FC781C3062F4
:104D6000601E7062397830680068FFF791FD306826
:104D70000068FFF73EFD2500FCF7AAFE002D04D0D9
:104D80005FF0FF31B06AFCF7EBFB2800F2BD0000DA
:104D90005FEA000C80EA01039B0715D1830706D068
:104DA00011F8013B00F8013BB3B18307F8D10A6861
:104DB000B2F1013323EA020313F0803F02BF40F84F
:104DC000042B51F8042FF3E711F8013B00F8013BE5
:104DD00013B111F8013BF9E7604670470174704761
:104DE000C069C0F305207047C161704710B5094C18
:104DF00000202000FFF7F4FF80B2000210F47C5086
:104E000001002000FFF7F0FF01212000FFF7E6FF7F
:104E100010BD00000014004042680A42FCD17047F7
:104E20004068800810F0010070474068704780B506
:104E3000C9B200EB81031B6A1B091B0112F00F02B0
:104E40001A431300C9B200EB81010B6243F6FD71F6
:104E5000FFF7E2FF01BDC9B200EB8100C0F880207E
:104E600070470069000A10F00100704700690140B6
:104E7000080070470177704790F8200010F001009B
:104E8000C0B2002801D0012000E00020C0B270476D
:104E900080F82010704741627047406A7047816215
:104EA000704790F82C00C0F34000C0B2002801D039
:104EB000012000E00020C0B2704790F82C00C0F341
:104EC0008000C0B2002801D0012000E00020C0B264
:104ED000704790F82C00C0F3C000C0B2002801D089
:104EE000012000E00020C0B2704790F82C00C0F311
:104EF0000010C0B2002801D0012000E00020C0B2A4
:104F000070473648704738B5344C04220021344885
:104F1000FFF78DFF3248FFF783FF0028FAD1002109
:104F20002000FFF7A7FF432200212D48FFF793FF42
:104F30002C492000FFF7B3FF2000FFF7D6FF002821
:104F4000FAD100212000FFF7A3FF2000FFF7B5FFF3
:104F50000028FAD10221C9B22000FFF78BFF200000
:104F6000FFF79FFF0028FAD12000FFF796FF01000E
:104F70002000FFF790FF2000FFF7ABFF0028FAD1D9
:104F80008121C9B22000FFF783FF2000FFF795FFC2
:104F90000028FAD12000FFF76FFF002808D04FF457
:104FA000106529002000FFF761FFA84205D0F8E74F
:104FB0002000FFF756FF0028FAD00948FFF735FF19
:104FC0000028FAD1062200210548FFF730FF0448E7
:104FD000FFF726FF0028FAD131BD00000010004085
:104FE000001C0040B70501044171704780B50248BC
:104FF0000121FFF7F9FF01BD0008004042680A42A5
:10500000FCD1704780B5C9B200EB81010A6243F65A
:10501000FD71FFF7F3FF01BD10B50400E00704D5F3
:10502000064A00210648FFF7EDFF200704D5054A90
:1050300003210348FFF7E6FF10BD00000601010051
:10504000001C00400401010080B500F03AFA02BDE6
:1050500000B2002809D4012210F01F018A40DFF8B5
:10506000701300B2400941F82020704700B20028B8
:105070000DD4012210F01F018A40DFF8581300B24E
:10508000400941F82020BFF34F8FBFF36F8F704767
:1050900000B2002809D4012210F01F018A40DFF875
:1050A000381300B2400941F82020704742680A4294
:1050B000FCD170474068084201D0012000E0002088
:1050C000C0B27047406970474161704701617047E5
:1050D000C160704780B5017851F002010170032171
:1050E000FFF7E4FF01BD80B5017811F0FD0101700B
:1050F0000321FFF7DBFF01BD80B5027812F0EF025C
:1051000052EA011202700321FFF7D0FF01BD38B54A
:1051100004000D0003212000FFF7C8FF20780540A0
:105120002800C0B232BD80B501700321FFF7BEFF79
:1051300001BD417070478160704781617047C9B29D
:1051400000EB8100C26170470163704741637047A3
:1051500001000122002001E05200401C202803D25F
:105160001142F9D0401C00E00020704710B5040047
:1051700001219A48FFF79EFF002810D1022197488D
:10518000FFF7C5FF002806D09448FFF7ACFF0221C7
:105190009248FFF78BFF01219048FFF7C4FF0121E0
:1051A0008E48FFF783FF00218C48FFF7A5FF002101
:1051B0008A48FFF7BEFF00218848FFF7BCFF0021A7
:1051C0008648FFF7BAFF00218448FFF7BDFF0021A2
:1051D0008248FFF7BBFF824A00218048FFF7AFFFFC
:1051E000804A01217D48FFF7AAFF7C48FFF772FF44
:1051F0000C20FFF73BFF0C20FFF74AFF0C20FFF7C6
:1052000027FF0F20FFF732FF0F20FFF741FF0F208E
:10521000FFF71EFF1020FFF729FF1020FFF738FFD0
:105220001020FFF715FF1120FFF720FF1120FFF7D7
:105230002FFF1120FFF70CFF1220FFF717FF12209E
:10524000FFF726FF1220FFF703FF1320FFF70EFFE3
:105250001320FFF71DFF1320FFF7FAFE1620FFF7BC
:1052600005FF1620FFF714FF1620FFF7F1FE1720A9
:10527000FFF7FCFE1720FFF70BFF1720FFF7E8FEF4
:105280001920FFF7F3FE1920FFF702FF1920FFF79F
:10529000DFFE1A20FFF7EAFE1A20FFF7F9FE1A20B8
:1052A000FFF7D6FE50480460002010BD10B5FF2463
:1052B000002200E0521CD2B20A2A0AD24B4BD2B2D0
:1052C00003EBC2035B688342F4D14848D2B210F8C2
:1052D0003240E4B2FF2C02D15FF0FF3017E0C9B2D8
:1052E000002907D0012010FA04F421003B48FFF701
:1052F000EDFE0BE00121A1403848FFF7E9FE012057
:1053000010FA04F421003548FFF7DEFE002010BD3E
:1053100070B582B03148FFF7D5FE00905FF0FF34E2
:1053200000992E48FFF7D0FE07E02C48FFF7CAFE91
:10533000009000992948FFF7C7FE0098002845D043
:105340000098FFF705FF451E2DE00800401C1100E6
:105350000300C9B2DBB2994213D3C0B250FA82F152
:1053600089B24908214BC9B213F831302E0076B208
:105370001BB236B2B3421DD11C48C9B200EBC1000A
:10538000446814F1010F03D02000174909688847C9
:105390000098012111FA05F530EA050500950098FD
:1053A000FFF7D6FE451E6DB215F1010FBDD00020EE
:1053B0000A22CCE70D4BC9B213F831302E0076B279
:1053C0001BB236B2B342C0DB4A1EC0E773BD000059
:1053D00000E100E080E100E080E200E00028004021
:1053E0000330333300333003743100209065000004
:1053F00080B5FFF78DFF01BD80B5FFF789FF01BDC7
:1054000080B5FFF785FF01BD80B5FFF781FF01BDC6
:1054100080B5FFF77DFF01BD80B5FFF779FF01BDC6
:1054200080B5FFF775FF01BD80B5FFF771FF01BDC6
:1054300080B5FFF76DFF01BD80B5FFF769FF01BDC6
:10544000C06810F00100704741607047816070478C
:1054500080B5FFF7F5FF012801D1012000E0002011
:10546000C0B202BD80B5FFF7EBFF002801D10120DB
:1054700000E00020C0B202BD10B504002000FFF71C
:10548000F1FF00280DD001212000FFF7DFFF2000F1
:10549000FFF7DEFF012801D1002004E07FF01D00AE
:1054A00001E07FF0010010BD10B5040000212000D4
:1054B000FFF7CCFF2000FFF7D5FF0028FAD000202F
:1054C00010BD80B50D48FFF7EFFF0C48FFF7CAFF8E
:1054D000002810D020210948FFF7B6FF0748FFF742
:1054E000CBFF0648FFF7B4FF012801D1002004E0FC
:1054F0007FF01D0001E07FF0130002BD006000415D
:10550000C9B200EB8100C0F880207047416951F4B6
:10551000804141617047416951F4004141617047E8
:10552000816951F4005181617047816951F4804172
:1055300081617047C16951F02001C1617047C16943
:1055400051F04001C1617047016A51F020010162D0
:105550007047016A51F0400101627047C9B280236F
:105560005943084482607047C9B280225143405871
:105570007047C9B280235943084442607047C9B29A
:1055800080235943084482617047C9B28022514345
:10559000084400697047C9B28023594308444261F6
:1055A0007047C9B2802251430844006A704710B462
:1055B000C9B2802404FB01F40444D2B2144494F828
:1055C000304014F0F00413F00F0323431C00C9B261
:1055D000802359430844D2B2104480F8304010BCB4
:1055E000704710B4C9B2802404FB01F40444D2B261
:1055F000144494F8304014F00F04DBB21B01234331
:105600001C00C9B2802359430844D2B2104480F828
:10561000304010BC704710B4C9B2802404FB01F4C0
:105620000444D2B2144494F8404014F0FE042343DE
:105630001C00C9B2802359430844D2B2104480F8F8
:10564000404010BC704710B4C9B2802303FB01F383
:105650000344D2B203EB0204C9B280235943084485
:10566000D2B2104490F8400050F0040084F840009A
:1056700010BC704710B4C9B2802303FB01F303448C
:10568000D2B203EB0204C9B2802359430844D2B218
:10569000104490F8400010F0FB0084F8400010BC6B
:1056A0007047C9B280235943084482627047026937
:1056B0000A42FCD1704780B5016851F002010160D7
:1056C0000321FFF7F4FF01BD80B5016831F002014D
:1056D00001600321FFF7EBFF01BD80B5026832F4E2
:1056E000E062090211F4E06111430A000260FF2147
:1056F000FFF7DDFF01BD80B501600321FFF7D7FF94
:1057000001BD01737047C173704780B5C9B200EB2A
:1057100041018A83C021FFF7CAFF01BD80B50A009D
:10572000D2B252F040020100C9B2DFF89008FFF790
:10573000E7FE01BD38B504000D00D2B2002A03D047
:10574000022A37D01BD350E02A002100C9B2DFF86B
:105750007008FFF70EFFAAB252F080422100C9B2D2
:10576000DFF85C08FFF79DFF2D0C55F040452A003F
:105770002100C9B2DFF84808FFF793FF35E02A009F
:105780002100C9B2DFF83808FFF7F3FE2A00C4F29F
:1057900002022100C9B2DFF82808FFF782FFDFF814
:1057A000242852EA15422100C9B2DFF81408FFF795
:1057B00078FF1AE02A002100C9B2DFF80408FFF7D9
:1057C000CDFEAAB252F080422100C9B2DFF8F00744
:1057D000FFF767FF2D0C55F040452A002100C9B2A4
:1057E000DFF8DC07FFF75DFFFFE731BD80B5D2B220
:1057F000002A07D00A000100C9B2DFF8C407FFF78A
:10580000BEFE06E00A000100C9B2DFF8B407FFF7E8
:10581000C2FE01BD70B582B004006846FCF790F886
:105820002100C9B2DFF89807FFF79EFE06002100AD
:10583000C9B2DFF88C07FFF7B4FE0500B5432100BD
:10584000C9B2DFF87C07FFF7A0FE06403543684683
:10585000FCF77DF8280076BD38B504000D00D2B203
:10586000002A03D0022A25D009D33EE02A00D2B272
:105870002100C9B2DFF84807FFF7FCFE35E001223E
:10588000AA402100C9B2DFF83807FFF772FE2A00EC
:10589000D2B22100C9B2DFF82807FFF7D4FE0120F9
:1058A00010FA05F52A002100C9B2DFF81407FFF746
:1058B00066FE1AE00122AA402100C9B2DFF8000703
:1058C000FFF757FE2A00D2B22100C9B2DFF8F00676
:1058D000FFF7B9FE012010FA05F52A002100C9B230
:1058E000DFF8DC06FFF757FEFFE731BD70B50400B7
:1058F0000D002600760914F01F0415F1010F09D1DF
:1059000000232200D2B23100C9B2DFF8B406FFF79B
:1059100082FE21E001232200D2B23100C9B2DFF8B9
:10592000A006FFF778FEE0070BD52B00DBB2E4B250
:10593000640822003100C9B2DFF88406FFF751FE87
:105940000AE02B00DBB2E4B2640822003100C9B2E5
:10595000DFF86C06FFF72BFE70BD80B50A00D2B2EF
:1059600010F01F01C0B24009FFF776FF01BD80B5FE
:10597000FFF7BCFF01BD80B50A00D2B2012110F0D3
:105980001F039940C0B24009FFF7D4FE01BD80B5A6
:105990000A00D2B2012110F01F039940C0B24009A1
:1059A000FFF724FF01BD10B504002000C0B240097C
:1059B000FFF730FF14F01F04E04010F0010010BDAD
:1059C00080B5002000F0D9F801BD80B5012000F0BD
:1059D000D4F801BD80B5022000F0CFF801BD80B53C
:1059E000032000F0CAF801BD80B5042000F0C5F81E
:1059F00001BD80B5DFF8D01588421CD0DFF8CC158A
:105A000088421DD0DFF8C81588421ED0DFF8C415C3
:105A100088421FD0DFF8C015884220D0DFF8BC15BF
:105A2000884221D0DFF8B815884222D0DFF8B415BB
:105A3000884223D026E0DFF8B005FFF767FD21E0BC
:105A4000DFF8A405FFF767FD1CE0DFF89C05FFF712
:105A500067FD17E0DFF89005FFF767FD12E0DFF85C
:105A60008805FFF767FD0DE0DFF87C05FFF767FDB0
:105A700008E0DFF87405FFF767FD03E0DFF868056D
:105A8000FFF767FD01BD10B504002068FFF7B1FF07
:105A900061792079FFF742FE01212068FFF72BFE94
:105AA00001212068FFF703FE40212068FFF723FE55
:105AB00002212068FFF725FE01212068FFF723FE61
:105AC00040F6CB4200212068FFF71FFE40F6CB4294
:105AD00001212068FFF719FE2068FFF7ECFD10BDDB
