:100000000000032009CA000011CA000011CA000044
:1000100011CA000011CA000011CA0000000000004F
:10002000000000000000000000000000957B0000C0
:1000300011CA0000000000003D7B0000A365000025
:1000400011CA000011CA000011CA000011CA000044
:1000500011CA000011CA000011CA000011CA000034
:1000600011CA000011CA0000656E000011CA00002C
:1000700011CA000011CA000011CA000011CA000014
:1000800011CA000011CA000011CA000011CA000004
:1000900011CA000011CA000011CA000011CA0000F4
:1000A00011CA000011CA000011CA000011CA0000E4
:1000B00011CA000011CA000011CA000011CA0000D4
:1000C00011CA000011CA000011CA000011CA0000C4
:1000D00011CA000011CA000011CA000011CA0000B4
:1000E00011CA000011CA000000000000000000005A
:1000F00000000000C1C7000009AA000013AA000008
:100100001DAA000027AA000011CA000011CA0000A1
:1001100011CA000011CA0000E1A90000EBA900000B
:10012000F5A90000FFA9000011CA000011CA0000D3
:1001300011CA000011CA0000B9A90000C3A900003B
:10014000CDA90000D7A9000031AA00003BAA0000F9
:1001500045AA00004FAA000011CA000011CA000001
:1001600011CA000011CA000059AA000063AA0000C9
:100170006DAA000077AA0000000000000000000047
:10018000991B0000A11B0000A91B0000B11B00006F
:100190000000000011CA000011CA000011CA0000CE
:1001A00011CA000011CA000011CA000011CA0000E3
:1001B00011CA000011CA000011CA000011CA0000D3
:1001C00011CA000011CA000011CA000011CA0000C3
:1001D00011CA000011CA000011CA000011CA0000B3
:1001E00011CA000011CA000011CA000011CA0000A3
:1001F00011CA000011CA000011CA000011CA000093
:1002000011CA000011CA000011CA000011CA000082
:1002100011CA000011CA000011CA000011CA000072
:1002200011CA000011CA000011CA000011CA000062
:1002300011CA000011CA000011CA000011CA000052
:1002400011CA000011CA000011CA000011CA000042
:1002500011CA000011CA000011CA000011CA000032
:1002600011CA000000B200280AD4012210F01F01B8
:100270008A40DFF8BC1C00B203005B0941F8232070
:10028000704710B40300C9B2142404FB01F41C44E9
:10029000246C2000104010BC704702001369180045
:1002A0000840704790F82020110011F00101C9B2F8
:1002B000002901D0012000E00020C0B27047827800
:1002C0000A42FCD170478078084201D0012000E04A
:1002D0000020C0B2704710B40300C9B24C011C44E6
:1002E00094F8074120001040C0B210BC7047C9B25A
:1002F0004901084490F807017047C9B24B01034413
:1003000083F807217047C9B24B01034483F80521E4
:100310007047C9B24901084490F806017047C9B254
:100320004B01034483F8042170471022C9B24B01EA
:10033000034483F808217047C9B24B01034483F892
:1003400009217047C9B24B01034483F80821704763
:100350000200C9B24B01134493F80031180010F0A9
:100360000700C0B270470200C9B24B01134493F8B2
:1003700000311800C0F30210C0B27047C9B24B017F
:10038000034483F800217047C9B24901084490F83A
:1003900000017047808B70478183704701837047ED
:1003A000008B7047818270470200937818000840E4
:1003B000C0B2704710B50400207810F0FD00207026
:1003C00003212000FFF77BFF10BD70B504000D0076
:1003D00003212000FFF773FF207806002E40300035
:1003E000C0B270BD38B504000D0025700321200097
:1003F000FFF765FF31BD10B5040003212000FFF7B2
:100400005EFF207810BD02894FF6FE710A4002811E
:1004100070470181704781727047416270470200E6
:100420000020704730B45FF08244DFF86C0C007835
:1004300010F01F00DFF8601C0968C1F34412DFF8F8
:10044000581C0968C1F38221002801D01F2801D15E
:1004500009231800002A01D01F2A01D119231A00EC
:10046000002901D0072901D106231900850115F4BF
:10047000F86512F01F031D430B0313F4E0431D4303
:100480002585E37853F00303E370E37853F00C031E
:10049000E37030BC704780B503220021DFF8FC0B0D
:1004A000FFF7EFFE0328F7D101BD80B5DFF8EC0BB5
:1004B000FFF7F8FE002809D04FF41061DFF8DC0BDD
:1004C000FFF7EBFEB0F5106FF6D108E04FF4807146
:1004D000DFF8C80BFFF7E1FEB0F5807FF6D101BD74
:1004E00010B50400E4B2002C02D1FFF7DEFF04E0F7
:1004F000E4B2012C01D1FFF7CEFF10BD38B50400E6
:100500000D002A00D2B22100C9B25FF08240FFF78D
:10051000F4FE31BD38B504000D002A00D2B221002E
:10052000C9B25FF08240FFF707FF31BD38B5040064
:100530000D002A00D2B22100C9B25FF08240FFF75D
:1005400001FF31BD80B50100C9B25FF08240FFF705
:100550001BFF112801D1012000E00020C0B202BD24
:1005600070B505000E001400E4B2002C09D0102272
:10057000B240D2B22900C9B25FF08240FFF7C3FE99
:1005800008E01022B240D2B22900C9B25FF0824026
:10059000FFF7C5FE70BD10B50C005FF08242010090
:1005A000C9B21000FFF7B5FE102111FA04F4204281
:1005B00001D0012000E00020C0B210BD10B50C0039
:1005C0005FF082420100C9B21000FFF790FE2021C7
:1005D00011FA04F4204201D0012000E00020C0B252
:1005E00010BD38B504000D002021A9402000C0B284
:1005F000FFF784FF31BD70B505000E001400E4B2B2
:10060000002C06D02021B1402800C0B2FFF782FFA5
:1006100005E02021B1402800C0B2FFF787FF70BD80
:1006200010B504002100C9B25FF08240FFF77DFEE3
:1006300010BD80B501001022C9B25FF08240FFF703
:100640004AFE002801D0012000E00020C0B202BD17
:1006500010B5040010212000C0B2FFF74FFF10BDFD
:1006600070B505000E001400E4B2002C09D0012280
:10067000B240D2B22900C9B25FF08240FFF743FE18
:1006800008E00122B240D2B22900C9B25FF0824034
:10069000FFF745FE70BD38B504000D000121A940EB
:1006A0002000C0B2FFF72AFF31BD10B4DFF8883C4C
:1006B000C0B244012344C9B20C0123441A6010BCE7
:1006C000704710B4DFF8703CC0B244012344C9B293
:1006D0000C01234492B25C6862F39B345C6010BCF2
:1006E000704710B4DFF8503CC0B244012344C9B293
:1006F0000C01234492B25C6862F30D045C6010BC90
:10070000704710B4DFF8303CC0B244012344C9B292
:100710000C01234492B25C6862F30D045C6010BC6F
:10072000704710B4DFF8103CC0B244012344C9B292
:100730000C01234492B25C6862F39B345C6010BC91
:100740007047F8B504000D0016001F00320092B289
:100750002900C9B22000C0B2FFF7C3FF3A0092B22D
:100760002900C9B22000C0B2FFF7ABFFF1BDF8B558
:1007700004000D0016001F00320092B22900C9B219
:100780002000C0B2FFF7CDFF3A0092B22900C9B2F3
:100790002000C0B2FFF7B5FFF1BDDFF89C2BC0B25F
:1007A00043011A44C9B20B011A44002393727047E3
:1007B00070B505000E001400E4B2002C09D04022F0
:1007C000B240D2B22900C9B25FF08240FFF79BFD70
:1007D00008E04022B240D2B22900C9B25FF08240A4
:1007E000FFF79DFD70BD70B505000E001400E4B26A
:1007F000002C09D04022B240D2B22900C9B25FF029
:100800008240FFF78CFD08E04022B240D2B22900BE
:10081000C9B25FF08240FFF776FD70BD80B240F252
:100820000121884201DB072020E080B240F2011163
:10083000884201DB062019E080B2812801DB052017
:1008400014E080B2412801DB04200FE080B22128AF
:1008500001DB03200AE080B2112801DB022005E061
:1008600080B2092801DB012000E00020C0B27047FF
:1008700010B40200D2B2002A01D1002305E0C9B2AF
:10088000002901D0131D00E01300DFF8144BDBB288
:100890001420434304EB0300143010BC704780B5B0
:1008A00004215FF08240FFF777FDDFF8F40A00686B
:1008B000804701BD38B5002540F201215FF082403C
:1008C000FFF76AFD40F201215FF08240FFF76AFD09
:1008D00070215FF08240FFF761FD00200400E4B268
:1008E000042C13DADFF8500AE4B2610108440189EC
:1008F00011F00F01032907D10189C1F30A1189B24F
:100900000D000021018101E0641CE8E729000320BB
:10091000DFF88C2A5268904731BD80B580215FF0A6
:100920008240FFF739FD00210520DFF8742A526864
:10093000904701BD80B570215FF08240FFF72CFD2C
:1009400070215FF08240FFF72DFD40F201215FF042
:100950008240FFF723FD0020FFF7C2FD00210220A7
:10096000DFF83C2A5268904701BD80B50022002183
:100970005FF08240FFF702FD08215FF08240FFF741
:100980000BFD70215FF08240FFF70CFD40F201216A
:100990005FF08240FFF702FD00F051FC00210120D2
:1009A000DFF8FC295268904701BD80B540F2012173
:1009B0005FF08240FFF7F0FC40F201215FF08240DF
:1009C000FFF7F0FC70215FF08240FFF7E7FC0021A9
:1009D0000420DFF8CC295268904701BD38B50124C6
:1009E0005FF08240FFF7D6FC05005FF08240FFF722
:1009F000D7FC28400500680703D5FFF750FF01200A
:100A00001EE0A80502D5FFF755FF17E0280602D51E
:100A1000FFF783FF12E0280010F0700F02D0FFF7FD
:100A200089FF0BE0280702D5FFF79FFF06E0E807E4
:100A300002D5FFF7BAFF01E0002004002000C0B299
:100A400032BD2DE9F04F85B006000C005FF0824703
:100A500096F8128018F00F08DFF8DC085FFA88F8C3
:100A60005FEA481108440190E4B2002C07D00198D5
:100A7000D0F814905FEA89495FEA994901E05FF094
:100A80000009308A40F2FF31884201D1308A01E00A
:100A9000308A401E10EA0900ADF802005FF0000A3B
:100AA000F07C10F00700012801D1012500E00025AD
:100AB000E4B2002C04D001214046C0B2FFF7EBFDA8
:100AC000B06810FA89F0B060B0687168884243D2AB
:100AD0007168B068091AADF80010F07CC0F34010DE
:100AE000C0B200281CD0308ABDF80010884202D263
:100AF000308AADF80000BDF8000003903068B1689E
:100B000008440290D6F80CB0039A0299584601F0B6
:100B100053F8F26801214046C0B2FFF7C6FD12E06B
:100B2000BDF8000042F20101884203DB4FF400509F
:100B3000ADF800003068B16800EB010201214046C9
:100B4000C0B2FFF7B2FD0023BDF8002001214046EE
:100B5000C0B2FFF7F6FD3BE0F07CC0F30010C0B27E
:100B600000280BD0F07C10F0EF00F074002300227E
:100B700001214046C0B2FFF7E4FD29E0EDB2002DAF
:100B800006D04B224146C9B23800FFF7DBFB05E037
:100B90004A224146C9B23800FFF7D4FBBDF8020033
:100BA000318A88420FD1F07C10F0BF00F074B16838
:100BB000B07CDFF8EC27D2689047002820D1F07C89
:100BC00050F04000F0740021300000F05FFE17E0AC
:100BD000E4B2002C0ED1EDB2002D02D04E208246A0
:100BE00001E04A2082465246D2B24146C9B238009C
:100BF000FFF7A2FB012201214046C0B2FFF7D8FD5A
:100C000005B0BDE8F08F2DE9F04F87B007000C006C
:100C10005FF082400290BE7C16F00F06DFF8C80835
:100C2000F6B2710108440390E4B2002C09D0039895
:100C3000D0F804805FEA98385FEA88485FEA98480D
:100C400001E05FF00008E4B2002C07D00398D0F870
:100C500004905FEA89495FEA994901E05FF0000981
:100C6000388A40F2FF31884202D140F2FF3A02E076
:100C7000388AB0F1010A1AEA0900ADF80200F87CDE
:100C800010F00700012801D1012500E00025E4B2A1
:100C9000002C04D000213000C0B2FFF7FCFCF87C2F
:100CA000C0F34010C0B2002820D0786800281DD0C2
:100CB0007968B868091AADF80410BDF80200BDF8EB
:100CC0000410884203D2BDF80200059002E0BDF88E
:100CD00004000590F86806903868B96808440490E4
:100CE000059A0699049800F067FF04987868002830
:100CF0001BD1F87CC0F30010C0B2002815D0F87CDE
:100D000010F0EF00F874F87C50F02000F874FA68E6
:100D100000213000C0B2FFF7C8FC00233A8A00214E
:100D20003000C0B2FFF723FD7EE0E4B2002C0DD00E
:100D3000BDF80200398A884208D2F87C10F0EF0032
:100D4000F874B86810FA89F0B8604FE0B86810FA23
:100D500088F0B860B8687968884247D27968B8681E
:100D6000091A8B46F87CC0F34010C0B200280DD0A1
:100D7000388A594689B2884201D2388A8346FA684D
:100D800000213000C0B2FFF790FC25E0388A5946B8
:100D900089B288420ED21FFA8BFB42F201008345D2
:100DA00003DB4FF4005083460DE01AEA0B00BBEB67
:100DB000000B08E05846398A80B2884203D2F87C9A
:100DC00050F02000F8743868B96800EB0102002187
:100DD0003000C0B2FFF769FC00231FFA8BFB5A46B4
:100DE00000213000C0B2FFF7C2FC1DE0EDB2002DC3
:100DF00006D02D223100C9B20298FFF7A3FA05E010
:100E000025223100C9B20298FFF79CFAF6B2002EF3
:100E100005D1FA6800213000C0B2FFF746FC00217E
:100E2000380000F033FD1EE0E4B2002C15D1EDB225
:100E3000002D08D001213000C0B2FFF7AEFC2D20FC
:100E40008DF8000002E025208DF800009DF80020BC
:100E50003100C9B20298FFF76FFA01220021300079
:100E6000C0B2FFF7C0FC07B0BDE8F08F70B5050059
:100E7000AE7C16F00F06E87C10F00700012801D1C7
:100E8000012400E00024E4B2002C08D13000C0B2FC
:100E9000FFF7DEFB3000C0B2FFF7C2FB32E0E87CB8
:100EA000C0F38010C0B200280FD0E87C10F0BF0063
:100EB000E874002201213000C0B2FFF779FC002263
:100EC00000213000C0B2FFF78EFCE87C10F0F70084
:100ED000E87400213000C0B2FFF75FFC0121300050
:100EE000C0B2FFF75AFC6F213000C0B2FFF706FB1B
:100EF0006F213000C0B2FFF719FBA87CDFF8A01407
:100F00008968884770BD70B504000D00A67C16F096
:100F10000F0600222900C9B23000C0B2FFF76BFBF8
:100F2000A2680121A07CDFF878341B69984770BD66
:100F300000E100E02DE9F84F06000C005FF0824769
:100F400096F8128018F00F08DFF85C0A0088ADF8F8
:100F50000000DFF894055FFA88F85FEA481100EBBB
:100F60000109E4B2002C06D04146C9B23800FFF7AF
:100F7000FAF9824605E04146C9B23800FFF7E8F9C0
:100F80008246F07C10F00700012801D1012500E025
:100F90000025E4B220014844807A83465FFA8AFA49
:100FA000BAF1020F29D11BF00100002825D0E4B2CC
:100FB00020014844807A10F0FE00E4B22101494447
:100FC00088726846E4B2025D4146C9B23800FFF754
:100FD00094F96846E4B2025D4146C9B23800FFF7B1
:100FE000B1F9E4B2002C01D0012100E0002104227B
:100FF000C9B2300000F063FC4CE0CBF34000C0B25B
:10100000002831D0E4B220014844807A10F0FD007D
:10101000E4B22101494488726846E4B2025D414667
:10102000C9B23800FFF769F96846E4B2025D41468B
:10103000C9B23800FFF786F9EDB2002D2AD0F07C56
:10104000C0F38010C0B2002824D02000F17CC9B2C7
:10105000C909C0B288421DD00022F17CC9B2C909B9
:10106000300000F02CFC15E02100C9B24046C0B2AF
:10107000FFF793FB6846E4B2025D4146C9B238000F
:10108000FFF73BF96846E4B2025D4146C9B2380059
:10109000FFF758F9BDE8F18F840080000010004090
:1010A00038B504000D00E80603D52000FFF7DEFE8A
:1010B0000CE0680604D501212000FFF724FF05E0BD
:1010C000A80603D500212000FFF71DFF31BD38B56C
:1010D00004000D00680604D501212000FFF713FF6E
:1010E0001EE0280704D501212000FFF723FF17E0A9
:1010F000A80704D501212000FFF7A3FC10E0E07C45
:1011000010F0070001280BD1680704D5002120004A
:10111000FFF710FF04E0E80602D52000FFF7A6FE67
:1011200031BD38B504000D00A80604D5002120000B
:10113000FFF7E9FE1EE0680704D500212000FFF755
:10114000F9FE17E0E80704D501212000FFF75BFD59
:1011500010E0E07C10F0070001280BD1280704D52F
:1011600001212000FFF7E6FE04E0E80602D520009A
:10117000FFF77CFE31BD2DE9F84305000E005FF05E
:10118000824796F8129019F00F09280030FA09F0FA
:10119000C00730D55FFA89F95FEA4910384490F802
:1011A000070104005FFA89F95FEA4910384490F8B2
:1011B0000901804618EA0404E4B2002C1BD0F07C3C
:1011C00010F04700012805D12100C9B23000FFF717
:1011D00067FF10E0F07CC0B2C009C0B2002805D0A3
:1011E0002100C9B23000FFF772FF04E02100C9B24C
:1011F0003000FFF796FFBDE8F18370B55FF08245E0
:101200002C8CA4B2002C03D1FFF7E8FB002815D1E9
:1012100000200600F6B21B2E10DA6148F6B2142147
:1012200001FB06F1084410F11401887CFF2803D06B
:10123000A4B22000FFF79FFF761CEBE770BDF8B566
:1012400000200400E4B21B2C1DDA03215448E4B250
:10125000142202FB04F21044143000F017FBFF20AC
:101260004F49E4B2142202FB04F2114481F8260033
:1012700000204B49E4B2142202FB04F2114481F82D
:101280002700641CDEE7A02500262B4F3200290032
:10129000380000F0E5FCF1BD38B55FF0824401256F
:1012A0006846DFF8D4180A68026001212000FFF7C1
:1012B0000AF8002810D102212000FFF786F8002844
:1012C00006D02000FFF776F802212000FEF7F7FF96
:1012D00001212000FFF786F801212000FEF7EFFF33
:1012E000DFF898082E490860DFF890082C4948601C
:1012F000DFF888082A498860DFF880082849C86034
:10130000DFF8780826490861FFF799FFFFF78AF8A8
:1013100004212000FFF766F8DFF864182000FFF7CB
:101320007CF86846EDB2415D51F0010189B22000C0
:10133000FFF76FF8002032BD0C70002038B55FF069
:10134000824403212000FFF72FF8002802D07FF00D
:1013500010001DE02000FFF74EF80500A80705D497
:1013600055F00201C9B22000FFF73CF85020FEF70B
:1013700079FF5120FEF776FF5220FEF773FF5320CE
:10138000FEF770FF40F28D212000FFF707F80020E4
:1013900032BD80B55FF08240FFF735F801BD000037
:1013A000A866002010B5040054F08001C9B25FF0B7
:1013B0008240FFF730F810BD70B504005FF0824541
:1013C000A67C16F00F06E26800213000C0B2FFF7DD
:1013D0006CF90023228A00213000C0B2FFF7C7F960
:1013E000B0223100C9B22800FEF799FF0022002187
:1013F0003000C0B2FFF7F7F910223100C9B228005F
:10140000FEF79AFF70BD2DE9F84F06000F009046D9
:1014100016F00F0916F08004E4B2E4092100C9B205
:101420004846C0B2FFF724FA824617F00305DFF8FA
:1014300054075FFA89F90C2101FB09F100EB010B5C
:101440005FFA89F9B9F1050F02DB7FF0110049E07D
:101450009AF81200FF2802D07FF0130042E0EDB2AC
:10146000002D14D194F00101C9B24846C0B2FFF773
:10147000FFF90100887CFF2802D07FF0130031E0E3
:10148000DBF80000002802D17FF012002AE0E4B26D
:10149000002C02D0DBF8040001E0DBF8000000289B
:1014A0000ED0E4B2002C02D0BBF80A0001E0BBF879
:1014B00008001FFA88F8404502DA7FF0120011E0B8
:1014C000E4B2002C02D0DBF8040001E0DBF80000FD
:1014D000CAF80C00AAF81080681C8AF813008AF871
:1014E00012600020BDE8F28F0C7000202DE9F04161
:1014F00004005FF0824514F00F0614F08007FFB27D
:10150000FF093900C9B23000C0B2FFF7B1F9804617
:10151000F6B2052E03DA98F81200FF2800D137E062
:1015200003223900C9B2404600F0C9F998F8130007
:1015300010F00700012806D10020E4B2610129441F
:1015400081F800011EE0200610D5E4B214F00F006F
:1015500040012844E4B214F00F014901294491F8F4
:10156000001111F08F0180F800110BE0E4B260016E
:10157000284490F8000110F0F800E4B26101294419
:1015800081F80001002088F81300FF2088F812007D
:10159000BDE8F0812DE9F04705005FF0824615F0C7
:1015A0000F0715F08004E4B2E4092100C9B2380045
:1015B000C0B2FFF75DF980463900C9B23000FEF7CE
:1015C000E3FE8246FFB2052F03DA98F81200FF28E7
:1015D00002D17FF01100B3E0DFF8A405FFB279017A
:1015E0000844814698F8130010F00700012845D1FF
:1015F0001AF0770F02D07FF01300A1E0112239001A
:10160000C9B23000FEF7BAFEB8F81000FFF706F9CD
:10161000B8F81010DFF8702512EA8132C0B2000766
:1016200010F0E0401043C9F80400B8F81000FFF7CC
:10163000F5F8B8F810108904890CC0B2000710F052
:10164000E0400843C9F81400002200213800C0B26D
:10165000FFF7C9F8002201213800C0B2FFF7A8F84F
:1016600000213800C0B2FFF798F801213800C0B25D
:10167000FFF793F84046FFF79FFE60E0E4B2002CCE
:101680002ED01AF0700F02D07FF0130058E098F8B7
:101690001300000110F0700050EA0A0A5246D2B25C
:1016A0003900C9B23000FEF769FEB8F81000FFF744
:1016B000B5F8B8F810108904890CC0B2000710F012
:1016C000E0400843C9F81400002201213800C0B2EC
:1016D000FFF76EF801213800C0B2FFF75EF82EE088
:1016E0001AF0070F02D07FF0130029E098F81300DA
:1016F00010F0070050EA0A0A5246D2B23900C9B2C5
:101700003000FEF73BFEB8F81000FFF787F8B8F896
:101710001010DFF8742412EA8132C0B2000710F012
:10172000E0401043C9F80400002200213800C0B294
:10173000FFF759F800213800C0B2FFF72EF800205B
:10174000BDE8F08710B50400A07C10F00F00C9B20E
:10175000C0B2FEF720FF10BD70B504000D00A67CDE
:1017600016F00F0601222900C9B23000C0B2FEF700
:10177000F7FE2021A9403000C0B2FEF7CBFEE07C8E
:1017800050F00800E074002070BDF8B505000E00B0
:10179000AF7C17F00F073100C9B23800C0B2FEF7B6
:1017A000FAFE0400E4B2002C01D1002039E000224E
:1017B0003100C9B23800C0B2FEF7D2FE2021B140DC
:1017C0003800C0B2FEF7B2FE3100C9B23800C0B274
:1017D000FEF7F4FE00280CD03100C9B23800C0B2C8
:1017E000FEF7FFFE00223100C9B23800C0B2FEF79A
:1017F00037FFE87C10F0070001280DD13900C9B28D
:101800005FF08240FEF785FD10F0300F08D1E87CD4
:1018100010F0F700E87403E0E87C10F0F700E874DB
:101820000020F2BD2DE9F84305000C0015F00F066D
:1018300015F08007FFB2FF093900C9B23000C0B20D
:10184000FFF716F88046F6B2052E02DB7FF0110096
:101850001AE0E4B2012C06D13900C9B24046FFF7C4
:101860007BFF81460FE0E4B2002C06D13900C9B2FB
:101870004046FFF78AFF814605E03900C9B240467D
:10188000FFF760FF81464846BDE8F28338B50400A3
:101890000D00A07CFF2805D0E07CC0F38010C0B212
:1018A000002800D10AE0E07C10F0BF00E074A268DC
:1018B0002900A07CDFF8D4321B69984731BDF8B508
:1018C00005000C001600AF7C17F00F07DFF8C00210
:1018D0000088ADF80000A87CFF2805D0E87CC0F3A4
:1018E0008010C0B2002800D121E0E4B2002C06D064
:1018F000002201213800C0B2FEF75AFF05E00022A5
:1019000000213800C0B2FEF76EFF6846E4B2015D08
:101910003800C0B2FEF7F2FD6846E4B2015D38005F
:10192000C0B2FEF703FE31002800FFF7AFFFF1BDA4
:101930002DE9F04705000C0015F00F069048F6B2AF
:10194000710100EB0107D7F80080D7F804905FEA37
:1019500089495FEA9949F6B2052E01DA002C02D1D5
:101960007FF011001EE03000C0B2FEF7EBFD002852
:1019700002D17FF0120015E03000C0B2FEF759FE30
:10198000002801D100200DE05FF0080A52464146D0
:10199000200000F011F93000C0B2FEF759FE1FFA26
:1019A00089F94846BDE8F0875E1C00002DE9F04744
:1019B00082B005002E7A16F00F062C7A14F08004FF
:1019C000E4B2E4092100C9B23000C0B2FEF750FF12
:1019D0000700388A40F2FF31884202D140F2FF38D6
:1019E00002E0388AB0F1010868681FFA88F810EA46
:1019F000080F02D05FF0010901E05FF000095FF01D
:101A0000000AF6B2052E02DB7FF011006DE02868B7
:101A1000B0F1005F10D32968686841185D488142C1
:101A20000AD2287810F0030F06D1E4B2002C0BD1B3
:101A30006868398A884207D2F868002802D17FF0A6
:101A4000120052E00120824699F001002043C0B20A
:101A5000002805D1F868002802D17FF0110044E089
:101A6000F87CC0F3C000C0B2002801D002203CE0E6
:101A7000684600F028F9F87CC0F38010C0B2002856
:101A800004D0684600F026F901202EE0F87C50F0E2
:101A90004000F874684600F01DF9286838606868EE
:101AA00078600020B860F87C10F07F0050EAC41025
:101AB000F874F87C6AF34510F874687A002802D04C
:101AC00099F0010000E00020F97C60F30411F97442
:101AD000E4B2002C04D000213800FEF7B2FF03E08E
:101AE00000213800FFF78FF80020BDE8F687F8B531
:101AF000040014F00F0514F08006F6B2F609310068
:101B0000C9B22800C0B2FEF7B3FE0700EDB2052D42
:101B100005DA02223100C9B23800FFF7D0FEF1BD6C
:101B20000A00002A01D1154A00E00A00C0B20128CB
:101B300002D1164B5A6004E0C0B2002801D1134B09
:101B40001A6070470A00002A01D10C4A00E00A001E
:101B5000C0B2002802D10D4B9A600AE0C0B2012841
:101B600002D10A4BDA6004E0C0B2022801D1074B6F
:101B70001A6170470000000008D500001F04000033
:101B80000C70002008C9000000C0FF0FA8660020EC
:101B90004A3D00000020032080B5FFF72EFB01BD69
:101BA00080B5FFF72AFB01BD80B5FFF726FB01BD1D
:101BB00080B5FFF722FB01BD62B38B0708D0521E30
:101BC00011F8013B00F8013B00F024808B07F6D1AF
:101BD000830740F0208000BF103A07D330B4B1E84B
:101BE0003810103AA0E83810F9D230BC530724BF9F
:101BF000B1E80810A0E8081044BF51F8043B40F8D1
:101C0000043BD20724BF31F8022B20F8022B44BF3B
:101C10000B7803707047121F17D35B0009D151F87E
:101C2000043B20F8023B1B0C121F20F8023BF6D2AB
:101C30000BE051F8043B00F8013B1B0A20F8023B83
:101C40001B0C121F00F8013BF3D238BF121D521EAD
:101C500024BF11F8013B00F8013BF8D87047040895
:101C600062F30F2262F31F42401810F0030308D002
:101C7000C91A1FD3DB0748BF00F8012D28BF20F881
:101C8000022D130030B414461546103928BF20E940
:101C90003C00FAD8490728BF20E90C0048BF40F8AB
:101CA000042D890028BF20F8022D48BF00F8012D1F
:101CB00030BC7047C91818BF00F8012DCB0728BFEA
:101CC00000F8012D7047EFF31081016072B6BFF389
:101CD0005F8F7047BFF35F8F016881F31088704793
:101CE000C9B2802303FB01F303449A607047C9B271
:101CF0008022514340587047C9B2802303FB01F34F
:101D000003445A607047C9B2802303FB01F30344C4
:101D10009A617047C9B280225143084400697047F4
:101D2000C9B2802303FB01F303445A617047C9B26F
:101D3000802303FB01F30344DA617047C9B28022B8
:101D400051430844006A704730B4C9B2802404FB90
:101D500001F40444D2B2144494F83040250015F044
:101D6000F00513F00F042543C9B2802404FB01F4ED
:101D70000444D2B2144484F8305030BC704730B4BC
:101D8000C9B2802404FB01F40444D2B2144494F890
:101D90003040250015F00F05DBB21C012543C9B208
:101DA000802404FB01F40444D2B2144484F830507B
:101DB00030BC704730B4C9B2802505FB01F505443D
:101DC000D2B2154495F840502C0014F0FE041C4388
:101DD000C9B2802505FB01F50544D2B2154485F84A
:101DE000404030BC704710B4C9B2802303FB01F3FC
:101DF0000344D2B21344C9B2802404FB01F4044466
:101E0000D2B2144494F8404054F0040483F84040A3
:101E100010BC704710B4C9B2802303FB01F3034424
:101E2000D2B21344C9B2802404FB01F40444D2B2F8
:101E3000144494F8404014F0FB0483F8404010BC74
:101E40007047C9B2802303FB01F303449A627047D1
:101E500070B504000D001600F6B2002E03D0022E5D
:101E600037D01BD350E02A002100C9B2DFF8640D3F
:101E7000FFF742FFAAB252F080422100C9B2DFF858
:101E8000540DFFF7DEFF2A00120C52F040422100F1
:101E9000C9B2DFF8400DFFF7D4FF35E02A0021007A
:101EA000C9B2DFF8300DFFF727FF2A00C4F20202A3
:101EB0002100C9B2DFF81C0DFFF7C3FFDFF8A42A29
:101EC00052EA15422100C9B2DFF8080DFFF7B9FF49
:101ED0001AE02A002100C9B2DFF8F80CFFF700FF72
:101EE000AAB252F080422100C9B2DFF8E80CFFF735
:101EF000A8FF2A00120C52F040422100C9B2DFF8BC
:101F0000D40CFFF79EFFFFE770BD70B505000E0013
:101F10001400E4B2002C07D032002900C9B2DFF867
:101F2000B40CFFF7F0FE06E032002900C9B2DFF87A
:101F3000A40CFFF7F5FE70BD38B504000D002A00B3
:101F40002100C9B2DFF88C0CFFF7F1FE31BD70B58E
:101F500082B004006846FFF7B6FE2100C9B2DFF880
:101F6000740CFFF7C4FE06002100C9B2DFF8640C50
:101F7000FFF7E4FEB04305002100C9B2DFF8540CBE
:101F8000FFF7C8FE3040284305006846FFF7A2FE71
:101F9000280076BD70B504000D001600F6B2002EC4
:101FA00003D0022E23D009D33AE02A00D2B2210076
:101FB000C9B2DFF8200CFFF72DFF31E00122AA4063
:101FC0002100C9B2DFF80C0CFFF796FE2A00D2B24E
:101FD0002100C9B2DFF8FC0BFFF705FF0122AA4080
:101FE0002100C9B2DFF8EC0BFFF78DFE18E00122EB
:101FF000AA402100C9B2DFF8DC0BFFF77DFE2A0002
:10200000D2B22100C9B2DFF8CC0BFFF7ECFE0122FF
:10201000AA402100C9B2DFF8BC0BFFF781FEFFE741
:1020200070BDF8B504000D002600760914F01F07F6
:1020300015F1010F09D100233A00D2B23100C9B223
:10204000DFF8900BFFF7B6FE21E001233A00D2B291
:102050003100C9B2DFF87C0BFFF7ACFEF8070BD5F7
:102060002B00DBB23A00D2B252083100C9B2DFF81D
:10207000640BFFF784FE0AE02B00DBB23A00D2B219
:1020800052083100C9B2DFF84C0BFFF75DFEF1BD1D
:1020900038B504000D002A00D2B214F01F01200050
:1020A000C0B24009FFF776FF31BD38B504000D001E
:1020B00029002000FFF7B5FF31BD38B504000D0041
:1020C0002A00D2B2012114F01F0081402000C0B2CA
:1020D0004009FFF7BDFE31BD38B504000D002A00F0
:1020E000D2B2012114F01F0081402000C0B240098B
:1020F000FFF70BFF31BD10B50400012114F01F00E4
:1021000081402000C0B24009FFF716FF10BD10B596
:1021100004002000C0B24009FFF719FF14F01F04AB
:10212000E04010F0010010BD12B583B004000020A3
:102130008DF808005FF4803001900120009002AB20
:10214000012203A92000C0B201F020FB9DF8080085
:1021500004B010BD12B583B004000020ADF8080033
:102160005FF4803001900220009002AB012203A9AD
:102170002000C0B201F00AFBBDF8080004B010BD99
:1021800070B584B004000D0016008DF808508DF86D
:1021900009605FF48030019000200090002302224B
:1021A00002A92000C0B201F0F1FA7FBDF8B5040029
:1021B0000D0016002900C9B22000C0B2FFF7B4FF1D
:1021C000070056EA0702D2B22900C9B22000C0B205
:1021D000FFF7D6FFF1BDF8B504000D001600290089
:1021E000C9B22000C0B2FFF79FFF070037EA06021E
:1021F000D2B22900C9B22000C0B2FFF7C1FFF1BDC1
:102200002DE9F04104000D0016001F002900C9B29D
:102210002000C0B2FFF788FF804638EA060216EABF
:1022200007000243D2B22900C9B22000C0B2FFF7B2
:10223000A7FFBDE8F08110B5DFF85C1A002001F0BF
:1022400073FD7B217520FFF76FFFC0B20200DFF83E
:102250004C1A002001F068FDE9217520FFF764FFAA
:10226000C0B2C00810F001000200DFF8341A0020EC
:1022700001F05AFDFC217520FFF756FFC0B210F0A7
:1022800005000200DFF81C1A002001F04DFD6E2150
:102290007520FFF75FFF040050217520FFF75AFFFC
:1022A000A4B240F28E614C434FF47A7194FBF1F387
:1022B00080B24FF4867148434FF47A7190FBF1F28B
:1022C000DFF8741A002001F02FFD54217520FFF76C
:1022D00041FF040062217520FFF73CFFA4B240F2E9
:1022E0009F214C434FF47A7194FBF1F380B240F29A
:1022F0004B6148434FF47A7190FBF1F2DFF83C1ADE
:10230000002001F011FD56217520FFF723FF040086
:102310005E217520FFF71EFFA4B240F29F214C43BF
:102320004FF47A7194FBF1F380B240F24B61484371
:102330004FF47A7190FBF1F2DFF8041A002001F0FB
:10234000F3FC58217520FFF705FF0400602175207C
:10235000FFF700FFA4B240F29F214C434FF47A7183
:1023600094FBF1F380B240F24B6148434FF47A7131
:1023700090FBF1F2DFF8D01A002001F0D5FC10BD7F
:1023800080B500217420FFF7CFFEC0B20200DFF855
:10239000B419002001F0C8FC03217420FFF7C4FE2B
:1023A000C0B20200DFF8A019002001F0BDFC0F212F
:1023B0007420FFF7B9FEC0B20200DFF890190020C8
:1023C00001F0B2FC25217420FFF7AEFEC0B202007E
:1023D000DFF87C19002001F0A7FC31217420FFF701
:1023E000A3FEC0B20200DFF86C19002001F09CFCD3
:1023F00033217420FFF798FEC0B20200DFF85819AD
:10240000002001F091FC84217420FFF78DFEC0B202
:102410000200DFF84819002001F086FC1F2175201A
:10242000FFF782FEC0B20200DFF83419002001F08D
:102430007BFC10217420FFF777FEC0B20200DFF8AA
:102440002419002001F070FC13217420FFF76CFEAA
:10245000C0B20200DFF81019002001F065FC1C2159
:102460007420FFF761FEC0B20200DFF800190020FF
:1024700001F05AFC14217420FFF756FEC0B202008E
:10248000DFF8EC18002001F04FFC17217420FFF753
:102490004BFEC0B20200DFF8DC18002001F044FC63
:1024A0001D217420FFF740FEC0B20200DFF8C818FB
:1024B000002001F039FC18217420FFF735FEC0B26E
:1024C0000200DFF8B818002001F02EFC1B21742058
:1024D000FFF72AFEC0B20200DFF87019002001F0F9
:1024E00023FC1E217420FFF71FFEC0B20200DFF89C
:1024F0006019002001F018FC24217420FFF714FE5D
:10250000C0B20200DFF84C19002001F00DFCF521EB
:102510007420FFF709FEC0B20200DFF83C1900206A
:1025200001F002FC0B217420FFF7FEFDC0B2020097
:10253000DFF82819002001F0F7FB0C217420FFF7C9
:10254000F3FDC0B20200DFF81819002001F0ECFB27
:102550000D217420FFF7E8FDC0B20200DFF8041976
:10256000002001F0E1FB26217420FFF7DDFDC0B261
:102570000200DFF8F418002001F0D6FB27217420B8
:10258000FFF7D2FDC0B20200DFF8E018002001F032
:10259000CBFB28217420FFF7C7FDC0B20200DFF893
:1025A000D018002001F0C0FB29217420FFF7BCFDEA
:1025B000C0B20200DFF8BC18002001F0B5FB2B21EF
:1025C0007420FFF7B1FDC0B20200DFF8AC180020A4
:1025D00001F0AAFB6E217420FFF7A6FDC0B2020035
:1025E000DFF81019002001F09FFB6F217420FFF726
:1025F0009BFDC0B20200DFF80819002001F094FB37
:102600003A217520FFF790FDC0B20200DFF8F41800
:10261000002001F089FB3B217520FFF785FDC0B24A
:102620000200DFF8E418002001F07EFB4221752053
:10263000FFF77AFDC0B20200DFF8D018002001F0E9
:1026400073FB41217420FFF76FFDC0B20200DFF879
:10265000C018002001F068FB44217420FFF764FDDE
:10266000C0B20200DFF8AC18002001F05DFB45218C
:102670007420FFF759FDC0B20200DFF89C1800205B
:1026800001F052FB49217420FFF74EFDC0B2020059
:10269000DFF88818002001F047FB4A217420FFF77B
:1026A00043FDC0B20200DFF87818002001F03CFBC7
:1026B0004B217420FFF738FDC0B20200DFF8281963
:1026C000002001F031FB4C217420FFF72DFDC0B23A
:1026D0000200DFF81819002001F026FB8121742088
:1026E000FFF722FDC0B20200DFF80419002001F05C
:1026F0001BFB85217420FFF717FDC0B20200DFF835
:10270000F418002001F010FB86217420FFF70CFD67
:10271000C0B20200DFF8E018002001F005FBAA219A
:102720007420FFF701FDC0B20200DFF80C19002091
:1027300001F0FAFAAB217420FFF7F6FCC0B20200F8
:10274000DFF8F818002001F0EFFA7B217520FFF781
:10275000EBFCC0B20200DFF8E818002001F0E4FA58
:1027600087217520FFF7E0FCC0B20200DFF8D41823
:10277000002001F0D9FA86217520FFF7D5FCC0B200
:102780000200DFF8C418002001F0CEFA9021752075
:10279000FFF7CAFCC0B20200DFF8B018002001F059
:1027A000C3FA91217520FFF7BFFCC0B20200DFF829
:1027B000A018002001F0B8FA92217520FFF7B4FCB0
:1027C000C0B20200DFF88C18002001F0ADFA9721AA
:1027D0007520FFF7A9FCC0B20200DFF87C180020CA
:1027E00001F0A2FAC4217520FFF79EFCC0B20200DE
:1027F000DFF86818002001F097FAC5217520FFF76F
:1028000093FCC0B20200DFF85818002001F08CFAE7
:10281000CD217520FFF788FCC0B20200DFF8441814
:10282000002001F081FAD0217520FFF77DFCC0B2B5
:102830000200DFF83418002001F076FAD421752068
:10284000FFF772FCC0B20200DFF82018002001F090
:102850006BFAE8217520FFF767FCC0B20200DFF8D1
:102860001018002001F060FAE9217520FFF75CFCE8
:10287000C0B20200DFF8FC17002001F055FAB121C8
:102880007520FFF751FCC0B20200DFF8EC17002002
:1028900001F04AFAC2217520FFF746FCC0B20200DF
:1028A000DFF8D817002001F03FFAC3217520FFF7A9
:1028B0003BFCC0B20200DFF8C817002001F034FA78
:1028C000E1217520FFF730FCC0B20200DFF8B41739
:1028D000002001F029FAEB217520FFF725FCC0B29A
:1028E0000200DFF8A417002001F01EFAF221752083
:1028F000FFF71AFCC0B20200DFF89017002001F0C9
:1029000013FAF3217520FFF70FFCC0B20200DFF8C5
:102910008017002001F008FAF4217520FFF704FC6D
:10292000C0B20200DFF86C17002001F0FDF9FB21B6
:102930007520FFF7F9FBC0B20200DFF85C1700203A
:1029400001F0F2F9FC217520FFF7EEFBC0B20200A6
:10295000DFF84817002001F0E7F95FA1002001F03F
:10296000E3F901BD000002C010B50024022C0FDA0B
:10297000C82001F053FB01214020FFF7ADFBC82028
:1029800001F04CFB00214020FFF7A6FB641CEDE7A3
:1029900010BD80B501214020FFF79EFB42F6F820D4
:1029A00001F03CFB00214020FFF796FB01BD70B514
:1029B000002401211620FFF780FB5FF0FF31162075
:1029C000FFF773FB01211620FFF762FB012117209F
:1029D000FFF773FB5FF0FF311720FFF766FB012164
:1029E0001720FFF755FB642001F018FB0025E4B227
:1029F000002C4FD1032D4DDA012D0BD1DFF84419F6
:102A0000002001F091F9FFF7AFFF4FF4FA6001F0F9
:102A100005FB0CE0022D0AD1DFF86419002001F05B
:102A200083F9FFF7B6FF4FF4FA6001F0F7FA0026DA
:102A3000322E25DA2920FFF76AFB002820D1192041
:102A400096FBF0F100FB1160002809D1DFF8341982
:102A5000002001F069F901214020FFF73DFB0AE069
:102A6000192096FBF0F100FB1160052803D100212D
:102A70004020FFF731FB642001F0D0FA761CD7E745
:102A80004FF4FA7001F0CAFA2920FFF740FB040066
:102A90006D1CACE7E4B2002C02D0DFF8EC2801E0BA
:102AA000DFF8E828DFF8E818002001F03DF9002100
:102AB0001620FFF7EDFADFF8DC181620FFF7F5FA1D
:102AC00000211720FFF7E4FADFF8CC181720FFF7F2
:102AD000ECFA2000C0B270BD0A00000080B5802270
:102AE00086217520FFF762FB01BD10B50400E4B23A
:102AF000002C05D0042203217420FFF757FB0AE0C5
:102B000003230F2200217420FFF77AFB0422032104
:102B10007420FFF760FB10BD10B50400E4B2002C78
:102B200014D0032210217420FFF740FB032214214C
:102B30007420FFF73BFB032213217420FFF74BFBAC
:102B4000032217217420FFF746FB09E0032210211E
:102B50007420FFF740FB032214217420FFF73BFB96
:102B600010BD80B55E217520FFF7F4FA40F24B618D
:102B700048434FF47A7190FBF1F002BD80B56021BB
:102B80007520FFF7E7FA40F24B6148434FF47A7142
:102B900090FBF1F002BD38B5FFF7E3FF0400FFF74B
:102BA000EDFF05002B002200DFF8F017002001F0F8
:102BB000BBF840F6C510844201D3012000E000209C
:102BC00040F6C5118D4201D3022100E000210843E7
:102BD000C0B232BD0080004138B500240025052D6B
:102BE0000EDAFFF7D8FF0400E4B2032C02D1200074
:102BF000C0B207E04FF47A7001F010FA6D1CEEE7F6
:102C00002000C0B232BD80B57B217520FFF78CFA61
:102C1000C0B2642800DB6420C0B202BD80B5502180
:102C20007520FFF797FA4FF4867148434FF47A7195
:102C300090FBF1F002BD80B5E9217520FFF774FA31
:102C4000C0B2C00810F0010002BD10B50120FFF7AE
:102C50004CFF0020FFF760FF4FF4FA7001F0DEF93F
:102C600000240A2C0CDAFFF739FF4FF47A7001F0D8
:102C7000D5F92920FFF74BFA002801D0641CF0E7B2
:102C800010BD80B5002301221021DFF81407006871
:102C900001F03AFE01BD000078D4000010D300001E
:102CA00028D3000040D3000010B50400DFF8F4067C
:102CB000007800283ED114F0010191F00101C9B261
:102CC0002520FFF709FA2100C9B2490811F00101D6
:102CD00091F00101C9B24520FFF7FEF92100C9B208
:102CE000890811F0010191F00101C9B22620FFF716
:102CF000F3F92100C9B2C90811F0010191F00101F5
:102D0000C9B24620FFF7E8F92100C9B2090911F05C
:102D1000010191F00101C9B22420FFF7DDF9210082
:102D2000C9B2490911F0010191F00101C9B227208E
:102D3000FFF7D2F910BD000000CB00001CCB000053
:102D400038CB000070CB00008CCB0000A8CB00007B
:102D5000C4CB0000E0CB0000FCCB000018CC00008E
:102D600034CC000050CC00006CCC000088CC0000BB
:102D7000A4CC0000C0CC0000DCCC0000F8CC0000EB
:102D800038B504000D00E4B2002C3CD0EDB2642D47
:102D900019DADFF810060078002807D10121262073
:102DA000FFF79AF901214620FFF796F901F01EFA84
:102DB00002006420009000230221DFF8EC05006887
:102DC00001F075FF3EE06420009000230022032103
:102DD000DFF8D405006801F06AFFDFF8C805007865
:102DE00000282FD101212520FFF776F90121452068
:102DF000FFF772F900212620FFF76EF90021462027
:102E0000FFF76AF91EE064200090002300220321EE
:102E1000DFF89405006801F04AFFDFF888050078C4
:102E200000280FD101212520FFF756F90121452067
:102E3000FFF752F901212620FFF74EF90121462024
:102E4000FFF74AF931BD000054CB000014CD00005B
:102E500030CD00004CCD000068CD000084CD0000D6
:102E6000A0CD0000BCCD0000D8CD0000F4CD000006
:102E700010CE00002CCE000048CE000038B5050072
:102E80000C00E4B26400E8070BD501212520FFF710
:102E900023F901212620FFF71FF901212420FFF744
:102EA0001BF9A8070BD501214520FFF715F90121D2
:102EB0004620FFF711F901212720FFF70DF94FF404
:102EC000FA7001F0ABF8E4B2002C12D0E80704D598
:102ED00014F001012520FFF7FFF8A80704D514F02E
:102EE00001014520FFF7F8F8C82001F097F8641EAB
:102EF000E9E731BD64CE0000DFF8B0040078704728
:102F000080CE00009CCE0000B8CE0000D4CE0000E1
:102F1000F0CE00000CCF000028CF000044CF00000E
:102F200060CF000038B5040000212420FFF7D4F85A
:102F300000212720FFF7D0F8E4B2002C0CD10025A7
:102F4000C82D09DA642001F069F84F20FFF7DFF897
:102F5000002801D06D1CF3E740F6B83001F05EF8B0
:102F600000214D20FFF7B8F8642001F057F8FFF773
:102F70006CFE00F095F831BD00B583B0FFF743FE5D
:102F80000190FFF758FE00900198DFF824140968BB
:102F900088420BD0012002F099F8042201A9C0B2A6
:102FA00002F08DF90198DFF8081408600098DFF846
:102FB00004140968884216D0022002F087F804221F
:102FC0006946C0B202F07BF90098DFF8E8130860A8
:102FD0000098002801D0012000E000200199C9B22A
:102FE000C0B2FFF7CDFE07BD7CCF000098CF000038
:102FF000B4CF0000D0CF0000ECCF000080B54F2050
:10300000FFF785F8002802D10120FFF78BFF01BDF3
:1030100080B52920FFF77BF8002801D100F040F8A7
:10302000FFF79FFD40F6C411884203D2FFF70DFE63
:1030300000F036F801BD000008D0000024D00000E8
:1030400040D000005CD0000078D0000094D0000098
:10305000B0D00000CCD00000E8D0000004D10000C7
:1030600020D100003CD1000058D1000074D10000F4
:1030700090D10000ACD10000C8D10000E4D1000024
:1030800000D200001CD2000038D2000054D2000050
:1030900070D200008CD20000A8D20000C4D2000080
:1030A00080B5802080F31188BFF34F8FBFF36F8FFF
:1030B00002F002FF02F0D6FFF3E780B501212420E1
:1030C000FFF70AF801212720FFF706F8FFF758F964
:1030D000FFF7B1F80020FFF71FFDFFF7ACFD002858
:1030E00014D101212620FEF7F7FF01214620FEF72B
:1030F000F3FF01212520FEF7EFFF01214520FEF718
:10310000EBFFFFF7A2FDFFF7CBFF22E0FFF77BFD10
:1031100064280EDA01212620FEF7DEFF0121462079
:10312000FEF7DAFF2520FEF7E6FF4520FEF7E3FF76
:103130000FE001212520FEF7CFFF01214520FEF7FA
:10314000CBFF00212620FEF7C7FF00214620FEF717
:10315000C3FF4FF47A7000F061FFBEE710B586B090
:103160000020954908705FF0FF30914908605FF0DA
:10317000FF30904908604F20FEF7C9FF8F49087063
:103180004FF4FA61012001F079FB0400002C05D115
:10319000FFF7F2FEFFF73CFFFFF730FF14F0300FB0
:1031A00005D02000000910F00100FFF7BBFE60070A
:1031B00007D501212420FEF78FFF01212720FEF7EC
:1031C0008BFFE0030DD5FFF71EFD0490012001F0F9
:1031D0007DFF042204A9C0B202F071F8049874497A
:1031E0000860A0030DD5FFF726FD0390022001F033
:1031F0006DFF042203A9C0B202F061F803986D4983
:103200000860600321D550217520FEF7A3FF4FF41D
:10321000867148434FF47A71B0FBF1F0ADF80800C5
:103220006E217520FEF796FF40F28E6148434FF401
:103230007A71B0FBF1F0ADF80A00042001F046FF0E
:10324000042202A9C0B202F03AF8200321D55E217F
:103250007520FEF77FFF40F24B6148434FF47A71CF
:10326000B0FBF1F0ADF8040056217520FEF772FFB7
:1032700040F29F2148434FF47A71B0FBF1F0ADF872
:103280000600052001F022FF042201A9C0B202F0CD
:1032900016F8E0027FF574AF60217520FEF75AFF43
:1032A00040F24B6148434FF47A71B0FBF1F0ADF856
:1032B000000058217520FEF74DFF40F29F21484342
:1032C0004FF47A71B0FBF1F0ADF80200062001F086
:1032D000FDFE04226946C0B201F0F1FF50E710B5CF
:1032E0000120FFF719FCFFF777FC0400FEF7A3FFAE
:1032F000FFF746F8E4B2032C09D00421E4B2E0431E
:10330000C0B2FFF7BBFDE00701D4FFF7C9FE002103
:103310002420FEF7E1FE00212720FEF7DDFE01213B
:103320004D20FEF7D9FE10BD10B504001D480078F1
:10333000002805D12520FEF7DEFE4520FEF7DBFE46
:1033400010BD0000ACD3000080B51D4800900023E4
:1033500001224FF47A71002001F06BFC12490860E1
:10336000FFF725FB002805D103210320FFF786FD89
:10337000FFF796FE00F0C4F90020FFF7B6FB01BD91
:10338000C0D3000058D30000D8D40000E0D400001F
:10339000D4D300000200160002001700A8CA0000E3
:1033A00068740020D174002078740020D27400204A
:1033B0007074002074740020D3740020D474002032
:1033C00029330000C9B200EB8103C3F880207047A5
:1033D000816951F4806181617047C9B2802303FB28
:1033E00001F303445A607047C9B2802303FB01F321
:1033F00003449A617047C9B2802303FB01F303447D
:103400005A61704730B4C9B2802404FB01F404440B
:10341000D2B2144494F83040250015F0F00513F0B2
:103420000F042543C9B2802404FB01F40444D2B242
:10343000144484F8305030BC704730B4C9B2802492
:1034400004FB01F40444D2B2144494F83040250043
:1034500015F00F05DBB21C012543C9B2802404FB23
:1034600001F40444D2B2144484F8305030BC7047A4
:1034700030B4C9B2802505FB01F50544D2B215442C
:1034800095F840502C0014F0FE041C43C9B280256E
:1034900005FB01F50544D2B2154485F8404030BC27
:1034A000704710B4C9B2802303FB01F30344D2B2C6
:1034B0001344C9B2802404FB01F40444D2B214447E
:1034C00094F8404054F0040483F8404010BC704726
:1034D00010B4C9B2802303FB01F30344D2B21344F6
:1034E000C9B2802404FB01F40444D2B2144494F819
:1034F000404014F0FB0483F8404010BC7047C269A0
:103500000A42FCD17047007E70470176704710B5C3
:103510000400206850F00200206003212000FFF723
:10352000EEFF10BD38B504000D002560032120001A
:10353000FFF7E5FF31BD10B50400606850F480204E
:10354000606004212000FFF7DAFF10BD10B5040011
:10355000606830F48020606004212000FFF7CFFF16
:1035600010BD38B504000D006068290411F4403125
:103570000843606004212000FFF7C1FF31BD38B56A
:1035800004000D00656004212000FFF7B8FF31BD85
:10359000C160704738B504000D0065620421200049
:1035A000FFF7ADFF31BD38B504000D00A562042161
:1035B0002000FFF7A4FF31BD10B504000421200056
:1035C000FFF79DFFA06A10BD10B504000421200084
:1035D000FFF795FF608BC0F3011080B210BD38B5C6
:1035E00004000D00658304212000FFF788FF31BD32
:1035F00070B504000D001600F6B2002E03D0022EA6
:103600001FD008D333E02A00D2B22100C9B2A548A6
:10361000FFF75EFF2BE00122AA402100C9B2A148BA
:10362000FFF7DBFE2A00D2B22100C9B29D48FFF7A6
:1036300038FF0122AA402100C9B29A48FFF7D4FE00
:1036400015E00122AA402100C9B29648FFF7C5FE45
:103650002A00D2B22100C9B29248FFF722FF01220C
:10366000AA402100C9B28F48FFF7C5FEFFE770BD31
:10367000F8B504000D002600760914F01F0715F1B7
:10368000010F08D100233A00D2B23100C9B28548F7
:10369000FFF7EEFE1EE001233A00D2B23100C9B2BC
:1036A0008048FFF7E5FEF8070AD52B00DBB23A00A9
:1036B000D2B252083100C9B27A48FFF7BEFE09E023
:1036C0002B00DBB23A00D2B252083100C9B27548C1
:1036D000FFF798FEF1BD38B504000D002A00D2B204
:1036E00014F01F012000C0B24009FFF781FF31BD77
:1036F00038B504000D0029002000FFF7B9FF31BDE7
:1037000010B5694C412218216848FFF75BFE43223F
:1037100003216648FFF756FE6548FFF759FE002172
:103720001620FFF7D8FF63491620FFF7E1FF0021BD
:103730001720FFF7D0FF60491720FFF7D9FF1521A9
:103740002000FFF7EFFE01212000FFF7D8FE5B49C4
:103750002000FFF7E7FE4FF480712000FFF70FFF16
:10376000E5212000FFF714FF2000FFF7D0FE200026
:10377000FFF72AFF012804D010212000FFF72FFFB8
:10378000F5E703212000FFF7ECFE10BD2DE9F14F16
:10379000894690461E000A9DDDF82CB00027DFF810
:1037A00008A15046FFF710FF012803D01021504612
:1037B000FFF715FF5046FFF7C9FE4FF480715046E2
:1037C000FFF7DDFE83215046FFF79FFEB9F1000FA2
:1037D00028D05FFA88F8B8F1000F23D09DF80010C8
:1037E000490011F0FE015046FFF7D4FE4046B0F10B
:1037F0000108C0B2002813D05C465046FFF783FE94
:10380000C00705D4641E002CF7D10020070037E064
:1038100099F800105046FFF7C6FE19F10109E5E7D7
:1038200001200700002E2BD0EDB2002D28D09DF8EE
:103830000010490011F0FE0151F001015046FFF760
:10384000A9FE2800451EC0B2002817D05C4650468D
:10385000FFF759FE800705D4641E002CF7D1002025
:1038600007000DE0EDB2002D02D15046FFF763FED8
:103870005046FFF7A1FE3070761CE2E701200700FA
:1038800003215046FFF76DFE022000F0C7FBFFB298
:10389000002F03D10A49002000F046FA3800C0B2D8
:1038A000BDE8F28F0080004100400141001C004053
:1038B000000800400200160002001700140020005B
:1038C00010D4000070B504000D00A0680600606808
:1038D000711C884206D320688555701CA060E06882
:1038E000401CE060A068616888420DD1A268216830
:1038F000206902F0C0FCA168884203D05FF0FF306D
:10390000E06001E00020A06070BD2DE9F04F83B0C1
:103910000700884691461E000C9CC2460120050007
:1039200001208346CA4504D3BAFBF9FA1BF1010B07
:10393000F8E7B34500D2B3460D98C0071AD4002C5F
:1039400018D00D98800705D5002E03D130208DF8B2
:10395000000002E020208DF80000002C0AD0A345D2
:1039600008D2641E9DF800103800FFF7ABFFF8681E
:103970000028F2D5F868002830D4022E01D3761E34
:1039800005E0B8FBF5F001900198484502D309FB2A
:1039900005F5F2E7B8FBF5F00190019805FB1088FA
:1039A0000F480199415C3800FFF78CFFF868002848
:1039B00003D4B5FBF9F5002DECD10D98C0070DD55A
:1039C000002C0BD0002C09D0A34507D2641E202167
:1039D0003800FFF777FFF8680028F3D5BDE8F78FC8
:1039E00030D400002DE9F04F83B006000F00904660
:1039F0001D000C9CDDF83490002F02D5D7F1000B90
:103A000000E0BB4601208246C34504DB9BFBF8FB7C
:103A10001AF1010AF8E7AA4500D2AA46002C05D0FF
:103A2000002F02D45FEA497000D5641E5FEA8970F6
:103A300001D5002D10D05FEAC9700DD4002C0BD039
:103A4000002C09D0A24507D2641E20213000FFF7C8
:103A500039FFF0680028F3D5F068002831D4002F32
:103A600005D57F422D213000FFF72CFF06E05FEAED
:103A7000497003D52B213000FFF724FFF0680028A0
:103A80001FD419F0030002280FD1002D0DD1002CF6
:103A90000BD0002C09D0A24507D2641E3021300083
:103AA000FFF710FFF0680028F3D5F068002808D46D
:103AB000CDF8049000942B00424639003000FFF707
:103AC00024FFBDE8F78F2DE9F14F98B08A46160024
:103AD00007A80290402003900020049018980690B8
:103AE000002005909AF8000004001AF1010AE4B2DF
:103AF000002C00F00681E4B2252C40F0F980002073
:103B00000700012005009AF800000400E4B220003C
:103B1000232815D02B280ED02D2802D0302805D0F0
:103B200013E057F001071AF1010A10E057F00207FD
:103B30001AF1010A0BE057F004071AF1010A06E036
:103B400057F008071AF1010A01E000200500002DD6
:103B5000D9D1002080469AF800000400E4B2302C4D
:103B600002DBE4B23A2C08DB002081469AF8000020
:103B70000400E4B22E2C1ED108E01AF1010A0A203A
:103B8000E4B200FB0848B8F13008E4E71AF1010A92
:103B90009AF800000400E4B2302C02DBE4B23A2CC4
:103BA00000DB08E01AF1010A0A20E4B200FB09492F
:103BB000B9F13009ECE79AF800000400E4B26C2C8B
:103BC00002D0E4B2682C05D11AF1010A9AF800007B
:103BD0000400F3E7E4B22000252800F08180582893
:103BE00040D063280AD0642818D0702865D0732884
:103BF0004AD0752824D0782834D076E030683060F8
:103C0000306800683168091D31600500280083466E
:103C10005946C9B202A8FFF755FE66E03068306029
:103C2000306800683168091D316005000197CDF8E2
:103C300000804B460A22290002A8FFF7D3FE54E079
:103C400030683060306800683168091D31600500F7
:103C50000197CDF800804B460A22290002A8FFF701
:103C600054FE42E030683060306800683168091DF9
:103C7000316005000197CDF800804B4610222900E5
:103C800002A8FFF742FE30E0306830603068D0F8BC
:103C900000B03068001D30609BF8000004001BF18C
:103CA000010BE4B2002C07D02100C9B202A8FFF733
:103CB00009FE05980028EFD517E0306830603068BD
:103CC00000683168091D316005000020019008205E
:103CD000009008231022290002A8FFF716FE04E036
:103CE000252102A8FFF7EEFDFFE71AF1010A04E023
:103CF0002100C9B202A8FFF7E5FD059800287FF56D
:103D0000F1AE059801280BDB0498002804D0049A32
:103D100007A9189802F0AFFA05990498411805917F
:103D2000059819B0BDE8F08F0CB470B582B00400EE
:103D30000D0006A800906A4629002000FFF7C3FE88
:103D40000600300076BC5DF80CFB254A2DE9F04FEB
:103D500085B006000F0090469946DDF838A0DDF8E2
:103D60003CB01FFA88F85FEA880002F0AFFA05005D
:103D7000002D0BD0542002F0A9FA0400002C01D031
:103D8000256305E0280002F0D8FA01E000200400D5
:103D9000002C14D0002003900294CDF804B0CDF88C
:103DA00000A04B461FFA88F842463900300000F068
:103DB0000DF8200000F078F80120049002E05FF098
:103DC000FF300490049805B0BDE8F08F2DE9F94F5D
:103DD00083B00D0016000E9F0F9CDDF84080B000F0
:103DE0000190A5200090D8F830B0009A019958466B
:103DF000FDF736FFD8F8300000EB8600001F824642
:103E00005FEADA0A5FEACA0A1AF00700002807D058
:103E1000802080F31188BFF34F8FBFF36F8FFEE7D1
:103E200000208146B9F1080F0CD215F8090008EB03
:103E3000090181F8340015F80900002802D019F1B1
:103E40000109EFE7002088F83B00052F01D304208B
:103E50000700C8F82C70C8F844700020C8F8480063
:103E600018F1040002F089FA18F1180002F085FA3E
:103E7000C8F81080D7F10500C8F81800C8F82480E9
:103E80000020C8F84C00002088F85000049A0399DC
:103E9000504602F0B3FAC8F80000002C01D0C4F874
:103EA000008005B0BDE8F08F10B5040002F043FBC0
:103EB000DFF810060068401CDFF808160860DFF81D
:103EC0000806006800280AD1DFF8FC050460DFF866
:103ED000F4050068012811D100F064FB0EE0DFF862
:103EE000EC050068002809D1E06ADFF8DC150968F4
:103EF000C96A884202D3DFF8D0050460DFF8D00534
:103F00000068401CDFF8C8150860DFF8C4050068C9
:103F1000E063DFF8C0050068E16A884203D2E06A26
:103F2000DFF8B0150860211DDFF8AC25E36A142026
:103F3000434302EB030002F023FA02F019FBDFF81F
:103F40008C05006800280FD0DFF87C050068C06A87
:103F5000E16A884208D25FF08050DFF89816086066
:103F6000BFF34F8FBFF36F8F10BD2DE9F0410400F9
:103F70000D000027002C07D1802080F31188BFF3AB
:103F80004F8FBFF36F8FFEE7002D07D1802080F3A6
:103F90001188BFF34F8FBFF36F8FFEE7DFF858062E
:103FA0000068002807D0802080F31188BFF34F8F6E
:103FB000BFF36F8FFEE700F091F8DFF8E4050068CB
:103FC0002168691888462168884207D22168884597
:103FD0000BD2404509D201210F0006E02168884537
:103FE00001D3404501D201210F00C4F80080002F09
:103FF00004D00021B8EB000000F0A6FD00F076F838
:104000000600002E08D15FF08050DFF82816086007
:10401000BFF34F8FBFF36F8FBDE8F08138B5050058
:104020000024002D15D0DFF8D0050068002807D047
:10403000802080F31188BFF34F8FBFF36F8FFEE7AF
:1040400000F04CF80021280000F07EFD00F04EF852
:104050000400002C08D15FF08050DFF8D81508600C
:10406000BFF34F8FBFF36F8F31BD1CB5DFF828074B
:1040700001900020009000234022DFF820170FF26B
:10408000F940FFF763FE0400012C02D100F0AEFD01
:104090000400012C16D1802080F31188BFF34F8FCC
:1040A000BFF36F8F5FF0FF30DFF8A81708600120C3
:1040B000DFF8181408600020DFF8E414086002F04C
:1040C000C6F90AE014F1010F07D1802080F31188AE
:1040D000BFF34F8FBFF36F8FFEE713BDDFF81805F7
:1040E0000068401CDFF810150860704770B50025A7
:1040F0000026DFF804050068002807D1802080F33F
:104100001188BFF34F8FBFF36F8FFEE702F013FAF2
:10411000DFF8E4040068401EDFF8DC140860DFF814
:10412000D804006800285DD1DFF8980300680028F3
:1041300058D0DFF86006006800282BD0DFF854065E
:10414000C068C068050015F1180002F042F9281D8A
:1041500002F03FF9DFF87C030068E96A884203D285
:10416000E86ADFF870130860291DDFF86C23EB6A3A
:104170001420434302EB030002F002F9E86ADFF87F
:1041800048130968C96A8842D3D30120DFF8701741
:104190000860CEE7002D01D000F036FADFF8D8062F
:1041A0000468002C0ED000F026F8002803D001206F
:1041B000DFF84C170860641E002CF4D10020DFF8F3
:1041C000B8160860DFF83807006800280AD0012018
:1041D00006005FF08050DFF85C140860BFF34F8F7B
:1041E000BFF36F8F02F0C4F9300070BDDFF8B01379
:1041F0000968080070472DE9F0410027DFF8F8034F
:10420000006800287CD1DFF898030468641CDFF89C
:1042100090030460002C24D1DFF8E00300680068FC
:10422000002807D0802080F31188BFF34F8FBFF3A1
:104230006F8FFEE7DFF8C40300688046DFF8C00335
:104240000068DFF8B8130860DFF8B403C0F8008036
:10425000DFF8B0060068401CDFF8A816086000F020
:10426000D3F9DFF8F005006884423DD3DFF88C0312
:1042700000680068002805D15FF0FF30DFF8D41532
:10428000086031E0DFF874030068C068C0680500AA
:1042900068680600B44203D2DFF8B805066023E080
:1042A000281D02F096F8A86A002803D015F118001E
:1042B00002F08FF887480068E96A884202D2E86A0B
:1042C00084490860291D844AEB6A1420434302EBA9
:1042D000030002F055F8E86A7B490968C96A884218
:1042E000C4D301200700C1E7774800687A49C26A51
:1042F000142042438858022809D30120070006E011
:10430000DFF874050068401CDFF86C150860DFF802
:10431000F0050068002801D0012007003800BDE842
:10432000F08180B5DFF8D0020068002804D00120B9
:10433000DFF8CC15086040E00020DFF8C415086005
:1043400061480068006B604909680968884207D3C2
:104350005D48006810F134015B48006802F029FCF8
:104360005C49096808005C49142202FB00F2895884
:1043700000290BD1002807D1802181F31188BFF3D8
:104380004F8FBFF36F8FFEE7401EECE7524A1423B6
:1043900003FB00F31A4411004A6852684A604A68F5
:1043A00011F108039A4202D14A6852684A6049688A
:1043B000C968454A11604749086001BD38B5040025
:1043C0000D00002C07D1802080F31188BFF34F8FA0
:1043D000BFF36F8FFEE73C48006810F11801200022
:1043E00001F0DAFF0121280000F0AEFB31BD70B50D
:1043F00005000E001400002D07D1802080F31188E5
:10440000BFF34F8FBFF36F8FFEE72F48006810F1A7
:104410001801280001F0B4FF002C02D05FF0FF303B
:1044200006002100300000F08FFB70BD70B5050064
:10443000E868C0680400002C07D1802080F3118850
:10444000BFF34F8FBFF36F8FFEE714F1180001F039
:10445000C0FF69480068002814D1201D01F0B9FF91
:104460001C480068E16A884202D2E06A1949086083
:10447000211D194AE36A1420434302EB030001F0B3
:104480007FFF05E014F11801DFF8080301F078FF61
:104490000D480068C06AE16A884206D20120060021
:1044A0000120DFF86C15086001E0002006003000F4
:1044B00070BDDFF8501409680160DFF8F416096870
:1044C000416070478C740020807400209874002034
:1044D000A8740020947400202C7100202DE9F04174
:1044E00004000D00002C07D1802080F31188BFF359
:1044F0004F8FBFF36F8FFEE7002D07D1802080F331
:104500001188BFF34F8FBFF36F8FFEE702F013F8F0
:1045100023480768D4F80480B7EB0808286810F12E
:10452000010F02D1002006001CE0DFF8D80300686C
:104530002168884205D06068874202D301200600C6
:1045400010E02868804509D22868B0EB0800286090
:104550002000FFF7AEFF0020060003E000202860E7
:104560000120060002F004F83000BDE8F0810120CF
:10457000DFF89C140860704710B5040000F039F8AB
:10458000DFF8300600680228F8D35FF08050DFF8CB
:1045900028160860BFF34F8FBFF36F8FEEE7000060
:1045A0009074002010B500200400052C09D2DFF81B
:1045B0000406142101FB04F1084401F0CFFE641C41
:1045C000F3E7DFF8F80501F0C9FEDFF8F40501F0C4
:1045D000C5FE704801F0C2FE0A4801F0BFFEDFF8D8
:1045E000DC0506490860DFF8D805DFF8D815086053
:1045F00010BD704704ED00E0B47400208474002006
:1046000088740020D4730020DFF8C00500680068BB
:10461000002804D15FF0FF308E4A106008E0DFF818
:10462000AC050068C068C06801004868894A10602D
:104630007047000004ED00E0DFF8941509680029D8
:1046400002D10121080009E0DFF888150968002976
:1046500002D10221080001E000210800704770B576
:10466000040025000026002C48D0E86ADFF8581521
:104670000968C96A884238D2A869002806D4DFF8D8
:1046800048050068C06AD0F10500A8616969DFF8D3
:104690002425EB6A1420434302EB030081421CD122
:1046A000281D01F096FEDFF820050068C06AE86268
:1046B000DFF824050068E96A884203D2E86ADFF877
:1046C00018150860291DDFF8EC24EB6A1420434319
:1046D00002EB030001F054FE04E0DFF8EC04006894
:1046E000C06AE8620120060008E0686CDFF8D814B0
:1046F0000968C96A884201D201200600300070BDF5
:1047000070B5040025000026002C40D0DFF8B80466
:104710000068854207D0802080F31188BFF34F8F57
:10472000BFF36F8FFEE7A86C002807D1802080F3CD
:104730001188BFF34F8FBFF36F8FFEE7A86C401E49
:10474000A864E86A696C884221D0A86C00281ED150
:10475000281D01F03EFE686CE862E86AD0F10500B1
:10476000A861DFF874040068E96A884203D2E86A45
:10477000DFF864140860291DDFF83824EB6A142080
:10478000434302EB030001F0FBFD01200600300073
:1047900070BD0000C0730020B0740020F8D4000089
:1047A0002DE9F84304000D0026005FF00109002CFC
:1047B0004ED0B06C002807D1802080F31188BFF361
:1047C0004F8FBFF36F8FFEE7706CA84201D2A846EF
:1047D00001E0706C8046F06A404539D0B06C4845C5
:1047E00036D1DFF8E4030068864207D1802080F3E9
:1047F0001188BFF34F8FBFF36F8FFEE7F06A07009A
:10480000C6F82C80B069002802D4D8F10500B06148
:104810007069DFF8A013142202FB07F211448842EA
:1048200016D1301D01F0D5FDDFF8AC030068F16A48
:10483000884203D2F06ADFF8A0130860311DDFF868
:104840007423F36A1420434302EB030001F098FD44
:10485000BDE8F183AC740020DFF86C030068002829
:1048600005D0DFF864030068816C491C8164DFF8BF
:1048700058030068704700009C74002070B5040065
:104880000D0001F058FEDFF840030068C06C0028FE
:1048900014D10120DFF83013096881F85000002D91
:1048A0000CD00121280000F04FF95FF08050DFF8B4
:1048B00008130860BFF34F8FBFF36F8F01F058FEEE
:1048C00001F039FEDFF800030068C06C0600002E1E
:1048D0000CD0002C05D00020DFF8EC120968C86469
:1048E00004E0701EDFF8E0120968C8640020DFF8F9
:1048F000D812096881F8500001F03AFE300070BD0E
:10490000A0740020A47400202DE9F04704000E00DC
:1049100017001D005FF00109002C07D1802080F3F3
:104920001188BFF34F8FBFF36F8FFEE7A04601F0F2
:1049300002FE002D02D0D8F84C00286098F85000F4
:104940008246022088F85000FFB2002F20D0022FAC
:104950000AD003D3042F10D00CD319E0D8F84C00A0
:104960003043C8F84C0013E0D8F84C00401CC8F89D
:104970004C000DE0C8F84C600AE05FFA8AFABAF120
:10498000020F02D0C8F84C6001E000208146FFE72A
:104990005FFA8AFABAF1010F35D118F1040001F07B
:1049A00018FDDFF834020068D8F82C10884204D2D1
:1049B000D8F82C00DFF82012086018F104017D4AB5
:1049C000D8F82C301420434302EB030001F0D8FC4C
:1049D000D8F82800002807D0802080F31188BFF382
:1049E0004F8FBFF36F8FFEE777480068C06AD8F833
:1049F0002C10884207D25FF080506F490860BFF3E7
:104A00004F8FBFF36F8F01F0B3FD4846BDE8F087CD
:104A1000A07400202DE9F84F04000F0090461D00FF
:104A20000A9E5FF0010A002C07D1802080F31188D4
:104A3000BFF34F8FBFF36F8FFEE701F0C7FDA146B5
:104A4000EFF311808346802080F31188BFF34F8FEE
:104A5000BFF36F8F002D02D0D9F84C00286099F871
:104A600050008DF80000022089F850005FFA88F8A5
:104A7000B8F1000F21D0B8F1020F0BD004D3B8F178
:104A8000040F10D00CD318E0D9F84C003843C9F803
:104A90004C0012E0D9F84C00401CC9F84C000CE066
:104AA000C9F84C7009E09DF80000022802D0C9F84E
:104AB0004C7001E000208246FFE79DF800000128CD
:104AC0003DD1D9F82800002807D0802080F3118834
:104AD000BFF34F8FBFF36F8FFEE73E48006800289B
:104AE00019D119F1040001F074FC3B480068D9F8B1
:104AF0002C10884203D2D9F82C003749086019F1EC
:104B000004012C4AD9F82C301420434302EB030053
:104B100001F036FC04E019F11801304801F030FCD6
:104B200029480068C06AD9F82C10884207D2002EA4
:104B300002D00120306002E00120294908608BF397
:104B400011885046BDE8F28FF8B505000C001848F2
:104B500007681D480068001D01F03BFC15F1010FBE
:104B600008D1002C06D018480068011D1D4801F02E
:104B700007FC1BE0E8190600134800684660BE42C7
:104B800007D211480068011D0E48006801F004FCBE
:104B90000CE00D480068011D0C48006801F0FCFBAA
:104BA00011480068864201D20F480660F1BD00003E
:104BB000907400202C71002004ED00E09873002018
:104BC000AC7300208874002080740020847400205E
:104BD00098740020B474002094740020C0730020E6
:104BE000A0740020D4730020AC7400201CB50024F5
:104BF00000F022FADFF87C04006800280DD0DFF80E
:104C0000780401900420009000234022DFF86C1407
:104C10000FF27D10FFF79AF80400002C07D18020D6
:104C200080F31188BFF34F8FBFF36F8FFEE7200033
:104C300016BD2DE9F04383B005000E00170098461D
:104C4000DDF828902C2001F041FB0400002C08D056
:104C50000194CDF8009043463A003100280000F05E
:104C600003F82000BDE8FE832DE9F84306000D009F
:104C700017009846DDF82090099C002D07D1802070
:104C800080F31188BFF34F8FBFF36F8FFEE7002CC7
:104C90000BD000F0D1F92660A561E761C4F820804F
:104CA000C4F82490201D01F068FBBDE8F1832DE9D4
:104CB000FE4304000D0016001F00DDF828805FF0A1
:104CC0000009002C07D1802080F31188BFF34F8F9B
:104CD000BFF36F8FFEE7DFF89C030068002825D044
:104CE000009501960294062D17DAFFF7A5FC02281D
:104CF00009D1002342466946DFF87803006802F0D4
:104D00001FFA814612E0002300226946DFF864039F
:104D1000006802F015FA814608E000233A0069466F
:104D2000DFF85003006802F0F2FA81464846BDE819
:104D3000FE83F8B505000E00DFF844030068C06884
:104D4000C768381D01F045FBF86901281BD12B000D
:104D50003200B9694919380000F08AF8002812D0E9
:104D60000020009000232A0000213800FFF79FFF59
:104D70000400002C07D1802080F31188BFF34F8FEF
:104D8000BFF36F8FFEE73800796A8847F1BD0000F6
:104D900038B50400684600F040F805000099280086
:104DA00000F003F800F08CF8F4E770B582B005006D
:104DB0000C00FFF793F9684600F046F806000098EB
:104DC000002827D1002C08D1AE4206D3FFF78EF978
:104DD00031002800FFF7ADFF1EE0002C07D0A948E6
:104DE00000680068002801D1012400E000242200AE
:104DF000A91BA048006802F0F3FDFFF777F900282F
:104E00000AD15FF08050A0490860BFF34F8FBFF315
:104E10006F8F01E0FFF76AF973BD020098490968D6
:104E20000968002901D1012100E00021C9B2116007
:104E30001168002905D192490968C9680968080004
:104E400001E000210800704738B50400FFF7CEF9F3
:104E500005008E480068854204D200F09FF80120CA
:104E6000206001E00020206088480560280032BDF5
:104E70002DE9F04104000D0016001F005FF000084E
:104E800065602461AE420CD3F01BA169884202D355
:104E90000120804611E0211D7A48006801F07CFA6B
:104EA0000BE0BE4204D2BD4202D30120804604E0A2
:104EB000211D7348006801F06FFA4046BDE8F0819B
:104EC00070B586B0002201A96A48006802F013FBA1
:104ED000002861D001980028F4D40398050068697F
:104EE000002802D0281D01F074FA04A8FFF7ACFFD7
:104EF0000600019800280ED002280CD00BD30428FD
:104F000030D02ED3062806D041D3082829D002D38A
:104F1000092827D03FE0029B32000299A869411876
:104F20002800FFF7A5FF00281AD02800696A8847E3
:104F3000E869012814D1002000900023029AA86992
:104F4000821800212800FFF7B2FE0400002C07D1D0
:104F5000802080F31188BFF34F8FBFF36F8FFEE780
:104F6000B0E7AFE70298A861A869002807D18020C0
:104F700080F31188BFF34F8FBFF36F8FFEE73300CD
:104F80003200A96989192800FFF772FF9AE7280003
:104F900001F0D3F996E795E706B070BD2DE9F04131
:104FA00082B037480068006800283AD0344800686A
:104FB000C0680068050032480068C068C068804664
:104FC00018F1040001F005FA4046D8F8241088478B
:104FD000D8F81C000128E4D1D8F8180040190600C0
:104FE000B5420AD2C8F80460C8F8108018F104016C
:104FF0002348006801F0D0F9D3E700200090002397
:105000002A0000214046FFF752FE0400002C07D181
:10501000802080F31188BFF34F8FBFF36F8FFEE7BF
:10502000BFE7174800680700164800681449086081
:1050300014480760BDE8F38180B501F07CFA0D48A3
:105040000068002812D1124801F088F9114801F0D7
:1050500085F90F480A4908600E480A49086000228D
:105060000C21022002F022F80249086001F080FAC7
:1050700001BD0000C0740020C474002000D50000F1
:10508000B8740020BC74002004ED00E0C874002057
:10509000E8730020FC73002070B54FF48074FF2586
:1050A000DFF8F8642A0021003000FCF7D9FD002069
:1050B000C0B23F2809DADFF8E814C0B2095CDFF8B3
:1050C000DC24C9B25054401CF2E770BDC0B2FF28C6
:1050D00004D0DFF8C814C0B2085C00E0FF20C0B202
:1050E0007047C0B23F2804DADFF8B414C0B2085CDD
:1050F00000E0FF20C0B2704710B4030000201C0085
:105100000A00511E002A03D022781018641CF7E709
:10511000C0B210BC7047DFF88C04DFF88814DFF8E9
:105120008824116001217E290FD2DFF878244023E2
:1051300003FB01F31A440260DFF86824402303FBF9
:1051400001F31A441000491CEDE70021016070478B
:1051500010B501F0F0F9DFF850040468002C03D01A
:105160002068DFF84414086001F002FA200010BD46
:1051700010B50400002C0AD001F0DDF9DFF8280496
:1051800000682060DFF82004046001F0F1F910BD30
:1051900080B5FFF7C0FFFFF77FFF01BD38B501F015
:1051A000CAF900243F2C15DADFF8000400EBC4052F
:1051B0002868002802D02868FFF7DAFF686800280E
:1051C00002D06868FFF7D4FF0020286000206860E4
:1051D000641CE7E701F0CCF931BD70B505000C00A7
:1051E0000026EDB23F2D21DA01F0A5F9E4B2002C42
:1051F0000CD0DFF8B803EDB250F8350006000020FF
:10520000DFF8A813EDB241F835000DE0DFF89C039C
:10521000EDB200EBC500406806000020DFF88C13FB
:10522000EDB201EBC501486001F0A2F9300070BD9C
:10523000F8B505000C001600EDB23F2D3DDA01F087
:105240007AF9DFF86803EDB200EBC507E4B2002C91
:1052500007D03868002802D03868FFF789FF3E6021
:1052600027E07868002802D07868FFF781FF7E6029
:10527000786800281DD04AF6552030802800C0B23A
:10528000FFF72FFFB070F0783B2801D2F07800E0F4
:105290003B20F070F178891CB01CFFF72DFFF178EE
:1052A00031440871002301220121C1480068FFF741
:1052B0002BFB01F05DF9012000E00020F2BD2DE99B
:1052C000F04705000E0017000024FFF741FF80465D
:1052D00000281DD0FFB23B2F01D2380000E03B2058
:1052E00088F8030098F8039018F1040A4A46310040
:1052F0005046FCF761FC424600212800C0B2FFF78F
:1053000097FF0400E4B2002C02D14046FFF730FFC3
:105310002000C0B2BDE8F0872DE9F04104000D0087
:1053200016005FF0000828783F2190FBF1F201FBA6
:1053300012002870F6B23F2096FBF0F100FB1166D8
:1053400028783100C9B2884203D2F6B22F78F71B11
:1053500004E02878D0F13F0050FA86F701F0EBF82E
:105360003800471E002833D0E4B2002C10D08F48FC
:10537000297850F8310000280AD08C48297850F854
:1053800031008046002089492A7841F832001FE028
:10539000E4B2002C13D18548297800EBC1004068A5
:1053A00000280CD08148297800EBC1004068804675
:1053B00000207E492A7801EBC201486008E0287885
:1053C000401C3F2190FBF1F201FB12002870C7E75F
:1053D00001F0CEF84046BDE8F0812DE9FC41040023
:1053E0000025A678F6B23609A77817F00F07A0783F
:1053F000FFF76CFE8046F6B23000002808D0401E51
:10540000042840F2A780401F042840F2AB80C0E08F
:10541000FFB2002F0BD0022F2BD018D3042F4BD06C
:1054200039D3062F6CD059D3072F7BD091E02000C1
:10543000FFF79EFE01A85F490A680260042201A9E5
:105440004046C0B2FFF73BFF0120050081E020008D
:10545000FFF78EFE58480068002807D0002301227D
:105460005FF4803154480068FFF74EFA01200500D0
:105470006FE02000FFF77CFE4F480068002807D04F
:10548000002301225FF400314B480068FFF73CFA2B
:10549000012005005DE02000FFF76AFE4648006835
:1054A000002806D000230122202143480068FFF78E
:1054B0002BFA012005004CE02000FFF759FE3E4882
:1054C0000068002807D0002301225FF480213A48B9
:1054D0000068FFF719FA012005003AE02000FFF705
:1054E00047FE35480068002807D0002301225FF4FA
:1054F000002131480068FFF707FA0120050028E085
:105500002000FFF735FE2C480068002807D0002354
:1055100001225FF4801128480068FFF7F5F90120A7
:10552000050016E0E078002804D02079C0B2FDF72D
:10553000BBFB09E0FDF7E0FC8DF8000001226946A5
:105540004046C0B2FFF7BBFE2000FFF711FE01206E
:1055500005001EE0220001214046C0B2FFF768FEB0
:10556000050016E0220001214046C0B2FFF760FEB0
:105570000500C0B200280CD01048F6B200EB86003F
:1055800050F8180C002804D0002301224021FFF716
:10559000BBF92800C0B2BDE8F6810000886D00208C
:1055A0004CC8000028430020CC740020D86800209C
:1055B0006474002014D500006874002084730020F7
:1055C00000B200280AD4012210F01F018A40DFF83F
:1055D000141A00B203005B0941F82320704700B29F
:1055E00000280ED4012210F01F018A40DFF8F819BC
:1055F00000B203005B0941F82320BFF34F8FBFF3D4
:105600006F8F704700B200280AD4012210F01F01EA
:105610008A40DFF8D81900B203005B0941F8232063
:10562000704710B400B2002805D44A01DFF8C03931
:1056300000B21A5408E04A01DFF8B83900B210F09D
:105640000F04234403F8042C10BC7047DFF8A8298A
:10565000126800B202EB80031964704742680A4284
:10566000FCD170474161704701617047C16070476C
:1056700010B50400207850F00200207003212000B3
:10568000FFF7ECFF10BD70B504000D002078060098
:1056900016F0EF0656EA0516267003212000FFF7E4
:1056A000DDFF70BD38B504000D002570032120001A
:1056B000FFF7D4FF31BD10B4C9B200EB8103DB6941
:1056C0001343C9B200EB8104E36110BC7047C9B257
:1056D00000EB8103DA6170470163704741637047F3
:1056E00042680A42FCD1704770B504000D001600F4
:1056F000EDB204EB8500066243F6FD712000FFF772
:10570000EFFF70BDC9B200EB8103C3F88020704782
:10571000416951F4806141617047028813004FF67E
:105720003F72134089B28A0112F0C0021343038012
:105730007047028889B20B0213F470631A43028027
:10574000704701747047818270470100CA69100078
:10575000C0F305207047C1617047C9B2142303FB31
:1057600001F30344DB6B1342F7D1704770B50400BB
:105770000D001600EDB2142000FB05F0204480F867
:10578000306002222900C9B22000FFF7E6FF70BD99
:10579000C9B200EB81035A61704701777047807985
:1057A000704701727047C9B2802303FB01F30344C1
:1057B0009A607047C9B28022514340587047C9B2BD
:1057C000802303FB01F303445A607047C9B280236E
:1057D00003FB01F303449A617047C9B2802251432D
:1057E000084400697047C9B2802303FB01F30344F6
:1057F0005A617047C9B2802251430844006A704719
:1058000030B4C9B2802404FB01F40444D2B214447D
:1058100094F83040250015F0F00513F00F042543EF
:10582000C9B2802404FB01F40444D2B2144484F8C5
:10583000305030BC704730B4C9B2802404FB01F44E
:105840000444D2B2144494F83040250015F00F05FA
:10585000DBB21C012543C9B2802404FB01F40444DB
:10586000D2B2144484F8305030BC704730B4C9B25E
:10587000802505FB01F50544D2B2154495F840504A
:105880002C0014F0FE041C43C9B2802505FB01F571
:105890000544D2B2154485F8404030BC704710B47E
:1058A000C9B2802303FB01F30344D2B21344C9B24B
:1058B000802404FB01F40444D2B2144494F8404020
:1058C00054F0040483F8404010BC704710B4C9B2CF
:1058D000802303FB01F30344D2B21344C9B28024F2
:1058E00004FB01F40444D2B2144494F8404014F090
:1058F000FB0483F8404010BC7047C9B2802303FB0F
:1059000001F303449A627047C9B200EB8103C3F804
:1059100080207047C9B200EB8100D0F8800070474A
:10592000016931F002010161704782680A42FCD1CD
:10593000704701218171704738B504000D0025734F
:1059400010212000FFF7F1FF31BD70B504000D00FC
:105950001600F6B2002E03D0022E37D01BD350E033
:105960002A002100C9B2DFF89406FFF728FFAAB287
:1059700052F080422100C9B2DFF88006FFF7BDFF78
:105980002A00120C52F040422100C9B2DFF86C0626
:10599000FFF7B3FF35E02A002100C9B2DFF85C064B
:1059A000FFF70DFF2A00C4F202022100C9B2DFF89E
:1059B0004C06FFF7A2FFDFF8482652EA1542210005
:1059C000C9B2DFF83806FFF798FF1AE02A00210075
:1059D000C9B2DFF82806FFF7E6FEAAB252F080420D
:1059E0002100C9B2DFF81406FFF787FF2A00120C66
:1059F00052F040422100C9B2DFF80006FFF77DFFF8
:105A0000FFE770BD70B505000E001400E4B2002C75
:105A100007D032002900C9B2DFF8E005FFF7D6FE53
:105A200006E032002900C9B2DFF8D005FFF7DBFE3F
:105A300070BD70B582B004006846FCF744F92100DF
:105A4000C9B2DFF8B805FFF7B5FE06002100C9B2FC
:105A5000DFF8A805FFF7CEFEB04305002100C9B26C
:105A6000DFF89805FFF7B9FE304028430500684687
:105A7000FCF730F9280076BD70B504000D00160063
:105A8000F6B2002E03D0022E23D009D33AE02A002A
:105A9000D2B22100C9B2DFF86405FFF717FF31E089
:105AA0000122AA402100C9B2DFF85005FFF787FEA6
:105AB0002A00D2B22100C9B2DFF84005FFF7EFFE9D
:105AC0000122AA402100C9B2DFF83005FFF77EFEAF
:105AD00018E00122AA402100C9B2DFF82005FFF733
