:1000000000000320857000008D7000008D700000DE
:100010008D7000008D7000008D70000000000000E9
:10002000000000000000000000000000F5330000A8
:100030008D700000000000009D330000AB2A00001E
:100040008D7000008D7000008D7000008D700000BC
:100050008D7000008D7000008D7000008D700000AC
:100060008D7000008D7000008D7000008D7000009C
:100070008D7000008D7000008D7000008D7000008C
:100080008D7000008D7000008D7000008D7000007C
:100090008D7000008D7000008D7000008D7000006C
:1000A0008D7000008D7000008D7000008D7000005C
:1000B0008D7000008D7000008D7000008D7000004C
:1000C0008D7000008D7000008D7000008D7000003C
:1000D0008D7000008D7000008D7000008D7000002C
:1000E0008D7000008D700000000000000000000016
:1000F00000000000E56E00008D7000008D700000B3
:100100008D7000008D7000008D7000008D700000FB
:100110008D7000008D7000008D7000008D700000EB
:100120008D7000008D7000008D7000008D700000DB
:100130008D7000008D7000008D7000008D700000CB
:100140008D7000008D7000008D7000008D700000BB
:100150008D7000008D7000008D7000008D700000AB
:100160008D7000008D7000008D7000008D7000009B
:100170008D7000008D700000000000000000000085
:10018000651B00006D1B0000751B00007D1B00003F
:10019000000000008D7000008D7000008D70000068
:1001A0008D7000008D7000008D7000008D7000005B
:1001B0008D7000008D7000008D7000008D7000004B
:1001C0008D7000008D7000008D7000008D7000003B
:1001D0008D7000008D7000008D7000008D7000002B
:1001E0008D7000008D7000008D7000008D7000001B
:1001F0008D7000008D7000008D7000008D7000000B
:100200008D7000008D7000008D7000008D700000FA
:100210008D7000008D7000008D7000008D700000EA
:100220008D7000008D7000008D7000008D700000DA
:100230008D7000008D7000008D7000008D700000CA
:100240008D7000008D7000008D7000008D700000BA
:100250008D7000008D7000008D7000008D700000AA
:100260008D70000000B200280AD4012210F01F0196
:100270008A40DFF8BC1C00B203005B0941F8232070
:10028000704710B40300C9B2142404FB01F41C44E9
:10029000246C2000104010BC704702001369180045
:1002A0000840704790F82020110011F00101C9B2F8
:1002B000002901D0012000E00020C0B27047827800
:1002C0000A42FCD170478078084201D0012000E04A
:1002D0000020C0B2704710B40300C9B24C011C44E6
:1002E00094F8074120001040C0B210BC7047C9B25A
:1002F0004901084490F807017047C9B24B01034413
:1003000083F807217047C9B24B01034483F80521E4
:100310007047C9B24901084490F806017047C9B254
:100320004B01034483F8042170471022C9B24B01EA
:10033000034483F808217047C9B24B01034483F892
:1003400009217047C9B24B01034483F80821704763
:100350000200C9B24B01134493F80031180010F0A9
:100360000700C0B270470200C9B24B01134493F8B2
:1003700000311800C0F30210C0B27047C9B24B017F
:10038000034483F800217047C9B24901084490F83A
:1003900000017047808B70478183704701837047ED
:1003A000008B7047818270470200937818000840E4
:1003B000C0B2704710B50400207810F0FD00207026
:1003C00003212000FFF77BFF10BD70B504000D0076
:1003D00003212000FFF773FF207806002E40300035
:1003E000C0B270BD38B504000D0025700321200097
:1003F000FFF765FF31BD10B5040003212000FFF7B2
:100400005EFF207810BD02894FF6FE710A4002811E
:1004100070470181704781727047416270470200E6
:100420000020704730B45FF08244DFF86C0C007835
:1004300010F01F00DFF8601C0968C1F34412DFF8F8
:10044000581C0968C1F38221002801D01F2801D15E
:1004500009231800002A01D01F2A01D119231A00EC
:10046000002901D0072901D106231900850115F4BF
:10047000F86512F01F031D430B0313F4E0431D4303
:100480002585E37853F00303E370E37853F00C031E
:10049000E37030BC704780B503220021DFF8FC0B0D
:1004A000FFF7EFFE0328F7D101BD80B5DFF8EC0BB5
:1004B000FFF7F8FE002809D04FF41061DFF8DC0BDD
:1004C000FFF7EBFEB0F5106FF6D108E04FF4807146
:1004D000DFF8C80BFFF7E1FEB0F5807FF6D101BD74
:1004E00010B50400E4B2002C02D1FFF7DEFF04E0F7
:1004F000E4B2012C01D1FFF7CEFF10BD38B50400E6
:100500000D002A00D2B22100C9B25FF08240FFF78D
:10051000F4FE31BD38B504000D002A00D2B221002E
:10052000C9B25FF08240FFF707FF31BD38B5040064
:100530000D002A00D2B22100C9B25FF08240FFF75D
:1005400001FF31BD80B50100C9B25FF08240FFF705
:100550001BFF112801D1012000E00020C0B202BD24
:1005600070B505000E001400E4B2002C09D0102272
:10057000B240D2B22900C9B25FF08240FFF7C3FE99
:1005800008E01022B240D2B22900C9B25FF0824026
:10059000FFF7C5FE70BD10B50C005FF08242010090
:1005A000C9B21000FFF7B5FE102111FA04F4204281
:1005B00001D0012000E00020C0B210BD10B50C0039
:1005C0005FF082420100C9B21000FFF790FE2021C7
:1005D00011FA04F4204201D0012000E00020C0B252
:1005E00010BD38B504000D002021A9402000C0B284
:1005F000FFF784FF31BD70B505000E001400E4B2B2
:10060000002C06D02021B1402800C0B2FFF782FFA5
:1006100005E02021B1402800C0B2FFF787FF70BD80
:1006200010B504002100C9B25FF08240FFF77DFEE3
:1006300010BD80B501001022C9B25FF08240FFF703
:100640004AFE002801D0012000E00020C0B202BD17
:1006500010B5040010212000C0B2FFF74FFF10BDFD
:1006600070B505000E001400E4B2002C09D0012280
:10067000B240D2B22900C9B25FF08240FFF743FE18
:1006800008E00122B240D2B22900C9B25FF0824034
:10069000FFF745FE70BD38B504000D000121A940EB
:1006A0002000C0B2FFF72AFF31BD10B4DFF8883C4C
:1006B000C0B244012344C9B20C0123441A6010BCE7
:1006C000704710B4DFF8703CC0B244012344C9B293
:1006D0000C01234492B25C6862F39B345C6010BCF2
:1006E000704710B4DFF8503CC0B244012344C9B293
:1006F0000C01234492B25C6862F30D045C6010BC90
:10070000704710B4DFF8303CC0B244012344C9B292
:100710000C01234492B25C6862F30D045C6010BC6F
:10072000704710B4DFF8103CC0B244012344C9B292
:100730000C01234492B25C6862F39B345C6010BC91
:100740007047F8B504000D0016001F00320092B289
:100750002900C9B22000C0B2FFF7C3FF3A0092B22D
:100760002900C9B22000C0B2FFF7ABFFF1BDF8B558
:1007700004000D0016001F00320092B22900C9B219
:100780002000C0B2FFF7CDFF3A0092B22900C9B2F3
:100790002000C0B2FFF7B5FFF1BDDFF89C2BC0B25F
:1007A00043011A44C9B20B011A44002393727047E3
:1007B00070B505000E001400E4B2002C09D04022F0
:1007C000B240D2B22900C9B25FF08240FFF79BFD70
:1007D00008E04022B240D2B22900C9B25FF08240A4
:1007E000FFF79DFD70BD70B505000E001400E4B26A
:1007F000002C09D04022B240D2B22900C9B25FF029
:100800008240FFF78CFD08E04022B240D2B22900BE
:10081000C9B25FF08240FFF776FD70BD80B240F252
:100820000121884201DB072020E080B240F2011163
:10083000884201DB062019E080B2812801DB052017
:1008400014E080B2412801DB04200FE080B22128AF
:1008500001DB03200AE080B2112801DB022005E061
:1008600080B2092801DB012000E00020C0B27047FF
:1008700010B40200D2B2002A01D1002305E0C9B2AF
:10088000002901D0131D00E01300DFF8144BDBB288
:100890001420434304EB0300143010BC704780B5B0
:1008A00004215FF08240FFF777FDDFF8F40A00686B
:1008B000804701BD38B5002540F201215FF082403C
:1008C000FFF76AFD40F201215FF08240FFF76AFD09
:1008D00070215FF08240FFF761FD00200400E4B268
:1008E000042C13DADFF8500AE4B2610108440189EC
:1008F00011F00F01032907D10189C1F30A1189B24F
:100900000D000021018101E0641CE8E729000320BB
:10091000DFF88C2A5268904731BD80B580215FF0A6
:100920008240FFF739FD00210520DFF8742A526864
:10093000904701BD80B570215FF08240FFF72CFD2C
:1009400070215FF08240FFF72DFD40F201215FF042
:100950008240FFF723FD0020FFF7C2FD00210220A7
:10096000DFF83C2A5268904701BD80B50022002183
:100970005FF08240FFF702FD08215FF08240FFF741
:100980000BFD70215FF08240FFF70CFD40F201216A
:100990005FF08240FFF702FD00F051FC00210120D2
:1009A000DFF8FC295268904701BD80B540F2012173
:1009B0005FF08240FFF7F0FC40F201215FF08240DF
:1009C000FFF7F0FC70215FF08240FFF7E7FC0021A9
:1009D0000420DFF8CC295268904701BD38B50124C6
:1009E0005FF08240FFF7D6FC05005FF08240FFF722
:1009F000D7FC28400500680703D5FFF750FF01200A
:100A00001EE0A80502D5FFF755FF17E0280602D51E
:100A1000FFF783FF12E0280010F0700F02D0FFF7FD
:100A200089FF0BE0280702D5FFF79FFF06E0E807E4
:100A300002D5FFF7BAFF01E0002004002000C0B299
:100A400032BD2DE9F04F85B006000C005FF0824703
:100A500096F8128018F00F08DFF8DC085FFA88F8C3
:100A60005FEA481108440190E4B2002C07D00198D5
:100A7000D0F814905FEA89495FEA994901E05FF094
:100A80000009308A40F2FF31884201D1308A01E00A
:100A9000308A401E10EA0900ADF802005FF0000A3B
:100AA000F07C10F00700012801D1012500E00025AD
:100AB000E4B2002C04D001214046C0B2FFF7EBFDA8
:100AC000B06810FA89F0B060B0687168884243D2AB
:100AD0007168B068091AADF80010F07CC0F34010DE
:100AE000C0B200281CD0308ABDF80010884202D263
:100AF000308AADF80000BDF8000003903068B1689E
:100B000008440290D6F80CB0039A0299584601F0B6
:100B100039F8F26801214046C0B2FFF7C6FD12E085
:100B2000BDF8000042F20101884203DB4FF400509F
:100B3000ADF800003068B16800EB010201214046C9
:100B4000C0B2FFF7B2FD0023BDF8002001214046EE
:100B5000C0B2FFF7F6FD3BE0F07CC0F30010C0B27E
:100B600000280BD0F07C10F0EF00F074002300227E
:100B700001214046C0B2FFF7E4FD29E0EDB2002DAF
:100B800006D04B224146C9B23800FFF7DBFB05E037
:100B90004A224146C9B23800FFF7D4FBBDF8020033
:100BA000318A88420FD1F07C10F0BF00F074B16838
:100BB000B07CDFF8EC27D2689047002820D1F07C89
:100BC00050F04000F0740021300000F05FFE17E0AC
:100BD000E4B2002C0ED1EDB2002D02D04E208246A0
:100BE00001E04A2082465246D2B24146C9B238009C
:100BF000FFF7A2FB012201214046C0B2FFF7D8FD5A
:100C000005B0BDE8F08F2DE9F04F87B007000C006C
:100C10005FF082400290BE7C16F00F06DFF8C80835
:100C2000F6B2710108440390E4B2002C09D0039895
:100C3000D0F804805FEA98385FEA88485FEA98480D
:100C400001E05FF00008E4B2002C07D00398D0F870
:100C500004905FEA89495FEA994901E05FF0000981
:100C6000388A40F2FF31884202D140F2FF3A02E076
:100C7000388AB0F1010A1AEA0900ADF80200F87CDE
:100C800010F00700012801D1012500E00025E4B2A1
:100C9000002C04D000213000C0B2FFF7FCFCF87C2F
:100CA000C0F34010C0B2002820D0786800281DD0C2
:100CB0007968B868091AADF80410BDF80200BDF8EB
:100CC0000410884203D2BDF80200059002E0BDF88E
:100CD00004000590F86806903868B96808440490E4
:100CE000059A0699049800F04DFF0498786800284A
:100CF0001BD1F87CC0F30010C0B2002815D0F87CDE
:100D000010F0EF00F874F87C50F02000F874FA68E6
:100D100000213000C0B2FFF7C8FC00233A8A00214E
:100D20003000C0B2FFF723FD7EE0E4B2002C0DD00E
:100D3000BDF80200398A884208D2F87C10F0EF0032
:100D4000F874B86810FA89F0B8604FE0B86810FA23
:100D500088F0B860B8687968884247D27968B8681E
:100D6000091A8B46F87CC0F34010C0B200280DD0A1
:100D7000388A594689B2884201D2388A8346FA684D
:100D800000213000C0B2FFF790FC25E0388A5946B8
:100D900089B288420ED21FFA8BFB42F201008345D2
:100DA00003DB4FF4005083460DE01AEA0B00BBEB67
:100DB000000B08E05846398A80B2884203D2F87C9A
:100DC00050F02000F8743868B96800EB0102002187
:100DD0003000C0B2FFF769FC00231FFA8BFB5A46B4
:100DE00000213000C0B2FFF7C2FC1DE0EDB2002DC3
:100DF00006D02D223100C9B20298FFF7A3FA05E010
:100E000025223100C9B20298FFF79CFAF6B2002EF3
:100E100005D1FA6800213000C0B2FFF746FC00217E
:100E2000380000F033FD1EE0E4B2002C15D1EDB225
:100E3000002D08D001213000C0B2FFF7AEFC2D20FC
:100E40008DF8000002E025208DF800009DF80020BC
:100E50003100C9B20298FFF76FFA01220021300079
:100E6000C0B2FFF7C0FC07B0BDE8F08F70B5050059
:100E7000AE7C16F00F06E87C10F00700012801D1C7
:100E8000012400E00024E4B2002C08D13000C0B2FC
:100E9000FFF7DEFB3000C0B2FFF7C2FB32E0E87CB8
:100EA000C0F38010C0B200280FD0E87C10F0BF0063
:100EB000E874002201213000C0B2FFF779FC002263
:100EC00000213000C0B2FFF78EFCE87C10F0F70084
:100ED000E87400213000C0B2FFF75FFC0121300050
:100EE000C0B2FFF75AFC6F213000C0B2FFF706FB1B
:100EF0006F213000C0B2FFF719FBA87CDFF8A01407
:100F00008968884770BD70B504000D00A67C16F096
:100F10000F0600222900C9B23000C0B2FFF76BFBF8
:100F2000A2680121A07CDFF878341B69984770BD66
:100F300000E100E02DE9F84F06000C005FF0824769
:100F400096F8128018F00F08DFF85C0A0088ADF8F8
:100F50000000DFF894055FFA88F85FEA481100EBBB
:100F60000109E4B2002C06D04146C9B23800FFF7AF
:100F7000FAF9824605E04146C9B23800FFF7E8F9C0
:100F80008246F07C10F00700012801D1012500E025
:100F90000025E4B220014844807A83465FFA8AFA49
:100FA000BAF1020F29D11BF00100002825D0E4B2CC
:100FB00020014844807A10F0FE00E4B22101494447
:100FC00088726846E4B2025D4146C9B23800FFF754
:100FD00094F96846E4B2025D4146C9B23800FFF7B1
:100FE000B1F9E4B2002C01D0012100E0002104227B
:100FF000C9B2300000F063FC4CE0CBF34000C0B25B
:10100000002831D0E4B220014844807A10F0FD007D
:10101000E4B22101494488726846E4B2025D414667
:10102000C9B23800FFF769F96846E4B2025D41468B
:10103000C9B23800FFF786F9EDB2002D2AD0F07C56
:10104000C0F38010C0B2002824D02000F17CC9B2C7
:10105000C909C0B288421DD00022F17CC9B2C909B9
:10106000300000F02CFC15E02100C9B24046C0B2AF
:10107000FFF793FB6846E4B2025D4146C9B238000F
:10108000FFF73BF96846E4B2025D4146C9B2380059
:10109000FFF758F9BDE8F18F840080000010004090
:1010A00038B504000D00E80603D52000FFF7DEFE8A
:1010B0000CE0680604D501212000FFF724FF05E0BD
:1010C000A80603D500212000FFF71DFF31BD38B56C
:1010D00004000D00680604D501212000FFF713FF6E
:1010E0001EE0280704D501212000FFF723FF17E0A9
:1010F000A80704D501212000FFF7A3FC10E0E07C45
:1011000010F0070001280BD1680704D5002120004A
:10111000FFF710FF04E0E80602D52000FFF7A6FE67
:1011200031BD38B504000D00A80604D5002120000B
:10113000FFF7E9FE1EE0680704D500212000FFF755
:10114000F9FE17E0E80704D501212000FFF75BFD59
:1011500010E0E07C10F0070001280BD1280704D52F
:1011600001212000FFF7E6FE04E0E80602D520009A
:10117000FFF77CFE31BD2DE9F84305000E005FF05E
:10118000824796F8129019F00F09280030FA09F0FA
:10119000C00730D55FFA89F95FEA4910384490F802
:1011A000070104005FFA89F95FEA4910384490F8B2
:1011B0000901804618EA0404E4B2002C1BD0F07C3C
:1011C00010F04700012805D12100C9B23000FFF717
:1011D00067FF10E0F07CC0B2C009C0B2002805D0A3
:1011E0002100C9B23000FFF772FF04E02100C9B24C
:1011F0003000FFF796FFBDE8F18370B55FF08245E0
:101200002C8CA4B2002C03D1FFF7E8FB002815D1E9
:1012100000200600F6B21B2E10DA6148F6B2142147
:1012200001FB06F1084410F11401887CFF2803D06B
:10123000A4B22000FFF79FFF761CEBE770BDF8B566
:1012400000200400E4B21B2C1DDA03215448E4B250
:10125000142202FB04F21044143000F017FBFF20AC
:101260004F49E4B2142202FB04F2114481F8260033
:1012700000204B49E4B2142202FB04F2114481F82D
:101280002700641CDEE7A02500262B4F3200290032
:10129000380000F0CBFCF1BD38B55FF08244012589
:1012A0006846DFF8A0180A68026001212000FFF7F5
:1012B0000AF8002810D102212000FFF786F8002844
:1012C00006D02000FFF776F802212000FEF7F7FF96
:1012D00001212000FFF786F801212000FEF7EFFF33
:1012E000DFF864082E490860DFF85C082C49486084
:1012F000DFF854082A498860DFF84C082849C8609C
:10130000DFF8440826490861FFF799FFFFF78AF8DC
:1013100004212000FFF766F8DFF830182000FFF7FF
:101320007CF86846EDB2415D51F0010189B22000C0
:10133000FFF76FF8002032BD782B002038B55FF042
:10134000824403212000FFF72FF8002802D07FF00D
:1013500010001DE02000FFF74EF80500A80705D497
:1013600055F00201C9B22000FFF73CF85020FEF70B
:1013700079FF5120FEF776FF5220FEF773FF5320CE
:10138000FEF770FF40F28D212000FFF707F80020E4
:1013900032BD80B55FF08240FFF735F801BD000037
:1013A0000027002010B5040054F08001C9B25FF09E
:1013B0008240FFF730F810BD70B504005FF0824541
:1013C000A67C16F00F06E26800213000C0B2FFF7DD
:1013D0006CF90023228A00213000C0B2FFF7C7F960
:1013E000B0223100C9B22800FEF799FF0022002187
:1013F0003000C0B2FFF7F7F910223100C9B228005F
:10140000FEF79AFF70BD2DE9F84F06000F009046D9
:1014100016F00F0916F08004E4B2E4092100C9B205
:101420004846C0B2FFF724FA824617F00305DFF8FA
:1014300020075FFA89F90C2101FB09F100EB010B90
:101440005FFA89F9B9F1050F02DB7FF0110049E07D
:101450009AF81200FF2802D07FF0130042E0EDB2AC
:10146000002D14D194F00101C9B24846C0B2FFF773
:10147000FFF90100887CFF2802D07FF0130031E0E3
:10148000DBF80000002802D17FF012002AE0E4B26D
:10149000002C02D0DBF8040001E0DBF8000000289B
:1014A0000ED0E4B2002C02D0BBF80A0001E0BBF879
:1014B00008001FFA88F8404502DA7FF0120011E0B8
:1014C000E4B2002C02D0DBF8040001E0DBF80000FD
:1014D000CAF80C00AAF81080681C8AF813008AF871
:1014E00012600020BDE8F28F782B00202DE9F0413A
:1014F00004005FF0824514F00F0614F08007FFB27D
:10150000FF093900C9B23000C0B2FFF7B1F9804617
:10151000F6B2052E03DA98F81200FF2800D137E062
:1015200003223900C9B2404600F0C9F998F8130007
:1015300010F00700012806D10020E4B2610129441F
:1015400081F800011EE0200610D5E4B214F00F006F
:1015500040012844E4B214F00F014901294491F8F4
:10156000001111F08F0180F800110BE0E4B260016E
:10157000284490F8000110F0F800E4B26101294419
:1015800081F80001002088F81300FF2088F812007D
:10159000BDE8F0812DE9F04705005FF0824615F0C7
:1015A0000F0715F08004E4B2E4092100C9B2380045
:1015B000C0B2FFF75DF980463900C9B23000FEF7CE
:1015C000E3FE8246FFB2052F03DA98F81200FF28E7
:1015D00002D17FF01100B3E0DFF87005FFB27901AE
:1015E0000844814698F8130010F00700012845D1FF
:1015F0001AF0770F02D07FF01300A1E0112239001A
:10160000C9B23000FEF7BAFEB8F81000FFF706F9CD
:10161000B8F81010DFF83C2512EA8132C0B200079A
:1016200010F0E0401043C9F80400B8F81000FFF7CC
:10163000F5F8B8F810108904890CC0B2000710F052
:10164000E0400843C9F81400002200213800C0B26D
:10165000FFF7C9F8002201213800C0B2FFF7A8F84F
:1016600000213800C0B2FFF798F801213800C0B25D
:10167000FFF793F84046FFF79FFE60E0E4B2002CCE
:101680002ED01AF0700F02D07FF0130058E098F8B7
:101690001300000110F0700050EA0A0A5246D2B25C
:1016A0003900C9B23000FEF769FEB8F81000FFF744
:1016B000B5F8B8F810108904890CC0B2000710F012
:1016C000E0400843C9F81400002201213800C0B2EC
:1016D000FFF76EF801213800C0B2FFF75EF82EE088
:1016E0001AF0070F02D07FF0130029E098F81300DA
:1016F00010F0070050EA0A0A5246D2B23900C9B2C5
:101700003000FEF73BFEB8F81000FFF787F8B8F896
:101710001010DFF8402412EA8132C0B2000710F046
:10172000E0401043C9F80400002200213800C0B294
:10173000FFF759F800213800C0B2FFF72EF800205B
:10174000BDE8F08710B50400A07C10F00F00C9B20E
:10175000C0B2FEF720FF10BD70B504000D00A67CDE
:1017600016F00F0601222900C9B23000C0B2FEF700
:10177000F7FE2021A9403000C0B2FEF7CBFEE07C8E
:1017800050F00800E074002070BDF8B505000E00B0
:10179000AF7C17F00F073100C9B23800C0B2FEF7B6
:1017A000FAFE0400E4B2002C01D1002039E000224E
:1017B0003100C9B23800C0B2FEF7D2FE2021B140DC
:1017C0003800C0B2FEF7B2FE3100C9B23800C0B274
:1017D000FEF7F4FE00280CD03100C9B23800C0B2C8
:1017E000FEF7FFFE00223100C9B23800C0B2FEF79A
:1017F00037FFE87C10F0070001280DD13900C9B28D
:101800005FF08240FEF785FD10F0300F08D1E87CD4
:1018100010F0F700E87403E0E87C10F0F700E874DB
:101820000020F2BD2DE9F84305000C0015F00F066D
:1018300015F08007FFB2FF093900C9B23000C0B20D
:10184000FFF716F88046F6B2052E02DB7FF0110096
:101850001AE0E4B2012C06D13900C9B24046FFF7C4
:101860007BFF81460FE0E4B2002C06D13900C9B2FB
:101870004046FFF78AFF814605E03900C9B240467D
:10188000FFF760FF81464846BDE8F28338B50400A3
:101890000D00A07CFF2805D0E07CC0F38010C0B212
:1018A000002800D10AE0E07C10F0BF00E074A268DC
:1018B0002900A07CDFF8A0321B69984731BDF8B53C
:1018C00005000C001600AF7C17F00F07DFF88C0244
:1018D0000088ADF80000A87CFF2805D0E87CC0F3A4
:1018E0008010C0B2002800D121E0E4B2002C06D064
:1018F000002201213800C0B2FEF75AFF05E00022A5
:1019000000213800C0B2FEF76EFF6846E4B2015D08
:101910003800C0B2FEF7F2FD6846E4B2015D38005F
:10192000C0B2FEF703FE31002800FFF7AFFFF1BDA4
:101930002DE9F04705000C0015F00F068348F6B2BC
:10194000710100EB0107D7F80080D7F804905FEA37
:1019500089495FEA9949F6B2052E01DA002C02D1D5
:101960007FF011001EE03000C0B2FEF7EBFD002852
:1019700002D17FF0120015E03000C0B2FEF759FE30
:10198000002801D100200DE05FF0080A52464146D0
:10199000200000F0F7F83000C0B2FEF759FE1FFA41
:1019A00089F94846BDE8F0872A1C00002DE9F04778
:1019B00082B005002E7A16F00F062C7A14F08004FF
:1019C000E4B2E4092100C9B23000C0B2FEF750FF12
:1019D0000700388A40F2FF31884202D140F2FF38D6
:1019E00002E0388AB0F1010868681FFA88F810EA46
:1019F000080F02D05FF0010901E05FF000095FF01D
:101A0000000AF6B2052E02DB7FF011006DE02868B7
:101A1000B0F1005F10D329686868411850488142CE
:101A20000AD2287810F0030F06D1E4B2002C0BD1B3
:101A30006868398A884207D2F868002802D17FF0A6
:101A4000120052E00120824699F001002043C0B20A
:101A5000002805D1F868002802D17FF0110044E089
:101A6000F87CC0F3C000C0B2002801D002203CE0E6
:101A7000684600F00EF9F87CC0F38010C0B2002870
:101A800004D0684600F00CF901202EE0F87C50F0FC
:101A90004000F874684600F003F928683860686808
:101AA00078600020B860F87C10F07F0050EAC41025
:101AB000F874F87C6AF34510F874687A002802D04C
:101AC00099F0010000E00020F97C60F30411F97442
:101AD000E4B2002C04D000213800FEF7B2FF03E08E
:101AE00000213800FFF78FF80020BDE8F6870A00D4
:101AF000002A01D1144A00E00A00C0B2012802D134
:101B0000154B5A6004E0C0B2002801D1124B1A6094
:101B100070470A00002A01D10B4A00E00A00C0B257
:101B2000002802D10C4B9A600AE0C0B2012802D111
:101B3000094BDA6004E0C0B2022801D1064B1A61F9
:101B400070470000887100001F040000782B0020FF
:101B5000AC6F000000C0FF0F00270020022900002A
:101B60000020032080B5FFF748FB01BD80B5FFF7DB
:101B700044FB01BD80B5FFF740FB01BD80B5FFF719
:101B80003CFB01BD62B38B0708D0521E11F8013B2C
:101B900000F8013B00F024808B07F6D1830740F06A
:101BA000208000BF103A07D330B4B1E83810103AA3
:101BB000A0E83810F9D230BC530724BFB1E80810B0
:101BC000A0E8081044BF51F8043B40F8043BD2079A
:101BD00024BF31F8022B20F8022B44BF0B7803708E
:101BE0007047121F17D35B0009D151F8043B20F84E
:101BF000023B1B0C121F20F8023BF6D20BE051F8FF
:101C0000043B00F8013B1B0A20F8023B1B0C121F8F
:101C100000F8013BF3D238BF121D521E24BF11F849
:101C2000013B00F8013BF8D87047040862F30F222B
:101C300062F31F42401810F0030308D0C91A1FD3E3
:101C4000DB0748BF00F8012D28BF20F8022D130044
:101C500030B414461546103928BF20E93C00FAD8A4
:101C6000490728BF20E90C0048BF40F8042D89002F
:101C700028BF20F8022D48BF00F8012D30BC704766
:101C8000C91818BF00F8012DCB0728BF00F8012D97
:101C90007047EFF31081016072B6BFF35F8F70473A
:101CA000BFF35F8F016881F3108870472DE9F04F13
:101CB00085B006000F0090469946DDF838A0DDF8A3
:101CC0003CB01FFA88F85FEA880000F083FD050049
:101CD000002D0BD0542000F07DFD0400002C01D01D
:101CE000256305E0280000F0ACFD01E000200400C1
:101CF000002C14D0002003900294CDF804B0CDF84D
:101D000000A04B461FFA88F842463900300000F028
:101D10000DF8200000F078F80120049002E05FF058
:101D2000FF300490049805B0BDE8F08F2DE9F94F1D
:101D300083B00D0016000E9F0F9CDDF84080B000B0
:101D40000190A5200090D8F830B0009A019958462B
:101D5000FFF76CFFD8F8300000EB8600001F8246CA
:101D60005FEADA0A5FEACA0A1AF00700002807D019
:101D7000802080F31188BFF34F8FBFF36F8FFEE792
:101D800000208146B9F1080F0CD215F8090008EBC4
:101D9000090181F8340015F80900002802D019F172
:101DA0000109EFE7002088F83B00052F01D304204C
:101DB0000700C8F82C70C8F844700020C8F8480024
:101DC00018F1040000F05DFD18F1180000F059FD55
:101DD000C8F81080D7F10500C8F81800C8F82480AA
:101DE0000020C8F84C00002088F85000049A03999D
:101DF000504600F087FDC8F80000002C01D0C4F860
:101E0000008005B0BDE8F08F10B5040000F017FEAB
:101E1000DFF860050068401CDFF858150860DFF83F
:101E20005805006800280AD1DFF84C050460DFF887
:101E300044050068012811D100F00CFB0EE0DFF82A
:101E40003C050068002809D1E06ADFF82C15096814
:101E5000C96A884202D3DFF820050460DFF8200554
:101E60000068401CDFF818150860DFF814050068EA
:101E7000E063DFF810050068E16A884203D2E06A97
:101E8000DFF800150860211DDFF8FC24E36A142048
:101E9000434302EB030000F0F7FC00F0EDFDDFF838
:101EA000DC04006800280FD0DFF8CC040068C06AAA
:101EB000E16A884208D25FF08050DFF8E8150860D8
:101EC000BFF34F8FBFF36F8F10BD38B505000024EF
:101ED000002D15D0DFF8D0050068002807D080203D
:101EE00080F31188BFF34F8FBFF36F8FFEE700F0D1
:101EF0004CF80021280000F01FFC00F04EF8040010
:101F0000002C08D15FF08050DFF8D8150860BFF3CF
:101F10004F8FBFF36F8F31BD1CB5DFF82C070190D9
:101F20000020009000234022DFF820170FF2F94034
:101F3000FFF7BCFE0400012C02D100F021FE0400DA
:101F4000012C16D1802080F31188BFF34F8FBFF38F
:101F50006F8F5FF0FF30DFF8AC1708600120DFF80B
:101F60001C1408600020DFF8E814086000F0F3FC9F
:101F70000AE014F1010F07D1802080F31188BFF32C
:101F80004F8FBFF36F8FFEE713BDDFF81C050068AE
:101F9000401CDFF814150860704770B50025002656
:101FA000DFF804050068002807D1802080F311883D
:101FB000BFF34F8FBFF36F8FFEE700F040FDDFF8F8
:101FC000E8040068401EDFF8E0140860DFF8D80479
:101FD000006800285DD1DFF89C030068002858D015
:101FE000DFF86006006800282BD0DFF85806C068CC
:101FF000C068050015F1180000F06FFC281D00F006
:102000006CFCDFF880030068E96A884203D2E86A62
:10201000DFF870130860291DDFF86C23EB6A1420C9
:10202000434302EB030000F02FFCE86ADFF848139B
:102030000968C96A8842D3D30120DFF8F016086026
:10204000CEE7002D01D000F037FADFF8DC06046897
:10205000002C0ED000F026F8002803D00120DFF875
:10206000CC160860641E002CF4D10020DFF8B816EE
:102070000860DFF8B806006800280AD001200600D2
:102080005FF08050DFF85C140860BFF34F8FBFF340
:102090006F8F00F0F1FC300070BDDFF8B4130968F9
:1020A000080070472DE9F0410027DFF8FC030068C5
:1020B00000287CD1DFF898030468641CDFF89003E3
:1020C0000460002C24D1DFF8E403006800680028D5
:1020D00007D0802080F31188BFF34F8FBFF36F8F3D
:1020E000FEE7DFF8C80300688046DFF8C403006835
:1020F000DFF8B8130860DFF8B803C0F80080DFF835
:1021000030060068401CDFF82816086000F0D4F99B
:10211000DFF8F005006884423DD3DFF890030068E3
:102120000068002805D15FF0FF30DFF8D81508609F
:1021300031E0DFF878030068C068C06805006868AF
:102140000600B44203D2DFF8BC05066023E0281D78
:1021500000F0C3FBA86A002803D015F1180000F0B6
:10216000BCFB88480068E96A884202D2E86A85496F
:102170000860291D844AEB6A1420434302EB0300E4
:1021800000F082FBE86A7C490968C96A8842C4D3C6
:1021900001200700C1E7784800687B49C26A142023
:1021A00042438858022809D30120070006E0DFF8DF
:1021B00078050068401CDFF870150860DFF86C05D2
:1021C0000068002801D0012007003800BDE8F08138
:1021D00080B5DFF8D4020068002804D00120DFF8C1
:1021E0004C15086040E00020DFF8401508606248A8
:1021F0000068006B604909680968884207D35E4837
:10220000006810F134015C48006801F037F85D495E
:10221000096808005C49142202FB00F28958002971
:102220000BD1002807D1802181F31188BFF34F8F94
:10223000BFF36F8FFEE7401EECE7534A142303FB06
:1022400000F31A4411004A6852684A604A6811F162
:1022500008039A4202D14A6852684A604968C968CC
:10226000454A11604749086001BD38B504000D00BA
:10227000002C07D1802080F31188BFF34F8FBFF36C
:102280006F8FFEE73C48006810F11801200000F055
:1022900007FB0121280000F04FFA31BD70B50500A1
:1022A0000E001400002D07D1802080F31188BFF3A9
:1022B0004F8FBFF36F8FFEE72F48006810F11801B2
:1022C000280000F0E1FA002C02D05FF0FF30060099
:1022D0002100300000F030FA70BD70B50500E868EC
:1022E000C0680400002C07D1802080F31188BFF360
:1022F0004F8FBFF36F8FFEE714F1180000F0EDFA77
:1023000069480068002814D1201D00F0E6FA1D4835
:102310000068E16A884202D2E06A1A490860211D19
:10232000194AE36A1420434302EB030000F0ACFABD
:1023300005E014F11801DFF80C0300F0A5FA0E48CF
:102340000068C06AE16A884206D2012006000120C6
:10235000DFF8E013086001E000200600300070BDE7
:10236000DFF8CC1309680160DFF8341409684160B4
:1023700070470000842F0020782F0020902F00202D
:10238000A02F00208C2F0020982C00202DE9F04158
:1023900004000D00002C07D1802080F31188BFF3CA
:1023A0004F8FBFF36F8FFEE7002D07D1802080F3A2
:1023B0001188BFF34F8FBFF36F8FFEE700F03FFB35
:1023C00023480768D4F80480B7EB0808286810F1A0
:1023D000010F02D1002006001CE0DFF85403006862
:1023E0002168884205D06068874202D30120060038
:1023F00010E02868804509D22868B0EB0800286002
:102400002000FFF7ADFF0020060003E00020286059
:102410000120060000F030FB3000BDE8F081012013
:10242000DFF810130860704710B5040000F039F8A9
:10243000DFF8700300680228F8D35FF08050DFF8FF
:1024400068130860BFF34F8FBFF36F8FEEE7000094
:10245000882F002010B500200400052C09D2DFF8D9
:102460004403142101FB04F1084400F0FBF9641C4F
:10247000F3E7DFF8380300F0F5F9DFF8340300F094
:10248000F1F9704800F0EEF90A4800F0EBF9DFF8D6
:102490001C0306490860DFF81803DFF8181308600A
:1024A00010BD704704ED00E0AC2F00207C2F002011
:1024B000802F0020EC2E0020DFF800030068006869
:1024C000002804D15FF0FF308E4A106008E0DFF88A
:1024D000EC020068C068C06801004868894A106062
:1024E0007047000004ED00E0DFF8D412096800290D
:1024F00002D10121080009E0DFF8C81209680029AB
:1025000002D10221080001E000210800704770B5E7
:10251000040025000026002C48D0E86ADFF8981255
:102520000968C96A884238D2A869002806D4DFF849
:1025300088020068C06AD0F10500A8616969DFF807
:102540006422EB6A1420434302EB030081421CD156
:10255000281D00F0C2F9DFF860020068C06AE86276
:10256000DFF864020068E96A884203D2E86ADFF8AB
:1025700058120860291DDFF82C22EB6A142043430F
:1025800002EB030000F080F904E0DFF82C020068A1
:10259000C06AE8620120060008E0686CDFF81812E3
:1025A0000968C96A884201D201200600300070BD66
:1025B00070B5040025000026002C40D0DFF8F8019B
:1025C0000068854207D0802080F31188BFF34F8FC9
:1025D000BFF36F8FFEE7A86C002807D1802080F33F
:1025E0001188BFF34F8FBFF36F8FFEE7A86C401EBB
:1025F000A864E86A696C884221D0A86C00281ED1C2
:10260000281D00F06AF9686CE862E86AD0F10500FC
:10261000A861DFF8B4010068E96A884203D2E86A79
:10262000DFF8A4110860291DDFF87821EB6A142077
:10263000434302EB030000F027F9012006003000BD
:1026400070BD0000D82E0020A82F00207871000057
:102650002DE9F84304000D0026005FF00109002C6D
:102660004ED0B06C002807D1802080F31188BFF3D2
:102670004F8FBFF36F8FFEE7706CA84201D2A84660
:1026800001E0706C8046F06A404539D0B06C484536
:1026900036D1DFF824010068864207D1802080F31C
:1026A0001188BFF34F8FBFF36F8FFEE7F06A07000B
:1026B000C6F82C80B069002802D4D8F10500B061BA
:1026C0007069DFF8E010142202FB07F2114488421F
:1026D00016D1301D00F001F9DFF8EC000068F16A56
:1026E000884203D2F06ADFF8E0100860311DDFF89D
:1026F000B420F36A1420434302EB030000F0C4F853
:10270000BDE8F183A42F0020DFF8AC0000680028AA
:1027100005D0DFF8A4000068816C491C8164DFF8F3
:102720009800006870470000942F0020982F002028
:102730009C2F0020982F0020F8B505000C001848A9
:1027400007681D480068001D00F0C7F815F1010F6B
:1027500008D1002C06D018480068011D1B4800F065
:1027600093F81BE0E8190600134800684660BE4273
:1027700007D211480068011D0E48006800F090F86B
:102780000CE00D480068011D0C48006800F088F856
:102790000F480068864201D20D480660F1BD000076
:1027A000882F0020982C002004ED00E0B02E00209F
:1027B000C42E0020802F0020782F00207C2F0020A6
:1027C000902F0020AC2F00208C2F0020EC2E00201A
:1027D000A42F002038B50500002415F0070F04D001
:1027E00015F1080015F00705451BFFF7CEFB1A4849
:1027F0000068002804D11948C008C00016490860C4
:1028000017480068281841F6F871884211D2144818
:10281000006813490968691888420AD20E4800689E
:102820000F490968084404000D48006828180C493D
:102830000860FFF7B2FB002C01D100F020FD200062
:1028400032BD002807D0802181F31188BFF34F8F5C
:10285000BFF36F8FFEE770476C2F00200803002046
:10286000682F002010F1080141605FF0FF318160A6
:1028700010F10801C16010F108010161002101603F
:10288000704700210161704742684A6093688B601D
:10289000936859609160086103685B1C036070472E
:1028A00010B40B6813F1010F02D10469220008E093
:1028B00010F10804220054682468A34201D352682E
:1028C000F9E754684C604C68A1608A605160086107
:1028D0000468641C046010BC7047010008698A68C1
:1028E0004B689A604A688B685A6042688A4201D194
:1028F0008A68426000220A610268521E0260006813
:102900007047254A001F5FF080730360001F4B086B
:102910005B000360001F0FF21503036014380260B0
:10292000001F7FF002030360203870477D48006875
:1029300010F1010F07D0802080F31188BFF34F8F73
:10294000BFF36F8FFEE7802080F31188BFF34F8FB6
:10295000BFF36F8FFEE700B583B07348006873491B
:10296000884207D1802080F31188BFF34F8FBFF3D7
:102970006F8FFEE76C4800686D49884207D1802060
:1029800080F31188BFF34F8FBFF36F8FFEE7694865
:1029900001780191FF21017001788DF800109DF8F8
:1029A000001011F08001644A11700721634A116020
:1029B0009DF8001009060AD560490968491E5F4A5A
:1029C00011609DF8001049008DF80010F0E75B4998
:1029D0000968D1F10701032907D0802181F311880B
:1029E000BFF34F8FBFF36F8FFEE7544909680902A9
:1029F000524A11605149096811F4E0614F4A11606F
:102A0000019901704E48006850F460004C4908601C
:102A10004B48006850F060404949086000F09AF85F
:102A200000204049086000F003FD4648006850F06F
:102A300040404449086000F0EBFC00200EBD8020BF
:102A400080F31188BFF34F8FBFF36F8F3548006855
:102A5000401C344908603348006801280BD13A48CB
:102A60000068000607D0802080F31188BFF34F8FE5
:102A7000BFF36F8FFEE770472A480068002807D130
:102A8000802080F31188BFF34F8FBFF36F8FFEE775
:102A900024480068401E2349086022480068002836
:102AA00002D1002080F31188704780B5802080F328
:102AB0001188BFF34F8FBFF36F8FFFF7F3FA002832
:102AC00003D05FF0805020490860002080F3118817
:102AD00001BD0000EFF305821000102811D31B4A3E
:102AE0001268125C11000A00134B1B78D2B29A4292
:102AF00007D2802282F31188BFF34F8FBFF36F8F0D
:102B0000FEE70E4A1268124B1B6813F4E0639A4208
:102B100007D2802282F31188BFF34F8FBFF36F8FEC
:102B2000FEE770477402002000ED00E071C20F4123
:102B300070C20F4100E400E0C42F0020742F002079
:102B400020ED00E034EF00E004ED00E08C710000C7
:102B50000CED00E0002006490860002005490860EF
:102B6000054806490860072001490860704700BF12
:102B700010E000E018E000E0BCD4010014E000E048
:102B80001CB5002400F0E4F9DFF800040068002818
:102B90000DD0DFF8FC0301900420009000234022B8
:102BA000DFF8F0130FF20110FFF780F80400002C9B
:102BB00007D1802080F31188BFF34F8FBFF36F8F51
:102BC000FEE7200016BD2DE9FE4304000D001600AF
:102BD0001F00DDF828805FF00009002C07D180205D
:102BE00080F31188BFF34F8FBFF36F8FFEE7DFF8DD
:102BF0009C030068002825D0009501960294062DBC
:102C000017DAFFF771FC022809D100234246694612
:102C1000DFF87803006800F0AFFC814612E0002383
:102C200000226946DFF86403006800F0A5FC8146D5
:102C300008E000233A006946DFF85003006800F01E
:102C400082FD81464846BDE8FE83F8B505000E00CA
:102C5000DFF844030068C068C768381DFFF73DFE11
:102C6000F86901281BD12B003200B96949193800D5
:102C700000F08AF8002812D00020009000232A00DB
:102C800000213800FFF79FFF0400002C07D18020AF
:102C900080F31188BFF34F8FBFF36F8FFEE73800CB
:102CA000796A8847F1BD000038B50400684600F035
:102CB00040F805000099280000F003F800F08CF8B7
:102CC000F4E770B582B005000C00FFF75EF96846C6
:102CD00000F046F806000098002827D1002C08D103
:102CE000AE4206D3FFF759F931002800FFF7ADFFD8
:102CF0001EE0002C07D0A94800680068002801D118
:102D0000012400E000242200A91BA048006801F073
:102D10006FF8FFF742F900280AD15FF08050A04910
:102D20000860BFF34F8FBFF36F8F01E0FFF735F9F6
:102D300073BD0200984909680968002901D1012181
:102D400000E00021C9B211601168002905D1924943
:102D50000968C9680968080001E000210800704797
:102D600038B50400FFF799F905008E4800688542E0
:102D700004D200F09FF80120206001E000202060D4
:102D800088480560280032BD2DE9F04104000D009F
:102D900016001F005FF0000865602461AE420CD38E
:102DA000F01BA169884202D30120804611E0211D59
:102DB0007A480068FFF774FD0BE0BE4204D2BD42C2
:102DC00002D30120804604E0211D73480068FFF70C
:102DD00067FD4046BDE8F08170B586B0002201A9CC
:102DE0006A48006800F0A3FD002861D0019800281F
:102DF000F4D4039805006869002802D0281DFFF765
:102E00006CFD04A8FFF7ACFF0600019800280ED067
:102E100002280CD00BD3042830D02ED3062806D09D
:102E200041D3082829D002D3092827D03FE0029BAC
:102E300032000299A86941182800FFF7A5FF002871
:102E40001AD02800696A8847E869012814D100204F
:102E500000900023029AA869821800212800FFF739
:102E6000B2FE0400002C07D1802080F31188BFF34C
:102E70004F8FBFF36F8FFEE7B0E7AFE70298A8610F
:102E8000A869002807D1802080F31188BFF34F8FF5
:102E9000BFF36F8FFEE733003200A969891928005C
:102EA000FFF772FF9AE72800FFF7CBFC96E795E75C
:102EB00006B070BD2DE9F04182B037480068006867
:102EC00000283AD034480068C068006805003248DD
:102ED0000068C068C068804618F10400FFF7FDFC78
:102EE0004046D8F824108847D8F81C000128E4D1BF
:102EF000D8F8180040190600B5420AD2C8F8046094
:102F0000C8F8108018F1040123480068FFF7C8FCD6
:102F1000D3E70020009000232A0000214046FFF75D
:102F200052FE0400002C07D1802080F31188BFF3EB
:102F30004F8FBFF36F8FFEE7BFE7174800680700AA
:102F4000164800681449086014480760BDE8F3811A
:102F500080B5FFF774FD0D480068002812D11248B3
:102F6000FFF780FC1148FFF77DFC0F480A49086015
:102F70000E480A49086000220C21022000F0B2FA33
:102F800002490860FFF778FD01BD0000B82F00205E
:102F9000BC2F002080710000B02F0020B42F002033
:102FA00004ED00E0C02F0020002F0020142F00208F
:102FB00080797047C9B2802303FB01F303449A6010
:102FC0007047C9B2802303FB01F303445A60704782
:102FD000C9B2802303FB01F303449A617047C9B26D
:102FE000802303FB01F303445A617047C9B2802375
:102FF00003FB01F30344DA61704730B4C9B28024A3
:1030000004FB01F40444D2B2144494F83040250087
:1030100015F0F00513F00F042543C9B2802404FB1A
:1030200001F40444D2B2144484F8305030BC7047E8
:1030300030B4C9B2802404FB01F40444D2B2144475
:1030400094F83040250015F00F05DBB21C01254334
:10305000C9B2802404FB01F40444D2B2144484F8BD
:10306000305030BC704730B4C9B2802505FB01F543
:103070000544D2B2154495F840502C0014F0FE04DB
:103080001C43C9B2802505FB01F50544D2B21544A5
:1030900085F8404030BC7047C9B2802303FB01F380
:1030A00003449A62704702690A42FCD17047006982
:1030B000704738B504000D00258048F20301200058
:1030C000FFF7F1FF31BD80B500F0FCFE01BD70B52A
:1030D00004000D001600F6B2002E03D0022E30D0F0
:1030E00018D346E02A002100C9B29F48FFF769FFC4
:1030F000AAB252F080422100C9B29B48FFF7CCFF30
:103100002A00120C52F040422100C9B29648FFF743
:10311000C3FF2EE02A002100C9B29348FFF751FFF8
:103120002A00C4F202022100C9B28F48FFF7B4FF9F
:103130008E4A52EA15422100C9B28B48FFF7ACFF14
:1031400017E02A002100C9B28748FFF733FFAAB26F
:1031500052F080422100C9B28348FFF79DFF2A0048
:10316000120C52F040422100C9B27F48FFF794FF91
:10317000FFE770BD70B505000E001400E4B2002C2E
:1031800006D032002900C9B27748FFF721FF05E0D9
:1031900032002900C9B27448FFF721FF70BD38B56D
:1031A00004000D002A002100C9B26F48FFF71EFF7E
:1031B00031BDF8B504000D002600760914F01F0794
:1031C00015F1010F08D100233A00D2B23100C9B283
:1031D0006548FFF748FF1EE001233A00D2B23100F4
:1031E000C9B26148FFF73FFFF8070AD52B00DBB2F1
:1031F0003A00D2B252083100C9B25B48FFF718FF5B
:1032000009E02B00DBB23A00D2B252083100C9B259
:103210005548FFF7F2FEF1BD38B504000D00290056
:103220002000FFF7C6FF31BD38B504000D002A00AD
:10323000D2B2012114F01F0081402000C0B2400929
:10324000FFF745FF31BD38B504000D002A00D2B2AA
:10325000012114F01F0081402000C0B24009FFF797
:1032600089FF31BD10B50400012114F01F00814019
:103270002000C0B24009FFF792FF10BDFEE7FEE755
:1032800010B5040000212B20FFF7DDFF02212B20C9
:10329000FFF7CAFF5FF0FF312B20FFF7BDFF4FF4B0
:1032A000FA70FEF712FE2B20FFF7DCFFF7E770B590
:1032B0002F4C4FF419755FF000562A0021003000A2
:1032C000FEF760FC5FF00050C009C00129490860AA
:1032D00070BD00B583B000F022FF2749002001F047
:1032E0005FF9FFF7E4FF2548FFF7E1FE002803D070
:1032F00001212248FFF7DDFE00212B20FFF7A3FF6D
:1033000002212B20FFF790FF5FF0FF312B20FFF70A
:1033100083FFFFF7D8FE01F0CFF91948FFF748FE09
:103320000028FAD0002001900220009000232022E3
:1033300014491548FEF7BAFC0020019001200090C6
:103340000023602211491248FEF7B0FC00200190D2
:1033500001200090002360220E490F48FEF7A6FCD2
:10336000FEF7DAFDFEE7000000800041000002C029
:103370000000000008ED00E0407100000024004063
:1033800000040040587100008132000060710000AC
:10339000A56A0000687100000B620000EFF309806D
:1033A000BFF36F8F264B1A681EF0100F08BF20ED79
:1033B000108A20E9F04F106009B44FF0800080F3CC
:1033C0001188BFF34F8FBFF36F8FFEF701FF4FF0F0
:1033D000000080F3118809BC19680868B0E8F04F54
:1033E0001EF0100F08BFB0EC108A80F30988BFF3FD
:1033F0006F8F7047124B19680868B0E8F04F80F380
:103400000988BFF36F8F4FF0000080F31188704779
:103410000C480068006880F308884FF0000080F3D3
:10342000148862B661B6BFF34F8FBFF36F8F00DFB2
:10343000DFF81400016841F470010160704700007A
:10344000782F002008ED00E088ED00E070B5060060
:103450000C003500002D07D1802080F31188BFF3C8
:103460004F8FBFF36F8FFEE7FFF7E9FA2968EA6B2A
:10347000286C424301EB020068600020A8632868C2
:10348000A8602968EA6B521E286C424301EB0200D7
:10349000E8605FF0FF3085F844005FF0FF3085F8AA
:1034A0004500002C12D12869002817D015F1100012
:1034B000FEF713FF002811D05FF08050DFF87C1773
:1034C0000860BFF34F8FBFF36F8F07E015F1100057
:1034D000FFF7C8F915F12400FFF7C4F9FFF7CCFA9C
:1034E000012070BD2DE9F84304000D001700002CE9
:1034F00007D1802080F31188BFF34F8FBFF36F8F08
:10350000FEE7002D02D10020804602E005FB04F01A
:10351000804618F15400FFF75DF90600002E0AD02E
:1035200016F15400814600963B00DBB24A46290062
:10353000200000F003F83000BDE8F2832DE9F041EF
:1035400005000C0016001F00DDF81880002C02D1C9
:10355000C8F8008001E0C8F80060C8F83C50C8F81E
:10356000404001214046FFF771FF88F8507000206D
:10357000C8F84800BDE8F0812DE9F74380460D000A
:10358000994600244746002F07D1802080F31188F8
:10359000BFF34F8FBFF36F8FFEE7002D02D1386C62
:1035A000002801D1012000E00020C0B2002807D18E
:1035B000802080F31188BFF34F8FBFF36F8FFEE73A
:1035C000B9F1020F02D1F86B012801D1012000E00E
:1035D0000020C0B2002807D1802080F31188BFF3FB
:1035E0004F8FBFF36F8FFEE7FEF77EFF002802D1FB
:1035F0000298002801D1012000E00020C0B200287C
:1036000007D1802080F31188BFF34F8FBFF36F8FF6
:10361000FEE7FFF714FAB86BF96B884202D3B9F1F1
:10362000020F3AD14A462900380000F016FB060086
:10363000B86C00280FD04946380000F0FFFB002886
:1036400027D05FF08050DFF8F4150860BFF34F8F8C
:10365000BFF36F8F1DE0786A00280FD017F12400A8
:10366000FEF73BFE002814D05FF08050DFF8CC1549
:103670000860BFF34F8FBFF36F8F0AE0002E08D0B2
:103680005FF08050DFF8B4150860BFF34F8FBFF3D1
:103690006F8FFFF7F1F9012053E00298002803D162
:1036A000FFF7EAF900204CE0002C04D16846FEF751
:1036B00057FE01200400FFF7DFF9FEF766FCFFF775
:1036C000BEF997F9440010F1010F02D1002087F8EC
:1036D000440097F9450010F1010F02D1002087F84E
:1036E0004500FFF7C9F902A96846FEF74FFE00281A
:1036F00021D1380000F06BFB002816D0029917F199
:103700001000FEF7B2FD380000F00CFBFEF745FCA0
:1037100000287FF47EAF5FF08050DFF8201508604E
:10372000BFF34F8FBFF36F8F73E7380000F0FAFAE3
:10373000FEF733FC6DE7380000F0F4FAFEF72DFCDD
:103740000020BDE8FE832DE9F84F07000D001400AE
:1037500098463E00002E07D1802080F31188BFF3E9
:103760004F8FBFF36F8FFEE7002D02D1306C002822
:1037700001D1012000E00020C0B2002807D1802044
:1037800080F31188BFF34F8FBFF36F8FFEE7B8F15F
:10379000020F02D1F06B012801D1012000E00020CE
:1037A000C0B2002807D1802080F31188BFF34F8F6B
:1037B000BFF36F8FFEE7FFF78DF9EFF311808246BD
:1037C000802080F31188BFF34F8FBFF36F8FB06BF2
:1037D000F16B884202D3B8F1020F2ED196F945B0B1
:1037E00042462900300000F038FA4FFA8BFB1BF1FB
:1037F000010F1BD1B06C00280AD04146300000F008
:103800001DFB002816D0002C14D00120206011E0F0
:10381000706A00280ED016F12400FEF75EFD002825
:1038200008D0002C06D00120206003E01BF101002D
:1038300086F845000120814601E0002081468AF398
:1038400011884846BDE8F28F2DE9F04706000C00CC
:103850003500002D07D1802080F31188BFF34F8FF2
:10386000BFF36F8FFEE7286C002807D0802080F31D
:103870001188BFF34F8FBFF36F8FFEE728680028D2
:1038800002D16868002801D1012000E00020C0B208
:10389000002807D1802080F31188BFF34F8FBFF33A
:1038A0006F8FFEE7FFF716F9EFF311808046802057
:1038B00080F31188BFF34F8FBFF36F8FD5F8389027
:1038C000E86B81452CD295F945A019F10100A86358
:1038D0004FFA8AFA1AF1010F1BD1A86C00280AD0FE
:1038E0000021280000F0AAFA002816D0002C14D0DD
:1038F0000120206011E0686A00280ED015F1240034
:10390000FEF7EBFC002808D0002C06D00120206038
:1039100003E01AF1010085F845000120070001E0ED
:103920000020070088F311883800BDE8F0872DE9F2
:10393000F44183B080460E0000244746002F07D193
:10394000802080F31188BFF34F8FBFF36F8FFEE7A6
:10395000002E02D1386C002801D1012000E00020A7
:10396000C0B2002807D1802080F31188BFF34F8FA9
:10397000BFF36F8FFEE7FEF7B7FD002802D1039873
:10398000002801D1012000E00020C0B2002807D1AA
:10399000802080F31188BFF34F8FBFF36F8FFEE756
:1039A000FFF74DF8BD6B002D1BD03100380000F043
:1039B000A1F9681EB863386900280ED017F110000D
:1039C000FEF78BFC002808D05FF08050DFF86C1207
:1039D0000860BFF34F8FBFF36F8FFFF74DF80120E3
:1039E00057E00398002803D1FFF746F8002050E085
:1039F000002C04D16846FEF7B3FC01200400FFF759
:103A00003BF8FEF7C2FAFFF71AF897F9440010F1F5
:103A1000010F02D1002087F8440097F9450010F10A
:103A2000010F02D1002087F84500FFF725F803A910
:103A30006846FEF7ABFC002820D1380000F0B7F94B
:103A4000002815D0039917F12400FEF70EFC38006A
:103A500000F068F9FEF7A1FA0028A1D15FF08050CC
:103A6000DFF8D8110860BFF34F8FBFF36F8F97E770
:103A7000380000F057F9FEF790FA91E7380000F0AF
:103A800051F9FEF78AFA380000F091F9002887D042
:103A9000002004B0BDE8F0812DE9F24183B08046FA
:103AA000002447460025002F07D1802080F311888D
:103AB000BFF34F8FBFF36F8FFEE7386C002807D03E
:103AC000802080F31188BFF34F8FBFF36F8FFEE725
:103AD000FEF70AFD002802D10398002801D1012039
:103AE00000E00020C0B2002807D1802080F31188B8
:103AF000BFF34F8FBFF36F8FFEE7FEF7A0FFBE6BE4
:103B0000002E1CD0701EB8633868002802D1FEF762
:103B1000FBFD7860386900280DD017F11000FEF722
:103B2000DCFB002807D05FF0805044490860BFF3F9
:103B30004F8FBFF36F8FFEF79FFF01207AE003984E
:103B400000280DD1002D07D0802080F31188BFF30D
:103B50004F8FBFF36F8FFEE7FEF78EFF002069E007
:103B6000002C04D16846FEF7FBFB01200400FEF7A1
:103B700083FFFEF70AFAFEF762FF97F9440010F19F
:103B8000010F02D1002087F8440097F9450010F199
:103B9000010F02D1002087F84500FEF76DFF03A951
:103BA0006846FEF7F3FB00282AD1380000F0FFF842
:103BB00000281FD03868002807D1FEF740FF78683A
:103BC000FEF7A5FC0500FEF757FF039917F1240047
:103BD000FEF74BFB380000F0A5F8FEF7DEF90028F1
:103BE0008BD15FF0805015490860BFF34F8FBFF352
:103BF0006F8F82E7380000F095F8FEF7CEF97CE78A
:103C0000380000F08FF8FEF7C8F9380000F0CFF860
:103C100000283FF472AF002D0BD0FEF710FF3800E4
:103C200000F00EF8060031007868FEF711FDFEF78F
:103C300023FF002004B0BDE8F081000004ED00E0A7
:103C40000200516A002905D0116B0968D1F1050104
:103C5000080001E00021080070472DE9F047070047
:103C60000E0014005FF00008B86B0500386C0028E7
:103C700009D13868002838D17868FEF799FC804669
:103C80000020786031E0002C13D1D7F84090D7F8AD
:103C900008A04A4631005046FDF774FFB868396CF9
:103CA0000844B860B868796888421ED33868B8603C
:103CB0001BE0D7F84090D7F80CA04A463100504698
:103CC000FDF760FFF868396C49420844F860F8680D
:103CD0003968884204D27868396C49420844F860EF
:103CE000022C02D1002D00D06D1E681CB863404626
:103CF000BDE8F087F8B504000D00206C002810D056
:103D0000E068216C0844E060E0686168884201D3A3
:103D10002068E060266CE768320039002800FDF773
:103D200031FFF1BD70B50400FEF789FE94F94550EE
:103D30006DB2012D1ADBA06C002808D000212000F4
:103D400000F07CF800280FD0FEF769FB0CE0606AF9
:103D5000002808D014F12400FEF7BFFA002803D091
:103D6000FEF75DFB00E001E06D1EE1E75FF0FF3074
:103D700084F84500FEF780FEFEF761FE94F944608A
:103D800076B2012E0CDB2069002809D014F1100056
:103D9000FEF7A3FA002801D0FEF741FB761EEFE7FD
:103DA0005FF0FF3084F84400FEF766FE70BD38B562
:103DB0000400FEF744FEA06B002802D1012005009C
:103DC00001E000200500FEF757FE280032BD38B59F
:103DD0000400FEF734FEA06BE16B884202D10120A3
:103DE000050001E000200500FEF746FE280032BD78
:103DF000F8B504000D0016002700FEF720FE97F925
:103E0000440010F1010F02D1002087F8440097F917
:103E1000450010F1010F02D1002087F84500FEF7A0
:103E20002BFEB86B002805D13200290017F12400C1
:103E3000FEF734FA3800FFF775FFF1BDF1B50D005C
:103E40000098846C0026002C07D1802080F3118814
:103E5000BFF34F8FBFF36F8FFEE7A06BE16B88421C
:103E600007D3802080F31188BFF34F8FBFF36F8F8C
:103E7000FEE7A06BE16B88421AD294F945702A00E4
:103E800069462000FFF7E9FE06007FB217F1010F37
:103E90000BD1606A00280BD014F12400FEF71DFA44
:103EA000002805D00120060002E07F1C84F8457040
:103EB0003000F2BD028889B20B0213F470631A431A
:103EC0000280704780B505210948FFF7F3FF00F035
:103ED0006BFC00F042FD00F0D7FD082000F0F0FD83
:103EE00000F03DFD40F6F77000F0EAFD01BD000076
:103EF0000040004110B5DFF83002040003202061CB
:103F000003206061DFF82402A061DFF82402E06191
:103F10004FF4806020620020A062002060620020D8
:103F2000E062DFF808022066DFF8080260668020A1
:103F3000A066002020670020E0660020606748A19E
:103F4000E01D00F0DFFDDFF8F011200000F0DAFDE9
:103F50002020A07110BD2DE9F84F05000E001400BF
:103F600000200700E868814628698046C14504D2E0
:103F7000B8EB0900401E824606E0A868B0EB0900D5
:103F800018EB0000401E8246A868B0EB090082458D
:103F900003D3D5F808A0BAEB090AA24500D3A2467C
:103FA0000096686800EB090B524600995846FDF7E9
:103FB000E9FD1AEB07075644B4EB0A041AEB0909AA
:103FC000A868814501D100208146C5F80C90002CDD
:103FD000CAD13800BDE8F28F2DE9F84F04000D007A
:103FE0001600E0680700A068C01B804646450AD25C
:103FF000606800EB0709320029004846FDF7C2FD62
:10400000F019E06017E0C346D846606800EB070986
:10401000424629004846FDF7B5FDB6EB0800834649
:1040200005EB0809D4F804A05A4649465046FDF766
:10403000A9FDC4F80CB0BDE8F18F10B401000C6903
:104040002200CC682300934205D38C68641EE41AD6
:104050001419200002E0D41A641E200010BC70471E
:10406000525454002DE9F04704000D001600A946F3
:10407000DFF8B400182101FB04F10844183082462F
:10408000DAF81400002803D0022820D010D325E04D
:104090005046FFF7D2FF8046B04502D2002007000D
:1040A00005E03700320049465046FFF795FF17E01C
:1040B0005046FFF7C2FF8046B04501D2474600E0B8
:1040C00037003A0049465046FFF786FF08E03200C5
:1040D00049465046FFF73FFF070001E00020070078
:1040E0003800BDE8F0872DE9F04104000D0016000E
:1040F000DFF834000078002801D1FFF7FBFEEFF372
:104100001188202080F31188320029002000FFF759
:10411000A9FF070088F311883800BDE8F08180B559
:10412000FFF7E8FE01BD0000D02A00204C7100001E
:1041300000230020182C00207071000070B50400CE
:104140000D00A06806006068711C884206D32068D4
:104150008555701CA060E068401CE060A068616844
:1041600088420DD1A26821682069FFF7BCFFA168D1
:10417000884203D05FF0FF30E06001E00020A060E3
:1041800070BD2DE9F04F83B00700884691461E00B0
:104190000C9CC2460120050001208346CA4504D379
:1041A000BAFBF9FA1BF1010BF8E7B34500D2B346AD
:1041B0000D98C0071AD4002C18D00D98800705D58B
:1041C000002E03D130208DF8000002E020208DF871
:1041D0000000002C0AD0A34508D2641E9DF80010F0
:1041E0003800FFF7ABFFF8680028F2D5F868002820
:1041F00030D4022E01D3761E05E0B8FBF5F0019015
:104200000198484502D309FB05F5F2E7B8FBF5F044
:104210000190019805FB10880F480199415C380016
:10422000FFF78CFFF868002803D4B5FBF9F5002DE3
:10423000ECD10D98C0070DD5002C0BD0002C09D067
:10424000A34507D2641E20213800FFF777FFF868E6
:104250000028F3D5BDE8F78F247100002DE9F04F59
:1042600083B006000F0090461D000C9CDDF83490D2
:10427000002F02D5D7F1000B00E0BB46012082469B
:10428000C34504DB9BFBF8FB1AF1010AF8E7AA45DA
:1042900000D2AA46002C05D0002F02D45FEA497054
:1042A00000D5641E5FEA897001D5002D10D05FEA49
:1042B000C9700DD4002C0BD0002C09D0A24507D218
:1042C000641E20213000FFF739FFF0680028F3D585
:1042D000F068002831D4002F05D57F422D21300011
:1042E000FFF72CFF06E05FEA497003D52B21300071
:1042F000FFF724FFF06800281FD419F003000228FC
:104300000FD1002D0DD1002C0BD0002C09D0A245CF
:1043100007D2641E30213000FFF710FFF06800283C
:10432000F3D5F068002808D4CDF8049000942B0051
:10433000424639003000FFF724FFBDE8F78F2DE932
:10434000F14F98B08A46160007A8029040200390CB
:104350000020049018980690002005909AF800001C
:1043600004001AF1010AE4B2002C00F00681E4B264
:10437000252C40F0F98000200700012005009AF864
:1043800000000400E4B22000232815D02B280ED012
:104390002D2802D0302805D013E057F001071AF17C
:1043A000010A10E057F002071AF1010A0BE057F07A
:1043B00004071AF1010A06E057F008071AF1010A8A
:1043C00001E000200500002DD9D1002080469AF898
:1043D00000000400E4B2302C02DBE4B23A2C08DB2B
:1043E000002081469AF800000400E4B22E2C1ED171
:1043F00008E01AF1010A0A20E4B200FB0848B8F10B
:104400003008E4E71AF1010A9AF800000400E4B267
:10441000302C02DBE4B23A2C00DB08E01AF1010A8E
:104420000A20E4B200FB0949B9F13009ECE79AF837
:1044300000000400E4B26C2C02D0E4B2682C05D178
:104440001AF1010A9AF800000400F3E7E4B2200030
:10445000252800F08180582840D063280AD064289D
:1044600018D0702865D073284AD0752824D07828B1
:1044700034D076E030683060306800683168091DFB
:1044800031600500280083465946C9B202A8FFF7EB
:1044900055FE66E030683060306800683168091D9C
:1044A000316005000197CDF800804B460A222900B3
:1044B00002A8FFF7D3FE54E030683060306800682F
:1044C0003168091D316005000197CDF800804B4629
:1044D0000A22290002A8FFF754FE42E0306830604B
:1044E000306800683168091D316005000197CDF81A
:1044F00000804B461022290002A8FFF742FE30E060
:10450000306830603068D0F800B03068001D30602E
:104510009BF8000004001BF1010BE4B2002C07D053
:104520002100C9B202A8FFF709FE05980028EFD5BF
:1045300017E030683060306800683168091D31600C
:104540000500002001900820009008231022290077
:1045500002A8FFF716FE04E0252102A8FFF7EEFDF2
:10456000FFE71AF1010A04E02100C9B202A8FFF72F
:10457000E5FD059800287FF5F1AE059801280BDBD5
:104580000498002804D0049A07A91898FFF7ABFDF7
:104590000599049841180591059819B0BDE8F08F68
:1045A0000CB470B582B004000D0006A800906A46F5
:1045B00029002000FFF7C3FE0600300076BC5DF83E
:1045C0000CFB000000B2002809D4012210F01F01EA
:1045D0008A40664900B203005B0941F82320704716
:1045E00000B200280DD4012210F01F018A4060495A
:1045F00000B203005B0941F82320BFF34F8FBFF3E4
:104600006F8F704700B2002809D4012210F01F01FB
:104610008A40584900B203005B0941F823207047E3
:1046200010B400B2002804D44A01534B00B21A540B
:1046300007E04A01514B00B210F00F04234403F885
:10464000042C10BC70474E4A126800B202EB800383
:104650001964704742680A42FCD170474161704753
:1046600001617047C160704710B50400207850F0B8
:104670000200207003212000FFF7ECFF10BD38B5C9
:1046800004000D00257003212000FFF7E3FF31BD7A
:10469000C9B200EB8103DA6170470163704741637F
:1046A0007047C9B200EB8103C3F8802070474169AD
:1046B00051F480614161704780B541220421314845
:1046C000FFF7EFFF3048FFF7F2FF01212F48FFF718
:1046D000D6FFFF212D48FFF7E2FF4FF483712B48EF
:1046E000FFF7DBFF5FF0BB3200212848FFF7D0FF68
:1046F000274A01212548FFF7CBFF2448FFF7B4FFE5
:1047000001BDF8B504000D001600E4B2102C2ADA41
:10471000E4B214F10C07380000B2FFF761FF012189
:10472000A1401A48FFF79EFF280000281BD029004F
:10473000380000B2FFF787FF3100380000B2FFF702
:104740006FFF380000B2FFF75DFF380000B2FFF7DF
:1047500039FF0121A1400D48FFF780FF0121A14051
:104760000A48FFF77DFFF1BD0000000000E100E016
:1047700080E100E080E200E000E400E018ED00E00D
:1047800008ED00E0001C0040000800400028004048
:104790000BBBB00B017470470100CA691000C0F375
:1047A00005207047C161704738B5094C00252000CD
:1047B000FFF7F2FF0500ADB2290211F47C51200091
:1047C000FFF7F0FF01212000FFF7E4FF31BD0000FB
:1047D0000014004042680A42FCD1704740688008DB
:1047E00010F00100704740687047F8B504000D00F4
:1047F0001600EDB204EB8500006A07003F093F0197
:1048000016F00F000743EDB204EB8500076243F694
:10481000FD712000FFF7DEFFF1BDC9B200EB81039F
:10482000C3F880207047C9B2142303FB01F303448B
:10483000DB6B1342F7D17047C9B2142251430844CD
:10484000006C10F001007047C9B2142251430844B3
:10485000006C400810F00100704770B504000D00B6
:104860001600EDB2142000FB05F0204480F8306003
:1048700002222900C9B22000FFF7D5FF70BD70B534
:1048800004000D001600EDB2142000FB05F02044DA
:10489000466306222900C9B22000FFF7C4FF70BD9D
:1048A000C9B2142303FB01F303449A637047006900
:1048B000000A10F001007047020013691800084058
:1048C00070470177704790F82020110011F0010126
:1048D000C9B2002901D0012000E00020C0B2704719
:1048E00080F82010704741627047406A70478162CB
:1048F000704790F82C201100C1F34001C9B2002983
:1049000001D0012000E00020C0B2704790F82C20B8
:104910001100C1F38001C9B2002901D0012000E0DB
:104920000020C0B2704790F82C201100C1F3C001E4
:10493000C9B2002901D0012000E00020C0B27047B8
:1049400090F82C201100C1F30011C9B2002901D048
:10495000012000E00020C0B270474648704770B5A3
:10496000444C042200214448FFF73FFF4248FFF730
:1049700035FF0028FAD100212000FFF7A2FF3F49B0
:104980002000FFF7B4FF2000FFF7DAFF0028FAD17C
:1049900000212000FFF7A4FF2000FFF7B7FF002849
:1049A000FAD1022005002900C9B22000FFF789FFD3
:1049B0002000FFF79EFF0028FAD12000FFF795FFA7
:1049C00001002000FFF78FFF2000FFF7ACFF002859
:1049D000FAD1192005002900C9B22000FFF780FF95
:1049E0002000FFF793FF0028FAD14322012122483B
:1049F000FFF713FF224A00212000FFF740FF4FF48A
:104A0000006200212000FFF74BFF0222002120005E
:104A1000FFF723FF2000FFF756FF002808D04FF4D0
:104A2000106631002000FFF747FFB04205D0F8E7DD
:104A30002000FFF73CFF0028FAD000212000FFF7FC
:104A4000FBFE002805D100212000FFF7FDFE002815
:104A5000F3D00948FFF7C7FE0028FAD1072200214A
:104A60000548FFF7C2FE0448FFF7B8FE0028FAD158
:104A700070BD000000100040001C004080BB01041D
:104A80004D0E01004171704710B5034C012120000B
:104A9000FFF7F8FF10BD00000008004042680A421E
:104AA000FCD1704770B504000D001600EDB204EBA8
:104AB0008500066243F6FD712000FFF7EFFF70BD31
:104AC00010B50400E00704D50A4A00210A48FFF7A0
:104AD000E9FFA00704D5094A01210748FFF7E2FFD3
:104AE000200704D5064A03210348FFF7DBFF10BD6A
:104AF0000000000007010100001C00400601010049
:104B0000040101005FEA000C80EA01039B0715D154
:104B1000830706D011F8013B00F8013BB3B18307CE
:104B2000F8D10A68B2F1013323EA020313F0803F9F
:104B300002BF40F8042B51F8042FF3E711F8013BB2
:104B400000F8013B13B111F8013BF9E760467047EB
:104B500001784078000250FA81F080B27047007806
:104B6000704710B504002000FFF7F9FF204410BD86
:104B700080B5801CFFF7ECFF02BDF8B505000E0004
:104B80000024F788BFB2132F01DB12200700002C8E
:104B90000BD10122DFF8600800684168DFF858088F
:104BA0000068006800F058FC0400002C01D10020CF
:104BB0000CE00023BFB23A0021002800C0B200F090
:104BC0009FFB002801D0002000E00120F2BD2DE96C
:104BD000F04705000E000024B6F80680B6F80290F3
:104BE000DFF81408007F401E414689B2014202D11D
:104BF0005FF0010A01E05FF0000A002C0DD119F10D
:104C00000102D2B2DFF8F00700684168DFF8E80778
:104C10000068006800F05CFC0400002C01D100205A
:104C20001CE02000FFF7A4FF07003800414680B2D7
:104C300089B2884202D30020824600E0B84653463B
:104C4000DBB21FFA88F8424621002800C0B200F00B
:104C500057FB002801D0002000E00120BDE8F087CC
:104C60002DE9F84305000E00F788B6F80280DFF85A
:104C70008807007F401E390089B2014202D15FF0EF
:104C8000010901E05FF000094246D2B2DFF868078F
:104C900000684168DFF860070068006800F040FCC9
:104CA0000400002C01D1002018E02078390080B2E7
:104CB00089B2884202D30020814601E020780700B3
:104CC0004B46DBB2BFB23A0021002800C0B200F070
:104CD00017FB002801D0002000E00120BDE8F2838E
:104CE00010B502004C88A4B2240AE4B2012C04D00E
:104CF00012D3032C0BD005D30EE01000C0B2FFF787
:104D00003CFF0AE01000C0B2FFF761FF05E01000B1
:104D1000C0B2FFF7A5FF00E0002010BD2DE9F04173
:104D200082B004000D00287810F01F00C0B20028E7
:104D300002D0022803D012D20020009011E00221FC
:104D4000A888C0B200F002FF00900098002801D5AA
:104D500000201BE0009810F00100009001E000200E
:104D600014E002266F46DFF89006D0F81480320077
:104D700039004046FCF706FF00230222DFF87806E0
:104D800041692000C0B200F0BBFA0120BDE8F68105
:104D900070B50500DFF860060469DFF85C06417F46
:104DA0000122A888824011420ED10020DFF8481667
:104DB0004969087000230122DFF83C0641690020A0
:104DC00000F09EFA01201AE0002C17D02A000221E0
:104DD0002000636898470600002801D52468F3E79F
:104DE000DFF814064069067000230122DFF8080688
:104DF0004169002000F084FA012000E0002070BD2D
:104E000038B504000D00687800281ED0062804D0AC
:104E1000082808D00A281ED021E029002000C0B2AE
:104E2000FFF75EFF1CE0DFF8D005C07EDFF8C81595
:104E30004969087000230122DFF8BC0541692000A0
:104E4000C0B200F05DFA01200AE029002000C0B2E3
:104E5000FFF764FF04E02800FFF79AFF00E000205E
:104E600032BD38B504000D00287810F01F0002286C
:104E700012D1E888002801D000200EE00021A88887
:104E8000C0B200F063FE0123002200212000C0B266
:104E900000F036FA012000E0002032BD38B50400F1
:104EA0000D00287810F01F00022812D1E888002891
:104EB00001D000200EE00121A888C0B200F046FE1B
:104EC0000123002200212000C0B200F019FA0120C5
:104ED00000E0002032BD10B5DFF81C050469002C8D
:104EE00006D0002201212000636898472468F6E775
:104EF00010BD2DE9FC41060000254FF0FF08F6B279
:104F0000002E03D1FFF7E7FF012047E0002D0CD171
:104F10003200D2B2DFF8E00400684168DFF8D8045C
:104F20000068006800F0D4FA0500002D01D10020CF
:104F300034E02800FFF71CFE0700BFB205EB0700B6
:104F4000019004220199280000F086FA0090009850
:104F5000002822D0404600998978C0B2884211D0FA
:104F6000009880788046DFF8900400690400002CE7
:104F700008D06A460021200063689847002801D0C5
:104F80002468F4E70098FFF7ECFD009004220199F3
:104F9000009800F061FA0090D9E70120BDE8F681A1
:104FA00010B504002000C0B200F08FFC10BDF0B5B9
:104FB00083B006000F000024002C0DD1DFF8380468
:104FC000C27EDFF8340400684168DFF82C04006812
:104FD000006800F07DFA0400002C01D1002057E0A9
:104FE00000942000FFF7C4FD2044019004220199A1
:104FF000009800F031FA0400002801D1002047E0B9
:10500000A078390080B289B2884205D1E0783100B9
:1050100080B289B288420DD00098FFF7A2FD0090BF
:1050200004220199009800F017FA0400002CE7D13F
:1050300000202DE00094DFF8C00300690500002D7A
:1050400025D06A46012128006B689847002801D0C6
:105050002D68F4E76A46002128006B68984700280D
:1050600013D1B6B2002E08D0DFF88C03407F0121A7
:10507000B9400843DFF8801348770023002200215D
:10508000002000F03DF9012002E0002000E00020B7
:10509000FEBD38B504000D00687801282CD0032827
:1050A00030D0052804D0092810D00B2830D034E0A7
:1050B0000123002200212000C0B200F021F90028C5
:1050C00001D1012000E00020C0B227E06888C0B212
:1050D000FFF70FFF002801D100201FE0012300226D
:1050E00000212000C0B200F00BF9002801D10120FE
:1050F00000E00020C0B211E029002000C0B2FFF79C
:10510000B0FE0BE029002000C0B2FFF7C7FE05E0AB
:10511000A9886888FFF74BFF00E0002032BD10B57A
:10512000DFF8D4024468002C06D06068002801D063
:10513000606880472468F6E710BD70B505000E0072
:10514000DFF8B402C468002C09D06068002804D0DD
:1051500031002800C0B2626890472468F3E770BD50
:105160002DE9F04106000F009046DFF88C028568BB
:10517000002D16D06868002811D04246D2B23900FE
:105180003000C0B26B6898470400002C01D10120A8
:1051900008E014F10A0F02D05FF0FF3002E02D6842
:1051A000E6E70020BDE8F08180B5FFF7B8FF01BD5C
:1051B00038B504000D00002229002000C0B2FFF71E
:1051C000CFFF012803D0B0F1FF3F02D003E0012060
:1051D00017E0002015E0287810F0E000C0B20028A9
:1051E00002D0802806D00BE029002000C0B2FFF7D3
:1051F00050FF06E029002000C0B2FFF701FE00E0EA
:10520000002032BD10B504002078002827D1607836
:10521000052812D0092822D160887749C87660888D
:10522000002801D0042000E00320734988767248EA
:10523000817E0120FFF781FF11E06088C0B2FFF797
:10524000AFFE6088002801D0032000E002206A49F8
:1052500088766948817E0120FFF76FFFFFE710BD68
:1052600010B50400012221000020FFF779FF002083
:1052700010BD70B504000D001600EDB2002D02D077
:10528000012D04D007E03000FFF7BCFF03E0300041
:10529000FFF7E6FF00E0002070BD80B5FFF71BFEC2
:1052A00002205549887600205349C876002052498B
:1052B0004877002000F05DFB4F48007F00F00CFBBA
:1052C0004E4A0021002000F057FC4D4A02210020E8
:1052D00000F052FC002000F063FB01BD38B5040073
:1052E0000D00E4B2002C02D0012C05D007E029000B
:1052F0000020FFF722FF02E0FFF7CFFFFFE731BDFD
:10530000FEB504000D0016001F00009501968DF8F3
:1053100008408DF80970684600F066FBFEBD38B5A0
:1053200004000D00E4B2002C03D0022C0BD005D3F6
:105330000EE02900334800F04DFC09E02900324816
:1053400000F048FC04E02900304800F043FCFFE78F
:1053500031BD2DE9F041040000F05BFA0500002D9D
:1053600001D5280013E020260027DFF88C803A00C2
:1053700031004046FCF75AFC1F4844612449002094
:1053800000F092FA2349012000F08EFA0020BDE8D7
:10539000F08110B5040021001F4800F01BFC10BD77
:1053A00010B504001448807E002802D07FF003006E
:1053B00010E0002C0CD0104804602068C0790E4921
:1053C000087701200C49887600F077FA002001E088
:1053D0007FF0080010BD80B500F073FA01BD0648EB
:1053E000406970470448807EC00601D5102001E066
:1053F0000148807E704700007C2E0020B1510000E3
:1054000073520000802E0020842E0020882E002061
:10541000A9510000DD5200008C2E00200178407858
:10542000000250FA81F080B27047007870474078EF
:10543000704710B504002000FFF7F7FF204410BDAF
:1054400080B5801CFFF7EAFF02BD10B50400200004
:10545000FFF7F6FF204410BDF8B504000D0016005C
:10546000AC4214D22000FFF7E0FF022801DA00204E
:105470000EE037002000FFF7DAFFFFB2874201D1CC
:10548000200005E02000FFF7D4FF0400E8E700203B
:10549000F2BD38B504000D00AC4217D22000FFF772
:1054A000C4FF022801DA002011E02000FFF7BFFF4F
:1054B00004280BD02000FFF7BAFF052801D12000F7
:1054C00005E02000FFF7B5FF0400E5E7002032BD4E
:1054D00070B504000D001600022229002000FFF71D
:1054E000BBFF0400002C01D1002018E0AC4215D213
:1054F0002000FFF79AFF022801DA00200FE0607811
:1055000002280BD160793100C9B2884201D1200054
:1055100005E02000FFF799FF0400E7E7002070BDD9
:10552000F8B504000D00160000200700AC421ED2A2
:10553000032229002000FFF78FFF0400002C14D065
:105540002000FFF772FF022801DA002010E0380087
:105550003100C0B2C9B2884201D1200008E07F1CEE
:105560002000FFF766FF0400E0E7002000E00020D5
:10557000F2BD000010B401000020020052B20D2A5A
:1055800023DADFF83C0652B25301184440780B008E
:10559000DBB2984202D1100040B218E0DFF82006DA
:1055A00052B25301C05C00280DD1C9B211F00F00F6
:1055B000DFF80C3652B2540123445B78984202D192
:1055C000100040B203E0521CD8E75FF0FF3010BC7F
:1055D00070472DE9F04184B006000C001700984692
:1055E0000A9D0097CDF80480E4B2002C02D056F05A
:1055F000800001E016F00F008DF808008DF80950CA
:105600006846FCF7D3F904B0BDE8F0810300002040
:1056100070472DE9F04104002000C0B2FFF7AAFF57
:105620000500DFF89C056DB2690100EB010616F17B
:105630000C0739002000C0B2FCF77AF980465FFA07
:1056400088F8B8F1080F0BD001212000C0B2FCF798
:10565000E9F8012154F08000C0B2FCF7E3F820E043
:1056600000212000C0B2FCF7DDF8002154F08000DA
:10567000C0B2FCF7D7F80120B07039002000C0B2EA
:105680007269904700280CD10520B07001212000DC
:10569000C0B2FCF7C7F8012154F08000C0B2FCF79B
:1056A000C1F8BDE8F08170B504000D002000C0B263
:1056B000FFF760FF0600DFF8080576B2710100EB26
:1056C00001029078032805D129002000C0B2926918
:1056D000904700E0002070BDF8B50600B778347B35
:1056E00014F08004E4B2E409FFB2032F27D116F1CD
:1056F0000C0201217078F36998470500EDB2002D86
:1057000010D00520B0700220F070E4B2002C01D05F
:10571000707802E0707850F080000121C0B2FCF790
:1057200081F814E00420B0700120009000230022D2
:1057300094F00101C9B27078FFF74BFF07E016F152
:105740000C0200217078F36998470220B070F1BD17
:105750002DE9F04105000C0016002800C0B2FFF74B
:1057600009FF0700DFF858047FB2790100EB010858
:10577000002C0ED1002088F8030098F800000028C3
:1057800003D14046FFF7A8FF41E0012088F802005E
:1057900035E0012C13D1022088F8030098F80000AE
:1057A000002808D1022088F8020000212800C0B299
:1057B000FCF738F823E0052088F802001FE0022CEF
:1057C0000ED1042088F8030098F80000002803D1C7
:1057D000022088F802001AE0012088F802000EE09A
:1057E000032C06D1002088F80200052088F8030069
:1057F00005E0062088F80200062088F80300320041
:1058000098F803102800C0B2D8F81C309847BDE8BB
:10581000F0812DE9F041FBF73FFD0500002D01D59A
:1058200028003FE04FF4D0760027DFF894833A0059
:1058300031004046FCF7FAF900200400E4B20D2CD8
:1058400020DAFF20DFF87813E4B2620111444870D7
:10585000DFF87003DFF86813E4B2620111444861B5
:10586000DFF86003DFF85813E4B262011144886185
:10587000DFF85003DFF84813E4B262011144C86155
:10588000641CDBE7DFF840130020FCF742F9DFF887
:105890003C130120FCF73DF9DFF834130220FCF73C
:1058A00038F90020BDE8F08138B504000D0029006A
:1058B0002000C0B2FCF71BF931BD80B5FBF73EFDFF
:1058C00002BD80B5FBF765FD01BD10B504002000E9
:1058D000C0B2FBF767FD10BD80B50200D2B292B234
:1058E0000021002000F001F802BD2DE9F84304007A
:1058F0000D0016002000C0B2FFF73CFE8046DFF826
:10590000C0024FFA88F85FEA481100EB01094FFA2C
:1059100088F8B8F1000F02D47FF0130027E0FF20D1
:10592000FFF728FE80464FFA88F8B8F1000F02D53D
:105930007FF014001BE0DFF888024FFA88F85FEA76
:10594000481108448146320092B22900C9B22000B1
:10595000C0B2FBF758FD0700002F01D5380006E064
:1059600089F8014015F0030089F800000020BDE827
:10597000F28370B504002000C0B2FFF7FBFD050004
:10598000DFF83C026DB2690100EB01066DB2002D3B
:1059900005D42000C0B2FBF7A9FDFF20707070BDD8
:1059A000F8B504002000C0B2FFF7E4FD050084480C
:1059B0006DB2690100EB01066DB2002D02D57FF0DA
:1059C000110010E03078002801D1022000E0012011
:1059D000B0702000C0B2FBF7DDFD0700002F01D53D
:1059E0000020B0703800F2BD2DE9F04784B005000A
:1059F000287AFFF7BFFD0600714876B2710100EB0F
:105A000001072C7A14F08004E4B2E409687A0028D3
:105A100002D05FF0010801E05FF00008D5F80490C3
:105A200076B2002E02D57FF011005DE002A8FCF7EF
:105A300030F9B8788DF804009DF80400012808D1E9
:105A40000320B87002A8FCF72BF9387800283FD162
:105A500015E002A8FCF724F99DF80400002809D0FD
:105A6000052802D0062802D007E002203CE07FF0A3
:105A70000F0039E07FF0120036E0012034E0B87CFE
:105A8000F97C0902081880B2002808D101210C0015
:105A900000218946012188460421B97018E0397B2C
:105AA00011F08001C9B2C9090C0080B2484501D289
:105AB00080B28146E4B2002C08D080B2814502D287
:105AC0005FF0010804E05FF0000801E00021884673
:105AD0004046C0B200904B462A682100C9B2287ADD
