:100000000000032081BF000089BF000089BF0000FD
:1000100089BF000089BF000089BF00000000000008
:1000200000000000000000000000000089660000E1
:1000300089BF000000000000316600007758000012
:1000400089BF000089BF000089BF000089BF000090
:1000500089BF000089BF000089BF000089BF000080
:1000600089BF000089BF000089BF000089BF000070
:1000700089BF000089BF000089BF000089BF000060
:1000800089BF000089BF000089BF000089BF000050
:1000900089BF000089BF000089BF000089BF000040
:1000A00089BF000089BF000089BF000089BF000030
:1000B00089BF000089BF000089BF000089BF000020
:1000C00089BF000089BF000089BF000089BF000010
:1000D00089BF000089BF000089BF000089BF000000
:1000E00089BF000089BF0000000000000000000080
:1000F000000000003DBD0000859F00008F9F0000B4
:10010000999F0000A39F000089BF000089BF0000E5
:1001100089BF000089BF00005D9F0000679F00004D
:10012000719F00007B9F000089BF000089BF000015
:1001300089BF000089BF0000359F00003F9F00007D
:10014000499F0000539F0000AD9F0000B79F000033
:10015000C19F0000CB9F000089BF000089BF000045
:1001600089BF000089BF0000D59F0000DF9F00000D
:10017000E99F0000F39F0000000000000000000065
:10018000991B0000A11B0000A91B0000B11B00006F
:100190000000000089BF000089BF000089BF000087
:1001A00089BF000089BF000089BF000089BF00002F
:1001B00089BF000089BF000089BF000089BF00001F
:1001C00089BF000089BF000089BF000089BF00000F
:1001D00089BF000089BF000089BF000089BF0000FF
:1001E00089BF000089BF000089BF000089BF0000EF
:1001F00089BF000089BF000089BF000089BF0000DF
:1002000089BF000089BF000089BF000089BF0000CE
:1002100089BF000089BF000089BF000089BF0000BE
:1002200089BF000089BF000089BF000089BF0000AE
:1002300089BF000089BF000089BF000089BF00009E
:1002400089BF000089BF000089BF000089BF00008E
:1002500089BF000089BF000089BF000089BF00007E
:1002600089BF000000B200280AD4012210F01F014B
:100270008A40DFF8BC1C00B203005B0941F8232070
:10028000704710B40300C9B2142404FB01F41C44E9
:10029000246C2000104010BC704702001369180045
:1002A0000840704790F82020110011F00101C9B2F8
:1002B000002901D0012000E00020C0B27047827800
:1002C0000A42FCD170478078084201D0012000E04A
:1002D0000020C0B2704710B40300C9B24C011C44E6
:1002E00094F8074120001040C0B210BC7047C9B25A
:1002F0004901084490F807017047C9B24B01034413
:1003000083F807217047C9B24B01034483F80521E4
:100310007047C9B24901084490F806017047C9B254
:100320004B01034483F8042170471022C9B24B01EA
:10033000034483F808217047C9B24B01034483F892
:1003400009217047C9B24B01034483F80821704763
:100350000200C9B24B01134493F80031180010F0A9
:100360000700C0B270470200C9B24B01134493F8B2
:1003700000311800C0F30210C0B27047C9B24B017F
:10038000034483F800217047C9B24901084490F83A
:1003900000017047808B70478183704701837047ED
:1003A000008B7047818270470200937818000840E4
:1003B000C0B2704710B50400207810F0FD00207026
:1003C00003212000FFF77BFF10BD70B504000D0076
:1003D00003212000FFF773FF207806002E40300035
:1003E000C0B270BD38B504000D0025700321200097
:1003F000FFF765FF31BD10B5040003212000FFF7B2
:100400005EFF207810BD02894FF6FE710A4002811E
:1004100070470181704781727047416270470200E6
:100420000020704730B45FF08244DFF86C0C007835
:1004300010F01F00DFF8601C0968C1F34412DFF8F8
:10044000581C0968C1F38221002801D01F2801D15E
:1004500009231800002A01D01F2A01D119231A00EC
:10046000002901D0072901D106231900850115F4BF
:10047000F86512F01F031D430B0313F4E0431D4303
:100480002585E37853F00303E370E37853F00C031E
:10049000E37030BC704780B503220021DFF8FC0B0D
:1004A000FFF7EFFE0328F7D101BD80B5DFF8EC0BB5
:1004B000FFF7F8FE002809D04FF41061DFF8DC0BDD
:1004C000FFF7EBFEB0F5106FF6D108E04FF4807146
:1004D000DFF8C80BFFF7E1FEB0F5807FF6D101BD74
:1004E00010B50400E4B2002C02D1FFF7DEFF04E0F7
:1004F000E4B2012C01D1FFF7CEFF10BD38B50400E6
:100500000D002A00D2B22100C9B25FF08240FFF78D
:10051000F4FE31BD38B504000D002A00D2B221002E
:10052000C9B25FF08240FFF707FF31BD38B5040064
:100530000D002A00D2B22100C9B25FF08240FFF75D
:1005400001FF31BD80B50100C9B25FF08240FFF705
:100550001BFF112801D1012000E00020C0B202BD24
:1005600070B505000E001400E4B2002C09D0102272
:10057000B240D2B22900C9B25FF08240FFF7C3FE99
:1005800008E01022B240D2B22900C9B25FF0824026
:10059000FFF7C5FE70BD10B50C005FF08242010090
:1005A000C9B21000FFF7B5FE102111FA04F4204281
:1005B00001D0012000E00020C0B210BD10B50C0039
:1005C0005FF082420100C9B21000FFF790FE2021C7
:1005D00011FA04F4204201D0012000E00020C0B252
:1005E00010BD38B504000D002021A9402000C0B284
:1005F000FFF784FF31BD70B505000E001400E4B2B2
:10060000002C06D02021B1402800C0B2FFF782FFA5
:1006100005E02021B1402800C0B2FFF787FF70BD80
:1006200010B504002100C9B25FF08240FFF77DFEE3
:1006300010BD80B501001022C9B25FF08240FFF703
:100640004AFE002801D0012000E00020C0B202BD17
:1006500010B5040010212000C0B2FFF74FFF10BDFD
:1006600070B505000E001400E4B2002C09D0012280
:10067000B240D2B22900C9B25FF08240FFF743FE18
:1006800008E00122B240D2B22900C9B25FF0824034
:10069000FFF745FE70BD38B504000D000121A940EB
:1006A0002000C0B2FFF72AFF31BD10B4DFF8883C4C
:1006B000C0B244012344C9B20C0123441A6010BCE7
:1006C000704710B4DFF8703CC0B244012344C9B293
:1006D0000C01234492B25C6862F39B345C6010BCF2
:1006E000704710B4DFF8503CC0B244012344C9B293
:1006F0000C01234492B25C6862F30D045C6010BC90
:10070000704710B4DFF8303CC0B244012344C9B292
:100710000C01234492B25C6862F30D045C6010BC6F
:10072000704710B4DFF8103CC0B244012344C9B292
:100730000C01234492B25C6862F39B345C6010BC91
:100740007047F8B504000D0016001F00320092B289
:100750002900C9B22000C0B2FFF7C3FF3A0092B22D
:100760002900C9B22000C0B2FFF7ABFFF1BDF8B558
:1007700004000D0016001F00320092B22900C9B219
:100780002000C0B2FFF7CDFF3A0092B22900C9B2F3
:100790002000C0B2FFF7B5FFF1BDDFF89C2BC0B25F
:1007A00043011A44C9B20B011A44002393727047E3
:1007B00070B505000E001400E4B2002C09D04022F0
:1007C000B240D2B22900C9B25FF08240FFF79BFD70
:1007D00008E04022B240D2B22900C9B25FF08240A4
:1007E000FFF79DFD70BD70B505000E001400E4B26A
:1007F000002C09D04022B240D2B22900C9B25FF029
:100800008240FFF78CFD08E04022B240D2B22900BE
:10081000C9B25FF08240FFF776FD70BD80B240F252
:100820000121884201DB072020E080B240F2011163
:10083000884201DB062019E080B2812801DB052017
:1008400014E080B2412801DB04200FE080B22128AF
:1008500001DB03200AE080B2112801DB022005E061
:1008600080B2092801DB012000E00020C0B27047FF
:1008700010B40200D2B2002A01D1002305E0C9B2AF
:10088000002901D0131D00E01300DFF8144BDBB288
:100890001420434304EB0300143010BC704780B5B0
:1008A00004215FF08240FFF777FDDFF8F40A00686B
:1008B000804701BD38B5002540F201215FF082403C
:1008C000FFF76AFD40F201215FF08240FFF76AFD09
:1008D00070215FF08240FFF761FD00200400E4B268
:1008E000042C13DADFF8500AE4B2610108440189EC
:1008F00011F00F01032907D10189C1F30A1189B24F
:100900000D000021018101E0641CE8E729000320BB
:10091000DFF88C2A5268904731BD80B580215FF0A6
:100920008240FFF739FD00210520DFF8742A526864
:10093000904701BD80B570215FF08240FFF72CFD2C
:1009400070215FF08240FFF72DFD40F201215FF042
:100950008240FFF723FD0020FFF7C2FD00210220A7
:10096000DFF83C2A5268904701BD80B50022002183
:100970005FF08240FFF702FD08215FF08240FFF741
:100980000BFD70215FF08240FFF70CFD40F201216A
:100990005FF08240FFF702FD00F051FC00210120D2
:1009A000DFF8FC295268904701BD80B540F2012173
:1009B0005FF08240FFF7F0FC40F201215FF08240DF
:1009C000FFF7F0FC70215FF08240FFF7E7FC0021A9
:1009D0000420DFF8CC295268904701BD38B50124C6
:1009E0005FF08240FFF7D6FC05005FF08240FFF722
:1009F000D7FC28400500680703D5FFF750FF01200A
:100A00001EE0A80502D5FFF755FF17E0280602D51E
:100A1000FFF783FF12E0280010F0700F02D0FFF7FD
:100A200089FF0BE0280702D5FFF79FFF06E0E807E4
:100A300002D5FFF7BAFF01E0002004002000C0B299
:100A400032BD2DE9F04F85B006000C005FF0824703
:100A500096F8128018F00F08DFF8DC085FFA88F8C3
:100A60005FEA481108440190E4B2002C07D00198D5
:100A7000D0F814905FEA89495FEA994901E05FF094
:100A80000009308A40F2FF31884201D1308A01E00A
:100A9000308A401E10EA0900ADF802005FF0000A3B
:100AA000F07C10F00700012801D1012500E00025AD
:100AB000E4B2002C04D001214046C0B2FFF7EBFDA8
:100AC000B06810FA89F0B060B0687168884243D2AB
:100AD0007168B068091AADF80010F07CC0F34010DE
:100AE000C0B200281CD0308ABDF80010884202D263
:100AF000308AADF80000BDF8000003903068B1689E
:100B000008440290D6F80CB0039A0299584601F0B6
:100B100053F8F26801214046C0B2FFF7C6FD12E06B
:100B2000BDF8000042F20101884203DB4FF400509F
:100B3000ADF800003068B16800EB010201214046C9
:100B4000C0B2FFF7B2FD0023BDF8002001214046EE
:100B5000C0B2FFF7F6FD3BE0F07CC0F30010C0B27E
:100B600000280BD0F07C10F0EF00F074002300227E
:100B700001214046C0B2FFF7E4FD29E0EDB2002DAF
:100B800006D04B224146C9B23800FFF7DBFB05E037
:100B90004A224146C9B23800FFF7D4FBBDF8020033
:100BA000318A88420FD1F07C10F0BF00F074B16838
:100BB000B07CDFF8EC27D2689047002820D1F07C89
:100BC00050F04000F0740021300000F05FFE17E0AC
:100BD000E4B2002C0ED1EDB2002D02D04E208246A0
:100BE00001E04A2082465246D2B24146C9B238009C
:100BF000FFF7A2FB012201214046C0B2FFF7D8FD5A
:100C000005B0BDE8F08F2DE9F04F87B007000C006C
:100C10005FF082400290BE7C16F00F06DFF8C80835
:100C2000F6B2710108440390E4B2002C09D0039895
:100C3000D0F804805FEA98385FEA88485FEA98480D
:100C400001E05FF00008E4B2002C07D00398D0F870
:100C500004905FEA89495FEA994901E05FF0000981
:100C6000388A40F2FF31884202D140F2FF3A02E076
:100C7000388AB0F1010A1AEA0900ADF80200F87CDE
:100C800010F00700012801D1012500E00025E4B2A1
:100C9000002C04D000213000C0B2FFF7FCFCF87C2F
:100CA000C0F34010C0B2002820D0786800281DD0C2
:100CB0007968B868091AADF80410BDF80200BDF8EB
:100CC0000410884203D2BDF80200059002E0BDF88E
:100CD00004000590F86806903868B96808440490E4
:100CE000059A0699049800F067FF04987868002830
:100CF0001BD1F87CC0F30010C0B2002815D0F87CDE
:100D000010F0EF00F874F87C50F02000F874FA68E6
:100D100000213000C0B2FFF7C8FC00233A8A00214E
:100D20003000C0B2FFF723FD7EE0E4B2002C0DD00E
:100D3000BDF80200398A884208D2F87C10F0EF0032
:100D4000F874B86810FA89F0B8604FE0B86810FA23
:100D500088F0B860B8687968884247D27968B8681E
:100D6000091A8B46F87CC0F34010C0B200280DD0A1
:100D7000388A594689B2884201D2388A8346FA684D
:100D800000213000C0B2FFF790FC25E0388A5946B8
:100D900089B288420ED21FFA8BFB42F201008345D2
:100DA00003DB4FF4005083460DE01AEA0B00BBEB67
:100DB000000B08E05846398A80B2884203D2F87C9A
:100DC00050F02000F8743868B96800EB0102002187
:100DD0003000C0B2FFF769FC00231FFA8BFB5A46B4
:100DE00000213000C0B2FFF7C2FC1DE0EDB2002DC3
:100DF00006D02D223100C9B20298FFF7A3FA05E010
:100E000025223100C9B20298FFF79CFAF6B2002EF3
:100E100005D1FA6800213000C0B2FFF746FC00217E
:100E2000380000F033FD1EE0E4B2002C15D1EDB225
:100E3000002D08D001213000C0B2FFF7AEFC2D20FC
:100E40008DF8000002E025208DF800009DF80020BC
:100E50003100C9B20298FFF76FFA01220021300079
:100E6000C0B2FFF7C0FC07B0BDE8F08F70B5050059
:100E7000AE7C16F00F06E87C10F00700012801D1C7
:100E8000012400E00024E4B2002C08D13000C0B2FC
:100E9000FFF7DEFB3000C0B2FFF7C2FB32E0E87CB8
:100EA000C0F38010C0B200280FD0E87C10F0BF0063
:100EB000E874002201213000C0B2FFF779FC002263
:100EC00000213000C0B2FFF78EFCE87C10F0F70084
:100ED000E87400213000C0B2FFF75FFC0121300050
:100EE000C0B2FFF75AFC6F213000C0B2FFF706FB1B
:100EF0006F213000C0B2FFF719FBA87CDFF8A01407
:100F00008968884770BD70B504000D00A67C16F096
:100F10000F0600222900C9B23000C0B2FFF76BFBF8
:100F2000A2680121A07CDFF878341B69984770BD66
:100F300000E100E02DE9F84F06000C005FF0824769
:100F400096F8128018F00F08DFF85C0A0088ADF8F8
:100F50000000DFF894055FFA88F85FEA481100EBBB
:100F60000109E4B2002C06D04146C9B23800FFF7AF
:100F7000FAF9824605E04146C9B23800FFF7E8F9C0
:100F80008246F07C10F00700012801D1012500E025
:100F90000025E4B220014844807A83465FFA8AFA49
:100FA000BAF1020F29D11BF00100002825D0E4B2CC
:100FB00020014844807A10F0FE00E4B22101494447
:100FC00088726846E4B2025D4146C9B23800FFF754
:100FD00094F96846E4B2025D4146C9B23800FFF7B1
:100FE000B1F9E4B2002C01D0012100E0002104227B
:100FF000C9B2300000F063FC4CE0CBF34000C0B25B
:10100000002831D0E4B220014844807A10F0FD007D
:10101000E4B22101494488726846E4B2025D414667
:10102000C9B23800FFF769F96846E4B2025D41468B
:10103000C9B23800FFF786F9EDB2002D2AD0F07C56
:10104000C0F38010C0B2002824D02000F17CC9B2C7
:10105000C909C0B288421DD00022F17CC9B2C909B9
:10106000300000F02CFC15E02100C9B24046C0B2AF
:10107000FFF793FB6846E4B2025D4146C9B238000F
:10108000FFF73BF96846E4B2025D4146C9B2380059
:10109000FFF758F9BDE8F18F840080000010004090
:1010A00038B504000D00E80603D52000FFF7DEFE8A
:1010B0000CE0680604D501212000FFF724FF05E0BD
:1010C000A80603D500212000FFF71DFF31BD38B56C
:1010D00004000D00680604D501212000FFF713FF6E
:1010E0001EE0280704D501212000FFF723FF17E0A9
:1010F000A80704D501212000FFF7A3FC10E0E07C45
:1011000010F0070001280BD1680704D5002120004A
:10111000FFF710FF04E0E80602D52000FFF7A6FE67
:1011200031BD38B504000D00A80604D5002120000B
:10113000FFF7E9FE1EE0680704D500212000FFF755
:10114000F9FE17E0E80704D501212000FFF75BFD59
:1011500010E0E07C10F0070001280BD1280704D52F
:1011600001212000FFF7E6FE04E0E80602D520009A
:10117000FFF77CFE31BD2DE9F84305000E005FF05E
:10118000824796F8129019F00F09280030FA09F0FA
:10119000C00730D55FFA89F95FEA4910384490F802
:1011A000070104005FFA89F95FEA4910384490F8B2
:1011B0000901804618EA0404E4B2002C1BD0F07C3C
:1011C00010F04700012805D12100C9B23000FFF717
:1011D00067FF10E0F07CC0B2C009C0B2002805D0A3
:1011E0002100C9B23000FFF772FF04E02100C9B24C
:1011F0003000FFF796FFBDE8F18370B55FF08245E0
:101200002C8CA4B2002C03D1FFF7E8FB002815D1E9
:1012100000200600F6B21B2E10DA6148F6B2142147
:1012200001FB06F1084410F11401887CFF2803D06B
:10123000A4B22000FFF79FFF761CEBE770BDF8B566
:1012400000200400E4B21B2C1DDA03215448E4B250
:10125000142202FB04F21044143000F017FBFF20AC
:101260004F49E4B2142202FB04F2114481F8260033
:1012700000204B49E4B2142202FB04F2114481F82D
:101280002700641CDEE7A02500262B4F3200290032
:10129000380000F0E5FCF1BD38B55FF0824401256F
:1012A0006846DFF8D4180A68026001212000FFF7C1
:1012B0000AF8002810D102212000FFF786F8002844
:1012C00006D02000FFF776F802212000FEF7F7FF96
:1012D00001212000FFF786F801212000FEF7EFFF33
:1012E000DFF898082E490860DFF890082C4948601C
:1012F000DFF888082A498860DFF880082849C86034
:10130000DFF8780826490861FFF799FFFFF78AF8A8
:1013100004212000FFF766F8DFF864182000FFF7CB
:101320007CF86846EDB2415D51F0010189B22000C0
:10133000FFF76FF8002032BDEC6D002038B55FF08C
:10134000824403212000FFF72FF8002802D07FF00D
:1013500010001DE02000FFF74EF80500A80705D497
:1013600055F00201C9B22000FFF73CF85020FEF70B
:1013700079FF5120FEF776FF5220FEF773FF5320CE
:10138000FEF770FF40F28D212000FFF707F80020E4
:1013900032BD80B55FF08240FFF735F801BD000037
:1013A000A864002010B5040054F08001C9B25FF0B9
:1013B0008240FFF730F810BD70B504005FF0824541
:1013C000A67C16F00F06E26800213000C0B2FFF7DD
:1013D0006CF90023228A00213000C0B2FFF7C7F960
:1013E000B0223100C9B22800FEF799FF0022002187
:1013F0003000C0B2FFF7F7F910223100C9B228005F
:10140000FEF79AFF70BD2DE9F84F06000F009046D9
:1014100016F00F0916F08004E4B2E4092100C9B205
:101420004846C0B2FFF724FA824617F00305DFF8FA
:1014300054075FFA89F90C2101FB09F100EB010B5C
:101440005FFA89F9B9F1050F02DB7FF0110049E07D
:101450009AF81200FF2802D07FF0130042E0EDB2AC
:10146000002D14D194F00101C9B24846C0B2FFF773
:10147000FFF90100887CFF2802D07FF0130031E0E3
:10148000DBF80000002802D17FF012002AE0E4B26D
:10149000002C02D0DBF8040001E0DBF8000000289B
:1014A0000ED0E4B2002C02D0BBF80A0001E0BBF879
:1014B00008001FFA88F8404502DA7FF0120011E0B8
:1014C000E4B2002C02D0DBF8040001E0DBF80000FD
:1014D000CAF80C00AAF81080681C8AF813008AF871
:1014E00012600020BDE8F28FEC6D00202DE9F04184
:1014F00004005FF0824514F00F0614F08007FFB27D
:10150000FF093900C9B23000C0B2FFF7B1F9804617
:10151000F6B2052E03DA98F81200FF2800D137E062
:1015200003223900C9B2404600F0C9F998F8130007
:1015300010F00700012806D10020E4B2610129441F
:1015400081F800011EE0200610D5E4B214F00F006F
:1015500040012844E4B214F00F014901294491F8F4
:10156000001111F08F0180F800110BE0E4B260016E
:10157000284490F8000110F0F800E4B26101294419
:1015800081F80001002088F81300FF2088F812007D
:10159000BDE8F0812DE9F04705005FF0824615F0C7
:1015A0000F0715F08004E4B2E4092100C9B2380045
:1015B000C0B2FFF75DF980463900C9B23000FEF7CE
:1015C000E3FE8246FFB2052F03DA98F81200FF28E7
:1015D00002D17FF01100B3E0DFF8A405FFB279017A
:1015E0000844814698F8130010F00700012845D1FF
:1015F0001AF0770F02D07FF01300A1E0112239001A
:10160000C9B23000FEF7BAFEB8F81000FFF706F9CD
:10161000B8F81010DFF8702512EA8132C0B2000766
:1016200010F0E0401043C9F80400B8F81000FFF7CC
:10163000F5F8B8F810108904890CC0B2000710F052
:10164000E0400843C9F81400002200213800C0B26D
:10165000FFF7C9F8002201213800C0B2FFF7A8F84F
:1016600000213800C0B2FFF798F801213800C0B25D
:10167000FFF793F84046FFF79FFE60E0E4B2002CCE
:101680002ED01AF0700F02D07FF0130058E098F8B7
:101690001300000110F0700050EA0A0A5246D2B25C
:1016A0003900C9B23000FEF769FEB8F81000FFF744
:1016B000B5F8B8F810108904890CC0B2000710F012
:1016C000E0400843C9F81400002201213800C0B2EC
:1016D000FFF76EF801213800C0B2FFF75EF82EE088
:1016E0001AF0070F02D07FF0130029E098F81300DA
:1016F00010F0070050EA0A0A5246D2B23900C9B2C5
:101700003000FEF73BFEB8F81000FFF787F8B8F896
:101710001010DFF8742412EA8132C0B2000710F012
:10172000E0401043C9F80400002200213800C0B294
:10173000FFF759F800213800C0B2FFF72EF800205B
:10174000BDE8F08710B50400A07C10F00F00C9B20E
:10175000C0B2FEF720FF10BD70B504000D00A67CDE
:1017600016F00F0601222900C9B23000C0B2FEF700
:10177000F7FE2021A9403000C0B2FEF7CBFEE07C8E
:1017800050F00800E074002070BDF8B505000E00B0
:10179000AF7C17F00F073100C9B23800C0B2FEF7B6
:1017A000FAFE0400E4B2002C01D1002039E000224E
:1017B0003100C9B23800C0B2FEF7D2FE2021B140DC
:1017C0003800C0B2FEF7B2FE3100C9B23800C0B274
:1017D000FEF7F4FE00280CD03100C9B23800C0B2C8
:1017E000FEF7FFFE00223100C9B23800C0B2FEF79A
:1017F00037FFE87C10F0070001280DD13900C9B28D
:101800005FF08240FEF785FD10F0300F08D1E87CD4
:1018100010F0F700E87403E0E87C10F0F700E874DB
:101820000020F2BD2DE9F84305000C0015F00F066D
:1018300015F08007FFB2FF093900C9B23000C0B20D
:10184000FFF716F88046F6B2052E02DB7FF0110096
:101850001AE0E4B2012C06D13900C9B24046FFF7C4
:101860007BFF81460FE0E4B2002C06D13900C9B2FB
:101870004046FFF78AFF814605E03900C9B240467D
:10188000FFF760FF81464846BDE8F28338B50400A3
:101890000D00A07CFF2805D0E07CC0F38010C0B212
:1018A000002800D10AE0E07C10F0BF00E074A268DC
:1018B0002900A07CDFF8D4321B69984731BDF8B508
:1018C00005000C001600AF7C17F00F07DFF8C00210
:1018D0000088ADF80000A87CFF2805D0E87CC0F3A4
:1018E0008010C0B2002800D121E0E4B2002C06D064
:1018F000002201213800C0B2FEF75AFF05E00022A5
:1019000000213800C0B2FEF76EFF6846E4B2015D08
:101910003800C0B2FEF7F2FD6846E4B2015D38005F
:10192000C0B2FEF703FE31002800FFF7AFFFF1BDA4
:101930002DE9F04705000C0015F00F069048F6B2AF
:10194000710100EB0107D7F80080D7F804905FEA37
:1019500089495FEA9949F6B2052E01DA002C02D1D5
:101960007FF011001EE03000C0B2FEF7EBFD002852
:1019700002D17FF0120015E03000C0B2FEF759FE30
:10198000002801D100200DE05FF0080A52464146D0
:10199000200000F011F93000C0B2FEF759FE1FFA26
:1019A00089F94846BDE8F0875E1C00002DE9F04744
:1019B00082B005002E7A16F00F062C7A14F08004FF
:1019C000E4B2E4092100C9B23000C0B2FEF750FF12
:1019D0000700388A40F2FF31884202D140F2FF38D6
:1019E00002E0388AB0F1010868681FFA88F810EA46
:1019F000080F02D05FF0010901E05FF000095FF01D
:101A0000000AF6B2052E02DB7FF011006DE02868B7
:101A1000B0F1005F10D32968686841185D488142C1
:101A20000AD2287810F0030F06D1E4B2002C0BD1B3
:101A30006868398A884207D2F868002802D17FF0A6
:101A4000120052E00120824699F001002043C0B20A
:101A5000002805D1F868002802D17FF0110044E089
:101A6000F87CC0F3C000C0B2002801D002203CE0E6
:101A7000684600F028F9F87CC0F38010C0B2002856
:101A800004D0684600F026F901202EE0F87C50F0E2
:101A90004000F874684600F01DF9286838606868EE
:101AA00078600020B860F87C10F07F0050EAC41025
:101AB000F874F87C6AF34510F874687A002802D04C
:101AC00099F0010000E00020F97C60F30411F97442
:101AD000E4B2002C04D000213800FEF7B2FF03E08E
:101AE00000213800FFF78FF80020BDE8F687F8B531
:101AF000040014F00F0514F08006F6B2F609310068
:101B0000C9B22800C0B2FEF7B3FE0700EDB2052D42
:101B100005DA02223100C9B23800FFF7D0FEF1BD6C
:101B20000A00002A01D1154A00E00A00C0B20128CB
:101B300002D1164B5A6004E0C0B2002801D1134B09
:101B40001A6070470A00002A01D10C4A00E00A001E
:101B5000C0B2002802D10D4B9A600AE0C0B2012841
:101B600002D10A4BDA6004E0C0B2022801D1074B6F
:101B70001A6170470000000078C800001F040000D0
:101B8000EC6D002044BE000000C0FF0FA8640020E0
:101B9000BA2D00000020032080B5FFF72EFB01BD09
:101BA00080B5FFF72AFB01BD80B5FFF726FB01BD1D
:101BB00080B5FFF722FB01BD62B38B0708D0521E30
:101BC00011F8013B00F8013B00F024808B07F6D1AF
:101BD000830740F0208000BF103A07D330B4B1E84B
:101BE0003810103AA0E83810F9D230BC530724BF9F
:101BF000B1E80810A0E8081044BF51F8043B40F8D1
:101C0000043BD20724BF31F8022B20F8022B44BF3B
:101C10000B7803707047121F17D35B0009D151F87E
:101C2000043B20F8023B1B0C121F20F8023BF6D2AB
:101C30000BE051F8043B00F8013B1B0A20F8023B83
:101C40001B0C121F00F8013BF3D238BF121D521EAD
:101C500024BF11F8013B00F8013BF8D87047040895
:101C600062F30F2262F31F42401810F0030308D002
:101C7000C91A1FD3DB0748BF00F8012D28BF20F881
:101C8000022D130030B414461546103928BF20E940
:101C90003C00FAD8490728BF20E90C0048BF40F8AB
:101CA000042D890028BF20F8022D48BF00F8012D1F
:101CB00030BC7047C91818BF00F8012DCB0728BFEA
:101CC00000F8012D7047EFF31081016072B6BFF389
:101CD0005F8F7047BFF35F8F016881F31088704793
:101CE000C9B2802303FB01F303449A607047C9B271
:101CF0008022514340587047C9B2802303FB01F34F
:101D000003445A607047C9B2802303FB01F30344C4
:101D10009A617047C9B280225143084400697047F4
:101D2000C9B2802303FB01F303445A617047C9B26F
:101D3000802303FB01F30344DA617047C9B28022B8
:101D400051430844006A704730B4C9B2802404FB90
:101D500001F40444D2B2144494F83040250015F044
:101D6000F00513F00F042543C9B2802404FB01F4ED
:101D70000444D2B2144484F8305030BC704730B4BC
:101D8000C9B2802404FB01F40444D2B2144494F890
:101D90003040250015F00F05DBB21C012543C9B208
:101DA000802404FB01F40444D2B2144484F830507B
:101DB00030BC704730B4C9B2802505FB01F505443D
:101DC000D2B2154495F840502C0014F0FE041C4388
:101DD000C9B2802505FB01F50544D2B2154485F84A
:101DE000404030BC704710B4C9B2802303FB01F3FC
:101DF0000344D2B21344C9B2802404FB01F4044466
:101E0000D2B2144494F8404054F0040483F84040A3
:101E100010BC704710B4C9B2802303FB01F3034424
:101E2000D2B21344C9B2802404FB01F40444D2B2F8
:101E3000144494F8404014F0FB0483F8404010BC74
:101E40007047C9B2802303FB01F303449A627047D1
:101E500070B504000D001600F6B2002E03D0022E5D
:101E600037D01BD350E02A002100C9B2DFF8A00B05
:101E7000FFF742FFAAB252F080422100C9B2DFF858
:101E8000900BFFF7DEFF2A00120C52F040422100B7
:101E9000C9B2DFF87C0BFFF7D4FF35E02A00210040
:101EA000C9B2DFF86C0BFFF727FF2A00C4F2020269
:101EB0002100C9B2DFF8580BFFF7C3FFDFF8542B3E
:101EC00052EA15422100C9B2DFF8440BFFF7B9FF0F
:101ED0001AE02A002100C9B2DFF8340BFFF700FF37
:101EE000AAB252F080422100C9B2DFF8240BFFF7FA
:101EF000A8FF2A00120C52F040422100C9B2DFF8BC
:101F0000100BFFF79EFFFFE770BD70B505000E00D8
:101F10001400E4B2002C07D032002900C9B2DFF867
:101F2000F00AFFF7F0FE06E032002900C9B2DFF840
:101F3000E00AFFF7F5FE70BD38B504000D002A0079
:101F40002100C9B2DFF8C80AFFF7F1FE31BD70B554
:101F500082B004006846FFF7B6FE2100C9B2DFF880
:101F6000B00AFFF7C4FE06002100C9B2DFF8A00ADC
:101F7000FFF7E4FEB04305002100C9B2DFF8900A84
:101F8000FFF7C8FE3040284305006846FFF7A2FE71
:101F9000280076BD70B504000D001600F6B2002EC4
:101FA00003D0022E23D009D33AE02A00D2B2210076
:101FB000C9B2DFF85C0AFFF72DFF31E00122AA4029
:101FC0002100C9B2DFF8480AFFF796FE2A00D2B214
:101FD0002100C9B2DFF8380AFFF705FF0122AA4045
:101FE0002100C9B2DFF8280AFFF78DFE18E00122B0
:101FF000AA402100C9B2DFF8180AFFF77DFE2A00C7
:10200000D2B22100C9B2DFF8080AFFF7ECFE0122C4
:10201000AA402100C9B2DFF8F809FFF781FEFFE707
:1020200070BDF8B504000D002600760914F01F07F6
:1020300015F1010F09D100233A00D2B23100C9B223
:10204000DFF8CC09FFF7B6FE21E001233A00D2B257
:102050003100C9B2DFF8B809FFF7ACFEF8070BD5BD
:102060002B00DBB23A00D2B252083100C9B2DFF81D
:10207000A009FFF784FE0AE02B00DBB23A00D2B2DF
:1020800052083100C9B2DFF88809FFF75DFEF1BDE3
:1020900038B504000D002A00D2B214F01F01200050
:1020A000C0B24009FFF776FF31BD38B504000D001E
:1020B00029002000FFF7B5FF31BD38B504000D0041
:1020C0002A00D2B2012114F01F0081402000C0B2CA
:1020D0004009FFF7BDFE31BD38B504000D002A00F0
:1020E000D2B2012114F01F0081402000C0B240098B
:1020F000FFF70BFF31BD10B50400012114F01F00E4
:1021000081402000C0B24009FFF716FF10BD10B596
:1021100004002000C0B24009FFF719FF14F01F04AB
:10212000E04010F0010010BD12B583B004000020A3
:102130008DF808005FF4803001900120009002AB20
:10214000012203A92000C0B201F01CF89DF808008C
:1021500004B010BD12B583B004000020ADF8080033
:102160005FF4803001900220009002AB012203A9AD
:102170002000C0B201F006F8BDF8080004B010BDA0
:1021800070B584B004000D0016008DF808508DF86D
:1021900009605FF48030019000200090002302224B
:1021A00002A92000C0B200F0EDFF7FBDF8B5040029
:1021B0000D0016002900C9B22000C0B2FFF7B4FF1D
:1021C000070056EA0702D2B22900C9B22000C0B205
:1021D000FFF7D6FFF1BDF8B504000D001600290089
:1021E000C9B22000C0B2FFF79FFF070037EA06021E
:1021F000D2B22900C9B22000C0B2FFF7C1FFF1BDC1
:102200002DE9F04104000D0016001F002900C9B29D
:102210002000C0B2FFF788FF804638EA060216EABF
:1022200007000243D2B22900C9B22000C0B2FFF7B2
:10223000A7FFBDE8F08110B5DFF8DC17002001F042
:102240006FFA7B217520FFF76FFFC0B20200DFF845
:10225000CC17002001F064FAE9217520FFF764FF34
:10226000C0B2C00810F001000200DFF8B41700206F
:1022700001F056FA6E217520FFF76CFF0400502123
:102280007520FFF767FFA4B240F28E614C434FF414
:102290007A7194FBF1F380B24FF4867148434FF4A6
:1022A0007A7190FBF1F2DFF87C17002001F038FA28
:1022B00054217520FFF74EFF040062217520FFF7BF
:1022C00049FFA4B240F29F214C434FF47A7194FB32
:1022D000F1F380B240F24B6148434FF47A7190FBC6
:1022E000F1F2DFF84417002001F01AFA56217520A8
:1022F000FFF730FF04005E217520FFF72BFFA4B22B
:1023000040F29F214C434FF47A7194FBF1F380B279
:1023100040F24B6148434FF47A7190FBF1F2DFF8E1
:102320000C17002001F0FCF958217520FFF712FF6F
:10233000040060217520FFF70DFFA4B240F29F2139
:102340004C434FF47A7194FBF1F380B240F24B614D
:1023500048434FF47A7190FBF1F2DFF8D416002075
:1023600001F0DEF910BD80B500217420FFF7DCFE1E
:10237000C0B20200DFF8BC16002001F0D1F9032141
:102380007420FFF7D1FEC0B20200DFF8AC160020C7
:1023900001F0C6F90F217420FFF7C6FEC0B202009B
:1023A000DFF89816002001F0BBF925217420FFF713
:1023B000BBFEC0B20200DFF88816002001F0B0F9C1
:1023C00031217420FFF7B0FEC0B20200DFF87416AE
:1023D000002001F0A5F933217420FFF7A5FEC0B25B
:1023E0000200DFF86416002001F09AF984217420BD
:1023F000FFF79AFEC0B20200DFF85016002001F08D
:102400008FF91F217520FFF78FFEC0B20200DFF8A1
:102410004016002001F084F910217420FFF784FE9B
:10242000C0B20200DFF82C16002001F079F9132168
:102430007420FFF779FEC0B20200DFF81C160020FE
:1024400001F06EF91C217420FFF76EFEC0B202008D
:10245000DFF80816002001F063F914217420FFF75B
:1024600063FEC0B20200DFF8F815002001F058F951
:1024700017217420FFF758FEC0B20200DFF8E41500
:10248000002001F04DF91D217420FFF74DFEC0B270
:102490000200DFF8D415002001F042F91821742061
:1024A000FFF742FEC0B20200DFF8C015002001F0C5
:1024B00037F91B217420FFF737FEC0B20200DFF8A6
:1024C000B015002001F02CF91E217420FFF72CFE1E
:1024D000C0B20200DFF89C15002001F021F9242190
:1024E0007420FFF721FEC0B20200DFF88C15002037
:1024F00001F016F9F5217420FFF716FEC0B20200B4
:10250000DFF87815002001F00BF90B217420FFF79C
:102510000BFEC0B20200DFF86815002001F000F9E0
:102520000C217420FFF700FEC0B20200DFF8541542
:10253000002001F0F5F80D217420FFF7F5FDC0B281
:102540000200DFF84415002001F0EAF8262174208B
:10255000FFF7EAFDC0B20200DFF83015002001F0FD
:10256000DFF827217420FFF7DFFDC0B20200DFF89B
:102570002015002001F0D4F828217420FFF7D4FDA5
:10258000C0B20200DFF80C15002001F0C9F82921C3
:102590007420FFF7C9FDC0B20200DFF8FC14002070
:1025A00001F0BEF82B217420FFF7BEFDC0B202007F
:1025B000DFF8E814002001F0B3F86E217420FFF773
:1025C000B3FDC0B20200DFF8D814002001F0A8F873
:1025D0006F217420FFF7A8FDC0B20200DFF8C41419
:1025E000002001F09DF83A217520FFF79DFDC0B253
:1025F0000200DFF8B414002001F092F83B217520AE
:10260000FFF792FDC0B20200DFF8A014002001F035
:1026100087F842217520FFF787FDC0B20200DFF87E
:102620009014002001F07CF84C217420FFF77CFD11
:10263000C0B20200DFF87C14002001F071F88121A3
:102640007420FFF771FDC0B20200DFF86C140020A7
:1026500001F066F87B217520FFF766FDC0B202002D
:10266000DFF85814002001F05BF887217520FFF790
:102670005BFDC0B20200DFF84814002001F050F802
:1026800086217520FFF750FDC0B20200DFF8341438
:10269000002001F045F890217520FFF745FDC0B2FC
:1026A0000200DFF82414002001F03AF8912175208F
:1026B000FFF73AFDC0B20200DFF81014002001F06D
:1026C0002FF892217520FFF72FFDC0B20200DFF82E
:1026D0000014002001F024F897217520FFF724FD55
:1026E000C0B20200DFF8EC13002001F019F8C42199
:1026F0007520FFF719FDC0B20200DFF8DC130020DF
:1027000001F00EF8C5217520FFF70EFDC0B20200E2
:10271000DFF8C813002001F003F8CD217520FFF782
:1027200003FDC0B20200DFF8B813002000F0F8FF8C
:10273000D0217520FFF7F8FCC0B20200DFF8A41327
:10274000002000F0EDFFD4217520FFF7EDFCC0B2B2
:102750000200DFF89413002000F0E2FFE82175206A
:10276000FFF7E2FCC0B20200DFF88013002000F0A7
:10277000D7FFE9217520FFF7D7FCC0B20200DFF8D0
:102780007013002000F0CCFFE1217520FFF7CCFC96
:10279000C0B20200DFF85C13002000F0C1FFEB21A3
:1027A0007520FFF7C1FCC0B20200DFF84C13002017
:1027B00000F0B6FFF2217520FFF7B6FCC0B20200B0
:1027C000DFF83813002000F0ABFFF3217520FFF78E
:1027D000ABFCC0B20200DFF82813002000F0A0FF1D
:1027E000F4217520FFF7A0FCC0B20200DFF814133B
:1027F000002000F095FFFB217520FFF795FCC0B28B
:102800000200DFF80413002000F08AFFFC2175208D
:10281000FFF78AFCC0B20200DFF8F012002000F0DF
:102820007FFF5FA1002000F07BFF01BD38B50024D1
:1028300001211620FFF741FC5FF0FF311620FFF762
:1028400034FC01211620FFF723FC01211720FFF79C
:1028500034FC5FF0FF311720FFF727FC0121172020
:10286000FFF716FC01214020FFF736FC4FF4FA7009
:1028700001F0D0F800214020FFF72EFC0025142D98
:102880000CDA2920FFF743FC002802D001200400C5
:1028900004E0642001F0BEF86D1CF0E74FF4167000
:1028A00001F0B8F800211620FFF7F2FB9849162036
:1028B000FFF7FBFB00211720FFF7EAFB95491720E4
:1028C000FFF7F3FB2000C0B232BD10B50400E4B244
:1028D000002C05D0042203217420FFF767FC0AE0D6
:1028E00003230F2200217420FFF78AFC0422032116
:1028F0007420FFF770FC10BD10B50400E4B2002C8A
:1029000014D0032210217420FFF750FC032214215D
:102910007420FFF74BFC032213217420FFF75BFCAC
:10292000032217217420FFF756FC09E0032210212F
:102930007420FFF750FC032214217420FFF74BFC96
:1029400010BD38B55E217520FFF704FC40F24B61E5
:1029500048434FF47A7190FBF1F460217520FFF742
:10296000F9FB40F24B6148434FF47A7190FBF1F56B
:102970002B0022006849002000F0D2FE40F6C5106E
:10298000844201D3012000E0002040F6C5118D42B1
:1029900001D3022100E000210843C0B232BD000093
:1029A0000A00000038B500240025052D0EDAFFF7D7
:1029B000C8FF0400E4B2032C02D12000C0B207E03B
:1029C0004FF47A7001F026F86D1CEEE72000C0B2DB
:1029D00032BD80B57B217520FFF7A6FBC0B264280D
:1029E00000DB6420C0B202BD80B5E9217520FFF78D
:1029F0009BFBC0B2C00810F0010002BD80B50023EF
:102A0000012210214548006801F07AFC01BD000058
:102A100000800041000002C0F0C700003CC7000079
:102A200098C700005CC0000078C0000094C000009F
:102A3000B0C00000CCC00000E8C0000004C100002D
:102A400020C100003CC1000058C1000074C100005A
:102A500090C10000ACC10000C8C10000E4C100008A
:102A600000C200001CC2000038C2000054C20000B6
:102A700070C200008CC20000A8C20000C4C20000E6
:102A8000E0C20000FCC2000018C3000034C3000014
:102A900050C300006CC3000088C30000A4C3000042
:102AA000C0C30000DCC30000F8C3000014C4000071
:102AB00030C400004CC4000068C4000084C400009E
:102AC000A0C40000BCC40000D8C40000F4C40000CE
:102AD00010C500002CC5000048C5000064C50000FA
:102AE00080C500009CC50000B8C50000D4C500002A
:102AF000F0C500000CC6000028C6000044C6000057
:102B000060C600007CC6000098C60000B4C6000085
:102B1000020016000200170020C0000048720020CA
:102B200038B505000C00E4B26400E8070BD50121BC
:102B30002520FFF7D1FA01212620FFF7CDFA012148
:102B40002420FFF7C9FAA8070BD501214520FFF77C
:102B5000C3FA01214620FFF7BFFA01212720FFF722
:102B6000BBFA4FF4FA7000F055FFE4B2002C12D01B
:102B7000E80704D514F001012520FFF7ADFAA807F6
:102B800004D514F001014520FFF7A6FAC82000F093
:102B900041FF641EE9E731BD80B5802080F31188D4
:102BA000BFF34F8FBFF36F8F02F011F902F09AF964
:102BB000F3E780B501212420FFF78EFA01212720B9
:102BC000FFF78AFAFFF7CFFBFFF735FB0020FFF78F
:102BD00093FEFFF709FF002809D1802080F31188B8
:102BE000BFF34F8FBFF36F8F02F07CF922E0FFF746
:102BF000F0FE64280EDA01212620FFF76DFA01218C
:102C00004620FFF769FA2520FFF775FA4520FFF700
:102C100072FA0FE001212520FFF75EFA012145201D
:102C2000FFF75AFA00212620FFF756FA0021462026
:102C3000FFF752FA4FF47A7000F0ECFEC4E77CB56F
:102C40005FF0FF3000905FF0FF355FF0FF300190E4
:102C50005FF0FF364FF4FA61012001F00BFB040036
:102C6000002C31D1FFF7E7FAFFF7B3FE0190FFF731
:102C7000BBFE00900198B04209D0012002F05CF93F
:102C8000042201A9C0B202F04AFA01980600009895
:102C9000A84209D0022002F04FF904226946C0B2CE
:102CA00002F03DFA00980500009800280BD00020A3
:102CB000FFF722FE802080F31188BFF34F8FBFF310
:102CC0006F8F02F00FF9C5E7E00617D50021242029
:102CD000FFF702FA00212720FFF7FEF940F6B8308F
:102CE00000F098FE00214720FFF7F6F9642000F07D
:102CF00091FE0020FFF700FEFFF74EFF600707D5AB
:102D000001212420FFF7E8F901212720FFF7E4F94A
:102D1000E0030CD5FFF75DFE0190012002F00CF9F5
:102D2000042201A9C0B202F0FAF901980600A0033A
:102D300090D5FFF759FE0090022002F0FDF8042222
:102D40006946C0B202F0EBF90098050082E710B5C1
:102D50000120FFF7D1FDFFF725FE0400FFF76BFA16
:102D6000FFF701FBE4B2032C09D00421E4B2E043F5
:102D7000C0B2FFF7D5FEE00701D4FFF70DFF002139
:102D80002420FFF7A9F900212720FFF7A5F9012149
:102D90004720FFF7A1F910BD80B5FFF747FD0028D8
:102DA00005D103210320FFF7BBFEFFF7F5FE00F07E
:102DB000A3F90020FFF789FD01BD254AC9B200EB48
:102DC0008103C3F880207047816951F4806181617B
:102DD0007047C9B2802303FB01F303445A60704774
:102DE000C9B2802303FB01F303449A617047C9B25F
:102DF000802303FB01F303445A61704730B4C9B226
:102E0000802404FB01F40444D2B2144494F830400A
:102E1000250015F0F00513F00F042543C9B28024F6
:102E200004FB01F40444D2B2144484F8305030BCA2
:102E3000704730B4C9B2802404FB01F40444D2B218
:102E4000144494F83040250015F00F05DBB21C0146
:102E50002543C9B2802404FB01F40444D2B21444D3
:102E600084F8305030BC704730B4C9B2802505FBBF
:102E700001F50544D2B2154495F840502C0014F0E9
:102E8000FE041C43C9B2802505FB01F50544D2B2FE
:102E9000154485F8404030BC704710B4C9B2802357
:102EA00003FB01F30344D2B21344C9B2802404FBF0
:102EB00001F40444D2B2144494F8404054F00404A1
:102EC00083F8404010BC704710B4C9B2802303FBA4
:102ED00001F30344D2B21344C9B2802404FB01F4C9
:102EE0000444D2B2144494F8404014F0FB0483F834
:102EF000404010BC7047C2690A42FCD17047007E56
:102F000070470176704710B50400206850F0020049
:102F1000206003212000FFF7EEFF10BD38B504004C
:102F20000D00256003212000FFF7E5FF31BD10B53E
:102F30000400606850F48020606004212000FFF7E6
:102F4000DAFF10BD10B50400606830F480206060C6
:102F500004212000FFF7CFFF10BD38B504000D009D
:102F60006068290411F440310843606004212000A6
:102F7000FFF7C1FF31BD38B504000D0065600421C5
:102F80002000FFF7B8FF31BDC160704738B50400BD
:102F90000D00656204212000FFF7ADFF31BD38B59B
:102FA00004000D00A56204212000FFF7A4FF31BD3D
:102FB00010B5040004212000FFF79DFFA06A10BD9A
:102FC00010B5040004212000FFF795FF608BC0F3CB
:102FD000011080B210BD38B504000D0065830421D6
:102FE0002000FFF788FF31BD70B504000D0016000A
:102FF000F6B2002E03D0022E1FD008D333E02A00F1
:10300000D2B22100C9B2A548FFF75EFF2BE0012232
:10301000AA402100C9B2A148FFF7DBFE2A00D2B2C4
:103020002100C9B29D48FFF738FF0122AA402100C4
:10303000C9B29A48FFF7D4FE15E00122AA40210048
:10304000C9B29648FFF7C5FE2A00D2B22100C9B224
:103050009248FFF722FF0122AA402100C9B28F48FF
:10306000FFF7C5FEFFE770BDF8B504000D002600B0
:10307000760914F01F0715F1010F08D100233A005B
:10308000D2B23100C9B28548FFF7EEFE1EE001233F
:103090003A00D2B23100C9B28048FFF7E5FEF80726
:1030A0000AD52B00DBB23A00D2B252083100C9B2C5
:1030B0007A48FFF7BEFE09E02B00DBB23A00D2B23D
:1030C00052083100C9B27548FFF798FEF1BD38B516
:1030D00004000D002A00D2B214F01F012000C0B27B
:1030E0004009FFF781FF31BD38B504000D0029000C
:1030F0002000FFF7B9FF31BD10B5694C41221821FE
:103100006848FFF75BFE432203216648FFF756FE3F
:103110006548FFF759FE00211620FFF7D8FF6349E5
:103120001620FFF7E1FF00211720FFF7D0FF6049CD
:103130001720FFF7D9FF15212000FFF7EFFE01212F
:103140002000FFF7D8FE5B492000FFF7E7FE4FF4B1
:1031500080712000FFF70FFFE5212000FFF714FF2B
:103160002000FFF7D0FE2000FFF72AFF012804D03F
:1031700010212000FFF72FFFF5E703212000FFF7C4
:10318000ECFE10BD2DE9F14F894690461E000A9DC8
:10319000DDF82CB00027DFF808A15046FFF710FF3C
:1031A000012803D010215046FFF715FF5046FFF7C6
:1031B000C9FE4FF480715046FFF7DDFE8321504673
:1031C000FFF79FFEB9F1000F28D05FFA88F8B8F139
:1031D000000F23D09DF80010490011F0FE01504669
:1031E000FFF7D4FE4046B0F10108C0B2002813D06A
:1031F0005C465046FFF783FEC00705D4641E002CD2
:10320000F7D10020070037E099F800105046FFF78B
:10321000C6FE19F10109E5E701200700002E2BD0B9
:10322000EDB2002D28D09DF80010490011F0FE01EC
:1032300051F001015046FFF7A9FE2800451EC0B21B
:10324000002817D05C465046FFF759FE800705D48A
:10325000641E002CF7D1002007000DE0EDB2002D18
:1032600002D15046FFF763FE5046FFF7A1FE3070D3
:10327000761CE2E70120070003215046FFF76DFEB0
:10328000022000F0C7FBFFB2002F03D10A49002043
:1032900000F046FA3800C0B2BDE8F28F008000416D
:1032A00000400141001C00400008004002001600E0
:1032B000020017001400200078C7000070B5040059
:1032C0000D00A06806006068711C884206D3206863
:1032D0008555701CA060E068401CE060A0686168D3
:1032E00088420DD1A2682168206902F02EF9A168F8
:1032F000884203D05FF0FF30E06001E00020A06072
:1033000070BD2DE9F04F83B00700884691461E003E
:103310000C9CC2460120050001208346CA4504D307
:10332000BAFBF9FA1BF1010BF8E7B34500D2B3463B
:103330000D98C0071AD4002C18D00D98800705D519
:10334000002E03D130208DF8000002E020208DF8FF
:103350000000002C0AD0A34508D2641E9DF800107E
:103360003800FFF7ABFFF8680028F2D5F8680028AE
:1033700030D4022E01D3761E05E0B8FBF5F00190A3
:103380000198484502D309FB05F5F2E7B8FBF5F0D3
:103390000190019805FB10880F480199415C3800A5
:1033A000FFF78CFFF868002803D4B5FBF9F5002D72
:1033B000ECD10D98C0070DD5002C0BD0002C09D0F6
:1033C000A34507D2641E20213800FFF777FFF86875
:1033D0000028F3D5BDE8F78FA8C700002DE9F04F0E
:1033E00083B006000F0090461D000C9CDDF8349061
:1033F000002F02D5D7F1000B00E0BB46012082462A
:10340000C34504DB9BFBF8FB1AF1010AF8E7AA4568
:1034100000D2AA46002C05D0002F02D45FEA4970E2
:1034200000D5641E5FEA897001D5002D10D05FEAD7
:10343000C9700DD4002C0BD0002C09D0A24507D2A6
:10344000641E20213000FFF739FFF0680028F3D513
:10345000F068002831D4002F05D57F422D2130009F
:10346000FFF72CFF06E05FEA497003D52B213000FF
:10347000FFF724FFF06800281FD419F0030002288A
:103480000FD1002D0DD1002C0BD0002C09D0A2455E
:1034900007D2641E30213000FFF710FFF0680028CB
:1034A000F3D5F068002808D4CDF8049000942B00E0
:1034B000424639003000FFF724FFBDE8F78F2DE9C1
:1034C000F14F98B08A46160007A80290402003905A
:1034D0000020049018980690002005909AF80000AB
:1034E00004001AF1010AE4B2002C00F00681E4B2F3
:1034F000252C40F0F98000200700012005009AF8F3
:1035000000000400E4B22000232815D02B280ED0A0
:103510002D2802D0302805D013E057F001071AF10A
:10352000010A10E057F002071AF1010A0BE057F008
:1035300004071AF1010A06E057F008071AF1010A18
:1035400001E000200500002DD9D1002080469AF826
:1035500000000400E4B2302C02DBE4B23A2C08DBB9
:10356000002081469AF800000400E4B22E2C1ED1FF
:1035700008E01AF1010A0A20E4B200FB0848B8F199
:103580003008E4E71AF1010A9AF800000400E4B2F6
:10359000302C02DBE4B23A2C00DB08E01AF1010A1D
:1035A0000A20E4B200FB0949B9F13009ECE79AF8C6
:1035B00000000400E4B26C2C02D0E4B2682C05D107
:1035C0001AF1010A9AF800000400F3E7E4B22000BF
:1035D000252800F08180582840D063280AD064282C
:1035E00018D0702865D073284AD0752824D0782840
:1035F00034D076E030683060306800683168091D8A
:1036000031600500280083465946C9B202A8FFF779
:1036100055FE66E030683060306800683168091D2A
:10362000316005000197CDF800804B460A22290041
:1036300002A8FFF7D3FE54E03068306030680068BD
:103640003168091D316005000197CDF800804B46B7
:103650000A22290002A8FFF754FE42E030683060D9
:10366000306800683168091D316005000197CDF8A8
:1036700000804B461022290002A8FFF742FE30E0EE
:10368000306830603068D0F800B03068001D3060BD
:103690009BF8000004001BF1010BE4B2002C07D0E2
:1036A0002100C9B202A8FFF709FE05980028EFD54E
:1036B00017E030683060306800683168091D31609B
:1036C0000500002001900820009008231022290006
:1036D00002A8FFF716FE04E0252102A8FFF7EEFD81
:1036E000FFE71AF1010A04E02100C9B202A8FFF7BE
:1036F000E5FD059800287FF5F1AE059801280BDB64
:103700000498002804D0049A07A9189801F01DFF16
:103710000599049841180591059819B0BDE8F08FF6
:103720000CB470B582B004000D0006A800906A4683
:1037300029002000FFF7C3FE0600300076BC5DF8CC
:103740000CFB04002DE9F04F85B006000F009046F9
:103750009946DDF838A0DDF83CB01FFA88F85FEA3A
:10376000880001F01DFF0500002D0BD0542001F052
:1037700017FF0400002C01D0256305E0280001F0AC
:1037800046FF01E000200400002C14D0002003902C
:103790000294CDF804B0CDF800A04B461FFA88F88B
:1037A00042463900300000F00DF8200000F078F8B3
:1037B0000120049002E05FF0FF300490049805B00F
:1037C000BDE8F08F2DE9F94F83B00D0016000E9F74
:1037D0000F9CDDF84080B0000190A5200090D8F843
:1037E00030B0009A01995846FEF73AFAD8F83000FE
:1037F00000EB8600001F82465FEADA0A5FEACA0A27
:103800001AF00700002807D0802080F31188BFF34A
:103810004F8FBFF36F8FFEE700208146B9F1080F8D
:103820000CD215F8090008EB090181F8340015F8ED
:103830000900002802D019F10109EFE7002088F8FB
:103840003B00052F01D304200700C8F82C70C8F8EE
:1038500044700020C8F8480018F1040001F0F7FE99
:1038600018F1180001F0F3FEC8F81080D7F1050038
:10387000C8F81800C8F824800020C8F84C000020C0
:1038800088F85000049A0399504601F021FFC8F8C7
:103890000000002C01D0C4F8008005B0BDE8F08F16
:1038A00010B5040001F0B1FFDFF810060068401CFD
:1038B000DFF808160860DFF80806006800280AD15B
:1038C000DFF8FC050460DFF8F4050068012811D179
:1038D00000F064FB0EE0DFF8EC050068002809D179
:1038E000E06ADFF8DC150968C96A884202D3DFF8AC
:1038F000D0050460DFF8D0050068401CDFF8C8156B
:103900000860DFF8C4050068E063DFF8C005006800
:10391000E16A884203D2E06ADFF8B0150860211D31
:10392000DFF8AC25E36A1420434302EB030001F007
:1039300091FE01F087FFDFF88C05006800280FD0AA
:10394000DFF87C050068C06AE16A884208D25FF04F
:103950008050DFF898160860BFF34F8FBFF36F8F6A
:1039600010BD2DE9F04104000D000027002C07D107
:10397000802080F31188BFF34F8FBFF36F8FFEE776
:10398000002D07D1802080F31188BFF34F8FBFF344
:103990006F8FFEE7DFF858060068002807D0802008
:1039A00080F31188BFF34F8FBFF36F8FFEE700F0F6
:1039B00091F8DFF8E40500682168691888462168F5
:1039C000884207D2216888450BD2404509D201219F
:1039D0000F0006E02168884501D3404501D201214E
:1039E0000F00C4F80080002F04D00021B8EB0000C5
:1039F00000F0A6FD00F076F80600002E08D15FF07A
:103A00008050DFF828160860BFF34F8FBFF36F8F29
:103A1000BDE8F08138B505000024002D15D0DFF891
:103A2000D0050068002807D0802080F31188BFF3FC
:103A30004F8FBFF36F8FFEE700F04CF80021280096
:103A400000F07EFD00F04EF80400002C08D15FF07D
:103A50008050DFF8D8150860BFF34F8FBFF36F8F2A
:103A600031BD1CB5DFF8280701900020009000232D
:103A70004022DFF820170FF2F940FFF763FE040041
:103A8000012C02D101F062FF0400012C16D180202C
:103A900080F31188BFF34F8FBFF36F8F5FF0FF305C
:103AA000DFF8A81708600120DFF81814086000206C
:103AB000DFF8E414086001F034FE0AE014F1010FAD
:103AC00007D1802080F31188BFF34F8FBFF36F8F32
:103AD000FEE713BDDFF818050068401CDFF810157D
:103AE0000860704770B500250026DFF804050068FF
:103AF000002807D1802080F31188BFF34F8FBFF3D8
:103B00006F8FFEE701F081FEDFF8E4040068401EDD
:103B1000DFF8DC140860DFF8D804006800285DD105
:103B2000DFF898030068002858D0DFF860060068C6
:103B300000282BD0DFF85406C068C068050015F1D6
:103B4000180001F0B0FD281D01F0ADFDDFF87C0389
:103B50000068E96A884203D2E86ADFF870130860F7
:103B6000291DDFF86C23EB6A1420434302EB0300AA
:103B700001F070FDE86ADFF848130968C96A8842F5
:103B8000D3D30120DFF870170860CEE7002D01D0F5
:103B900000F036FADFF8D8060468002C0ED000F0EA
:103BA00026F8002803D00120DFF84C170860641EB7
:103BB000002CF4D10020DFF8B8160860DFF83807D1
:103BC000006800280AD0012006005FF08050DFF86E
:103BD0005C140860BFF34F8FBFF36F8F01F032FEAC
:103BE000300070BDDFF8B0130968080070472DE998
:103BF000F0410027DFF8F803006800287CD1DFF8E7
:103C000098030468641CDFF890030460002C24D13E
:103C1000DFF8E00300680068002807D0802080F308
:103C20001188BFF34F8FBFF36F8FFEE7DFF8C40338
:103C300000688046DFF8C0030068DFF8B81308604A
:103C4000DFF8B403C0F80080DFF8B0060068401C5D
:103C5000DFF8A816086000F0D3F9DFF8F005006877
:103C600084423DD3DFF88C0300680068002805D14A
:103C70005FF0FF30DFF8D415086031E0DFF874033F
:103C80000068C068C068050068680600B44203D2D6
:103C9000DFF8B805066023E0281D01F004FDA86ADE
:103CA000002803D015F1180001F0FDFC87480068DA
:103CB000E96A884202D2E86A84490860291D844A78
:103CC000EB6A1420434302EB030001F0C3FCE86AF3
:103CD0007B490968C96A8842C4D301200700C1E74B
:103CE000774800687A49C26A1420424388580228FB
:103CF00009D30120070006E0DFF874050068401CC6
:103D0000DFF86C150860DFF8F0050068002801D0C6
:103D1000012007003800BDE8F08180B5DFF8D0024F
:103D20000068002804D00120DFF8CC15086040E0CE
:103D30000020DFF8C415086061480068006B604926
:103D400009680968884207D35D48006810F13401AA
:103D50005B48006802F049FA5C49096808005C4960
:103D6000142202FB00F2895800290BD1002807D148
:103D7000802181F31188BFF34F8FBFF36F8FFEE770
:103D8000401EECE7524A142303FB00F31A441100CF
:103D90004A6852684A604A6811F108039A4202D19F
:103DA0004A6852684A604968C968454A116047498B
:103DB000086001BD38B504000D00002C07D180203B
:103DC00080F31188BFF34F8FBFF36F8FFEE73C483E
:103DD000006810F11801200001F048FC01212800C2
:103DE00000F0AEFB31BD70B505000E001400002DD3
:103DF00007D1802080F31188BFF34F8FBFF36F8FFF
:103E0000FEE72F48006810F11801280001F022FC9D
:103E1000002C02D05FF0FF3006002100300000F0DF
:103E20008FFB70BD70B50500E868C0680400002C09
:103E300007D1802080F31188BFF34F8FBFF36F8FBE
:103E4000FEE714F1180001F02EFC69480068002814
:103E500014D1201D01F027FC1C480068E16A88424B
:103E600002D2E06A19490860211D194AE36A142048
:103E7000434302EB030001F0EDFB05E014F11801F0
:103E8000DFF8080301F0E6FB0D480068C06AE16A4C
:103E9000884206D2012006000120DFF86C15086078
:103EA00001E000200600300070BDDFF85014096802
:103EB0000160DFF8F4160968416070475C72002009
:103EC0005072002068720020787200206472002016
:103ED0000C6F00202DE9F04104000D00002C07D1EB
:103EE000802080F31188BFF34F8FBFF36F8FFEE701
:103EF000002D07D1802080F31188BFF34F8FBFF3CF
:103F00006F8FFEE701F081FC23480768D4F8048036
:103F1000B7EB0808286810F1010F02D10020060055
:103F20001CE0DFF8D80300682168884205D060688B
:103F3000874202D30120060010E02868804509D29C
:103F40002868B0EB080028602000FFF7AEFF0020D3
:103F5000060003E0002028600120060001F072FC4A
:103F60003000BDE8F0810120DFF89C140860704744
:103F700010B5040000F039F8DFF8300600680228B8
:103F8000F8D35FF08050DFF828160860BFF34F8F3A
:103F9000BFF36F8FEEE700006072002010B50020C5
:103FA0000400052C09D2DFF80406142101FB04F1FA
:103FB000084401F03DFB641CF3E7DFF8F80501F06D
:103FC00037FBDFF8F40501F033FB704801F030FBFC
:103FD0000A4801F02DFBDFF8DC0506490860DFF830
:103FE000D805DFF8D815086010BD704704ED00E073
:103FF000847200205472002058720020B471002096
:10400000DFF8C00500680068002804D15FF0FF30C9
:104010008E4A106008E0DFF8AC050068C068C06830
:1040200001004868894A10607047000004ED00E014
:10403000DFF894150968002902D10121080009E080
:10404000DFF888150968002902D10221080001E083
:1040500000210800704770B5040025000026002CE0
:1040600048D0E86ADFF858150968C96A884238D22A
:10407000A869002806D4DFF848050068C06AD0F1B6
:104080000500A8616969DFF82425EB6A1420434321
:1040900002EB030081421CD1281D01F004FBDFF874
:1040A00020050068C06AE862DFF824050068E96A54
:1040B000884203D2E86ADFF818150860291DDFF886
:1040C000EC24EB6A1420434302EB030001F0C2FA34
:1040D00004E0DFF8EC040068C06AE8620120060032
:1040E00008E0686CDFF8D8140968C96A884201D210
:1040F00001200600300070BD70B5040025000026C8
:10410000002C40D0DFF8B8040068854207D080203A
:1041100080F31188BFF34F8FBFF36F8FFEE7A86C5A
:10412000002807D1802080F31188BFF34F8FBFF3A1
:104130006F8FFEE7A86C401EA864E86A696C88422D
:1041400021D0A86C00281ED1281D01F0ACFA686CA3
:10415000E862E86AD0F10500A861DFF8740400683D
:10416000E96A884203D2E86ADFF864140860291D0E
:10417000DFF83824EB6A1420434302EB030001F01C
:1041800069FA01200600300070BD0000A071002017
:104190008072002068C800002DE9F84304000D007B
:1041A00026005FF00109002C4ED0B06C002807D12A
:1041B000802080F31188BFF34F8FBFF36F8FFEE72E
:1041C000706CA84201D2A84601E0706C8046F06A8B
:1041D000404539D0B06C484536D1DFF8E40300687B
:1041E000864207D1802080F31188BFF34F8FBFF341
:1041F0006F8FFEE7F06A0700C6F82C80B0690028D0
:1042000002D4D8F10500B0617069DFF8A013142260
:1042100002FB07F21144884216D1301D01F043FA27
:10422000DFF8AC030068F16A884203D2F06ADFF875
:10423000A0130860311DDFF87423F36A1420434390
:1042400002EB030001F006FABDE8F1837C72002066
:10425000DFF86C030068002805D0DFF8640300680D
:10426000816C491C8164DFF85803006870470000C6
:104270006C72002070B504000D0001F0C6FADFF882
:1042800040030068C06C002814D10120DFF830130F
:10429000096881F85000002D0CD00121280000F0A1
:1042A0004FF95FF08050DFF808130860BFF34F8FBD
:1042B000BFF36F8F01F0C6FA01F0A7FADFF8000331
:1042C0000068C06C0600002E0CD0002C05D0002029
:1042D000DFF8EC120968C86404E0701EDFF8E01231
:1042E0000968C8640020DFF8D812096881F8500016
:1042F00001F0A8FA300070BD7072002074720020C6
:104300002DE9F04704000E0017001D005FF00109C1
:10431000002C07D1802080F31188BFF34F8FBFF3AB
:104320006F8FFEE7A04601F070FA002D02D0D8F89A
:104330004C00286098F850008246022088F850000F
:10434000FFB2002F20D0022F0AD003D3042F10D0A9
:104350000CD319E0D8F84C003043C8F84C0013E0F7
:10436000D8F84C00401CC8F84C000DE0C8F84C6070
:104370000AE05FFA8AFABAF1020F02D0C8F84C607C
:1043800001E000208146FFE75FFA8AFABAF1010FE7
:1043900035D118F1040001F086F9DFF83402006825
:1043A000D8F82C10884204D2D8F82C00DFF820125C
:1043B000086018F104017D4AD8F82C3014204343DA
:1043C00002EB030001F046F9D8F82800002807D0D6
:1043D000802080F31188BFF34F8FBFF36F8FFEE70C
:1043E00077480068C06AD8F82C10884207D25FF07E
:1043F00080506F490860BFF34F8FBFF36F8F01F09C
:1044000021FA4846BDE8F087707200202DE9F84F88
:1044100004000F0090461D000A9E5FF0010A002C68
:1044200007D1802080F31188BFF34F8FBFF36F8FC8
:10443000FEE701F035FAA146EFF3118083468020B4
:1044400080F31188BFF34F8FBFF36F8F002D02D021
:10445000D9F84C00286099F850008DF8000002202F
:1044600089F850005FFA88F8B8F1000F21D0B8F150
:10447000020F0BD004D3B8F1040F10D00CD318E006
:10448000D9F84C003843C9F84C0012E0D9F84C0078
:10449000401CC9F84C000CE0C9F84C7009E09DF8CC
:1044A0000000022802D0C9F84C7001E000208246CA
:1044B000FFE79DF8000001283DD1D9F82800002829
:1044C00007D0802080F31188BFF34F8FBFF36F8F29
:1044D000FEE73E480068002819D119F1040001F0F8
:1044E000E2F83B480068D9F82C10884203D2D9F88A
:1044F0002C003749086019F104012C4AD9F82C30F6
:104500001420434302EB030001F0A4F804E019F186
:104510001801304801F09EF829480068C06AD9F8AF
:104520002C10884207D2002E02D00120306002E019
:104530000120294908608BF311885046BDE8F28FAD
:10454000F8B505000C00184807681D480068001DF4
:1045500001F0A9F815F1010F08D1002C06D0184878
:104560000068011D1D4801F075F81BE0E819060000
:10457000134800684660BE4207D211480068011D1A
:104580000E48006801F072F80CE00D480068011D4B
:104590000C48006801F06AF811480068864201D2B0
:1045A0000F480660F1BD0000607200200C6F002013
:1045B00004ED00E0787100208C710020587200201A
:1045C0005072002054720020687200208472002013
:1045D00064720020A071002070720020B47100206D
:1045E0007C72002000B200280AD4012210F01F01C2
:1045F0008A40DFF8841800B203005B0941F82320E9
:10460000704700B200280ED4012210F01F018A402A
:10461000DFF8681800B203005B0941F82320BFF3FC
:104620004F8FBFF36F8F704700B200280AD401226A
:1046300010F01F018A40DFF8481800B203005B0940
:1046400041F82320704710B400B2002805D44A0175
:10465000DFF8303800B21A5408E04A01DFF8283891
:1046600000B210F00F04234403F8042C10BC704770
:10467000DFF81828126800B202EB80031964704753
:1046800042680A42FCD170474069704741617047F7
:1046900001617047C160704710B50400207850F088
:1046A0000200207003212000FFF7EAFF10BD70B563
:1046B00004000D002078060016F0EF0656EA0516F5
:1046C000267003212000FFF7DBFF70BD38B5040022
:1046D0000D00257003212000FFF7D2FF31BDC9B2C4
:1046E00000EB8103DA6170470163704741637047F3
:1046F00042680A42FCD1704770B504000D001600F4
:10470000EDB204EB8500066243F6FD712000FFF771
:10471000EFFF70BDC9B200EB8103C3F88020704782
:10472000416951F4806141617047028813004FF67E
:104730003F72134089B28A0112F0C0021343038012
:104740007047028889B20B0213F470631A43028027
:10475000704701747047818270470100CA69100078
:10476000C0F305207047C1617047C9B2142303FB31
:1047700001F30344DB6B1342F7D1704770B50400BB
:104780000D001600EDB2142000FB05F0204480F867
:10479000306002222900C9B22000FFF7E6FF70BD99
:1047A000C9B200EB81035A61704701777047807985
:1047B000704701727047C9B2802303FB01F30344C1
:1047C0009A607047C9B28022514340587047C9B2BD
:1047D000802303FB01F303445A607047C9B280236E
:1047E00003FB01F303449A617047C9B2802251432D
:1047F000084400697047C9B2802303FB01F30344F6
:104800005A617047C9B2802251430844006A704718
:1048100030B4C9B2802404FB01F40444D2B214447D
:1048200094F83040250015F0F00513F00F042543EF
:10483000C9B2802404FB01F40444D2B2144484F8C5
:10484000305030BC704730B4C9B2802404FB01F44E
:104850000444D2B2144494F83040250015F00F05FA
:10486000DBB21C012543C9B2802404FB01F40444DB
:10487000D2B2144484F8305030BC704730B4C9B25E
:10488000802505FB01F50544D2B2154495F840504A
:104890002C0014F0FE041C43C9B2802505FB01F571
:1048A0000544D2B2154485F8404030BC704710B47E
:1048B000C9B2802303FB01F30344D2B21344C9B24B
:1048C000802404FB01F40444D2B2144494F8404020
:1048D00054F0040483F8404010BC704710B4C9B2CF
:1048E000802303FB01F30344D2B21344C9B28024F2
:1048F00004FB01F40444D2B2144494F8404014F090
:10490000FB0483F8404010BC7047C9B2802303FB0E
:1049100001F303449A627047C9B200EB8103C3F804
:1049200080207047C9B200EB8100D0F8800070474A
:10493000016931F002010161704770B504000D009A
:104940001600F6B2002E03D0022E37D01BD350E053
:104950002A002100C9B2DFF83805FFF738FFAAB2F4
:1049600052F080422100C9B2DFF82405FFF7CDFFE5
:104970002A00120C52F040422100C9B2DFF81005A3
:10498000FFF7C3FF35E02A002100C9B2DFF80005B8
:10499000FFF71DFF2A00C4F202022100C9B2DFF8AE
:1049A000F004FFF7B2FFDFF8EC2452EA15422100D1
:1049B000C9B2DFF8DC04FFF7A8FF1AE02A002100E3
:1049C000C9B2DFF8CC04FFF7F6FEAAB252F080427B
:1049D0002100C9B2DFF8B804FFF797FF2A00120CD4
:1049E00052F040422100C9B2DFF8A404FFF78DFF66
:1049F000FFE770BD70B505000E001400E4B2002C96
:104A000007D032002900C9B2DFF88404FFF7E6FEC0
:104A100006E032002900C9B2DFF87404FFF7EBFEAC
:104A200070BD70B582B004006846FDF74CF92100F6
:104A3000C9B2DFF85C04FFF7C5FE06002100C9B269
:104A4000DFF84C04FFF7DEFEB04305002100C9B2D9
:104A5000DFF83C04FFF7C9FE3040284305006846F4
:104A6000FDF738F9280076BD70B504000D0016007A
:104A7000F6B2002E03D0022E23D009D33AE02A004A
:104A8000D2B22100C9B2DFF80804FFF727FF31E0F6
:104A90000122AA402100C9B2DFF8F403FFF797FE14
:104AA0002A00D2B22100C9B2DFF8E403FFF7FFFE0B
:104AB0000122AA402100C9B2DFF8D403FFF78EFE1D
:104AC00018E00122AA402100C9B2DFF8C403FFF7B1
:104AD0007EFE2A00D2B22100C9B2DFF8B403FFF78C
:104AE000E6FE0122AA402100C9B2DFF8A403FFF7C5
:104AF00082FEFFE770BDF8B504000D0026007609C0
:104B000014F01F0715F1010F09D100233A00D2B2AA
:104B10003100C9B2DFF87803FFF7B0FE1EE00123D1
:104B20003A00D2B23100C9B2D948FFF7A7FEF80760
:104B30000AD52B00DBB23A00D2B252083100C9B21A
:104B4000D348FFF780FE09E02B00DBB23A00D2B277
:104B500052083100C9B2CE48FFF75AFEF1BD38B550
:104B600004000D002A00D2B214F01F012000C0B2D0
:104B70004009FFF779FF31BD38B504000D00290069
:104B80002000FFF7B8FF31BD38B504000D002A0042
:104B9000D2B2012114F01F0081402000C0B24009B0
:104BA000FFF7CBFE31BD38B504000D002A00D2B2AC
:104BB000012114F01F0081402000C0B24009FFF71E
:104BC00019FF31BD10B504002000C0B24009FFF745
:104BD00028FF14F01F04E04010F0010010BD38B5AC
:104BE000AD4C2000FFF7B9FD0500ADB2290211F46C
:104BF0007C512000FFF7B7FD00212000FFF7A9FD41
:104C000000212000FFF7A7FD31BD80B54FF482726F
:104C10000021A248FFF770FD002201219F48FFF705
:104C20006BFD002202219D48FFF766FD0022032153
:104C30009A48FFF761FD002204219848FFF75CFDC8
:104C4000002205219548FFF757FD002206219348D1
:104C5000FFF752FD002207219048FFF74DFD00228B
:104C600008218E48FFF748FD002209218B48FFF7F5
:104C700043FD00220A218948FFF73EFD00220B2157
:104C80008648FFF739FD01BD10B5854C0021200095
:104C9000FFF78BFD002200212000FFF76FFD0022AF
:104CA00001212000FFF76AFD002200212000FFF70C
:104CB00077FD002201212000FFF772FD10BD80B5B5
:104CC00001212420FFF76FFF02212420FFF75CFF62
:104CD0005FF0FF312420FFF74FFF01212720FFF76E
:104CE00062FF02212720FFF74FFF5FF0FF312720EF
:104CF000FFF742FF00214220FFF755FF022142202B
:104D0000FFF742FF5FF0FF314220FFF735FF01BDA3
:104D100010B56448FFF7B8FC040021006148FFF7B4
:104D2000B5FC21005F48FFF7B5FC10BD80B501213F
:104D30004120FFF729FF01214120FFF710FF5FF419
:104D400082014120FFF718FF402204215348FFF75A
:104D5000E1FC5548FFF7E4FC01215248FFF7B6FC9F
:104D600001215048FFF7A3FC02214E48FFF7BCFC8D
:104D70004E494C48FFF7BAFCA02200214948FFF7F2
:104D8000AEFC4848FFF788FC0D20FFF73AFC0D20E9
:104D9000FFF74AFC04210D20FFF755FC44490D2084
:104DA000FFF766FC0D20FFF71DFC02213D48FFF7D1
:104DB0006FFC01BD80B500213E48FFF7B3FD3E49C1
:104DC000884201D1012000E00020C0B202BD80B5C0
:104DD000394A00213748FFF79FFD01BD80B5FFF735
:104DE000FEFEFFF712FFFFF74FFF3448FFF7A0FD6D
:104DF00001213348FFF7DDFC01213248FFF795FC24
:104E000000213048FFF79DFC2D48FFF7D0FC00281B
:104E1000FAD0FFF754FFFFF789FF042001F0C0FB31
:104E200002212048FFF734FC00F060F845F25651AB
:104E3000002000F063F84120FFF7C4FE0028EFD106
:104E400000212420FFF7AFFE00212720FFF7ABFE53
:104E50004120FFF7B7FE002805D140F24541002070
:104E600000F04CF8F4E7002200211248FFF754FD4F
:104E700000F038F8D4E7000000E100E080E100E055
:104E800080E200E000E400E018ED00E008ED00E062
:104E900000800041000002C000140040001C0040DF
:104EA0000010004000280040000800400F000100F2
:104EB000114D000000240040AA55AA5500180040DA
:104EC0000004004000400041BFF34F8F09480168D3
:104ED00011F4E0610848014306480160BFF34F8FB9
:104EE00000BFFDE780B5FFF7EFFF01BDBFF34F8FB8
:104EF00030BF70470CED00E00400FA05491EFDD8F4
:104F00007047000070B54FF48074FF25DFF824640B
:104F10002A0021003000FCF7A3FE0020C0B23B288D
:104F200009DADFF81414C0B2095CDFF80824C9B24A
:104F30005054401CF2E770BDC0B2FF2804D0DFF827
:104F4000F413C0B2085C00E0FF20C0B27047C0B2EA
:104F50003B2804DADFF8E013C0B2085C00E0FF2071
:104F6000C0B2704710B4030000201C000A00511E9C
:104F7000002A03D022781018641CF7E7C0B210BCD6
:104F80007047DFF8B803DFF8B413DFF8B42311601B
:104F9000012176290FD2DFF8A423402303FB01F37C
:104FA0001A440260DFF89423402303FB01F31A4400
:104FB0001000491CEDE700210160704710B500F0BA
:104FC00024FCDFF87C030468002C03D02068DFF8A1
:104FD0007013086000F036FC200010BD10B504000E
:104FE000002C0AD000F011FCDFF8540300682060A8
:104FF000DFF84C03046000F025FC10BD80B5FFF71E
:10500000C0FFFFF77FFF01BD38B500F0FEFB0024B5
:105010003B2C14DACB4800EBC4052868002802D0EA
:105020002868FFF7DBFF6868002802D06868FFF790
:10503000D5FF0020286000206860641CE8E700F0CD
:1050400001FC31BD70B505000C000026EDB23B2D12
:105050001DDA00F0DAFBE4B2002C0AD0B948EDB258
:1050600050F8350006000020B649EDB241F8350091
:105070000BE0B448EDB200EBC5004068060000202C
:10508000B049EDB201EBC501486000F0DBFB300038
:1050900070BDF8B505000C001600EDB23B2D3CDAF2
:1050A00000F0B3FBA748EDB200EBC507E4B2002C5B
:1050B00007D03868002802D03868FFF78FFF3E60BD
:1050C00027E07868002802D07868FFF787FF7E60C5
:1050D000786800281DD04AF6552030802800C0B2DC
:1050E000FFF735FFB070F0783B2801D2F07800E090
:1050F0003B20F070F178891CB01CFFF733FFF1788A
:10510000314408710023012201218F480068FFF714
:10511000F7F800F097FB012000E00020F2BD2DE938
:10512000F04705000E0017000024FFF747FF8046F8
:1051300000281DD0FFB23B2F01D2380000E03B20F9
:1051400088F8030098F8039018F1040A4A463100E1
:105150005046FCF731FD424600212800C0B2FFF75F
:1051600098FF0400E4B2002C02D14046FFF736FF5E
:105170002000C0B2BDE8F0872DE9F04104000D0029
:1051800016005FF0000828783B2190FBF1F201FB4C
:1051900012002870F6B23B2096FBF0F100FB11667E
:1051A00028783100C9B2884203D2F6B22F78F71BB3
:1051B00004E02878D0F13B0050FA86F700F025FB98
:1051C0003800471E002833D0E4B2002C10D05D48D0
:1051D000297850F8310000280AD05A48297850F828
:1051E00031008046002057492A7841F832001FE0FC
:1051F000E4B2002C13D15348297800EBC100406879
:1052000000280CD04F48297800EBC1004068804648
:1052100000204C492A7801EBC201486008E0287858
:10522000401C3B2190FBF1F201FB12002870C7E704
:1052300000F008FB4046BDE8F0812DE9F04182B066
:1052400004000025A678F6B23609A77817F00F07F4
:10525000A078FFF771FE8046F6B23000002806D035
:10526000401E042845D9401F04284AD95EE0FFB2F9
:10527000002F05D0022F21D012D3032F2CD037E0DE
:105280002000FFF7ABFE684630490A68026004223E
:1052900069464046C0B2FFF742FF0120050027E003
:1052A0002000FFF79BFE002301225FF48031284895
:1052B0000068FFF725F80120050019E02000FFF73E
:1052C0008DFE002301225FF4003121480068FFF7C2
:1052D00017F8012005000BE02000FFF77FFE0023F8
:1052E000012210211A480068FFF70AF80120050082
:1052F0001CE0220001214046C0B2FFF7CAFE0500B3
:1053000014E0220001214046C0B2FFF7C2FE0500B2
:10531000C0B200280AD00F48F6B200EB860050F861
:10532000180C002301222021FEF7EAFF2800C0B25A
:10533000BDE8F681686B002080BE00002843002095
:105340009C720020D86600204472002084C80000AF
:10535000487200206471002010B5DFF830020400AC
:105360000320206103206061DFF82402A061DFF8E0
:105370002402E0614FF4806020620020A0620020DF
:1053800060620020E062DFF808022066DFF80802B1
:1053900060668020A066002020670020E066002074
:1053A000606748A1E01D01F01DF9DFF8F011200051
:1053B00001F018F92020A07110BD2DE9F84F05006B
:1053C0000E00140000200700E86881462869804626
:1053D000C14504D2B8EB0900401E824606E0A86829
:1053E000B0EB090018EB0000401E8246A868B0EB45
:1053F0000900824503D3D5F808A0BAEB090AA245F3
:1054000000D3A2460096686800EB090B524600994B
:105410005846FCF7D1FB1AEB07075644B4EB0A04D5
:105420001AEB0909A868814501D100208146C5F819
:105430000C90002CCAD13800BDE8F28F2DE9F84F4E
:1054400004000D001600E0680700A068C01B80463D
:1054500046450AD2606800EB070932002900484639
:10546000FCF7AAFBF019E06017E0C346D846606875
:1054700000EB0709424629004846FCF79DFBB6EBC6
:105480000800834605EB0809D4F804A05A464946AB
:105490005046FCF791FBC4F80CB0BDE8F18F10B496
:1054A00001000C692200CC682300934205D38C686C
:1054B000641EE41A1419200002E0D41A641E2000AD
:1054C00010BC7047525454002DE9F04704000D0001
:1054D0001600A946DFF8B400182101FB04F10844C6
:1054E00018308246DAF81400002803D0022820D0B1
:1054F00010D325E05046FFF7D2FF8046B04502D2D8
:105500000020070005E03700320049465046FFF70B
:1055100095FF17E05046FFF7C2FF8046B04501D225
:10552000474600E037003A0049465046FFF786FFFD
:1055300008E0320049465046FFF73FFF070001E010
:10554000002007003800BDE8F0872DE9F041040095
:105550000D001600DFF834000078002801D1FFF7B5
:10556000FBFEEFF31188202080F311883200290020
:105570002000FFF7A9FF070088F311883800BDE875
:10558000F08180B5FFF7E8FE01BD0000446D00200A
:10559000FCC70000A86000208C6E002058C80000E6
:1055A00038B50500002415F0070F04D015F10800E8
:1055B00015F00705451BFEF78DFA1A48006800280C
:1055C00004D11948C008C00016490860174800688F
:1055D000281843F6F871884211D21448006813491C
:1055E0000968691888420AD20E4800680F4909689C
:1055F000084404000D48006828180C490860FEF7AC
:1056000071FA002C01D100F0FDFD200032BD002810
:1056100007D0802181F31188BFF34F8FBFF36F8FC5
:10562000FEE770473C7200203003002038720020F3
:1056300010F1080141605FF0FF31816010F1080155
:10564000C16010F108010161002101607047002173
:105650000161704742684A6093688B609368596043
:105660009160086103685B1C0360704710B40B68AD
:1056700013F1010F02D10469220008E010F10804BF
:10568000220054682468A34201D35268F9E75468A1
:105690004C604C68A1608A60516008610468641CB9
:1056A000046010BC7047010008698A684B689A6002
:1056B0004A688B685A6042688A4201D18A684260AF
:1056C00000220A610268521E0260006870470000F2
:1056D000001F5FF080730360001F4B085B000360D6
:1056E000001F0FF21503036014380260001F7FF0E3
:1056F00002030360203870477D48006810F1010FF5
:1057000007D0802080F31188BFF34F8FBFF36F8FD6
:10571000FEE7802080F31188BFF34F8FBFF36F8FB8
:10572000FEE700B583B0734800687349884207D12B
:10573000802080F31188BFF34F8FBFF36F8FFEE798
:105740006C4800686D49884207D1802080F3118839
:10575000BFF34F8FBFF36F8FFEE769480178019168
:10576000FF21017001788DF800109DF8001011F0F4
:105770008001644A11700721634A11609DF800108E
:1057800009060AD560490968491E5F4A11609DF8FB
:10579000001049008DF80010F0E75B490968D1F16D
:1057A0000701032907D0802181F31188BFF34F8FB0
:1057B000BFF36F8FFEE7544909680902524A11602E
:1057C0005149096811F4E0614F4A11600199017073
:1057D0004E48006850F460004C4908604B4800682F
:1057E00050F060404949086000F09AF800204049B4
:1057F000086000F067FF4648006850F040404449A8
:10580000086000F04FFF00200EBD802080F311885B
:10581000BFF34F8FBFF36F8F35480068401C34498A
:1058200008603348006801280BD13A480068000638
:1058300007D0802080F31188BFF34F8FBFF36F8FA5
:10584000FEE770472A480068002807D1802080F3CF
:105850001188BFF34F8FBFF36F8FFEE724480068B6
:10586000401E2349086022480068002802D1002019
:1058700080F31188704780B5802080F31188BFF3D2
:105880004F8FBFF36F8FFEF7B2F9002803D05FF0A0
:10589000805020490860002080F3118801BD00007D
:1058A000EFF305821000102811D31B4A1268125C16
:1058B00011000A00134B1B78D2B29A4207D2802201
:1058C00082F31188BFF34F8FBFF36F8FFEE70E4A4D
:1058D0001268124B1B6813F4E0639A4207D28022CD
:1058E00082F31188BFF34F8FBFF36F8FFEE77047CE
:1058F0007402002000ED00E071C20F4170C20F4140
:1059000000E400E0A07200204C72002020ED00E0D6
:1059100034EF00E004ED00E07CC800000CED00E096
:10592000002006490860002005490860054806492E
:105930000860072001490860704700BF10E000E0E0
:1059400018E000E0BCD4010014E000E01CB5002425
:1059500000F022FADFF87C04006800280DD0DFF8A0
:10596000780401900420009000234022DFF86C149A
:105970000FF27D10FDF7E6FE0400002C07D1802019
:1059800080F31188BFF34F8FBFF36F8FFEE72000C6
:1059900016BD2DE9F04383B005000E0017009846B0
:1059A000DDF828902C20FFF7FBFD0400002C08D028
:1059B0000194CDF8009043463A003100280000F0F1
:1059C00003F82000BDE8FE832DE9F84306000D0032
:1059D00017009846DDF82090099C002D07D1802003
:1059E00080F31188BFF34F8FBFF36F8FFEE7002C5A
:1059F0000BD000F0D1F92660A561E761C4F82080E2
:105A0000C4F82490201DFFF722FEBDE8F1832DE9A4
:105A1000FE4304000D0016001F00DDF828805FF033
:105A20000009002C07D1802080F31188BFF34F8F2D
:105A3000BFF36F8FFEE7DFF89C030068002825D0D6
:105A4000009501960294062D17DAFEF7F1FA022866
:105A500009D1002342466946DFF87803006800F068
:105A6000D5FE814612E0002300226946DFF8640378
:105A7000006800F0CBFE814608E000233A0069464A
:105A8000DFF85003006800F0A8FF81464846BDE8F3
:105A9000FE83F8B505000E00DFF844030068C06817
:105AA000C768381DFFF7FFFDF86901281BD12B00DF
:105AB0003200B9694919380000F08AF8002812D07C
:105AC0000020009000232A0000213800FFF79FFFEC
:105AD0000400002C07D1802080F31188BFF34F8F82
